800500300310012 00280 1117031ECHA RD 29          0170042SEINE/MAR           0280611BOUTTENCOURT        0270355011554011554          00000000000796      011612         008400   008450   009733   011871   011629   013062   014894   016658   012983   010214   009671                        110116041         100113391         090097131         080107251         070108301 2657    008410   009353   009629   012151   012609   013493   014724   016576   012205   011068   009531   009314                                      
800500300210012 00280 1117031ECHA RD 29          0170042SEINE/MAR           0280611BOUTTENCOURT        0270355011554011554          00000000000796      005823         004210   004215   004802   005879   005789   006455   007018   008579   006819   005239   004972                        110058391         100057391         090048621         080054871         070055081 2707    004281   004706   004862   005934   006132   006878   007102   008690   006382   005659   004763   004593                                      
800500300110012 00280 1117031ECHA RD 29          0170042SEINE/MAR           0280611BOUTTENCOURT        0270355011554011554          00000000000796      005789         004190   004235   004931   005992   005840   006607   007876   008079   006164   004975   004699                        110057651         100056001         090048511         080052381         070053221 2547    004129   004647   004767   006217   006477   006615   007622   007886   005823   005409   004768   004721                                      
800500200310012 00280 1117031ECHA RD928          0100360ECHA RD 29          0170042BEHEN               0100641006690006690          00000000000796      011877         009066   009155   010337   012467   012393   014011   015454   015752   013094   010889   010313   009486               110123451         100117771         090115641         080113891         070114931    0    009239   010158   010410   013142   012090   014071   016280   017221   013507   011804   010164   009891                                      
800500200210012 00280 1117031ECHA  RD928HEN      0100360ECHA  RD 29         0170042BEHEN               0100641006690006690          00000000000796      005967         004677   004640   005213   006252   006231   006975   007320   007606   006801   005618   005359   004868               110062771         100057201         090058791         080059441         070058721    0    004739   005167   005306   006581   005963   007152   007885   009054   007082   006084   005206   005025                                      
800500200110012 00280 1117031ECHA RD928HEN       0100360ECHA  RD 29         0170042BEHEN               0100641006690006690          00000000000796      005910         004389   004515   005124   006215   006162   007036   008134   008146   006293   005271   004954   004618               110060681         100060571         090056851         080054451         070056211         004500   004991   005104   006561   006127   006919   008395   008167   006425   005720   004958   004866                                      
800500101310012 00280 1817031ECHA RD925          0040245ECHA RD928          0100360MONT CAUBERT        0070006006095006095800500200300000000000202      012049                                                                                                                                 110125238         100119528         090117328         080115538         070119288    0                                                                                                                                                   
800500101210012 00280 1817031ECHA RD925          0040245ECHA RD928          0100360MONT CAUBERT        0070006006095006095800500200200000000000202      006001                                                                                                                                 110063138         100057538         090059138         080059798         070061738    0                                                                                                                                                   
800500101110012 00280 1817031ECHA RD925          0040245ECHA RD928          0100360MONT CAUBERT        0070006006095006095800500200100000000000202      006048                                                                                                                                 110062108         100061998         090058198         080055748         070057558                                                                                                                                                        
800500100310012 00280 1117031ECHA  RD 40         0010695ECHA  RD925         0040245ABBEVILLE           0020650002543002543800500200100000000001291      014117 2448    011112   011361   012760   014540   014144   015933   017890   019336   016213   013382   011471   011147               110146511 2707    100148301 2308    090147041 2198    080145111 2278    070138941         010802   011557   011828   015831   015303   017611   019937   019487   014928   014021   012253   012021                                      
800500100210012 00280 1117031ECHA RD40           0010695ECHA  RD925         0040245ABBEVILLE           0020650002543002543800500200100000000001291      007308 2458    005552   005775   006498   007680   007230   008454   009345   010219   008291   006972   005779   005840               110070031 2767    100072641 2378    090072821 2258    080071871 2338    070068301 2378    005092   005441   005691   007567   007489   008706   009395   009423   006952   006538   005799   005830                                      
800500100110012 00280 1117031ECHA RD 40          0010695ECHA RD925          0040245ABBEVILLE           0020650002543002543800500200100000000001291      006809 2418    005560   005586   006262   006860   006914   007479   008545   009117   007922   006410   005692   005307               110076481 2577    100075661 2168    090074221 2078    080073241 2178    070070641         005710   006116   006137   008264   007814   008905   010542   010064   007976   007483   006454   006191                                      
800500000310012 00280 1817031RN1                 0000000ECHA RD 40          0010695GR-LAVIERS          0010000001932001932800500100300000000000796      014037                                                                                                                                 110146058         100147738         090146448         080144538         070138438                                                                                                                                                        
800500000210012 00280 1817031RN1                 0000000ECHA RD 40          0010695GR-LAVIERS          0010000001932001932800500100200000000000796      007049                                                                                                                                 110067558         100070078         090070258         080069348         070065908                                                                                                                                                        
800500000110012 00280 1817031RN 1                0000000ECHA RD 40          0010695GR-LAVIERS          0010000001932001932800500100100000000000796      006988                                                                                                                                 110078508         100077668         090076198         080075198         070072538                                                                                                                                                        
760510010310012 03380 4140201petit quevilly      0050000petit quevilly      0070940le petit quevilly   0060500002940002940800500100176000000010600      075532         068303   075763   079660   075815   076990   081813   069527   064538   074811   080059   081389   078114               110000001    0    100383511    7    090000001    0    080000001    0    070530081    0                                                                                                                                                   
760510010210012 03380 4140201petit quevilly      0050000petit quevilly      0070940le petit quevilly   0060500002940002940800500100176000000010600      040225         039949   039615   041658   041575   040285   043026   035917   032907   041577   042500   043267   040662               110000001    0    100213561    7    090000001    0    080000001    0    070273831    0                                                                                                                                                   
760510010110012 03380 4140201petit quevilly      0050000petit quevilly      0070940le petit quevilly   0060500002940002940800500100176000000010600      035307         028354   036148   038002   034240   036705   038787   033610   031631   033234   037559   038122   037452               110000001    0    100169951    7    090000001    0    080000001    0    070256261    0                                                                                                                                                   
760501700310012 00280 1110241ECH RD919           0830650ECH FIN A28         0970387Quincampoix         0900000013737013737800500100100000000000193      025959 1297    024276   023816   025590   027594   026149   028068   029714   030183   028597   026412   020997   020017               110272211 1397    100268331 1767    090246991    8    080265411    8    070261941    8    023982   024717   025958   028221   027895   029161   029346   029499   028337   027724   026215   025454                                      
760501700210012 00280 1110241ECH RD919           0830650ECH FIN A28         0970387Quincampoix         0900000013737013737800500100100000000000193      012920 1307    012102   011848   012766   013729   012921   013939   014382   015059   014643   013277   010455   009885               110135871 1377    100134461 1797    090113251    8    080133741    8    070131141    8    012007   012409   013024   014081   013830   014704   014217   014971   014047   013811   013161   012719                                      
760501700110012 00280 1110241ECH RD919           0830650ECH FIN A28         0970387Quincampoix         0900000013737013737800500100100000000000193      013039 1277    012174   011968   012824   013865   013228   014129   015332   015124   013954   013135   010542   010132               110136341 1437    100133871 1707    090133741    8    080131671    8    070130801    8    011975   012308   012934   014140   014065   014457   015129   014528   014290   013913   013054   012735                                      
760501601310012 00280 1810241                    0800000ECH RD 919          0830650Rocquemont          0800000003650003650760501500300000000000193      000000                                                                                                                                 110000008         100000008    0    090219218    0    080221568    0    070209508    0                                                                                                                                                   
760501601210012 00280 1810241                    0800000ECH RD 919          0830650Rocquemont          0800000003650003650760501500200000000000193      000000                                                                                                                                 110000008         100000008    0    090114448    0    080118488    0    070115678    0                                                                                                                                                   
760501601110012 00280 1810241                    0800000ECH RD 919          0830650Rocquemont          0800000003650003650760501500100000000000193      000000                                                                                                                                 110000008         100000008    0    090104778    0    080103088    0    070093838    0                                                                                                                                                   
760501600310012 00280 1810241ECH PUCHEUIL        0750000                    0800000Bosc-Bérenger       0800000005000005000760501500300000000000193      000000                                                                                                                                 110000008         100000008    0    090219218    0    080221568    0    070209508    0                                                                                                                                                   
760501600210012 00280 1810241ECH PUCHEUIL        0750000                    0800000Bosc-Bérenger       0800000005000005000760501500200000000000193      000000                                                                                                                                 110000008         100000008    0    090114448    0    080118488    0    070115678    0                                                                                                                                                   
760501600110012 00280 1810241ECH PUCHEUIL        0750000                    0800000Bosc-Bérenger       0800000005000005000760501500100000000000193      000000                                                                                                                                 110000008         100000008    0    090104778    0    080103088    0    070093838    0                                                                                                                                                   
760501500310012 00280 1110241ECH LES HAYONS      0650450ECH PUCHEUIL        0750000Maucomble           0670000009550009550760501500100000000000193      000000                                                                                                                                 110000001         100000001         090262731 1458    080265071 2537    070250041 1848                                                                                                                                                   
760501500210012 00280 1110241ECH LES HAYONS      0650450ECH PUCHEUIL        0750000Maucomble           0670000009550009550760501500100000000000193      000000                                                                                                                                 110000001         100000001         090128291 2218    080132811 2358    070129651 1598                                                                                                                                                   
760501500110012 00280 1110241ECH LES HAYONS      0650450ECH PUCHEUIL        0750000Maucomble           0670000009550009550760501500100000000000193      000000                                                                                                                                 110000001         100000001         090134441    8    080132261 2387    070120391 2398                                                                                                                                                   
760501400310012 00280 1810241ESCLAVELLES         0600000ECHANGEUR HAYONS    0650450Esclavelles         0630000005450005450760501500300000000000193      000000                                                                                                                                 110000008         100000008    0    090261228    0    080263568    0    070248628    0                                                                                                                                                   
760501400210012 00280 1810241ESCLAVELLES         0600000ECHANGEUR HAYONS    0650450Esclavelles         0630000005450005450760501500200000000000193      000000                                                                                                                                 110000008         100000008    0    090127458    0    080131958    0    070128828    0                                                                                                                                                   
760501400110012 00280 1810241ESCLAVELLES         0600000ECHANGEUR HAYONS    0650450Esclavelles         0630000005450005450760501500100000000000193      000000                                                                                                                                 110000008         100000008    0    090133778    0    080131618    0    070119808    0                                                                                                                                                   
760501300310012 00280 1810241NEUFCHATEL CD 928   0550000NEUFCHATEL          0600000NEUFCHATEL          0590700005000005000760501500300000000000288      000000                                                                                                                                 110000008         100241548         090223278         080225458         070212918                                                                                                                                                        
760501300210012 00280 1810241NEUFCHATEL CD 928   0550000NEUFCHATEL          0600000NEUFCHATEL          0590700005000005000760501500200000000000288      000000                                                                                                                                 110000008         100116158         090112568         080116538         070113768                                                                                                                                                        
760501300110012 00280 1810241NEUFCHATEL CD 928   0550000NEUFCHATEL          0600000NEUFCHATEL          0590700005000005000760501500100000000000193      000000                                                                                                                                 110000008         100125398         090110718         080108928         070099158                                                                                                                                                        
760501200310012 00280 1110241CALLENGEVILLE       0430900NEUFCHATEL NORD     0550000Callengeville       0450000011100011100760501500100000000000193      012171 2707    009208   009345   010504   012714   012478   013903   015749   017285   013624   011130   010429   009567               110124391 2727    100121921 2657    090117991 2557    080116891 2567    070118171 2477    009256   010271   010609   013385   012309   014160   016246   017278   013218   011976   010374   010033                                      
760501200210012 00280 1110241CALLENGEVILLE       0430900NEUFCHATEL NORD     0550000Callengeville       0450000011100011100760501500100000000000193      006153 2737    004667   004718   005275   006349   006254   007047   007466   008913   007262   005686   005351   004798               110062681 2737    100061531 2677    090059611 2587    080059101 2607    070059751 2527    004684   005150   005362   006649   006072   007163   007654   009057   006919   006131   005256   005047                                      
760501200110012 00280 1110241CALLENGEVILLE       0430900NEUFCHATEL NORD     0550000Callengeville       0450000011100011100760501500100000000000193      006018 2647    004541   004627   005229   006365   006224   006856   008283   008372   006362   005444   005078   004769               110061711 2687    100060391 2607    090058381 2497    080057791 2467    070058421 2377    004572   005121   005247   006736   006237   006997   008592   008221   006299   005845   005118   004986                                      
760501100310012 00280 1810241DPT SOMME           0290000CALLENGEVILLE       0430900Fallencourt         0350000014900014900760501200300000000000193      013087                                                                                                                                 110133778         100131128    0    090126908    0    080125728    0    070127118    0                                                                                                                                                   
760501100210012 00280 1810241DPT SOMME           0290000CALLENGEVILLE       0430900Fallencourt         0350000014900014900760501200200000000000193      006550                                                                                                                                 110066738         100065518    0    090063478    0    080062938    0    070063638    0                                                                                                                                                   
760501100110012 00280 1810241DPT SOMME           0290000CALLENGEVILLE       0430900Fallencourt         0350000014900014900760501200100000000000193      006537                                                                                                                                 110067048         100065618    0    090063438    0    080062798    0    070063488    0                                                                                                                                                   
760500500310012 01310 1110241                    0300600                    0330393GONFREVILLE         0320850002793002793760501200100000000000409      042445 0888    041327   040358   043003   043060   041266   045088   044838   040490   043857   044779   042561   038732               110426641 1127    100416811 1048    090407171    0    080404811 1200    070000001    0    040318   042607   043407   043388   044502   044283   042632   038608   044779   044121   042927   040547                                      
760500500210012 01310 1110241                    0300600                    0330393GONFREVILLE         0320850002793002793760501200100000000000409      021749 1298    021163   020736   021950   022177   021176   023321   022510   020777   022445   022964   021835   019959               110219641 1157    100216611 1168    090211631    0    080212971 1300    070000001    0    020596   021810   022189   022368   022871   022890   022253   020076   022937   022746   021993   020900                                      
760500500110012 01310 1110241                    0300600                    0330393GONFREVILLE         0320850002793002793760501200100000000000409      020696 0028    020164   019622   021053   020883   020090   021767   022328   019713   021412   021815   020726   018773               110207001 1067    100200201    8    090195541    0    080191841 1000    070000001    0    019722   020797   021218   021020   021631   021393   020379   018532   021842   021375   020934   019647                                      
760500401310012 01310 1810241                    0210936                    0300600Sandouville         0280600008664008664760500500300000000000409      019986                                                                                                                                 110200928         100185268         090187518         080176508 1400    070000008    0                                                                                                                                                   
760500401210012 01310 1810241                    0210936                    0300600Sandouville         0280600008664008664760500500200000000000409      010479                                                                                                                                 110105838         100098038         090094918         080084218 1560    070000008    0                                                                                                                                                   
760500401110012 01310 1810241                    0210936                    0300600Sandouville         0280600008664008664760500500100000000000409      009507                                                                                                                                 110095098         100087238         090092608         080092298 1050    070000008    0                                                                                                                                                   
760500400310012 0131001810241                    0160000                    0210936Tancarville         0160000005936005936760500500300000000000409      018553                                                                                                                                 110186408         100181948    0    090177748    0    080176508 1408    070000008    0                                                                                                                                                   
760500400210012 0131001810241                    0160000                    0210936Tancarville         0160000005936005936760500500200000000000409      008598                                                                                                                                 110086838         100085648    0    090083688    0    080084218 1608    070000008    0                                                                                                                                                   
760500400110012 0131001810241                    0160000                    0210936Tancarville         0160000005936005936760500500100000000000409      009955                                                                                                                                 110099578         100096308    0    090094068    8    080092298 1008    070000008    0                                                                                                                                                   
760500300310012 01500 1810241ROUMARE             0080880BARENTIN            0121143Roumare             0100700004263004263760500200300000000000288      033216                                                                                                                                 110329838         100339298         090326738         080300808 113     070303348                                                                                                                                                        
760500300210012 01500 1810241ROUMARE             0080880BARENTIN            0121143Roumare             0100700004263004263760500200200000000000288      016435                                                                                                                                 110162868         100166908         090162178         080145348 113     070148968                                                                                                                                                        
760500300110012 01500 1810241ROUMARE             0080880BARENTIN            0121143Roumare             0100700004263004263760500200100000000000288      016781                                                                                                                                 110166978         100172398         090164568         080155468 112     070154388                                                                                                                                                        
760500201310012 01500 1810241Ech la vaupaliere   0060320ech A 151           0080880La Vaupaliere nord  0080000002560002560760500200300000000000102      056502                                                                                                                                 110561048         100539998         090520088         080478558         070482748                                                                                                                                                        
760500201210012 01500 1810241Ech la vaupaliere   0060320ech A 151           0080880La Vaupaliere nord  0080000002560002560760500200200000000000102      028382                                                                                                                                 110281258         100271128         090263438         080236098         070241978                                                                                                                                                        
760500201110012 01500 1810241Ech la vaupaliere   0060320ech A 151           0080880La Vaupaliere nord  0080000002560002560760500200100000000000102      028120                                                                                                                                 110279798         100268878         090256658         080242468         070240778                                                                                                                                                        
760500200310012 01500 1110241Canteleu            0040230ech la vaupaliere   0060320La Vaupaliere       0040775002090002090760500200100000000000102      051040 0877    049230   047544   051189   051581   051007   054146   050660   046573   053128   053749   053669   050048               110506821    7    100487781    7    090469691    7    080432451    7    070436061    7    047968   049293   050762   051875   052088   052033   049104   045540   052454   053229   052968   050947                                      
760500200210012 01500 1110241Canteleu            0040230ech la vaupaliere   0060320La Vaupaliere       0040775002090002090760500200100000000000102      025014 0857    024047   023145   024937   025286   025282   026620   025088   022883   026017   026274   026164   024430               110247871    7    100238941    7    090232161    7    080208061    7    070213241    7    023494   023993   024615   025344   025476   025492   024408   022490   025545   025920   025891   024804                                      
760500200110012 01500 1110241Canteleu            0040230ech la vaupaliere   0060320La Vaupaliere       0040775002090002090760500200100000000000102      026026 0937    025183   024399   026252   026295   025725   027526   025572   023690   027111   027475   027505   025618               110258951    7    100248841    7    090237531    7    080224391    7    070222821    7    024474   025300   026147   026531   026612   026541   024696   023050   026909   027309   027077   026143                                      
760500100310012 01500 1810241ROUEN               0000000CANTELEU            0040230CANTELEU            0020520004230004230760500200300000000000288      059867                                                                                                                                 110594498         100572168         090563038         080501448         070505498                                                                                                                                                        
760500100210012 01500 1810241ROUEN               0000000CANTELEU            0040230CANTELEU            0020520004230004230760500200200000000000288      029140                                                                                                                                 110288768         100278368         090270478         080236848         070242748                                                                                                                                                        
760500100110012 01500 1810241ROUEN               0000000CANTELEU            0040230CANTELEU            0020520004230004230760500200100000000000288      030727                                                                                                                                 110305738         100293808         090292568         080264608         070262758                                                                                                                                                        
760500025310012 00280 4840201ROUEN               0000000                    0011016Viaduc de Lyons     0010000002016002016760500001300000000000693      038430                                                                                                                                 110418028    0    100411368    0    090412818    0    080416468 1110    070397478    0                                                                                                                                                   
760500025210012 00280 4840201ROUEN               0000000                    0011016Viaduc de Lyons     0010000002016002016760500001200000000000693      018176                                                                                                                                 110199228    0    100197708    0    090198638    0    080216978 1110    070000008    0                                                                                                                                                   
760500025110012 00280 4840201ROUEN               0000000                    0011016Viaduc de Lyons     0010000002016002016760500001100000000000693      020254                                                                                                                                 110218808    0    100213668    0    090214188    0    080199498 1110    070000008    0                                                                                                                                                   
760500024310012 00280 4810201ech 2828            0060500fin d928 a28        0070848isneauville         0070200001348001348760500001300000000000102      031981                                                                                                                                 110347878    0    100341708    0    090342888    0    080343138 1370    070323818    0                                                                                                                                                   
760500024210012 00280 4810201ech 2828            0060500fin d928 a28        0070848isneauville         0070200001348001348760500001200000000000102      015012                                                                                                                                 110164558    0    100146918    0    090147618    0    080161258 1380    070000008    0                                                                                                                                                   
760500024110012 00280 4810201ech 2828            0060500fin d928 a28        0070848isneauville         0070200001348001348760500001100000000000102      016969                                                                                                                                 110183328    0    100194798    0    090195278    0    080181888 1350    070000008    0                                                                                                                                                   
760500023310012 00280 4810201ech 443             0050437ech 2828            0060500bois guillaume      0050900001063001063760500001300000000000102      041951                                                                                                                                 110456198    0    100448788    0    090450368    0    080452838    0    070432198    0                                                                                                                                                   
760500023210012 00280 4810201ech 443             0050437ech 2828            0060500bois guillaume      0050900001063001063760500001200000000000102      018967                                                                                                                                 110207898    0    100206318    0    090207298    0    080226438    0    070000008    0                                                                                                                                                   
760500023110012 00280 4810201ech 443             0050437ech 2828            0060500bois guillaume      0050900001063001063760500001100000000000102      022984                                                                                                                                 110248308    0    100242478    0    090243078    0    080226408    0    070000008    0                                                                                                                                                   
760500021310012 00280 4840201                    0011016ech d443bg          0020000Darnetal            0011200000184000184760500001300000000000693      038430                                                                                                                                 110418028    0    100411368    0    090412818    0    080416468 1110    070000008    0                                                                                                                                                   
760500021210012 00280 4840201                    0011016ech d443bg          0020000Darnetal            0011200000184000184760500001200000000000693      018176                                                                                                                                 110199228    0    100197708    0    090198638    0    080216978 1110    070000008    0                                                                                                                                                   
760500021110012 00280 4840201                    0011016ech d443bg          0020000Darnetal            0011200000184000184760500001100000000000693      020254                                                                                                                                 110218808    0    100213668    0    090214188    0    080199498 1110    070000008    0                                                                                                                                                   
760500001310012 00280 4140201ROUEN DARNETAL      0020000                    0050437Tunnel              0030900003437003437760500001100000000000693      038430 0937    039216   038941   040823   042025   040702   044060   041235   039482   042745   039663   025945   026397               110418021 1047    100000001    0    090412811    0    080416461 1110    070397471    0    038475   040586   041965   042577   043210   043832   042852   040239   043419   042689   041697   040099                                      
760500001210012 00280 4140201ROUEN DARNETAL      0020000                    0050437Tunnel              0030900003437003437760500001100000000000693      018176 0907    018439   018517   019446   020086   019242   020610   019833   018812   020031   018720   012183   012226               110199221 1017    100197701 1227    090198631    0    080216971 1110    070000001    0    018088   019276   019974   020501   020586   020782   021414   019117   020458   020255   019635   018966                                      
760500001110012 00280 4140201ROUEN DARNETAL      0020000                    0050437Tunnel              0030900003437003437760500001100000000000693      020254 0997    020777   020424   021377   021939   021460   023450   021402   020670   022714   020943   013762   014171               110218801 1097    100213661 1157    090214181 1127    080199491 1110    070000001    0    020387   021310   021991   022076   022624   023050   021438   021122   022961   022434   022062   021133                                      
760500000310012 01510 1810241PISSY POVILLE       0000000PISSY POVILLE       0060400PISSY POVILLE       0010520006400006400760500200300000000000288      019956                                                                                                                                 110198178         100190748         090183698         080169098         070170548                                                                                                                                                        
760500000210012 01510 1810241PISSY POVILLE       0000000PISSY POVILLE       0060400PISSY POVILLE       0010520006400006400760500200200000000000288      009870                                                                                                                                 110097818         100094298         090091628         080082118         070084168                                                                                                                                                        
760500000110012 01510 1810241PISSY POVILLE       0000000PISSY POVILLE       0060400PISSY POVILLE       0010520006400006400760500200100000000000288      010086                                                                                                                                 110100368         100096458         090092078         080086988         070086388                                                                                                                                                        
760111199110012 01380 4110201                    0210000                    0220703Pont Guillaume      0210500001703001703760500200100000000000288      025567         023020   022820   023479   023053   023283   025201   023330   020972   025464   028206   035066   032943               110238021         100238241    0    090247221    0    080345611    0    070000001    0    023182   023825   024496   024160   024613   024308   021610   019551   025482   025641   025210   023673                                      
760111110210012 01380 4110201                    0210000                    0220703Pont Guillaume      0210500001703001703760500200100000000000288      021590 0097    020458   019969   020855   020816   019573   021753   019327   018484   021340   022633   027538   026396               110206401    7    100205651    7    090230141    0    080287131    0    070000001    0    020196   020690   021441   020518   021227   022025   020011   017001   021163   021443   021616   020443                                      
760111100310012 01380 4110201                    0210000                    0220703Pont Guillaume      0210500001703001703760500200100000000000288      000000                                                                                                                                 110444421    0    100443891    0    090477361    0    080632451    0    070677421    0                                                                                                                                                   
760008600310012 03380 4810101gd quevilly         0030500gd quevilly         0050000gd quevilly         0040000001500001500760510010300000000000301      072242                                                                                                                                 110000008    0    100366818    0    090000008    0    080523928    0    070507008    0                                                                                                                                                   
760008600210012 03380 4810101gd quevilly         0030500gd quevilly         0050000gd quevilly         0040000001500001500760510010200000000000301      000000                                                                                                                                 110000008    0    100000008    0    090000008    0    080269938    0    070000008    0                                                                                                                                                   
760008600110012 03380 4810101gd quevilly         0030500gd quevilly         0050000gd quevilly         0040000001500001500760510010100000000000301      000000                                                                                                                                 110000008    0    100000008    0    090000008    0    080253998    0    070000008    0                                                                                                                                                   
760008500310012 03380 4110201PETIT COURONNE      0000000GRAND QUEVILLY      0030500Pt Couronne         0010800003500003500760510010100000000000388      067029 0618    065280   062042   067726   067634   065391   070849   066093   060174   069559   071953   068834   068777               110670011    7    100640271         090612961    7    080523921    0    070482931    0    064133   066887   067646   067722   068504   068696   064378   060787   069212   069749   069528   066992                                      
760008500210012 03380 4110201PETIT COURONNE      0000000GRAND QUEVILLY      0030500Pt Couronne         0010800003500003500760510010100000000000388      034541 0908    033343   032815   034681   034699   033185   036374   033740   030321   035354   036771   037959   035340               110341161    7    100317811         090314371    7    080269931    0    070000001    0    032488   033803   034506   034577   035267   035105   033123   030211   035525   035528   035175   034183                                      
760008500110012 03380 4110201PETIT COURONNE      0000000GRAND QUEVILLY      0030500Pt Couronne         0010800003500003500760510010100000000000388      032488 0018    031937   029227   033045   032935   032206   034475   032353   029853   034205   035182   030875   033437               110328851    7    100322461    7    090298591    7    080253991    0    070000001    0    031645   033084   033140   033145   033237   033591   031255   030576   033687   034221   034353   032809                                      
760008400310012 02820 4815001a131                0000000RN 15               0020942gonfreville         0000400002942002942760500500300000000000102      018634                                                                                                                                 110187278         100182898         090198708         080194398         070218858                                                                                                                                                        
760008400210012 02820 4815001a131                0000000RN 15               0020942gonfreville         0000400002942002942760500500200000000000102      009142                                                                                                                                 110092338         100091068         090098758         080100298         070110508                                                                                                                                                        
760008400110012 02820 4815001a131                0000000RN 15               0020942gonfreville         0000400002942002942760500500100000000000102      009492                                                                                                                                 110094948         100091838         090099958         080094108         070108358                                                                                                                                                        
760008103310012 01820 4843001                    0180000                    0180596Harfleur            0180300000596000596          00000000000388      000000                                                                                                                                 110000008         100000008    0    090000008    0    080130058    0    070143158    0                                                                                                                                                   
760008103210012 01820 4843001                    0180000                    0180596Harfleur            0180300000596000596          00000000000388      000000                                                                                                                                 110000008         100000008    0    090000008    0    080070008    0    070076158    0                                                                                                                                                   
760008103110012 01820 4843001                    0180000                    0180596Harfleur            0180300000596000596          00000000000388      000000                                                                                                                                 110000008         100000008    0    090000008    0    080060058    0    070067008    0                                                                                                                                                   
760007800310012 01380 4810201PETIT COURONNE      0140800ST ETIENNE ROUVRAY  0150048ST ETIENNE ROUVRAY  0150000000248000248760007600300000000000288      029314                                                                                                                                 110317978         100308988         090000008         080283778         070000008                                                                                                                                                        
760007800210012 01380 4810201PETIT COURONNE      0140800ST ETIENNE ROUVRAY  0150048ST ETIENNE ROUVRAY  0150000000248000248760007600200000000000288      014001                                                                                                                                 110161588         100159978         090000008         080141898         070000008                                                                                                                                                        
760007800110012 01380 4810201PETIT COURONNE      0140800ST ETIENNE ROUVRAY  0150048ST ETIENNE ROUVRAY  0150000000248000248760007600100000000000288      015313                                                                                                                                 110156398         100149018         090000008         080141888         070000008                                                                                                                                                        
760007700310012 01380 4810601PETIT COURONNE      0120900PETIT COURONNE      0140800PETIT COURONNE      0130500001900001900760007600300000000000288      076774                                                                                                                                 110832768         100809208         090000008         080743158         070000008                                                                                                                                                        
760007700210012 01380 4810601PETIT COURONNE      0120900PETIT COURONNE      0140800PETIT COURONNE      0130500001900001900760007600200000000000288      036667                                                                                                                                 110423168         100418948         090000008         080371588         070000008                                                                                                                                                        
760007700110012 01380 4810601PETIT COURONNE      0120900PETIT COURONNE      0140800PETIT COURONNE      0130500001900001900760007600100000000000288      040107                                                                                                                                 110409608         100390268         090000008         080371578         070000008                                                                                                                                                        
760007600310012 01380 4110201GRAND COURONNE      0100064PETIT COURONNE      0120900Les Essarts         0100800002836002836760007600100000000000288      037462 0807    037433   036234   039810   040568   039446   042718   039707   037310   039963   030821   028974   036552               110406341    7    100394841    7    090000001         080362611         070000001    0    038105   039700   041296   042548   042731   042278   039804   036951   042635   042204   041346   038117                                      
760007600210012 01380 4110201GRAND COURONNE      0100064PETIT COURONNE      0120900Les Essarts         0100800002836002836760007600100000000000288      017892 0847    019521   019010   020239   020697   019747   021299   020157   018891   019045   009888   008380   017827               110206481    7    100204421    7    090000001         080181311         070000001    0    019244   020202   020956   021719   021645   021432   020535   018499   021650   021278   020780   019888                                      
760007600110012 01380 4110201GRAND COURONNE      0100064PETIT COURONNE      0120900Les Essarts         0100800002836002836760007600100000000000288      019570 0737    017912   017224   019571   019871   019699   021419   019550   018419   020918   020933   020594   018725               110199861    7    100190421    7    090000001         080181301         070000001    0    018861   019498   020340   020829   021086   020846   019269   018452   020985   020926   020566   018229                                      
760007500310012 01380 4810201GD COURONNE         0090000GD COURONNE         0100064GD COURONNE         0090800001064001064760007600300000000000288      027323                                                                                                                                 110296598         100288278         090286758         080265358         070000008                                                                                                                                                        
760007500210012 01380 4810201GD COURONNE         0090000GD COURONNE         0100064GD COURONNE         0090800001064001064760007600200000000000288      013215                                                                                                                                 110152518         100150998         090147868         080132688         070000008                                                                                                                                                        
760007500110012 01380 4810201GD COURONNE         0090000GD COURONNE         0100064GD COURONNE         0090800001064001064760007600100000000000288      014108                                                                                                                                 110144088         100137288         090138898         080132678         070000008                                                                                                                                                        
760007100310012 00310 4843001GOURNAY EN BRAY     0490075FERRIERES EN BRAY   0510852FERRIERES EN BRAY   0500000002777000000760006700300000000000288      011529                                                                                                                                 110120878         100117368         090146218         080151088 113     070154528                                                                                                                                                        
760007100210012 00310 4843001GOURNAY EN BRAY     0490075FERRIERES EN BRAY   0510852FERRIERES EN BRAY   0500000002777000000760006700200000000000288      005723                                                                                                                                 110059878         100058078         090063648         080065998 112     070067768                                                                                                                                                        
760007100110012 00310 4843001GOURNAY EN BRAY     0490075FERRIERES EN BRAY   0510852FERRIERES EN BRAY   0500000002777000000760006700100000000000288      005806                                                                                                                                 110061008         100059298         090082578         080085098 113     070086768                                                                                                                                                        
760007000310012 00310 4843001GOURNAY EN BRAY     0480500GOURNAY EN BRAY     0490075GOURNAY Est         0480800000575000000760006700300000000000288      009992                                                                                                                                 110104768         100101728    0    090099858    0    080103218    0    070105608    0                                                                                                                                                   
760007000210012 00310 4843001GOURNAY EN BRAY     0480500GOURNAY EN BRAY     0490075GOURNAY Est         0480800000575000000760006700200000000000288      004859                                                                                                                                 110050838         100049308    0    090048378    0    080050158    0    070051498    0                                                                                                                                                   
760007000110012 00310 4843001GOURNAY EN BRAY     0480500GOURNAY EN BRAY     0490075GOURNAY Est         0480800000575000000760006700100000000000288      005133                                                                                                                                 110053938         100052428    0    090051488    0    080053068    0    070054118    0                                                                                                                                                   
760006900310012 00310 4843001GOURNAY EN BRAY     0470600GOURNAY EN BRAY     0480500GOURNAY Ouest       0480000000900000000760006700300000000000288      010259                                                                                                                                 110107568         100104448    0    090102528    0    080105978    0    070108438    0                                                                                                                                                   
760006900210012 00310 4843001GOURNAY EN BRAY     0470600GOURNAY EN BRAY     0480500GOURNAY Ouest       0480000000900000000760006700200000000000288      005067                                                                                                                                 110053018         100051428    0    090050458    0    080052318    0    070053718    0                                                                                                                                                   
760006900110012 00310 4843001GOURNAY EN BRAY     0470600GOURNAY EN BRAY     0480500GOURNAY Ouest       0480000000900000000760006700100000000000288      005192                                                                                                                                 110054558         100053028    0    090052078    0    080053668    0    070054728    0                                                                                                                                                   
760006800310012 00310 4843001GOURNAY EN BRAY     0460714GOURNAY EN BRAY     0470600St Aubin            0470000000986000000760006700300000000000288      012645                                                                                                                                 110132568         100128718    0    090126348    0    080130618    0    070133658    0                                                                                                                                                   
760006800210012 00310 4843001GOURNAY EN BRAY     0460714GOURNAY EN BRAY     0470600St Aubin            0470000000986000000760006700200000000000288      006392                                                                                                                                 110066878         100064868    0    090063648    0    080065998    0    070067768    0                                                                                                                                                   
760006800110012 00310 4843001GOURNAY EN BRAY     0460714GOURNAY EN BRAY     0470600St Aubin            0470000000986000000760006700100000000000288      006253                                                                                                                                 110065698         100063858    0    090062708    0    080064628    0    070065898    0                                                                                                                                                   
760006700310012 00310 4113001CD 921              0320100GOURNAY EN BRAY     0460714Avesnes Gournay     0430200014614014614760006700100000000000288      005475 0468    005040   004990   005409   005754   005715   005917   005984   005733   005841   005624   005077   004604               110057391 1627    100055721    8    090054691         080056531 1718    070057841 1628    005077   005446   005683   006128   005910   006172   006154   005796   005957   005829   005467   005241                                      
760006700210012 00310 4113001CD 921              0320100GOURNAY EN BRAY     0460714Avesnes  Gournay    0430200014614014614760006700100000000000288      002760 0018    002522   002511   002718   002923   002869   003000   003058   002883   002924   002844   002547   002313               110028871 1547    100028001    8    090027471         080028481 1728    070029241 1718    002538   002733   002849   003077   002971   003118   003153   002893   002991   002938   002731   002643                                      
760006700110012 00310 4113001CD 921              0320100GOURNAY EN BRAY     0460714Avesnes  Gournay    0430200014614014614760006700100000000000288      002715 1378    002518   002479   002691   002831   002846   002917   002926   002850   002917   002780   002530   002291               110028521 1807    100027721 1468    090027221         080028051 1698    070028601 1448    002539   002713   002834   003051   002939   003054   003001   002903   002966   002891   002736   002598                                      
760006601310012 00310 4813001CD13 /CD 85         0220000CD 921              0320100LA HAYE             0270400017500017500760006700300000000000288      004814                                                                                                                                 110050478         100049018         090050458         080056588         070057908                                                                                                                                                        
760006601210012 00310 4813001CD13 /CD 85         0220000CD 921              0320100LA HAYE             0270400017500017500760006700200000000000288      002458                                                                                                                                 110025728         100024958         090025838         080028308         070000008                                                                                                                                                        
760006601110012 00310 4813001CD13 /CD 85         0220000CD 921              0320100LA HAYE             0270400017500017500760006700100000000000288      002356                                                                                                                                 110024758         100024068         090024628         080028288         070000008                                                                                                                                                        
760006600310012 00310 4813001                    0140600                    0181293Martainville        0150000004693004693760006700300000000000288      005475                                                                                                                                 110057418         100055758    0    090054738    0    080056588    0    070057908    0                                                                                                                                                   
760006600210012 00310 4813001                    0140600                    0181293Martainville        0150000004693004693760006700200000000000288      002740                                                                                                                                 110028678         100027818    0    090027298    0    080028308    0    070000008    0                                                                                                                                                   
760006600110012 00310 4813001                    0140600                    0181293Martainville        0150000004693004693760006700100000000000288      002735                                                                                                                                 110028748         100027948    0    090027448    0    080028288    0    070000008    0                                                                                                                                                   
760006500310012 00310 4813001CD 7                0090938CD 13/ CD 85        0140600BOIS L EVEQUE       0110000004662004662760006700300000000000288      008142                                                                                                                                 110085358         100082878         090081358         080084108         070086068                                                                                                                                                        
760006500210012 00310 4813001CD 7                0090938CD 13/ CD 85        0140600BOIS L EVEQUE       0110000004662004662760006700200000000000288      004103                                                                                                                                 110042928         100041638         090040858         080042368         070043508                                                                                                                                                        
760006500110012 00310 4813001CD 7                0090938CD 13/ CD 85        0140600BOIS L EVEQUE       0110000004662004662760006700100000000000288      004039                                                                                                                                 110042438         100041248         090040508         080041748         070042568                                                                                                                                                        
760006400310012 00310 4813001RD 43 St Jacques    0060520RD 7                0090938ST JACQUES         A0080750003418003418760006700300000000000288      012280                                                                                                                                 110128728         100124988         090118908         080133898         070137008                                                                                                                                                        
760006400210012 00310 4813001RD 43 St Jacques    0060520RD 7                0090938ST JACQUES         A0080750003418003418760006700200000000000288      006257                                                                                                                                 110065458         100063488         090060018         080066768         070068558                                                                                                                                                        
760006400110012 00310 4813001RD 43 St Jacques    0060520RD 7                0090938ST JACQUES         A0080750003418003418760006700100000000000288      006023                                                                                                                                 110063278         100061508         090058898         080067138         070068458                                                                                                                                                        
760006300310012 00310 4843001DARNETAL            0020300RD43 St Jacques     0060520DARNETAL EST        0020900004220004220760006700300000000000288      013028                                                                                                                                 110136588         100136438    0    090133928    0    080135158 1000    070138308    0                                                                                                                                                   
760006300210012 00310 4843001DARNETAL            0020300RD43 St Jacques     0060520DARNETAL EST        0020900004220004220760006700200000000000288      006255                                                                                                                                 110065438         100065718    0    090064478    0    080069068 1020    070070918    0                                                                                                                                                   
760006300110012 00310 4843001DARNETAL            0020300RD43 St Jacques     0060520DARNETAL EST        0020900004220004220760006700100000000000288      006773                                                                                                                                 110071158         100070728    0    090069458    0    080066098    0    070067398    0                                                                                                                                                   
760006200310012 00310 4840201DARNETAL            0020050DARNETAL            0020300Darnetal centre     0020100000250000250760006700300000000000227      032266                                                                                                                                 110338238         100328408         090322348         080333208         070340938    0                                                                                                                                                   
760006200210012 00310 4840201DARNETAL            0020050DARNETAL            0020300Darnetal centre     0020100000250000250760006700200000000000227      016235                                                                                                                                 110169838         100164728         090161618         080167568         070000008    0                                                                                                                                                   
760006200110012 00310 4840201DARNETAL            0020050DARNETAL            0020300Darnetal centre     0020100000250000250760006700100000000000227      016031                                                                                                                                 110168408         100163688         090160738         080165648         070000008    0                                                                                                                                                   
760006101310012 00310 4840201DARNETAL            0010780DARNETAL            0020050DARNETAL OUEST      0010800000270000270760006700300000000000288      032266                                                                                                                                 110338238         100328408    0    090322348    0    080333208    0    070340938    0                                                                                                                                                   
760006101210012 00310 4840201DARNETAL            0010780DARNETAL            0020050DARNETAL OUEST      0010800000270000270760006700200000000000288      016235                                                                                                                                 110169838         100164728    0    090161618    0    080167568    0    070172048    0                                                                                                                                                   
760006101110012 00310 4840201DARNETAL            0010780DARNETAL            0020050DARNETAL OUEST      0010800000270000270760006700100000000000288      016031                                                                                                                                 110168408         100163688    0    090160738    0    080165648    0    070168898    0                                                                                                                                                   
760006100310012 00310 4840201DARNETAL            0000000DARNETAL            0010780Rouen Route DARNETAL0010400001780001780760006700300000000000288      032316                                                                                                                                 110338768         100328928    0    090322858    0    080333208    0    070340938    0                                                                                                                                                   
760006100210012 00310 4840201DARNETAL            0000000DARNETAL            0010780Rouen Route DARNETAL0010400001780001780760006700200000000000288      016235                                                                                                                                 110169838         100164728    0    090161618    0    080167568    0    070172048    0                                                                                                                                                   
760006100110012 00310 4840201DARNETAL            0000000DARNETAL            0010780Rouen Route DARNETAL0010400001780001780760006700100000000000288      016081                                                                                                                                 110168938         100164208    0    090161248    0    080165648    0    070168898    0                                                                                                                                                   
760003900310012 00270 4840201CD 915              0470479DIEPPE              0490200ST AUBIN SUR SCIE   0470800001721000000760003700300000000000288      029102                                                                                                                                 110298468         100292118         090284758         080269158         070272938                                                                                                                                                        
760003900210012 00270 4840201CD 915              0470479DIEPPE              0490200ST AUBIN SUR SCIE   0470800001721000000760003700200000000000288      014506                                                                                                                                 110149118         100145728         090142278         080134588         070000008                                                                                                                                                        
760003900110012 00270 4840201CD 915              0470479DIEPPE              0490200ST AUBIN SUR SCIE   0470800001721000000760003700100000000000288      014596                                                                                                                                 110149358         100146398         090142488         080134578         070000008                                                                                                                                                        
760003803310012 00270 4815001rd 54 st aubin      0440570RD 915              0470479st aubin s scie nord0460000002909002000760003700300000000000102      011811                                                                                                                                 110121128         100118568         090115588         080109258         070130708                                                                                                                                                        
760003803210012 00270 4815001rd 54 st aubin      0440570RD 915              0470479st aubin s scie nord0460000002909002000760003700200000000000102      005660                                                                                                                                 110058188         100056868         090055528         080052528         070000008                                                                                                                                                        
760003803110012 00270 4815001rd 54 st aubin      0440570RD 915              0470479st aubin s scie nord0460000002909002000760003700100000000000102      006151                                                                                                                                 110062948         100061708         090060068         080056738         070000008                                                                                                                                                        
760003802310012 00270 4815001ech d108            0390343d54 st aubin s scie 0440570st aubin s scie sud 0410000005227004000760003700300000000000102      012967                                                                                                                                 110132998         100130168         090126898         080119948         070121638                                                                                                                                                        
760003802210012 00270 4815001ech d108            0390343d54 st aubin s scie 0440570st aubin s scie sud 0410000005227004000760003700200000000000102      006463                                                                                                                                 110066448         100064938         090063408         080059978         070000008                                                                                                                                                        
760003802110012 00270 4815001ech d108            0390343d54 st aubin s scie 0440570st aubin s scie sud 0410000005227004000760003700100000000000102      006504                                                                                                                                 110066558         100065238         090063498         080059978         070000008                                                                                                                                                        
760003801310012 00270 4810201ech d149 belmesnil  0340200ech d108 auppegard  0390343manehouville        0380600005143005143760003700300000000000102      014108                                                                                                                                 110144698         100141628         090138058         080130498         070138738                                                                                                                                                        
760003801210012 00270 4810201ech d149 belmesnil  0340200ech d108 auppegard  0390343manehouville        0380600005143005143760003700200000000000102      006903                                                                                                                                 110070968         100069358         090067718         080064058         070000008                                                                                                                                                        
760003801110012 00270 4810201ech d149 belmesnil  0340200ech d108 auppegard  0390343manehouville        0380600005143005143760003700100000000000102      007205                                                                                                                                 110073738         100072278         090070348         080066448         070000008                                                                                                                                                        
760003800310012 00270 4810201ech d353            0270300ech d149 belmesnil  0340200belmesnil           0330200006900006900760003700300000000000102      013041                                                                                                                                 110133758         100130918         090127628         080120638         070122338                                                                                                                                                        
760003800210012 00270 4810201ech d353            0270300ech d149 belmesnil  0340200belmesnil           0330200006900006900760003700200000000000102      006501                                                                                                                                 110066838         100065318         090063778         080060328         070000008                                                                                                                                                        
760003800110012 00270 4810201ech d353            0270300ech d149 belmesnil  0340200belmesnil           0330200006900006900760003700100000000000102      006540                                                                                                                                 110066928         100065608         090063858         080060318         070000008                                                                                                                                                        
760003700310012 00270 4110201TOTES               0240254ech rd353           0270300TOTES               0250500003046003046760003700100000000000288      015803 0597    014532   013900   015619   015795   016426   016901   016646   016341   017424   015894   015799   014323               110162061    7    100158611    7    090154611    7    080146131    7    070148311    7    014541   015166   015842   017317   016822   017044   016692   015999   016925   017040   016167   014896                                      
760003700210012 00270 4110201TOTES               0240254ech rd353           0270300TOTES               0250500003046003046760003700100000000000288      007821 0397    007255   006888   007738   007847   008147   008351   008289   008025   008576   007836   007803   007077               110080391    7    100078561    7    090076701    7    080072551    7    070000001    7    007251   007540   007860   008565   008377   008440   008284   007892   008350   008446   008052   007398                                      
760003700110012 00270 4110201TOTES               0240254ech rd353           0270300TOTES               0250500003046003046760003700100000000000288      007982 1007    007277   007012   007881   007948   008279   008550   008357   008316   008848   008058   007996   007246               110081671    7    100080051    7    090077911    7    080073581    7    070000001    7    007290   007626   007982   008752   008445   008604   008408   008107   008575   008594   008115   007498                                      
760003601310012 00270 4810201rd2                 0190042totes nord          0240254totes sud           0210000005196005196760003700300000000000192      014797                                                                                                                                 110151748         100148538         090144798         080122518         070124378                                                                                                                                                        
760003601210012 00270 4810201rd2                 0190042totes nord          0240254totes sud           0210000005196005196760003700200000000000192      007014                                                                                                                                 110072108         100070468         090068808         080061268         070000008                                                                                                                                                        
760003601110012 00270 4810201rd2                 0190042totes nord          0240254totes sud           0210000005196005196760003700100000000000192      007783                                                                                                                                 110079648         100078078         090075998         080061258         070000008                                                                                                                                                        
760003600310012 00270 4810201                    0190000                    0190042Varneville-Brettevil0190000000042000042760003700300000000000192      015042                                                                                                                                 110154258         100132968    0    090129618    0    080122518    0    070124378    0                                                                                                                                                   
760003600210012 00270 4810201                    0190000                    0190042Varneville-Brettevil0190000000042000042760003700200000000000192      007139                                                                                                                                 110073388         100066338    0    090064768    0    080061268    0    070000008    0                                                                                                                                                   
760003600110012 00270 4810201                    0190000                    0190042Varneville-Brettevil0190000000042000042760003700100000000000192      007903                                                                                                                                 110080878         100066638    0    090064858    0    080061258    0    070000008    0                                                                                                                                                   
610000600310012 00120 4113001FIN DEVIATION       0720070LIMITE MAYENNE      0840911ST DENIS S/SARTH.   0790440012668009551760003700100000000000188      008686 2207    007546   007753   008421   009435   009144   009080   009880   009461   009063   008447   008133   007830               110090981 2147    100089281 2107    090000001         080089531 2097    070093171 2057    007575   008464   008505   009889   009151   009883   010128   010071   009385   009194   008518   008399                                      
610000600210012 00120 4113001FIN DEVIATION       0720070LIMITE MAYENNE      0840911ST DENIS S/SARTH.   0790440012668009551760003700100000000000188      004313 2127    003799   003817   004163   004647   004614   004430   004817   004765   004577   004175   004068   003861               110045091 2067    100044291 2017    090000001         080044301 1997    070045931 1977    003814   004195   004176   004835   004527   004905   004870   005124   004663   004545   004331   004115                                      
610000600110012 00120 4113001FIN DEVIATION       0720070LIMITE MAYENNE      0840911ST DENIS S/SARTH.   0790440012668009551760003700100000000000188      004373 2347    003747   003936   004258   004788   004530   004650   005063   004696   004486   004272   004065   003969               110045891 2317    100044991 2277    090000001         080045231 2287    070047241 2217    003761   004269   004329   005054   004624   004978   005258   004947   004722   004649   004187   004284                                      
610000502310012 00120 4813001RN 138              0630300FIN DEVIAT.ALENCON  0720070DEVIATION ALENCON   0680020007836007836610000600300000000000188      008718                                                                                                                                 110091328         100089638         090000008         080089898         070093558                                                                                                                                                        
610000502210012 00120 4813001RN 138              0630300FIN DEVIAT.ALENCON  0720070DEVIATION ALENCON   0680020007836007836610000600200000000000188      004400                                                                                                                                 110046008         100045198         090000008         080045218         070046888                                                                                                                                                        
610000502110012 00120 4813001RN 138              0630300FIN DEVIAT.ALENCON  0720070DEVIATION ALENCON   0680020007836007836610000600100000000000188      004318                                                                                                                                 110045328         100044448         090000008         080044688         070046678                                                                                                                                                        
610000501310012 00120 4113001ENTREE DEVIATION    0610620R.N. 138            0630300VALFRAMBERT         0620100001680001680610000600100000000000294      010269 0007    009104   009346   010248   010365   010587   010866   011093   011279   010579   010538   010109   009080               110099731 1837    100101781         090000001         080109611 2337    070117901 2477    008529   009490   009547   010553   009987   010521   010595   010111   010743   010350   009773   009487                                      
610000501210012 00120 4113001ENTREE DEVIATION    0610620R.N. 138            0630300VALFRAMBERT         0620100001680001680610000600100000000000294      005375 0007    004784   004902   005327   005376   005522   005653   005902   005931   005501   005450   005331   004806               110053101 1817    100053811         090000001         080058941 2247    070063711 2437    004632   005108   005114   005641   005371   005685   005579   005515   005574   005340   005166   005000                                      
610000501110012 00120 4113001ENTREE DEVIATION    0610620R.N. 138            0630300VALFRAMBERT         0620100001680001680610000600100000000000294      004894 0007    004320   004444   004921   004989   005065   005213   005191   005348   005078   005088   004778   004274               110046631 1877    100047971         090000001         080050671 2547    070054191 2577    003897   004382   004433   004912   004616   004836   005016   004596   005169   005010   004607   004487                                      
610000400310012 00120 4113001R.D. 4 A            0430019R.D. 112            0610620Ventes de Bourse    0480300018601018025610000600100000000000192      009825 2147    008779   008671   009658   010618   010353   010413   010698   010284   009819   009851   009410   009299               110100391 2067    100000001    0    090000001    0    080099431 1128    070105451 1508    008353   009596   009519   010862   010130   010835   010732   010455   010371   010323   009579   009723                                      
610000400210012 00120 4113001R.D. 4 A            0430019R.D. 112            0610620Ventes de Bourse    0480300018601018025610000600100000000000192      004883 2157    004416   004254   004796   005244   005228   005105   005246   004981   005159   004858   004714   004576               110049871 2077    100000001    0    090000001    0    080046081    8    070050001 1548    004164   004768   004708   005336   005042   005401   005165   005370   005191   005090   004845   004777                                      
610000400110012 00120 4113001R.D. 4 A            0430019R.D. 112            0610620Ventes de Bourse    0480300018601018025610000600100000000000192      004942 2117    004363   004417   004862   005374   005125   005308   005452   005303   004660   004993   004696   004723               110050521 2037    100000001    0    090000001    0    080053351 1518    070055451 1438    004189   004828   004811   005526   005088   005434   005567   005085   005180   005233   004734   004946                                      
610000300310012 00120 4113001RD 912              0270548RD 4A               0430019N12_LECHATEL        0270800013572012518610000600100000000000100      007501         006480   006671   008063   009296   008168   007629   008229   007355   006868   006842   007147   007241               110000001         100000001         090000001         080000001         070074861 2058                                                                                                                                                   
610000300210012 00120 4113001RD 912              0270548RD 4A               0430019N12_LECHATEL        0270800013572012518610000600100000000000100      003742         002690   002783   004417   005024   004352   004234   004526   003606   003287   003076   002859   003998               110000001         100000001         090000001         080000001         070029661 2338                                                                                                                                                   
610000300110012 00120 4113001RD 912              0270548RD 4A               0430019N12_LECHATEL        0270800013572012518610000600100000000000100      003759         003790   003888   003646   004272   003816   003395   003703   003749   003581   003766   004288   003243               110047951         100000001         090000001         080000001         070045201 1698                      003740   005271   004815   005180   005487   004876   004935   005006   004602   004063                                      
610000200310012 00120 4813001DEVIATION MORTAGNE  0230262R.D. 912            0270548ST HILAIRE          0250430004286004286610000100300000000000194      008071                                                                                                                                 110083628         100079248         090000008         080080398         070080518                                                                                                                                                        
610000200210012 00120 4813001DEVIATION MORTAGNE  0230262R.D. 912            0270548ST HILAIRE          0250430004286004286610000100200000000000194      004018                                                                                                                                 110041838         100039788         090000008         080040208         070000008                                                                                                                                                        
610000200110012 00120 4813001DEVIATION MORTAGNE  0230262R.D. 912            0270548ST HILAIRE          0250430004286004286610000100100000000000194      004053                                                                                                                                 110041798         100039468         090000008         080040198         070000008                                                                                                                                                        
610000100310012 00120 4113001EURE                0000000R.D. 912            0230262LA VENTROUZE        0090927023262022080610000100100000000001290      007911 2487    006693   006659   007493   008805   008368   008332   009178   008751   008301   007744   007297   007267               110081951 2387    100077651 2237    090000001         080078771 1897    070078881 2277    006461   007467   007511   009105   008153   008954   009409   009028   008352   008441   007699   007727                                      
610000100210012 00120 4113001EURE                0000000R.D. 912            0230262LA VENTROUZE        0090927023262022080610000100100000000001290      003927 2537    003407   003252   003714   004330   004173   004072   004449   004395   004253   003819   003675   003562               110040881 2407    100038871 2247    090000001         080039281 1697    070039231 2297    003291   003721   003719   004494   004087   004487   004490   004650   004191   004165   003973   003775                                      
