800004000310012 00250 4813001RD 49 Doullens      0330965limite Pas de Calais0401009Doullens            0350847006991006991800003400362000190030187      006792    0                                                                                                                            110068938    0    100072828    0    090000008    0    080068658    0    070000008    0                                                                                                                                                   
800003400310012 00250 4113001RN 1 Amiens         0090745RD 49 Doullens      0330965RAMPONNEAU          0120796025003025003800003400300000000000187      012457 1138    012257   012783   012644   012586   012515   013121   012042   011779   013017   012684   012275   011832               110126411 1108    100133541 1028    090000001    0    080125891 1108    070128471 1088    012083   012435   012801   012795   013133   013043   012498   011762   013238   012816   012652   012454                                      
800003400210012 00250 4113001RD 49 Doullens      0090745RN 1 Amiens         0330965RAMPONNEAU          0120796025003025003800003400300000000000187      006129 1118    006166   006499   006240   006160   006097   006397   005918   005783   006376   006167   005994   005785               110061891 1088    100068461  978    090000001    0    080061591 1078    070062761 1068    005926   006066   006234   006229   006424   006370   006413   005630   006470   006245   006195   006076                                      
800003400110012 00250 4113001RN 1 Amiens         0090745RD 49 Doullens      0330965RAMPONNEAU          0120796025003025003800003400300000000000187      006328 1168    006091   006284   006404   006426   006418   006724   006124   005996   006641   006517   006281   006047               110064521 1158    100065081 1128    090000001    0    080064301 1178    070065711 1138    006157   006369   006567   006566   006709   006673   006085   006132   006768   006571   006457   006378                                      
800003301310012 00250 4110201RN 29 Longueau      0000300RN 1 Amiens         0090745J VERNE             0020700015395015395800003400300000000000188      037868  910                                                                                                                            110000001    0    100375371  888    090000001    0    080000001    0    070000001    0                                                                                                                                                   
800003301210012 00250 4110201RN 1 Amiens         0000000RN 29 Longueau      0090745J VERNE             0020700015395015395800003400300000000000188      018993  878    018064   018430   018972   018796   018875   020139   018870   017735   019886   020271   019515   018400               110000001    0    100190051  858    090000001    0    080000001    0    070000001    0                                                                                                                                                   
800003301110012 00250 4110201RN 29 Longueau      0000000RN 1 Amiens         0090745J VERNE             0020700015395015395800003400300000000000188      018875  850                                                                                                                            110000001    0    100185321  938    090000001    0    080000001    0    070000001    0                                                                                                                                                   
800000600310012 00010 4810201RN 25               0280000RD 97               0320780Longpre Amiens      0300039004967004967800003301300000000000187      000000    0                                                                                                                            110000008    0    100000008    0    090000008    0    080000008    0    070000008    0                                                                                                                                                   
620521200310012 00160 1110241A 26                0870150Limite Nord         1030900CALAIS-MARCK        0880080016750016750800003301300000000000192      043265 2247    038731   036826   036062   042463   044038   046211   048475   047605   047219   045671   043948   041729               110413031 2177    100404811 2107    090000001    0    080000001    0    070000001    0    038497   040100   041105   043396   038763   040590   041519   042778   041914   043593   042587   040780                                      
620521200210012 00160 1110241Limite Nord         0870150A 26                1030900CALAIS-MARCK        0880080016750016750800003301300000000000192      021079 2277    019541   017445   015222   020280   021725   022519   023789   023463   023706   022710   021843   020597               110218401 2117    100215871 2047    090000001    0    080000001    0    070000001    0    019548   020263   021093   022304   022361   023192   023833   023520   022141   022249   021202   020272                                      
620521200110012 00160 1110241A 26                0870150Limite Nord         1030900CALAIS-MARCK        0880080016750016750800003301300000000000192      022186 2187    019190   019381   020840   022183   022313   023692   024686   024142   023513   022961   022105   021132               110194631 2327    100188941 2237    090000001    0    080000001    0    070000001    0    018949   019837   020012   021092   016402   017398   017686   019258   019773   021344   021385   020508                                      
620521100310012 00160 1810241Riviere Neuve       0820100A 26                0870150Les Fontinettes     0840400005050005050620520800300000000000192      000000    0                                                                                                                            110000008    0    100000008    0    090000008    0    080000008    0    070000008    0                                                                                                                                                   
620520800310012 00160 1110241Coquelles           0780455Riviere neuve       0820100CALAIS-LPA          0810950003645003645620520800300000000000194      042084 1620                                                                                                                            110000001    0    100000001    0    090000001    0    080000001    0    070000001    0                                                                                                                                                   
620520800210012 00160 1110341Riviere neuve       0780455Coquelles           0820100CALAIS-LPA          0810950003645003645620520800300000000000194      020426 1640                                                                                                                            110000001    0    100000001    0    090000001    0    080000001    0    070000001    0                                                                                                                                                   
620520800110012 00160 1110341Coquelles           0780455Riviere neuve       0820100CALAIS-LPA          0810950003645003645620520800300000000000194      021658 1590                                                                                                                            110000001    0    100190711 1737    090000001    0    080000001    0    070000001    0                                                                                                                                                   
620520300310012 00160 1110241Echang 35           0620000Coquelles           0780455LEUBRINGHEN         0680500016555016555620520800300000000000194      026614 1298    022875   022690   024330   027311   026809   029349   030978   031452   028737   026137   025210   023374               110266941 1208    100257911 1228    090000001         080255661 1168    070000001         022642   023593   024687   028181   026957   029057   030371   030821   027528   026837   025082   024381                                      
620520300210012 00160 1110241Coquelles           0620000Echang 35           0780455LEUBRINGHEN         0680500016555016555620520800300000000000194      013182 1238    011277   011304   012256   013615   013375   014694   015756   015429   013823   012867   012321   011407               110133051 1168    100128481 1168    090000001    0    080127741 1148    070130161 1128    011309   011888   012343   014245   013514   014453   015585   014911   013349   013241   012449   012282                                      
620520300110012 00160 1110241Echang 35           0620000Coquelles           0780455LEUBRINGHEN         0680500016555016555620520800300000000000194      013432 1398    011598   011386   012074   013696   013434   014655   015222   016023   014914   013270   012889   011967               110133891 1288    100129431 1328    090000001    0    080127921 1198    070131221 1198    011333   011705   012344   013936   013443   014604   014786   015910   014179   013596   012633   012099                                      
620510000310012 02160 1110141A 16                0000000RN 216              0010900DORET               0010800001900001900620520800300000000000792      023318 2807    020342   021274   022551   023349   022675   024933   025369   025200   025374   023596   023072   022068               110245371 2857    100249631 2787    090000001    0    080255101    0    070000001    0    021864   023386   024171   025347   025293   026065   026220   027197   026175   024347   023441   020912                                      
620510000210012 02160 1110131RN 216              0000000A 16                0010900DORET               0010800001900001900620520800300000000000792      012119 2727    010433   011044   011798   011984   011984   013071   013324   013046   012661   012514   011966   011575               110126131 2777    100129641 2687    090000001    0    080133051    0    070000001    0    011028   012056   012514   013278   013067   013410   014020   013306   013102   012394   012197   010973                                      
620510000110012 02160 1110131A A16               0000000RN 216              0010900DORET               0010800001900001900620520800300000000000792      011199 2987    009909   010230   010753   011365   010691   011862   012045   012154   012713   011082   011106   010493               110119241 3027    100119991 3017    090000001    0    080122051    0    070000001    0    010836   011330   011657   012069   012226   012655   012200   013891   013073   011953   011244   009939                                      
620502000310012 00210 1110231A 211               0120300Noyelles            0130700NOYELLES            0130100001409001409620520800300000000000187      078860  687    077394   077849   081390   081102   079326   083618   076995   069089   081094   082949   079307   076453               110635701    0    100660691    0    090000001    0    080000001    0    070000001    0                                                                                                                                                   
620502000210012 00210 1110231Noyelles            0120300A 211               0130700NOYELLES            0130100001409001409620520800300000000000187      038540  697    037866   038251   040086   039778   038770   040688   037671   034326   039625   039788   038354   037395               110331231    0    100343311    0    090000001    0    080000001    0    070000001    0                                                                                                                                                   
620502000110012 00210 1110231A 211               0120300Noyelles            0130700NOYELLES            0130100001409001409620520800300000000000187      040320  667    039528   039598   041304   041324   040556   042930   039324   034763   041469   043161   040953   039058               110304471    0    100317381    0    090000001    0    080000001    0    070000001    0                                                                                                                                                   
620501900310012 00210 1110231Dourges A 1         0210999Limite Nord         0260207COURCELLES LES LENS 0250800008337008337620520800300000000000187      056434 1027    059235   057888   057361   056638   056666   061635   053057   049439   060116   059255   055047   051212               110599841 1047    100533181  877    090000001    0    080467741  637    070505151  587    057372   060189   062187   061197   064035   063506   057207   049090   063640   061104   061529   059098                                      
620501900210012 00210 1110231Limite Nord         0210999Dourges A 1         0260207COURCELLES LES LENS 0250800005536005536620520800300000000000187      026420 1007    029409   028057   025906   025704   026362   028884   023195   023715   028212   028592   025894   023314               110296571 1017    100243251  797    090000001    0    080193131  437    070238081  397    028238   029896   030823   030354   031713   031346   028462   023673   031320   030507   030384   029351                                      
620501900110012 00210 1110231Dourges A 1         0210999Limite Nord         0260207COURCELLES LES LENS 0250800005536005536620520800300000000000187      030014 1077    029826   029831   031455   030934   030304   032751   029862   025724   031904   030663   029153   027898               110303271 1087    100289931 1017    090000001    0    080274611  917    070267071  927    029134   030293   031364   030843   032322   032160   028745   025417   032320   030597   031145   029747                                      
620501500310012 00210 1110231Noyelles/Lens       0130700Dourges A 1         0210999DOURGES             0200700008337008337620520800300000000000187      074296  977    073192   073568   077381   076633   075081   077073   072023   064759   076638   078072   073813   073500               110732271 1007    100635211  857    090000001    0    080719661  887    070701791  877    069522   073890   075922   075130   078018   077719   067916   062025   076900   072528   075103   074503                                      
620501500210012 00210 1110231Dourges A 1         0130700Noyelles/Lens       0210999DOURGES             0200700008337008337620520800300000000000187      037404  887    036582   037057   039049   038485   037655   039744   036808   033315   038452   038883   035999   036894               110373811  907    100327861  817    090000001    0    080354921  857    070340881  877    036103   037526   038820   038352   039761   038856   035267   033406   039235   036542   037566   037295                                      
620501500110012 00210 1110231Noyelles/Lens       0130700Dourges A 1         0210999DOURGES             0200700008337008337620520800300000000000187      036892 1167    036610   036511   038332   038148   037426   037329   035215   031444   038186   039189   037814   036606               110358461 1217    100307351  917    090000001    0    080364741  937    070360911  887    033419   036364   037102   036778   038257   038863   032649   028619   037665   035986   037537   037208                                      
620501100310012 00210 1810231RN 17               0101004A 211               0120300Lens                0110500001315001315620500700300000000000187      057654    0                                                                                                                            110898228    0    100933928    0    090000008    0    080000008    0    070000008    0                                                                                                                                                   
620501000310012 00210 1810231RN 47               0090800RN 17               0101004Lens                0100500001207001207620500700300000000000187      054509    0                                                                                                                            110849218    0    100882738    0    090000008    0    080000008    0    070000008    0                                                                                                                                                   
620500900310012 00210 1810231RN 43 Loos en Gohell0060900RN 47               0090800Lens                0090300002904002904620500700300000000000187      046094    0                                                                                                                            110718128    0    100746418    0    090000008    0    080000008    0    070000008    0                                                                                                                                                   
620500700310012 00210 1110231Echang Lievin       0030500RN 43 Loos en Gohell0060900LOOS EN GOHELLE     0060000003406003406620500700300000000000187      050968  777    040746   040676   034914   026067   025857   031145   031004   031823   029218   031799   035223   031875               110506451  787    100526441  797    090000001    0    080000001    0    070480131  877    046162   046609   051270   054708   055162   054724   046687   048088   053673   052044   049990   048573                                      
620500700210012 00210 1110231RN 43 Loos en Gohell0030500Echang Lievin       0060900LOOS EN GOHELLE     0060000003406003406620500700300000000000187      025484  777    015879   015903   008608   000000   000000   003342   007023   007737   003121   005196   009825   007843               110249551  777    100258651  777    090000001    0    080000001    0    070238101  837    022502   023142   025176   026904   027164   026965   022949   023628   026584   026024   024324   024087                                      
620500700110012 00210 1110231Echang Lievin       0030500RN 43 Loos en Gohell0060900LOOS EN GOHELLE     0060000003406003406620500700300000000000187      025484  777    024867   024773   026306   026067   025857   027803   023981   024086   026097   026603   025398   024032               110256901  797    100267791  847    090000001    0    080000001    0    070242031  927    023660   023467   026094   027804   027998   027759   023738   024460   027089   026020   025666   024486                                      
620500500310012 00210 1810231RD 937              0000000Echang Lievin       0030500Bully les Mines     0030000003498003498620500700100000000000187      019270    0                                                                                                                            110194268    0    100202508    0    090000008    0    080000008    0    070000008    0                                                                                                                                                   
620500400310012 00160 1110241Inter RN 42         0500000Echang 35           0620000WIMILLE             0540540011036011036620500700100000000000194      032254 1047    028701   028607   030265   032752   032089   035256   035897   036146   034376   032380   031261   029223               110000001         100000001         090000001         080000001         070000001                                                                                                                                                        
620500400210012 00160 1110241Echang 35           0500000Inter RN 42         0620000WIMILLE             0540540011036011036620500700100000000000194      015955 1067    014304   014161   014813   016168   015788   017336   017358   018084   017455   016036   015558   014368               110000001         100000001         090000001         080000001         070000001                                                                                                                                                        
620500400110012 00160 1110241Inter RN 42         0500000Echang 35           0620000WIMILLE             0540540011036011036620500700100000000000194      016299 1007    014397   014446   015452   016584   016301   017920   018539   018062   016921   016344   015703   014855               110131201    0    100126831    0    090000001    0    080125361    0    070000001    0                                                                                                                                                   
620500300310012 00010 1110441Dourges A 21        1870000Limite Nord         1930393SEADOURGES          1870500006438006438620500700100000000000187      107812 1727    101262   103926   108415   110974   112193   115891   114989   091096   112214   111393   108204   103455               111091901 1787    101098731 1787    090000001    0    080000001    0    070000001    0    103590   109784   111944   115104   115910   117394   115414   086898   113446   109854   105727   105751                                      
620500300210012 00010 1110441Limite Nord         1870000Dourges A 21        1930393SEADOURGES          1870500006438006438620500700100000000000187      054966 1717    051101   052910   055245   056551   057135   059429   060218   046410   056635   056626   054771   052676               110562641 1787    100564171 1817    090000001    0    080000001    0    070000001    0    053257   056470   056972   059119   059473   060419   060875   046770   058049   056030   053799   054156                                      
620500300110012 00010 1110441Dourges A 21        1870000Limite Nord         1930383SEADOURGES          1870500006438006438620500700100000000000187      052846 1747    050161   051016   053170   054423   055058   056462   054771   044686   055579   054767   053433   050779               110529261 1787    100534561 1727    090000001    0    080000001    0    070000001    0    050333   053314   054972   055985   056437   056975   054539   040128   055397   053824   051928   051595                                      
620500000310012 02110 1110231Avion               0000000A 21                0020810LENS-GARE           0010550002813002813620500700100000000000187      037900  567    036822   037499   039271   038212   037472   041420   036990   034384   041189   037967   037366   036398               110373041    0    100363371  557    090000001    0    080000001    0    070350171  577    035865   038051   039834   038369   039337   038206   033648   033214   039050   037902   037500   036872                                      
620500000210012 02110 1110231A 21                0000000Avion               0020810LENS-GARE           0010550002813002813620500700100000000000187      018541  597    018654   018750   019438   019029   018593   020555   017999   016801   019834   017482   017555   017906               110188101  587    100181421  587    090000001    0    080000001    0    070171851  567    018372   019206   020066   019190   019875   019409   017397   016409   019600   018728   019238   018337                                      
620500000110012 02110 1110231Avion               0000000A 21                0020810LENS-GARE           0010550002813002813620500700100000000000187      019359  517    018168   018749   019833   019183   018879   020865   018991   017583   021355   020485   019811   018492               110184941    0    100181951  517    090000001    0    080000001    0    070178321  577    017493   018845   019768   019179   019462   018797   016251   016805   019450   019174   018262   018535                                      
620406000310012 02160 4813001A 216               0020000Zone Portuaire Calai0030744Calais              0030000001900001900620510000300000000000793      023242    0                                                                                                                            110244588    0    100248838    0    090000008    0    080254298    0    070000008    0                                                                                                                                                   
620006100310012 04250 4813001RN 25               0000000RD 264              0001233St Catherine Les Arr0000500001233001233620001400300000000000104      000000    0                                                                                                                            110000008    0    100000008    0    090000008    0    080000008    0    070000008    0                                                                                                                                                   
620005700310012 00470 4813001Echang 3            0070200Limite Nord         0081278Douvrin             0080000002098002098          00000000000613      000000    0                                                                                                                            110000008    0    100000008    0    090000008    0    080000008    0    070000008    0                                                                                                                                                   
620005400310012 00470 4110101Inter A21           0000000Echang3             0070200VENDIN              0010140006935006935          00000000000901      046874  717    046877   046868   048332   047455   044800   044454   045981   046552   049547   049158   047792   044730               110474021  757    100000001    0    090000001    0    080000001    0    070000001    0    043583   045736   048508   048273   048411   049527   045456   044230   052068   048634   048680   045839                                      
620005400210012 00470 4110101Echang 3            0000000Inter A 21          0070200VENDIN              0010140006935006935          00000000000901      023567  697    024293   023714   024565   024166   023599   024819   022030   022030   024303   024122   023527   021727               110236981  757    100233401  737    090000001    0    080230441  797    070215981    0    021903   022843   024526   024313   024054   024852   022326   022198   025581   023734   024167   023928                                      
620005400110012 00470 4110101Inter A21           0000000Echang 3            0070200VENDIN              0010140006935006935          00000000000901      023307  757    022584   023154   023767   023289   021201   019635   023951   024522   025244   025036   024265   023003               110237041  757    100000001    0    090000001    0    080000001    0    070000001    0    021680   022893   023982   023960   024357   024675   023130   022032   026487   024900   024513   021911                                      
620004301310012 00420 4110101RN 43               0140000Inter A 16          0541121ALINCTHUN           0430850039904039904          00000000000187      012109 1428    011130   010606   012006   012174   012369   012396   012602   012919   012815   012762   012187   011280               110124191 1538    100126291 1558    090000001    0    080000001    0    070115411 1598    011377   011993   012248   013094   012510   013025   012822   012757   012729   012740   012024   011699                                      
620004301210012 00420 4110101Inter A 16          0140000RN 43               0541121ALINCTHUN_1         0430850039904039904          00000000000187      006236 1728    005728   005601   006108   006256   006528   006531   006585   006712   006571   006404   006129   005655               110064211 1878    100065851 1888    090000001    0    080000001    0    070060461 1938    005702   005995   006193   006831   006614   006853   006695   006700   006698   006712   006200   005844                                      
620004301110012 00420 4110101RN 43               0140000Inter A 16          0541121ALINCTHUN_2         0430850039904039904          00000000000187      005873  808    005402   005005   005898   005918   005841   005865   006017   006207   006244   006358   006058   005625               110059981  818    100060441  818    090000001    0    080000001    0    070054951  858    005675   005998   006055   006263   005896   006172   006127   006057   006031   006028   005824   005855                                      
620002001310012 00250 4113001Inter RN 17         0271283Inter RN 39         0321093ANZIN               0281000006963006963          00000000000901      018068 1657    016704   016971   017682   018303   018573   019259   018858   017970   018931   018817   017837   016910               110186851 1857    100180731 1827    090000001    0    080172621 1837    070172881 1827    016793   017400   018231   020303   019287   019006   018735   018924   019455   019039   018309                                               
620002001210012 00250 4113001Inter RN 17         0271283Inite RN 39         0321093ANZIN               0281000006963006963          00000000000901      008907 1677    007995   008200   008761   009071   009269   009470   009184   008818   009427   009444   008890   008349               110092461 1857    100089721 1837    090000001    0    080085501 1857    070086661 1837    008171   008676   009065   009955   009593   009417   009238   009337   009653   009420   009161                                               
620002001110012 00250 4113001Inter RN 39         0271283Inter RN 17         0321093ANZIN               0281000006963006963          00000000000901      009161 1617    008709   008771   008921   009232   009304   009789   009674   009152   009504   009373   008947   008561               110094391 1837    100091011 1817    090000001    0    080087121 1797    070086221 1797    008622   008724   009166   010348   009694   009589   009497   009587   009802   009619   009148                                               
620002000310012 00250 4114001Inter RD 265        0240280Inter RN 39         0271283WAGNONLIEU          0260545004813004813          00000000000901      009265 1777    008429   008568   008721   008889   009189   010485   009564   009182   010145   010385   009210   008425               110000001    0    100094131 1817    090000001    0    080085721 1757    070085321 1827                                                                                                                                                   
620002000210012 00250 4114001Inter RN 39         0240280Inter RD 265        0271283WAGNONLIEU          0260545004813004813          00000000000901      004643 1777    004269   004316   004302   004388   004521   005187   004708   004635   005032   005236   004814   004320               110000001    0    100045651 1817    090000001    0    080042421 1747    070042221 1817                                                                                                                                                   
620002000110012 00250 4114001Inter RD 265        0240280Inter RN 39         0271283WAGNONLIEU          0260545004813004813          00000000000901      004622 1777    004160   004252   004419   004501   004668   005298   004856   004547   005113   005149   004396   004105               110000001    0    100048481 1827    090000001    0    080043301 1777    070043101 1837                                                                                                                                                   
620001900310012 00250 4113001Limite Dep 80       0000000RD 265              0240280GOUY                0150400024315019380          00000000000187      008090 1930                                                                                                                            110000001    0    100069031 1937    090000001    0    080068481 1897    070069941 1947                                                                                                                                                   
620001900210012 00250 4113001RD 265              0000000Limite dep 80       0240280GOUY                0150400024315019380          00000000000187      003917 1900                                                                                                                            110000001    0    100034631 1867    090000001    0    080034011 1837    070035251 1917                                                                                                                                                   
620001900110012 00250 4113001Limite Dep 80       0000000RD 265              0240280GOUY                0150400024315019380          00000000000187      004173 1960                                                                                                                            110000001    0    100034401 2067    090000001    0    080034471 2027    070034691 2017                                                                                                                                                   
620001400310012 00170 4113001Acces A 26          0360100A 211               0441082VIMY                0360500009635009635          00000000000187      015919  987    015654   015919   016755   016283   014927   014598   015346   014858   016977   017407   016602   015724               110160331  967    100000001    0    090000001    0    080000001    0    070000001    0    014744   015415   016050   015917   016552   015852   014474   014656   016967   017844   018215   015748                                      
620001400210012 00170 4113001A 211               0360100Acces A 26          0441082VIMY                0360500009635009635          00000000000187      007924  947    008067   008125   008367   008158   007400   006938   007676   007257   008413   008602   008234   007864               110080371  927    100000001    0    090000001    0    080000001    0    070000001    0    007504   007755   008131   007980   008192   008089   007401   007287   008520   008730   008955   007922                                      
620001400110012 00170 4113001Acces A 26          0360100A 211               0441082VIMY                0390400009635009635          00000000000187      007995 1057    007587   007794   008388   008125   007527   007660   007670   007601   008564   008805   008368   007860               110079961 1047    100000001    0    090000001    0    080000001    0    070000001    0    007240   007660   007919   007937   008360   007763   007073   007369   008447   009114   009260   007826                                      
620001302310012 00170 4810101Int RN 50           0330000Int A 26            0360100Roclincourt         0350900002960002960620001400300000000000698      020281    0                                                                                                                            110204278    0    100000008    0    090000008    0    080000008    0    070000008    0                                                                                                                                                   
620000100310012 00010 4810101inter CD 940 st Leon0460000limite A 16         0500800St Leonard          0480833004048004048          00000000000613      000000    0                                                                                                                            110000008    0    100000008    0    090000008    0    080000008    0    070000008    0                                                                                                                                                   
600010000310012 00310 4113001début dev Beauvais  0170000Fin dev Beauvais    0290465BEAUVAIS            0180742012465012465          00000000000513      000000                                                                                                                                 110000001         100000001         090000001         080000001         070000001                                                                                                                                                        
600010000210012 00310 4113001fin dev Beauvais    0170000début dev Beauvai   0290465BEAUVAIS            0180742012465012465          00000000000513      000000                                                                                                                                 110000001         100000001         090000001         080000001         070000001                                                                                                                                                        
600010000110012 00310 4113001début dev Beauvais  0170000Fin dev Beauvais    0290465BEAUVAIS            0180742012465012465          00000000000513      000000    0                                                                                                                            110000001    0    100000001    0    090000001    0    080000001    0    070000001    0                                                                                                                                                   
600009000310012 00310 4113001Clermont RD 916 A   0530839déb dév Clermont    0550000CLERMONT            0540594001839001839          00000000000513      000000                                                                                                                                 110000001         100000001         090000001         080000001         070000001                                                                                                                                                        
600009000210012 00310 4113001déb dév Clermont    0530839Clermont RD 916A    0550000CLERMONT            0540594001839001839          00000000000513      000000                                                                                                                                 110000001         100000001         090000001         080000001         070000001                                                                                                                                                        
600009000110012 00310 4113001Clermont RD 916 A   0530839déb dév Clermont    0550000CLERMONT            0540594001839001839          00000000000513      000000    0                                                                                                                            110000001    0    100000001    0    090000001    0    080000001    0    070000001    0                                                                                                                                                   
600008301310012 03240 4815001Senlis RN 17        0010000Senlis RN 330       0020284Chamant             0020000001194001194600000800300000000001287      017254    0                                                                                                                            110000008    0    100197898    0    090000008    0    080000008    0    070000008    0                                                                                                                                                   
600008200310012 03300 4813001fin dev Ermenonville0100000Senlis RN 324       0191107Fontaine Chaalis    0110000010184010184600008100300000000001287      010143    0                                                                                                                            110108598    0    100100198    0    090000008    0    080000008    0    070096498    0                                                                                                                                                   
600008100310012 03300 4113001Belleville RN 2     0040239fin dév Ermenonville0100001ERMENONVILLE        0050800007149007149600008100300000000001287      008162 2097    007529   007565   008119   008075   008291   009045   008285   007975   008806   008761   008094   007401               110087381 2267    100080621 2137    090000001    0    080000001    0    070077641 1927    007288   007697   008539   009338   009667   010001   009127   008421   009544   008888   008375   007950                                      
600008100210012 03300 4113001fin dév Ermenonville0040239Belleville RN 2     0100000ERMENONVILLE        0050800007149007149600008100300000000000188      004063 2067    003764   003787   004029   004040   004126   004547   004182   003891   004350   004337   004022   003684               110043621 2297    100040151 2157    090000001    0    080000001    0    070039021 1817    003639   003851   004255   004625   004880   005051   004666   004147   004704   004378   004165   003970                                      
600008100110012 03300 4113001Belleville RN 2     0040239fin dév Ermenonville0100000ERMENONVILLE        0050800007149007149600008100300000000000188      004099 2147    003765   003778   004090   004035   004165   004498   004103   004084   004456   004424   004072   003717               110043761 2207    100040471 2097    090000001    0    080000001    0    070038621 2157    003649   003846   004284   004713   004787   004950   004461   004274   004840   004510   004210   003980                                      
600007000310012 00310 4113001Compiegne RN 1031   0790420Aisne               1040134COMPIEGNE           0850406025714025714600008100302000250031287      000000    0                                                                                                                            110000001    0    100000001    0    090000001    0    080000001    0    070000001    0                                                                                                                                                   
600007000210012 00310 4113001Aisne               0790420Compiegne RN 1031   1040134COMPIEGNE           0850406025714025714600008100302000250031287      000000                                                                                                                                 110000001         100000001         090000001         080000001         070000001                                                                                                                                                        
600007000110012 00310 4113001Compiegne RN 1031   0790420Aisne               1040134COMPIEGNE           0850406025714025714600008100302000250031287      000000    0                                                                                                                            110143161    0    100000001    0    090000001    0    080000001    0    070000001    0                                                                                                                                                   
600006001310012 10310 4110101RN 31               0000000RN 32 Clairoix      0070279VENETTE             0010500006840006840600008100300000000000194      032480  807    032746   032445   033641   032106   031858   033513   028672   029180   033166   033640   035304   033626               110332801  807    100000001    0    090000001    0    080000001    0    070305501  897                      031771   033644   034883   034414   031863   029240   034688   034238   034348   033837                                      
600006001210012 10310 4110101RN 32 Clairoix      0000000RN 31               0070279VENETTE             0010500006840006840600008100300000000000194      016312  777    016535   016219   016820   016040   015959   016816   014422   014636   016651   016852   017787   017066               110167041  787    100000001    0    090000001    0    080000001    0    070153391  897                      015744   016798   017472   017293   015906   014680   017321   017320   017340   017230                                      
600006001110012 10310 4110101RN 31               0000000RN 32 Clairoix      0070279VENETTE             0010500006840006840600008100300000000000194      016168  847    016211   016226   016821   016066   015899   016697   014250   014544   016515   016788   017517   016560               110165761  847    100000001    0    090000001    0    080000001    0    070152111  887                      016027   016846   017411   017121   015957   014560   017367   016918   017008   016607                                      
600005300310012 00310 4814001A 1                 0731041Compiegne RN 131    0790420Arsy                0750000005404005404600005100300000000001287      022931    0                                                                                                                            110232128    0    100226548    0    090000008    0    080233658    0    070236168    0                                                                                                                                                   
600005100310012 00310 4113001début dev Clermont  0550000A 1                 0731041CATENOY             0580600018036018036600005100300000000001287      012271 1278    011764   011892   012143   012586   012739   013437   011295   011401   013114   013137   012351   011448               110124211 1298    100121221 1288    090000001    0    080125021 1398    070126361 1408    011679   012173   012750   012816   013373   013275   011908   010734   013354   012852   012603   011589                                      
600005100210012 00310 4113001A 1                 0550000début dév Clermont  0731041CATENOY             0580600018036018036600005100300000000001287      006025 1208    005749   005846   005943   006185   006260   006597   005570   005626   006432   006439   006055   005623               110060811 1228    100059621 1208    090000001    0    080061541 1338    070062201 1348    005737   005964   006237   006259   006539   006492   005882   005261   006529   006272   006151   005673                                      
600005100110012 00310 4113001Début dév Clermont  0550000A 1                 0731041CATENOY             0580600018036018036600005100300000000001287      006246 1428    006015   006046   006200   006401   006479   006840   005725   005775   006682   006698   006296   005825               110063401 1448    100061601 1438    090000001    0    080063481 1518    070064161 1528    005942   006209   006513   006557   006834   006783   006026   005473   006825   006580   006452   005916                                      
600004500310012 00310 4110201Beauvais sortie     0300000Clermont RD 916A    0530839LA RUE St PIERRE    0420000024386024386600005100300000000001287      020492 1227    019844   020183   020379   020777   021397   022652   018897   019023   021920   021662   020776   018505               110213001 1257    100000001    0    090000001    0    080000001    0    070000001    0                      021777   021670   022791   022704   019841   018099   022134   021653   021154   021263                                      
600004500210012 00310 4110201Clermont RD 916A    0300000Beauvais Sortie     0530839LA RUE St PIERRE    0420000024386024386600005100300000000000188      010275 1217    009926   010112   010213   010399   010698   011371   009474   009577   010989   010893   010403   009301               110106791 1247    100000001    0    090000001    0    080000001    0    070000001    0                      010911   010848   011406   011370   010029   009072   011116   010857   010575   010649                                      
600004500110012 00310 4110201Beauvais sortie     0300000Clermont RD 916A    0530839LA RUE St PIERRE    0420000024386024386600005100300000000000188      010217 1257    009918   010071   010166   010378   010699   011281   009423   009446   010931   010769   010373   009204               110106211 1287    100000001    0    090000001    0    080000001    0    070000001    0                      010866   010822   011385   011334   009812   009027   011018   010796   010579   010614                                      
600000900310012 00020 4113001RN 330              0020700Dév Nanteuil        0110200NANTEUIL            0080650008884008884600005100300000000001287      000000                                                                                                                                 110000001         100000001         090000001         080000001         070000001                                                                                                                                                        
600000900210012 00020 4113001Dév Nanteuil        0020700RN 330              0110200NANTEUIL            0080650008884008884600005100300000000001287      000000                                                                                                                                 110000001         100000001         090000001         080000001         070000001                                                                                                                                                        
600000900110012 00020 4113001RN 330              0020700Dév Nanteuil        0110200NANTEUIL            0080650008884008884600005100300000000001287      000000    0                                                                                                                            110000001    0    100218311    0    090000001    0    080000001    0    070000001    0                                                                                                                                                   
600000800310012 00020 4113001Dév Nanteuil        0110200Limite Aisne        0291114GONDREVILLE         0250300018911018911600005100300000000001287      015115 1677    015622   015866   014353   015959   017211   016851   013911   013958   014912   014932   014660   013254               110000001    0    100173351 1357    090000001    0    080000001    0    070000001    0                                                                                                                                                   
600000800210012 00020 4113001Limite Aisne        0110200Dév Nanteuil        0291114GONDREVILLE         0250300018911018911600005100300000000000192      006916 1667    006274   006605   006936   007104   007250   007298   006813   006723   007272   007206   007124   006404               110000001    0    100064701 1327    090000001    0    080000001    0    070000001    0                                                                                                                                                   
600000800110012 00020 4113001Dev Nanteuil        0110200Limite Aisne        0291114GONDREVILLE         0250300018911018911600005100300000000000192      008199 1707    009348   009261   007417   008855   009961   009553   007098   007235   007640   007726   007536   006850               110000001    0    100108651 1387    090000001    0    080000001    0    070000001    0                                                                                                                                                   
590506000310012 00230 1110231Orchies             0160417Petite Foret        0370278BEUVRY              0210900021018021018600005100300000000000187      040670  897    040271   039671   041289   041753   041305   043604   039727   034904   042628   043213   041863   037983               110409831  907    100412291  927    090000001    0    080000001    0    070411531    0    040321   041041   042815   042782   043403   042770   036086   035305   044006   042770   041416   039316                                      
590506000210012 00230 1110231Petite Foret        0160417Orchies             0370278BEUVRY              0210900021018021018600005100300000000000187      020223  897    020084   019759   020581   020780   020550   021673   019765   017474   021174   021245   020779   018899               110204221  917    100205371  927    090000001    0    080000001    0    070206311    0    020124   020472   021249   021221   021582   021314   017907   017883   021957   021230   020638   019602                                      
590506000110012 00230 1110231Orchies             0160417Petite Foret        0370278BEUVRY              0210900021018021018600005100300000000000187      020447  897    020187   019912   020708   020973   020755   021931   019962   017430   021454   021968   021084   019084               110205611  897    100206921  927    090000001    0    080000001    0    070205221    0    020197   020569   021566   021561   021821   021456   018179   017422   022049   021540   020778   019714                                      
590505300310012 00160 1110241Coudekerque (RN 335)1251000Ghyvelde (RD 947)   1370656GHYVELDE OUEST      1330500011656011656600005100300000000000693      027142 2468    022315   022462   024602   027487   027964   027840   032456   034002   028718   027039   025565   024982               110272281 2488    100267681 2428    090000001    0    080271761 2658    070272531 2758    022573   023476   024548   029455   027297   028926   032817   033636   028214   026522   024702   024279                                      
590505300210012 00160 1110241Ghyvelde (RD 947)   1251000Coudekerque (RN 335)1370656GHYVELDE OUEST      1330500011656011656600005100300000000000693      013075 2508    011151   010827   011776   013319   013491   013144   015486   016440   014100   013093   012295   011651               110131061 2518    100129141 2458    090000001    0    080132371 2668    070132531 2778    011266   011320   011820   014029   013353   014037   015650   016289   013690   012530   011814   011333                                      
590505300110012 00160 1110241Coudekerque (RN335) 1251000Ghyvelde (RD 947)   1370656GHYVELDE OUEST      1330500011656011656600005100300000000000693      014067 2398    011164   011635   012826   014168   014473   014696   016970   017562   014618   013946   013270   013331               110141221 2428    100138541 2378    090000001    0    080139391 2638    070140001 2728    011307   012156   012728   015426   013944   014889   017167   017347   014524   013992   012888   012946                                      
590505200310012 00160 1150441Grande Synthe (RN2551190625Coudekerque (RN335) 1251000COUDEKERQUE         1240400006375006375600005100300000000000693      061031 1467    056226   056308   059457   060923   061784   062328   064871   064566   064133   063044   060547   057997               110607811  827    100591391  497    090000001    0    080621101    0    070623901 1467    055680   057383   060368   064801   062712   061832   060703   064008   063797   061447   059019   057496                                      
590505200210012 00160 1150441Coudekerque (RN335) 1190625Grande Synthe (RN2551251000COUDEKERQUE         1240400006375006375600005100300000000000693      031236 1447    029184   028903   030492   031368   031680   031161   032983   032802   033269   032448   030957   029491               110311361  497    100302101   07    090000001    0    080320881    0    070322671 1387    028852   029210   030776   032899   031987   032341   030926   032597   032947   031658   030270   029111                                      
590505200110012 00160 1150441Grande Synthe(RN225)1110625Coudekerque (RN335) 1251000COUDEKERQUE         1240400006375006375600005100300000000000693      029795 1507    027042   027405   028965   029555   030104   031167   031888   031764   030864   030596   029590   028506               110296451 1527    100289291 1517    090000001    0    080300221 1647    070301231 1617    026828   028173   029592   031902   030725   029491   029777   031411   030850   029789   028749   028385                                      
590505000310012 00160 1110241Grande Synthe(RD131)1170000Grande Synthe(RN225)1190625ZAC DU MOULIN       1170820002625002625600005100300000000000693      060333 1987    054307   054153   057715   060289   061479   063455   066109   065094   062758   061106   059653   057627               110000001    0    100000001    0    090000001    0    080000001    0    070000001    0                                                                                                                                                   
590505000210012 00160 1110241Grande Synthe(RN225)1170000Grande Synthe(RD131)1190625ZAC DU MOULIN       1170820002625002625600005100300000000000693      030459 1987    027875   027300   029192   030792   030825   031914   033258   032641   031898   030917   029954   028821               110000001    0    100000001    0    090000001    0    080000001    0    070000001    0                                                                                                                                                   
590505000110012 00160 1110241Grande Synthe(RD131)1170000Grande Synthe(RN225)1190625ZAC DU MOULIN       1170820002625002625600005100300000000000693      029874 1987    026432   026853   028523   029497   030654   031541   032851   032453   030860   030189   029699   028806               110000001    0    100000001    0    090000001    0    080000001    0    070000001    0                                                                                                                                                   
590504900310012 00160 1110241Craywick (RN 316)   1100800Grande Synthe(RD131)1170000CRAYWICK            1130000006200006200600005100300000000000693      051579 2147    046049   046155   049194   052388   052708   055422   057379   056432   054451   052791   049947   045873               110520331 2047    100489091 2097    090000001    0    080501601 2387    070506841 2337    045441   047389   049857   055850   053637   054852   057463   057452   052859   052355   049052   047895                                      
590504900210012 00160 1110241Grande Synthe(RD131)1100800Craywick (RN 316)   1170000CRAYWICK            1130000006200006200600005100300000000000693      025683 2097    023368   022918   024533   026351   026324   027466   028294   027393   027418   026473   024830   022758               110258591 1957    100242131 2017    090000001    0    080250761 2327    070253691 2327    022982   023575   024844   027521   026722   027230   028274   028315   026614   026180   024378   023531                                      
590504900110012 00160 1110241Craywick (RN 316)   1100800Grande Synthe(RD131)1170000CRAYWICK            1130000006200006200600005100300000000000693      025896 2247    022681   023237   024661   026037   026384   027956   029085   029039   027033   026318   025117   023115               110261741 2217    100246961 2247    090000001    0    080250841 2517    070253151 2367    022459   023814   025013   028329   026915   027622   029189   029137   026245   026175   024674   024364                                      
590504800310012 00160 1110241Limite Pas de Calais1030900Craywick (RN 316)   1100800ST GEORGES SUR L'AA 1050800006900006900600005100300000000000693      036548 2278    030906   031072   033950   037195   037367   038904   041641   041043   039563   037456   035740   033550               110361601 2238    100319871 2398    090000001    0    080000001    0    070000001    0    031064   032656   034147   038746   036511   038535   040683   039923   037391   036832   034507   032735                                      
590504800210012 00160 1110241Craywick (RN 316)   1030900Limite Pas de Calais1100800ST GEORGES SUR L'AA 1050800006900006900600005100300000000000693      018091 2238    015443   015384   016781   018588   018379   019254   020616   020206   019741   018604   017628   016388               110179501 2198    100171301 2318    090000001    0    080000001    0    070000001    0    015578   016194   016921   019152   018186   019184   020214   019667   018738   018365   016995   016113                                      
590504800110012 00160 1110241Limite Pas de Calais1030900Craywick (RN 316)   1100800ST GEORGES SUR L'AA 1050800006900006900600005100300000000000693      018457 2358    015463   015688   017169   018607   018988   019650   021025   020837   019822   018852   018112   017162               110182101 2308    100148571 2568    090000001    0    080178971 2538    070183941 2518    015486   016462   017226   019594   018325   019351   020469   020256   018653   018467   017512   016622                                      
590504700310012 00230 1810231Valenciennes Nord   0391001A 2                 0420539La Sentinelle       0410500002562002562590503902100000000000187      021041    0                                                                                                                            110213838    0    100212508    0    090000008    0    080000008    0    070211138    0                                                                                                                                                   
590504500310012 00230 1810231Petite Foret        0370278Valenciennes Nord   0391004Petite-Foret        0390073002739002739590503902300000000000187      061547    0                                                                                                                            110625758    0    100622968    0    090000008    0    080000008    0    070620098    0                                                                                                                                                   
590503902310012 00230 1110231Centre d'activites  0020000Orchies             0160417GENECH              0080700014440014440590503902300000000000187      050544  588    050526   049771   051270   050532   048998   053906   048978   044144   052766   054510   052267   049047               110513881  598    100511531  628    090000001    0    080000001    0    070509121  648    050690   051393   052606   051192   053046   052838   047935   048702   054094   052962   051579   049747                                      
590503902210012 00230 1110231Orchies             0020000Centre d'activites  0160417GENECH              0080700014440014440590503902300000000000187      024150  608    024190   023910   024521   024194   023382   025618   023242   021430   025148   025927   025018   023317               110245651  618    100244981  658    090000001    0    080000001    0    070244301  658    024337   024609   025036   024334   025123   025232   023090   023593   025769   025236   024652   023828                                      
590503902110012 00230 1110231Centre d'activites  0011001Orchies             0160417GENECH              0080700014440014440590503902300000000000187      026394  568    026336   025861   026749   026338   025616   028288   025736   022714   027618   028583   027249   025730               110268231  568    100266551  568    090000001    0    080000001    0    070264821  618    026353   026784   027570   026858   027923   027606   024845   025109   028325   027726   026927   025919                                      
590503901310012 00230 11102314 Cantons           0000000Centre D'activités  0020000CRT-LESQUIN         0000800001885001885590503902300000000000187      000000    0                                                                                                                            110000001    0    100000001    0    090000001    0    080000001    0    070608511  987                                                                                                                                                   
590503901210012 00230 1110231Centre D'activites  00000004 Cantons           0011001CRT-LESQUIN         0000800001885001885590503902300000000000187      000000    0                                                                                                                            110000001    0    100000001    0    090000001    0    080000001    0    070302491 1007                                                                                                                                                   
590503901110012 00230 11102314 Cantons           0000000Centre D'activites  0011001CRT-LESQUIN         0000800001885001885590503902300000000000187      000000    0                                                                                                                            110000001    0    100000001    0    090000001    0    080000001    0    070306021  947                                                                                                                                                   
590503700310012 00270 11102414 Cantons           0000000Frontière Belge     0121287ANSTAING            0070974010965010965590503902300000000000187      036185 1538    034203   034458   036667   037302   036577   038205   037197   033774   038047   037473   036416   033958               110000001    0    100000001    0    090000001    0    080333641    0    070333611 1918                                                                                                                                                   
590503700210012 00270 1110241Frontiere Belge     00000004 Cantons           0121287ANSTAING            0070974010965010965590503902300000000000187      017632 1538    016709   016313   017677   018066   017767   018796   018050   016246   018551   018545   018111   016763               110000001    0    100000001    0    090000001    0    080160061    0    070157981 1658                                                                                                                                                   
590503700110012 00270 11102414 Cantons           0000000Frontière Belge     0121287ANSTAING            0070974010965010965590503902300000000000187      018553 1538    017494   018145   018990   019236   018810   019409   019147   017528   019496   018928   018305   017195               110000001    0    100000001    0    090000001    0    080173581    0    070175631 2398                                                                                                                                                   
590503600310012 00220 1110641Ronchin             00000004 Cantons           0020811LESQUIN             0020340002402002402590503902300000000000996      127040    0                                                                                                                            110000001    0    100000001    0    090000001    0    080000001    0    070000001    0                                                                                                                                                   
590503600210012 00220 11106414 Cantons           0000000Ronchin             0020811LESQUIN             0020340002402002402590503902300000000000996      064077    0                                                                                                                            110000001    0    100000001    0    090000001    0    080000001    0    070000001    0                                                                                                                                                   
590503600110012 00220 1110641Ronchin             00000004 Cantons           0020811LESQUIN             0020340002402002402590503902300000000000996      062963    0                                                                                                                            110000001    0    100000001    0    090000001    0    080000001    0    070000001    0                                                                                                                                                   
590503502310012 00250 1110241Hazebrouck          0320216Bergues             0621068QUAEDYPRE           0590110030892030892590503902300000000000187      029006    8    025695   025771   027726   028587   030363   030705   032954   031140   031162   029519   028476   025867               110000001    0    100000001    0    090000001    0    080288351 1448    070296911 1448                                                                                                                                                   
590503502210012 00250 1110241Bergues             0320216Hazebrouck          0621068QUAEDYPRE           0590110030892030892590503902300000000000187      014100    8    012201   012184   013166   013501   014931   014916   016661   015680   015649   014266   013699   012272               110000001    0    100000001    0    090000001    0    080144951 1458    070149061 1448                                                                                                                                                   
590503502110012 00250 1110241Hazebrouck          0210316Bergues             0621068QUAEDYPRE           0590110030892030892590503902300000000000187      014906    8    013494   013587   014560   015086   015432   015789   016293   015460   015513   015253   014777   013595               110000001    0    100000001    0    090000001    0    080143401 1438    070147851 1448                                                                                                                                                   
590503000310012 00250 1110241Armentières Ouest   0200394Hazebrouck          0320216STEENWERCK          0240190011831011831590503902300000000000187      052408 1237    048324   047585   051528   052826   054014   055449   055669   053255   055415   053833   052273   048625               110000001    0    100000001    0    090000001    0    080518751 1287    070522311 1267                                                                                                                                                   
590503000210012 00250 1110241Hazebrouck          0200394Armentieres Ouest   0320216STEENWERCK          0240190011831011831590503902300000000000187      026325 1297    024402   023895   025780   026533   027302   027839   028159   026830   027657   026824   026281   024345               110000001    0    100000001    0    090000001    0    080259171 1317    070260231 1297                                                                                                                                                   
590503000110012 00250 1110241Armentieres Ouest   0200394Hazebrouck          0320216STEENWERCK          0240190011831011831590503902300000000000187      026083 1127    023922   023690   025748   026293   026712   027610   027510   026425   027758   027009   025992   024280               110000001    0    100000001    0    090000001    0    080259581 1217    070262081 1197                                                                                                                                                   
590502900310012 00250 1110231La Chapelle         0150680Armentieres Ouest   0200394LA_CHAPELLE         0160700004719004719590503902300000000000187      065202 1167    061277   060257   063796   065632   066439   069285   068413   064371   068466   067217   065651   061563               110659371 1127    100610611  947    090000001    0    080648291 1097    070653181 1157    060189   063601   065681   068984   068287   069626   066743   063173   069347   068171   064327   063173                                      
590502900210012 00250 1110231Armentières Ouest   0150680La Chapelle         0200394LA_CHAPELLE         0160700004719004719590503902300000000000187      032367 1167    030490   029887   031432   032683   033186   034237   034235   032221   033769   033038   032580   030605               110327491 1137    100303581  867    090000001    0    080321421 1067    070321001 1167    030024   031569   032509   034119   033909   034607   033450   031922   034247   033525   031717   031398                                      
590502900110012 00250 1110231La Capelle          0150680Armantieres Ouest   0200394LA_CHAPELLE         0160700004719004719590503902300000000000187      032835 1147    030787   030370   032364   032949   033253   035048   034178   032150   034697   034179   033071   030958               110331881 1117    100307031 1097    090000001    0    080326871 1157    070332181 1137    030165   032032   033172   034865   034378   035019   033293   031251   035100   034646   032610   031775                                      
590502800310012 00250 1110231Sequedin            0090098La Chapelle         0150680ENNETIERES          0110420006589006589590503902300000000000187      082492 1217    079253   078239   082369   083237   083222   087080   085163   079409   085898   084623   082783   078648               110838501 1197    100789681 1027    090000001    0    080829701 1227    070826151 1187    077177   081300   083865   086807   086586   087686   083852   078951   088208   086469   083148   082237                                      
590502800210012 00250 1110231La Chapelle         0090098Sequedin            0150680ENNETIERES          0110420006589006589590503902300000000000187      040703 1247    039073   038422   040351   041093   041249   042929   042491   039554   042161   041238   040892   038971               110412611 1227    100393971 1187    090000001    0    080409051 1267    070406521 1207    038058   039987   041003   042610   042484   043141   041778   039694   043064   041956   040735   040644                                      
590502800110012 00250 1110231Sequedin            0090098La Capelle          0150680ENNETIERES          0110420006589006589590503902300000000000187      041789 1167    040180   039817   042018   042144   041973   044151   042672   039855   043737   043385   041891   039677               110425891 1137    100395711  707    090000001    0    080420651 1167    070419631 1137    039119   041313   042862   044197   044102   044545   042074   039257   045144   044513   042413   041593                                      
590502600310012 00250 1110431Porte Ouest         0040488Sequedin            0090098LOOS                0050450004602004602590503902300000000000996      103990    0                                                                                                                            110000001    0    100000001    0    090000001    0    081036071  907    071079041  937                                                                                                                                                   
590502600210012 00250 1110431Sequedin            0040488Porte Ouest         0090098LOOS                0050450004602004602590503902300000000000996      051289    0                                                                                                                            110000001    0    100000001    0    090000001    0    080547141  947    070544491  937                                                                                                                                                   
590502600110012 00250 1110431Porte Ouest         0040488Sequedin            0090098LOOS                0050450004602004602590503902300000000000187      052701    0                                                                                                                            110000001    0    100000001    0    090000001    0    080488931  817    070534551  917                                                                                                                                                   
590502500310012 00250 1810431Porte de Bethune    0030890Porte Ouest         0040488Pt.Bethune/Ouest    0040150000595000595590502400300000000000187      000000    0                                                                                                                            110000008    0    100000008    0    090000008    0    080000008    0    070000008    0                                                                                                                                                   
590502400310012 00250 1110631Porte Des Postes    0020835Porte De Bethune    0030890PORTE DES POSTES    0030000001056001056590502400300000000000187      000000    0                                                                                                                            110000001    0    100000001    0    090000001    0    080000001    0    070000001    0                                                                                                                                                   
590502400210012 00250 1110631Porte De Bethune    0020835Porte Des Postes    0030890PORTE DES POSTES    0030000001056001056590502400300000000000187      000000    0                                                                                                                            110000001    0    100000001    0    090000001    0    080000001    0    070000001    0                                                                                                                                                   
590502400110012 00250 1110631Porte Des Postes    0020835Porte De Bethune    0030890PORTE DES POSTES    0030000001056001056590502400300000000000187      000000    0                                                                                                                            110000001    0    100000001    0    090000001    0    080000001    0    070000001    0                                                                                                                                                   
590502300310012 00250 1110431Porte D'Arras       0010792Porte Des Postes    0020835Pte ARRAS/POSTES    0020320001044001044590502400300000000000187      114787    0                                                                                                                            110000001    0    100000001    0    090000001    0    080000001    0    070000001    0                                                                                                                                                   
590502300210012 00250 1110431Porte Des Postes    0010792Porte D'Arras       0020835Pte ARRAS/POSTES    0020320001044001044590502400300000000000187      057393    0                                                                                                                            110000001    0    100000001    0    090000001    0    080000001    0    070000001    0                                                                                                                                                   
590502300110012 00250 1110431Porte D'Arras       0010792Porte Des Postes    0020835Pte ARRAS/POSTES    0020320001044001044590502400300000000000187      057394    0                                                                                                                            110000001    0    100000001    0    090000001    0    080000001    0    070000001    0                                                                                                                                                   
590502200310012 00250 1110631Porte Sud           0000000Porte D'Arras       0010792PORTE SUD           0010000001512001512590502400300000000000187      206206    0                                                                                                                            110000001    0    100000001    0    090000001    0    080000001    0    071517681    0                                                                                                                                                   
590502200210012 00250 1110631Porte d'Arras       0000000Porte Sud           0010792PORTE SUD           0010000001512001512590502400300000000000187      094306    0                                                                                                                            110000001    0    100000001    0    090000001    0    080000001    0    070750951    0                                                                                                                                                   
590502200110012 00250 1110631Porte Sud           0000000Porte D'Arras       0010792PORTE SUD           0010000001512001512590502400300000000000187      111900    0                                                                                                                            110000001    0    100000001    0    090000001    0    080000001    0    070766731    0                                                                                                                                                   
590502000310012 00020 1110241Marly               0640030Frontière Belge     0780456ONNAING             0720210014451014451590502400300000000000293      037132  978    033409   033431   035891   038678   037326   039443   043309   039273   038629   037654   035374   033042               110375361 1008    100363601 1018    090000001    0    080364321 1688    070357531 1848    032601   034129   036112   039201   037555   040009   043493   039112   039183   037895   035921   035028                                      
590502000210012 00020 1110241Frontière Belge     0640030Marly               0780456ONNAING             0720210014451014451590502400300000000000293      018582  688    016683   016727   018305   019302   018826   020201   022250   018753   018807   018781   017753   016526               110187661  718    100182871  738    090000001    0    080183281 1628    070179141 1838    016279   017095   018152   019648   018950   020298   022106   018683   019442   019008   017700   017732                                      
590502000110012 00020 1110241Marly               0640030Frontière Belge     0780456ONNAING             0720210014451014451590502400300000000000293      018550 1558    016726   016704   017586   019376   018500   019242   021059   020520   019822   018873   017621   016516               110187701 1588    100180731 1588    090000001    0    080181041 1818    070178391 1858    016322   017034   017960   019553   018605   019711   021387   020429   019741   018887   018221   017296                                      
590501901310012 00210 1813001Limite Nord         0260207Echang 19           0270557Courcelles          0270000001347001347          00000000000613      000000    0                                                                                                                            110000008    0    100000008    0    090000008    0    080000008    0    070000008    0                                                                                                                                                   
590501800310012 00020 1810241Valenciennes Sud    0600973Marly               0640030Aulnoy              0620210003061003061590502000300000000000187      090321    0                                                                                                                            110913048    0    100884368    0    090000008    0    080886128    0    070869688    0                                                                                                                                                   
590501700310012 00020 1110441Rocade Ouest        0590025Valenciennes Sud    0600973TRITH-SAINT-LEGER   0590400001948001948590502000300000000000187      000000    0                                                                                                                            110000001    0    100000001    0    090000001    0    080991701 1347    070999501 1367                                                                                                                                                   
590501700210012 00020 1110441Valenciennes Sud    0590025Rocade Ouest        0600973TRITH-SAINT-LEGER   0590400001948001948590502000300000000000187      000000    0                                                                                                                            110000001    0    100000001    0    090000001    0    080501481 1407    070507651 1437                                                                                                                                                   
590501700110012 00020 1110441Rocade Ouest        0590025Valenciennes Sud    0600973TRITH-SAINT-LEGER   0590400001948001948590502000300000000000187      000000    0                                                                                                                            110000001    0    100000001    0    090000001    0    080490221 1207    070491851 1197                                                                                                                                                   
590501600310012 00020 1810241Denain              0520775Rocade Ouest        0590025La Sentinelle       0580585006258006258590501300300000000000187      058481    0                                                                                                                            110601218    0    100585248    0    090000008    0    080576788    0    070588418    0                                                                                                                                                   
590501400310012 00020 1810241Neuville/Escaut     0471001Denain              0520775Neuville/Escaut     0500600004777004777590501300100000000000187      029331    0                                                                                                                            110301438    0    100292688    0    090000008    0    080292518    0    070294558    0                                                                                                                                                   
590501300310012 00020 1110241Hordain             0430000Neuville/Escaut     0471001LIEU SAINT AMAND    0450510005006005006590501300100000000000187      043478 1887    038985   039598   041759   044151   043150   046036   050199   045288   046095   044741   042422   039225               110446971 1907    100435111 1887    090000001    0    080428711 2227    070437451 2047    039339   040929   043486   047007   045087   048485   051835   044987   045711   044738   043335   041249                                      
590501300210012 00020 1110241Neuville/Escaut     0430000Hordain             0471001LIEU SAINT AMAND  B 0450510005006005006590501300100000000000187      021731 1807    019373   019823   020895   021944   021687   023447   025892   021551   022684   022415   021148   019867               110223481 1827    100218111 1817    090000001    0    080211841 1737    070219071 2027    019603   020454   021750   023550   022666   024470   026742   021563   022699   022376   021455   020753                                      
590501300110012 00020 1110241Hordain             0430000Neuville/Escaut     0471001LIEU SAINT AMAND    0450510005006005006590501300100000000000187      021747 2037    019612   019775   020864   022207   021463   022589   024307   023737   023411   022326   021274   019358               110223491 2067    100217001 2037    090000001    0    080216871 3187    070218381 2097    019736   020475   021736   023457   022421   024015   025093   023424   023012   022362   021880   020496                                      
590501210310012 00220 1110241Tourcoing Nord      0220440Belgique            0240983NEUVILLE/FERRAIN    0240564002543002543590501300100000000000187      000000    0                                                                                                                            110000001    0    100341221 2548    090361021 2200    080000001    0    070345701 2608                                                                                                                                                   
590501210210012 00220 1110241Belgique            0220440Tourcoing Nord      0240983NEUVILLE/FERRAIN    0240564002543002543590501300100000000000187      000000    0                                                                                                                            110000001    0    100171721 2848    090186381 2470    080000001    0    070178861 2938                                                                                                                                                   
590501210110012 00220 1110241Tourcoing Nord      0220440Belgique            0240983NEUVILLE/FERRAIN    0240564002543002543590501300100000000000187      025269 1338    019960   023683   023313   024779   026093   026318   029072   028695   026771   025837   024562   024087               110174171 1928    100169501 1948    090174641 1920    080000001    0    070166841 1908    015511   016262   016951   017693   017625   018156   019359   018907   018108   017900   016680   015773                                      
590501200310012 00220 1110241Tourcoing Nord      0220440Belgique            0240983NEUVILLE/FERRAIN    0240564002543002543590501300100000000000187      000000    0                                                                                                                            110000001    0    100000001    0    090000001    0    080000001    0    070345701 2608                                                                                                                                                   
590501200210012 00220 1110241Belgique            0220440Tourcoing Nord      0240983NEUVILLE/FERRAIN    0240564002543002543590501300100000000000187      000000    0                                                                                                                            110000001    0    100000001    0    090000001    0    080000001    0    070178861 2938                                                                                                                                                   
590501200110012 00220 1110241Tourcoing Nord      0220440Belgique            0240983NEUVILLE/FERRAIN    0240564002543002543590501300100000000000187      000000    0                                                                                                                            110000001    0    100000001    0    090000001    0    080000001    0    070166841 1908                                                                                                                                                   
590500800310012 00220 1110441Echang RN 350       0140055Tourcoing Nord      0220440MOUVAUX             0160050008382008382590501300100000000000187      092682 1427    088927   089451   092451   094493   093561   097820   096853   084120   095694   097662   093741   087561               110941841 1447    100938571 1447    090000001    0    080935061 1507    070931591 1507    090033   093485   097521   097355   099478   097627   091523   085277   096548   097168   093359   091032                                      
590500800210012 00220 1110441Tourcoing Nord      0140055Echang. RN 350      0220440MOUVAUX             0160050008382008382590501300100000000000187      047087 1497    044913   045432   047096   048149   047481   049933   050561   041778   048424   049397   047511   044446               110477951 1527    100476941 1527    090000001    0    080476431 1597    070477701 1627    045638   047374   049389   049591   050368   049713   047283   042517   049407   049090   047111   046168                                      
590500800110012 00220 1110441Echang. RN 350      0140055Tourcoing Nord      0220440MOUVAUX             0160050008382008382590501300100000000000187      045595 1267    044014   044019   045355   046344   046080   047887   046292   042342   047270   048265   046230   043115               110463891 1277    100461631 1277    090000001    0    080458631 1317    070453891 1257    044395   046111   048132   047764   049110   047914   044240   042760   047141   048078   046248   044864                                      
590500600310012 00220 1110431Wasquehal           0100054Echang RN 350       0140055PETIT WASQUEHAL     0100655003427003427590501300100000000000187      101209    0                                                                                                                            110000001    0    100000001    0    090000001    0    080000001    0    070000001    0                                                                                                                                                   
590500600210012 00220 1110431Echang RN 350       0100054Wasquehal           0140055PETIT WASQUEHAL     0100655003427003427590501300100000000000187      049961    0                                                                                                                            110000001    0    100000001    0    090000001    0    080000001    0    070000001    0                                                                                                                                                   
590500600110012 00220 1110431Wasquehal           0100054Echang RN 350       0140055PETIT WASQUEHAL     0100655003427003427590501300100000000000187      051248    0                                                                                                                            110000001    0    100000001    0    090000001    0    080000001    0    070499101    0                                                                                                                                                   
590500500310012 00220 1810431Babylone            0090000Wasquehal           0100054Echang.Babylone     0090215001046001046590500600100000000000187      000000    0                                                                                                                            110000008    0    100000008    0    090000008    0    080000008    0    070513748    0                                                                                                                                                   
590500400310012 00010 1110731Ronchin             2080350Lille               2101325RONCHIN             2090300002989002989590500600100000000000297      176079    0                                                                                                                            110000001    0    100000001    0    090000001    0    080000001    0    071783121    0                                                                                                                                                   
590500400210012 00010 1110731Lille               2080350Ronchin             2101325RONCHIN             2090300002989002989590500600100000000000297      086439    0                                                                                                                            110000001    0    100000001    0    090000001    0    080000001    0    070873621    0                                                                                                                                                   
590500400110012 00010 1110731Ronchin             2080350Lille               2101325RONCHIN             2090300002989002989590500600100000000000297      089640    0                                                                                                                            110000001    0    100000001    0    090000001    0    080000001    0    070909501    0                                                                                                                                                   
590500301310012 00010A1810231A 1                 0000000A 22                0001179Petit Ronchin       0000500001179001179          00000000001203      000000    0                                                                                                                            110000008    0    100000008    0    090000008    0    080000008    0    070000008    0                                                                                                                                                   
590500300310012 00010 1110631Seclin              2010315Ronchin             2080350FACHES              2070050007043007043          00000000000187      139636    0                                                                                                                            110000001    0    100000001    0    090000001    0    080000001    0    071416701    0                                                                                                                                                   
590500300210012 00010 1110631Ronchin             2010315Seclin              2080350FACHES              2070050007043007043          00000000000187      069561    0                                                                                                                            110000001    0    100000001    0    090000001    0    080000001    0    070709861    0                                                                                                                                                   
590500300110012 00010 1110631Seclin              2010315Ronchin             2080350FACHES              2070050007043007043          00000000000187      070075    0                                                                                                                            110000001    0    100000001    0    090000001    0    080000001    0    070706841 1257                                                                                                                                                   
590500100310012 00010 1110431Carvin (limite 62)  0000000Seclin              2010315MARTINSART          2000400007890007890          62050040030187      099706    0                                                                                                                            110000001    0    100000001    0    090000001    0    081075381 1797    071090321 1478                                                                                                                                                   
590500100210012 00010 1110431Seclin              0000000Carvin (limite 62)  2010315MARTINSART          2000400007890007890          62050040020187      045289    0                                                                                                                            110000001    0    100000001    0    090000001    0    080560241 1727    070566201 1428                                                                                                                                                   
