120500400110012 00750 1110231ECH.ENGAYRESQUE     2000000ECH ST GERMAIN      2150050LA GAMASSE          2100400015050015050          00000000000194      008046 1117    001511   002387   004785   008894   009003   008900   014216   017291   009846   006644   005502   005874               110075741 1177    100080521 1357    09      1         08      1         07      1         004679   005436   005782   009034   007963   009334   011299   013275   007821   007590   005847   002681                                      
120500400210012 00750 1110231ECH.ENGAYRESQUE     2000000ECH ST GERMAIN      2150050LA GAMASSE          2100400015050015050          00000000000194      008644 1947    004424   004532   005410   007973   008745   008246   015483   018935   009680   006644   005439   005499               110081241 1347    100078301 1847    09      1         08      1         07      1         004564   005054   005534   008187   007604   008534   014118   016136   008742   007380   005588   005702                                      
120500600110012 00750 1110231VIADUC DE MILLAU SUD2220953DEP HERAULT         2520695A 75 LA CAVALERIE   2380210030012030012          00000000000998      009639 1307    005207   005443   006311   009732   009918   010393   017381   018567   010872   008292   006202   006500               110096271 1317    100093061 1277    09      1         08      1         07      1         005211   005962   006389   009859   008848   011320   018973   017714   009756   008206   006231   006655                                      
120500600210012 00750 1110231VIADUC DE MILLAU SUD2220953DEP HERAULT         2520695A 75 LA CAVALERIE   2380210030012030012          00000000000998      009528 1237    005134   005663   006301   009158   010122   009505   014599   020836   012460   007704   006392   006353               110096291 1257    100094091 1257    09      1         08      1         07      1         005126   005797   006318   009383   008756   010842   015752   020512   011123   008587   006334   006617                                      
340001500310012 01090 4113001SUD GIGNAC          0200000NORD GIGNAC         0320000GIGNAC 34           0300700012000012000340000500300000000000490      010889  667    009792   009794   010832   011720   011896                                       011804   011621   010783               110114081  657    100102791  677    09      1         08      1         07      1         008956   009998   009982   011568   011339   012115   013626   014125   012177   011754   010320   010750                                      
340001500110012 01090 4113001SUD GIGNAC          0200000NORD GIGNAC         0320000GIGNAC 34           0300700012000012000340000500300000000000490      008318  817    007715   007719   008392   008953   009147                                                008473   008237               110087761  807    100081101  807    09      1         08      1         07      1         007143   007867   007864   008878   008812   009285   010247   010549   009295   009014   007963   008324                                      
340001500110012 01090 4113001SUD GIGNAC          0200000NORD GIGNAC         0320000GIGNAC 34           0300700012000012000340000500300000000000490      002576  167    002070   002068   002432   002756   002739                                                002945   003372               110026091  157    100021321  157    09      1         08      1         07      1         001788   002096   002105   002663   002527   002824   003367   003565   002871   002733   002310   002418                                      
340001500210012 01090 4113001SUD GIGNAC          0200000NORD GIGNAC         0320000GIGNAC 34           0300700012000012000340000500300000000000490      008256  917    007855   007805   008320   009018   009206                                                008393   007649               110088911  937    100083301  897    09      1         08      1         07      1         007389   007912   007967   009029   008988   009524   010572   010702   009363   008907   008029   008232                                      
340001500210012 01090 4113001SUD GIGNAC          0200000NORD GIGNAC         0320000GIGNAC 34           0300700012000012000340000500300000000000490      002830  167    002547   002401   002812   003204   003328                                                003148   002805               110031481  167    100023281  177    09      1         08      1         07      1         002286   002527   002543   003181   003065   003397   004123   004201   003566   003217   002887   002734                                      
340000500110012 00750 1110241NORD RN 109         2800000RN 109              2900450LODEVE_SUD          2800200010450010450          00000000000490      009965 1177    008095   008048   009303   012481   012805                              013192   010738   009587   009326               110124811 1057    100117851 1027    09      1         08      1         07      1         008000   008870   009196   012853   011921   014310   021515   020196   012816   011223   009096   009403                                      
340000500210012 00750 1110241NORD RN 109         2800000RN 109              2900450LODEVE_SUD          2800200010450010450          00000000000490      009317 1117    007568   007500   008825   011378   011720                              011912   010404   009060   008677               110118531 1017    100104661 1047    09      1         08      1         07      1         007502   008305   008761   011764   011176   013120   017616   021501   013392   011030   008741   008975                                      
340001404110012 01090 4110101EB 20 MONTPELLIER   0040000A 750               0100000JUVIGNAC OUEST      0050000006000006000                    0190      013000  947    011243   010139   011448   016266   016304                                                         014735               110153691  527    100141931  537    09      1         08      1         07      1         013207   014138   014114   015667   014648   014237   017592   018144   016677   016071   014712   015098                                      
340001404210012 01090 4110101EB 20 MONTPELLIER   0040000A 750               0100000JUVIGNAC OUEST      0050000006000006000                    0190      015516  597    014747   014532   015687   016559   016755                                                         015319               110156831  597    100080451  377    09      1         08      1         07      1         014244   014803   014993   016604   014063   015187   018629   018884   017388   013973   014137   015223                                      
480500100110012 00750 1110241LIMITE CANTAL       1140527LA GARDE SUD        1160943ALBARET_MARI_M      1160700002416002416480500100300000000001101      006370 1227    003393   004006   004129   006415   006193   006445   012011   012156   006639   004833   003940   004416               110062611 1367    100060131 1347    09      1         08      1         07      1         003300   003851   004115   006451   005546   006864   012998   011430   006291   005406   004036   004577                                      
480500101110012 00750 2110201LA GARDE            1160700LA GARDE            1160700ALBARET_MARI_M      1160700000000000000480500100300000000000794      000548 1847    000650   000002            000001                              000001                                                   110011471 1607    100011371 1647    09      1         08      1         07      1         000651   000664   000849   001073   001200   001221   002277   002085   001119   001040   000847   000673                                      
480500400110012 00750 1110241ST CHELY-SUD        1270799AUMONT-NORD         1330830AUMONT-NORD         1330830006053006053480500400300000010030393      006978 1487    003421   003722   004233   006968   006709   007210   013764   014084   007313   005227   004057   004531               110057261 1467    100056431         09      1         08      1         07      1         003568   004162   004560   005618   005052   005460   010517   009595   005492   005686   004102   004681                                      
480500400210012 00750 1110241ST CHELY-SUD        1270799AUMONT-NORD         1330830AUMONT-NORD         1330830006053006053480500400348000010030393      006941 1307    003552   003590   004320   006410   006987   006313   010650   016507   009203   005272   004027   004405               110053361 1067    100047911         09      1         08      1         07      1                                                                                                            005336                                      
480500600110012 00750 1110241ECH.37 LE BUISSON   1460000ECH.39 LE MONASTIER 1610000CHIRAC              15800000151000151006305019003          0199      006679 1407    003197   003519   003981   006671   006495   007057   013358   013799   007063   004871   003818   004278               110076731 1307    100061801 1407    09      1         08      1         07      1                                                               015277   012986   006430   005400   003884   004352                                      
480500600210012 00750 1110241ECH.37 LE BUISSON   1460000ECH.39 LE MONASTIER 1610000CHIRAC              15800000151000151006305019003          0199      006775  297    003262   003385   004001   006223   006886   006281   010677   016739   009084   005090   003773   004136               110084761  287    100065931  337    09      1         08      1         07      1                                                               013316   016661   007951   005762   004255   004317                                      
480500800110012 00750 1110241ECH.40 BANASSAC     1720047LIMITE AVEYRON      1790296BANASSAC            1720100007249007249630501900300000000000199      007575 1487    003678   004010   004632   007486   007352   007808   014290   014798   008026            003737   003658               110084541 1377    100071201 1437    09      1         08      1         07      1                                                               016301   014017   007291   006158   004544   004779                                      
480500801110012 00750 2111001                    0000000                    0010000BANASSAC            0000005001000001000630501900300000000000199      000186         000248                                                                                             000001               110004871         100004551         09      1         08      1         07      1                                                               000582   000584   000473   000469   000434   000412                                      
480500701110012 00750 2111001A75                 0000000N9                  0010000BANASSAC            0000005001000001000630501900300000000000199      000122 3047    000202                                       000001                                                000001               110004061         100003891         09      1         08      1         07      1                                                               000527   000518   000373   000363   000340   000348                                      
480500700110012 00750 1110241ECH.39 LE MONASTIER 1610724ECH.40 BANASSAC     1720047ST GERMAIN DU TEIL  1670000010323010323630501900300000000000199      008419 1217    004622   004935   005583   008490   008355   008899   015481   016028   009030   006358   004699   005599               110062831 1417    10      1         09      1         08      1         07      1                                                                                 007221   007142   005501   005739                                      
480002300110012 01060 4113001INTER.D984-JALCRESTE0221020INTER.D907-FLORAC   0440660FLORAC_SUD          0380500020631020631480002500300000000000995      001401 1357                                                                                              001404   001401               11      1         10      1         09      1         08      1         07      1                                                                                                                                                        
480002300210012 01060 4113001INTER.D984-JALCRESTE0221020INTER.D907-FLORAC   0440660FLORAC_SUD          0380500020631020631480002500300000000000995      001303 1417                                                                                              001343   001290               11      1         10      1         09      1         08      1         07      1                                                                                                                                                        
480002400110012 01060 4112001INTER.D907-FLORAC   0440660INTER.D907B         0510305FLORAC              0490000006245005698480002500300000000001287      001747  587    001201   001166   001372   001590   001746   001836   002478   003091   002022   001650   001342   001220               110017511  587    100017291  587    09      1         08      1         07      1         001192   001301   001340   001684   001659   001903   002557   003099   001965   001680   001343   001243                                      
480002400210012 01060 4112001INTER.D907-FLORAC   0440660INTER.D907B         0510305FLORAC              0490000006245005698480002500300000000001287      002005  797    001411   001406   001668   001853   001994   002142   002907   003259   002244   001909   001582   001411               110020161  807    100019511  767    09      1         08      1         07      1         001372   001534   001606   001995   001951   002197   003005   003254   002245   001922   001594   001474                                      
480000900110012 00880 4113001N102-ARDECHE        0000000INTERS.D906         0020000LANGOGNE            0010460002298000790480000900300000000000592      003444  947    001645                                                003573   004225   002830   002203                                 110025101 1137    100024351 1117    09      1         08      1         07      1         001564   001760   001938   002515   002482   002893   003800   004178   002728   002444   001947   001805                                      
480000900210012 00880 4113001N102-ARDECHE        0000000INTERS.D906         0020000LANGOGNE            0010460002298000790480000900300000000000592      003432  727    001732                                                003284   004178   002855   002207                                 110024341  917    100023661  907    09      1         08      1         07      1         001575   001733   001896   002345   002425   002778   003365   004154   002699   002424   001986   001759                                      
480001900110012 00880 4113001CARR.RN106 BALSIEGES0580619CARR.RN108 BARJAC   0650751BALSIEGES           0590200006756006640480001900300000000001192      003319         002510   002595   002889   003223   003431   003528   004426   004902   003687   003544   002535   002070               110033751         100032661         09      1         08      1         07      1         002495   002579   002861   003472   003510   003733   004441   004820   003612   003420   002820   002669                                      
480001900210012 00880 4113001CARR.RN106 BALSIEGES0580619CARR.RN108 BARJAC   0650751BALSIEGES           0590200006756006640480001900300000000001192      002723         002359   002403   002659   002952   003166   002341   003795   003039   002321   003069   002008   001850               110031321         100031061         09      1         08      1         07      1         002341   002549   002662   003275   003366   003445   004070   004265   003299   003094   002628   002532                                      
480002100110012 00880 4113001INTER.D31-CHANAC    0710883INTER.N9-AJUSTONS   0840280CHANAC              0740500011181011181480002500300000000001192      002198 1347    001548   001577   001832   002222   002436   002350            003762   002589   002249   001728   001665               110022851 1367    100021961 1377    09      1         08      1         07      1         001519   001697   001858   002253   002247   002565   003311   003732   002500   002180   001805   001694                                      
480002100210012 00880 4113001INTER.D31-CHANAC    0710883INTER.N9-AJUSTONS   0840280CHANAC              0740500011181011181480002500300000000001192      002073 1257    001508   001530   001763   002102   002301   002214            003332   002416   002176   001686   001609               110021361 1307    100020351 1307    09      1         08      1         07      1         001474   001631   001795   002087   002138   002376   002990   003269   002374   002073   001752   001626                                      
480001800110012 00880 4113001EB20 MENDE          0530185CARR.RN106 BALSIEGES0580619MENDE-SUD           0550300005284005015480001900300000000000793      004806  987    004018   004068   004463   004642   004900   005128   005955   006085   005136   004718   004369   004114               110048791  997    100048691 1007    09      1         08      1         07      1         003963   004244   004306   005048   005100   005226   005881   006024   005136   004960   004359   004245                                      
480001800210012 00880 4113001EB20 MENDE          0530185CARR.RN106 BALSIEGES0580619MENDE-SUD           0550300005284005015480001900300000000000793      004444  807    003803   003764   004165   004294   004549   004640   005406   005603   004756   004415   004030   003819               110045481  817    100045031  837    09      1         08      1         07      1         003789   004037   004022   004688   004864   004910   005230   005582   004839   004641   004089   003850                                      
480002500110012 01060 4112001CARR.D907B          0510305ST BAUZILE D41      0730660FLORAC_NORD         0530900021847021847480002500300000000000995      000543 1777    000316   000337   000414   000539   000644   000644            001357   000794   000507   000381   000345               110006591 1587    100006561 1587    09      1         08      1         07      1         000314   000346   000435   000586   000601   000797   001130   001501   000797   000580   000425   000363                                      
480002500210012 01060 4112001CARR.D907B          0510305ST BAUZILE D41      0730660FLORAC_NORD         0530900021847021847480002500300000000000995      000537 2167    000365   000388   000445   000554   000607   000641            001002   000730   000525   000437   000403               110006591 1947    100006581 1937    09      1         08      1         07      1         000348   000384   000474   000605   000591   000757   001206   001292   000777   000579   000458   000414                                      
340001501110012 07500 4110201NORD GIGNAC         0320000A 75                0380625ST FELIX DE LODEZ   0370600006625006625340000500300000000000402      012155  747    010607   010752   012134   013273   014015                                       013712   012458   012195               110125191  727    10      1         09      1         08      1         07      1                                                                                 014033   013021   011042   011981                                      
340001501210012 07500 4110201NORD GIGNAC         0320000A 75                0380625ST FELIX DE LODEZ   0370600006625006625340000500300000000000402      011695  747    010660   010482   011580   012868   013286                                       012979   011779   011388               110121781  737    10      1         09      1         08      1         07      1                                                                                 013563   012592   011237   011335                                      
480500100210012 00750 1110241LIMITE CANTAL       1140527LA GARDE SUD        1160943ALBARET_MARI_F      1160700002416002416480500100300000000000592      008471 1407    004208   004204   005092   007704   008476   008236   013222   020822   011207   006229   004676   005336               110084501 1287    100082471 1277    09      1         08      1         07      1         004247   004705   005207   008023   007199   009095   014576   020649   009119   007166   005424   005547                                      
480500101210012 00750 2110201LA GARDE            1160700LA GARDE            1160700ALBARET_MARI_F      1160700000000000000480500100300000000000794      001180 1747    000485   000481   000588   001018   001131   001132   002024   003349   001606   000760   000514   000652               110011721 1417    100011661 1477    09      1         08      1         07      1         000490   000543   000615   001052   000927   001274   002297   003276   001287   000900   000631   000691                                      
480500800210012 00750 1110241ECH.40 BANASSAC     1720047LIMITE AVEYRON      1790296BANASSAC            1720100007249007249630501900300000000000199      007301 1927    003784   003811   004604   006927   007624   006932   011279   017106   009499   005618   004115   004622               110090821 1817    100072191 1957    09      1         08      1         07      1                                                               013942   017140   008696   006455   004896   004783                                      
480500801210012 00750 2111001A75                 0000000N9                  0010000BANASSAC            0000005001000001000630501900300000000000199      002806                                                                                                            002806               110006881         100006091         09      1         08      1         07      1                                                               000797   000800   000663   000658   000583   000540                                      
480500701210012 00750 2111001N9                  0000000A75                 0010000BANASSAC            0000005001000001000630501900300000000000199      000003                                                                                                            000003               110005421         100004691         09      1         08      1         07      1                                                               000706   000700   000502   000469   000423   000356                                      
480500700210012 00750 1110241ECH.39 LE MONASTIER 1610724ECH.40 BANASSAC     1720047ST GERMAIN DU TEIL  1670000010323010323630501900300000000000199      008108 1217    004171   004490   005393   007459   008352   007795   012271   018290   010587   006387   004637   005316               110060271 1457    10      1         09      1         08      1         07      1                                                                                 008632   007157   005342   004382                                      
150500200110012 00750 1110241MASSIAC NORD        0630988MASSIAC SUD         0680500MASSIAC             0670600004512004512          00000000001200      005160 1787    005614                                                                  005682   005645   004385   004888               110073661 1797    100069061 1807    09      1         08      1         07      1         003793   004423   004646   007557   006608   008238   016191   013541   007155   006198   004668   005033                                      
150500200210012 00750 1110241MASSIAC NORD        0630988MASSIAC SUD         0680500MASSIAC             0670600004512004512          00000000001200      005088 1637    007234                                                                  008695   005559   004184   004613               110073891 1557    100076101 1797    09      1         08      1         07      1         004015   004264   004651   007082   006524   007800   012288   017217   008059   006364   005197   004854                                      
150500300110012 00750 1110241MASSIAC SUD         0680500VIELLESPESSE        0840600SALBAS              0760300016100016100          000      01200      005533 1767    005977                                                                  005946   005966   004822   005294               110062431 1757    10      1         09      1         08      1         07      1                                                                                 007609   006709   005221   005446                                      
150500300210012 00750 1110241MASSIAC SUD         0680500VIELLESPESSE        0840600SALBAS              0760300016100016100          000      01200      005531 1637    007651                                                                  009073   006002   004655   005052               110065171 1657    10      1         09      1         08      1         07      1                                                                                 008424   006924   005432   005315                                      
150500400110012 00750 1110241VIELLESPESSE        0840600ST FLOUR NORD       0920550ST FLOUR NORD ( M ) 0910400007950007950          000      01200      005645 1627    006054                                                                  006007   006047   004944   005441               110062681 1707    10      1         09      1         08      1         07      1                                                                                 007753   006720   005015   005486                                      
150500500110012 00750 1110241ST FLOUR NORD       0920550ST FLOUR SUD        0960300ST FLOUR ( M )      0930300003750003750          000      01200      004452 1927                                                                            005108   004813   003785   004308               110057271 2497    100033821 2107    09      1         08      1         07      1                           004012   006771   005830   010388                                                                                            
150500600110012 00750 1110241ST FLOUR SUD        0960300LIMITE LOZERE       1140610LOUBARESSE          1120800018310018310          000      01294      004980 1787    005151                                                                  005619   005335   004277   004838               110078311 1597    100037631 1867    09      1         08      1         07      1                           004397   007002   006557   008213   015895   013783   006958   005911   004432   004627                                      
150500600210012 00750 1110241ST FLOUR SUD        0960300LIMITE LOZERE       1140610LOUBARESSE          1120800018310018310          000      00300      004971 1787    005924                                                                  008153   005428   004145   004613               110080001 1687    100038891 1937    09      1         08      1         07      1                           004268   007244   006547   007807   012340   017278   008064   006249   004810   004550                                      
150500400210012 00750 1110241VIELLESPESSE        0840600ST FLOUR NORD       0920550ST FLOUR NORD ( F ) 0910400007950007950          000      01200      005600 1657                                                                            009238   006318   004690   005087               11      1         100042751 1797    09      1         08      1         07      1                                                                                                                                                        
150500500210012 00750 1110241ST FLOUR NORD       0920550ST FLOUR SUD        0960300ST FLOUR ( F )      0930300003750003750          000      01200      004447 1877                                                                            007752   004958   003684   004099               11      1         100033051 2067    09      1         08      1         07      1                                                                                                                                                        
150001900110012 01220 4113001NEUSSARGUES-MOISSAC 1100900MASSIAC CARF.RN 9   1360144LA ROCHE            1330000025244025244          000      31294      001758 1357    001449   001570   001667   001643   001720   001819   002189   002244   001874   001743   001529   001479               110018081 1507    100018221 1737    09      1         08      1         07      1         001544   001649   001646   001744   001696   001980   002166   002330   001871   001854   001672   001530                                      
150001900210012 01220 4113001NEUSSARGUES-MOISSAC 1100900MASSIAC CARF.RN 9   1360144LA ROCHE            1330000025244025244          000      31294      001776 1367    001406   001642   001664   001686   001737   001860   002163   002203   001841   001801   001659   001561               110018281 1387    100018351 1377    09      1         08      1         07      1         001537   001713   001626   001796   001713   001979   002257   002268   001881   001906   001638   001615                                      
150001700110012 01220 4113 51TUNNEL DU LIORAN    0880000MURAT               1010850LA GRANGE DE GANILH 09708500138500138500000000000          1200      002916 1057    002483   003066   002863   002560   002869   002876   003214   003834   002985   002787   002420   002076               110030061 1057    100029641 1037    09      1         08      1         07      1         002612   003134   002994   002767   002791   003110   003440   003928   003044   002908   002651   002696                                      
150001700210012 01220 4113 51TUNNEL DU LIORAN    0880000MURAT               1010850LA GRANGE DE GANILH 09708500138500138500000000000          1200      002928 1077    002465   003134   002848   002591   002864   002911   003289   003757   002942   002820   002531   002079               110030081 1067    100029931 1037    09      1         08      1         07      1         002578   003174   002974   002801   002792   003124   003488   003843   003028   002919   002623   002756                                      
150001500110012 01220 4113001BANCOU              0530380VIC SUR CERE        0680800MEYMAC              06202000154200154200000000000000      01287      003853  877    003483   003816   003792   003619   003837   003978   004154   004548   003998   003879   003481   003409               110039461  907    100039361  857    09      1         08      1         07      1         003495   003876   003814   003910   003904   004077   004274   004658   004067   003924   003690   003651                                      
150001500210012 01220 4113001BANCOU              0530380VIC SUR CERE        0680800MEYMAC              06202000154200154200000000000000      01287      003850  907    003513   003852   003797   003625   003821   003979   004159   004475   003977   003895   003516   003384               110039391  937    100039251  887    09      1         08      1         07      1         003500   003874   003830   003914   003889   004070   004344   004563   004046   003916   003697   003618                                      
150001200110012 01220 4113001MAURS               0050100LE ROUGET CARF.CD 200270800LE MARTINET         01507000227000227001500015003000      01294      001802  947    001548   001591   001746   001766   001787   001635   002113   002283   001862   001916   001407   001658               110018591  967    100018991         09      1         08      1         07      1                  001436   001635   001959   001842   001908   002099   002109                     001698   001666                                      
150001200210012 01220 4113001MAURS               0050100LE ROUGET CARF.CD 200270800LE MARTINET         01507000227000227001500015003000      01294      001811 1297    001527   001579   001704   001739   001835   001897   002059   002262   001823   001893   001141   001648               110018301 1257    100018761         09      1         08      1         07      1                  001445   001643   001838   001815   001888   002056   002101                     001685   001666                                      
070003300110012 01020 4113001CAR CD536           0530729MAYRES              0680187THUEYTS           B 0600000014317014317070003300300000000000188      002722 1197    001529   001564   001888   002529   002962   002967   003992   005030   003308   006479   001890   001659               110027011 1197    100026461 1177    09      1         08      1         07      1         001493   001726   001905   002670   002680   003213   004139   005045   003086   002655   001960   001746                                      
070003300210012 01020 4113001CAR CD536           0530729MAYRES              0680187THUEYTS           B 0600000014317014317070003300300000000000188      002730 1127    001570   001572   001902   002552   002952   003018   004174   004845   003235   006546   001907   001655               110027071 1117    100026401 1067    09      1         08      1         07      1         001522   001748   001906   002715   002687   003243   004367   004843   003008   002625   002007   001728                                      
070003500110012 01020 4113001CARD108             0840161LIMIT43             0941069PEREBEILLE          0940000011024011024          00000000000101      001873 1357    000995   000971   001256   001689   002060   001965   002892   003999   002327   001581   001153   001090               110016131 1467    10      1         09      1         08      1         07      1                                                                                 002135   001782   001334   001208                                      
070003500210012 01020 4113001CARD108             0840161LIMIT43             0941069PEREBEILLE          0940000011024011024          00000000000101      001873 1477    001003   000977   001262   001717   002024   002038   003164   003758   002210   001547   001160   001093               110015811 1557    10      1         09      1         08      1         07      1                                                                                 002058   001746   001338   001190                                      
070003200110012 01020 4113001CARD578             0440616CARD536             0530729LALEVADE            0470000009115009115070003300300000000000105      006293  627    004848   004837   005497   005972   006424   006717   007941   008840   006936   006427   005310   005072               110062721  627    100056511  657    09      1         08      1         07      1         004706   005055   005369   006295   006296   006811   007954   008832   006804   006282   005377   005123                                      
070003200210012 01020 4113001CARD578             0440616CARD536             0530729LALEVADE            0470000009115009115070003300300000000000105      006322  637    004916   004848   005523   005993   006468   006784   008127   008767   006972   006402   005278   005045               110062991  647    100056791  657    09      1         08      1         07      1         004743   005064   005376   006346   006339   006862   008131   008756   006769   006273   005477   005084                                      
430000600110012 00880 4113001ECHANGEUR.RD47      0160000ECHANGEUR.RD103     0350835BAL DES NEIGES      0230700019835019835          000      01100      007428  907    005820   006243   006953   007632   007375   009567   008501   008079   007975   007613   007069   006449               110067771  287    100070191  277    09      1         08      1         07      1         005613   005850   006317   006857   007069   007258   007816   007688   007277   007115   006311   006083                                      
430002000110012 01020 4113001CARREF.RD513        0560300VIEILLE-BRIOUDE     0740550LA LOCANDA          0640050018450018450430002000300000000001193      004500 1357    003541   003454   004064   004376   004528   004693   006102   006243   004523   004632   003805   003580               110047591 1367    10      1         09      1         08      1         07      1                                    004748   004592   004457   005873   006081   004696   004533   004097   003723                                      
430002000210012 01020 4113001CARREF.RD513        0560300VIEILLE-BRIOUDE     0740550LA LOCANDA          0640050018450018450430002000300000000001187      004446 1337    003491   003462   004040   004517   004848   004573   005803   005780   003942   004579   003747   003567               110046771 1317    10      1         09      1         08      1         07      1                                    004599   004431   004482   005870   005752   004627   004512   004044   003718                                      
430000600210012 00880 4113001ECHANGEUR.RD47      0160000ECHANGEUR.RD103     0350835BAL DES NEIGES      0230700019835019835          000      01187      007255  997    006400   006117   006975   007182   007662   007622   008122   008069   008143   007471   006786   006342               110074101 1027    100071911 1027    09      1         08      1         07      1         006314   006622   006888   007519   007738   008011   008090   008088   008056   007683   007300   006576                                      
630501000110012 00750 1110241Carf.RD978          0140634Carf.RD 797C        0180582AUTHEZAT            0170000004115004115630501000100000000001299      018574 1017    014337   014450   016371   016069   018702   020117   026885   026590   018836   018238   016373   015950               110190741 1027    100152331 1227    09      1         08      1         07      1         014315   015964   015961   019330   018397   020596   028712   024703   020088   018309   015905   016299                                      
630501000210012 00750 1110241Carf.RD978          0140634Carf.RD797C         0180582AUTHEZAT            0170000004115004115630501000100000000001299      018539 1067    014868   014275   016562   015676   018888   019035   023318   029390   022291            016285   015755               110188441 1067    100157061 1227    09      1         08      1         07      1         014865   015766   016221   018941   018440   020103   024230   028543   019687   017655   015208   016128                                      
630501000110012 00750 1110241Carf.RD978          0140634Carf.RD 797C        0180582AUTHEZAT            0170000004115004115630501000100000000001299      012993 1457    010731   010884   012051   012982   013108   013931   016425   016381   013146   012780   011806   011594               110131101 1487    100128981 1447    09      1         08      1         07      1         010765   011704   011775   013597   013048   014042   017005   015498   013795   012809   011528   011631                                      
630501000110012 00750 1110241Carf.RD978          0140634Carf.RD 797C        0180582AUTHEZAT            0170000004115004115630501000100000000001299      005831         003606   003566   004377   005138   005713   006772   010460   010209   005690   005458   004567   004356               110060011         100053921         09      1         08      1         07      1         003550   004260   004240   005860   005349   006644   011707   009204   006412   005500   004397   004699                                      
630501000210012 00750 1110241Carf.RD978          0140634Carf.RD797C         0180582AUTHEZAT            0170000004115004115630501000100000000001299      006364  307    004522   004230   005075   005242   006327   006457   008502   012023   008031   006067   005147   004903               110119361 1407    100122871 1447    09      1         08      1         07      1         010220   010716   011203   012690   012436   013126   014881   016600   013394   013101   009652   005127                                      
630501000210012 00750 1110241Carf.RD978          0140634Carf.RD797C         0180582AUTHEZAT            0170000004115004115630501000100000000001299      012438 1457    010347   010046   011487   011570   012739   012764   014816   017367   014073   012292   011035   010852               110071061  527    100064741  347    09      1         08      1         07      1         004645   005168   005099   006360   006005   007215   011207   011943   006728   004431   005192   011002                                      
630501800310012 00750 1110241Carf. RD76          0450600LIMITE Hte LOIRE    0490000NORD DE LEMPDES     0470000003400003400          43000000011299      010602  977    008166   008298   009033   004545   009388   012036   012419   020757   013474            009482   009207               110111241  827    100116061  877    09      1         08      1         07      1         008316   008524   009678   011047   011579   012091   011866   017891   012950   011232   009487   008605                                      
630501800110012 00750 1110241Carf.RD76           0450600LIMITE Hte LOIRE    0490000NORD DE LEMPDES     0470000003400003400          43000000011299      007694 1327    005533   005091   007410   003348   008169            011532   013454   010136            007414   007601               110092811 1427    100091091 1337    09      1         08      1         07      1         006877   007074   007859   008959   009660   009988   013901   012624   009926   008977   008160   007145                                      
630501800110012 00750 1110241Carf.RD76           0450600LIMITE Hte LOIRE    0490000NORD DE LEMPDES     0470000003400003400          43000000011299      003474  267    001489   001594   001938   003176   003168   003509   007481   007300   003337   011425   002068   002112               110034441  267    100032861  247    09      1         08      1         07      1         001538   001902   001920   003313   002794   003854   008699   006771   003127   002934   001984   002243                                      
630501800210012 00750 1110241Carf.RD76           0450600LIMITE Hte LOIRE    0490000NORD DE LEMPDES     0470000003400003400          43000000011299      009107 1647    006830   006646   007720   009080   009375   009314   011529   014112   010707            007637   007001               110091411 1607    100090611 1657    09      1         08      1         07      1         006813   006877   007876   008787   009944   009611   012001   014096   010100   008942   007809   007679                                      
630501800210012 00750 1110241Carf.RD76           0450600LIMITE Hte LOIRE    0490000NORD DE LEMPDES     0470000003400003400          43000000011299      003593  277    001695   001550   002045   002953   003493   003115   005585   009547   004950            002322   002055               110036751  297    100035411  307    09      1         08      1         07      1         001664   002088   002136   003259   002914   003893   006434   009591   004201   003185   002364   002175                                      
630501900110012 07110 1110241Carf.N89            0000000INTER A72           0060410SORTIE EST          0040000005056005056          00000000001299      021994  517    022075   021292   023088   021673   021677   023442   021689   018935   022754   023602   023278   021854               110228811  517    10      1         09      1         08      1         07      1                                                                                 022996   023085   022854   022590                                      
630501900210012 07110 1110241Carf.RN 89          0000000Carf.A72            0060410SORTIE EST          0040000005056005056          00000000001299      021284  497    021318   020608   022373   021081   021016   022816   021311   018380   021973   024799   023331   021137               110222971  487    10      1         09      1         08      1         07      1                                                                                 022656   022481   022167   021894                                      
630501900110012 07110 1110241Carf.N89            0000000INTER A72           0060410SORTIE EST          0040000005056005056          00000000001299      016931  617    016965   016445   017583   016906   016823   017774   016915   015325   017508            018040   016858               110175641  627    10      1         09      1         08      1         07      1                                                                                 018050   017566   017398   017253                                      
630501900110012 07110 1110241Carf.N89            0000000INTER A72           0060410SORTIE EST          0040000005056005056          00000000001299      006354  177    005110   004847   006856   004767   004854   005668   004774   003610   005246   022757   006859   004996               110054981  147    10      1         09      1         08      1         07      1                                                                                 005633   005519   005507   005337                                      
630501900210012 07110 1110241Carf.RN 89          0000000Carf.A72            0060410SORTIE EST          0040000005056005056          00000000001299      014121  667    014026   013756   014592   014101   013838   014661   014442   013194   014583            014770   013922               110145961  677    10      1         09      1         08      1         07      1                                                                                 014885   014721   014482   014301                                      
630501900210012 07110 1110241Carf.RN 89          0000000Carf.A72            0060410SORTIE EST          0040000005056005056          00000000001299      007128  147    007293   006852   007780   006980   007178   008155   006869   005185   007390            008561   007215               110077131  137    10      1         09      1         08      1         07      1                                                                                 007772   007759   007733   007593                                      
630500600110012 00750 1150241Ech 1               0020000Carf RD 137         0040810AUBIERE             0020350002810002810630501000100000000001299      032182  887    028358   028650   031528   031823   031247   034502   038848   035056   033626   031829   030950   029088               110320011  887    100308101  877    09      1         08      1         07      1         027585   030038   029914   032171   031706   033444   039415   034112   033615   031910   029850   030098                                      
630500600210012 00750 1150241Ech 1               0020000Carf.RD 137         0040810AUBIERE             0020350002810002810630501000100000000001299      031229  867    027733   027407   030374   030286   030779   032468   034891   037878   034167   031004   029335   027599               110307921  877    100299021  837    09      1         08      1         07      1         024058   028053   029069   030936   030654   032093   034654   036999   033809   031030   029246   028740                                      
630500600210012 00750 1150241Ech 1               0020000Carf.RD 137         0040810AUBIERE             0020350002810002810630501000100000000001299      020288 1177    018497   018480   019998   019983   020217   020901   021999   023301   021584   020299   019270   018617               110203511 1197    100204681 1207    09      1         08      1         07      1                  018552   019461   020410   020241   020808   021901   022706   021210   020047   019118   019064                                      
630500600210012 00750 1150241Ech 1               0020000Carf.RD 137         0040810AUBIERE             0020350002810002810630501000100000000001299      010896  297    009237   008928   010386   010303   010562   011567   012739   014576   012583   010704   010065   008982               110109971  297    100113111  307    09      1         08      1         07      1         009224   009763   009751   010643   010413   011284   013110   014293   012607   010983   010113   009676                                      
630500800110012 00750 1110241Carf.RD 978         0060210Carf.RD213          0090956noviale             0060500003888003888630501000100000000001299      023930  687    020242                                                                  018389   025352   023664   023137               110255781  767    100249471  767    09      1         08      1         07      1         021251   023372   023038   026230   025108   027276   034564   030148   025009   024835   022571   023301                                      
630500800210012 00750 1110241Carf.RD978 Nø4      0060210ECHANGEUR D213 Nø5  0090956NOVIALE             0060500003888003888630501000100000000001299      022249  787                                                                                              022758   022084               110234641  817    100245591  827    09      1         08      1         07      1         021282   022370   022761   025211   024549   025701                                                                                            
630500800110012 00750 1110241Carf.RD 978         0060210Carf.RD213          0090956noviale             0060500003888003888630501000100000000001299      014998  917                                                                                              015097   014966               110147921 1247    100154911         09      1         08      1         07      1         013395   014385   014451   015789   015369   015953                                                                                            
630500800110012 00750 1110241Carf.RD 978         0060210Carf.RD213          0090956noviale             0060500003888003888630501000100000000001299      015855  167    023355                                                                  023372   024853   009425   008172               110167791  367    100107411  197    09      1         08      1         07      1         007856   008987   008653   010561   009739   017377   029101   032464   023661   020005   017247   021262                                      
630500800210012 00750 1110241Carf.RD978 Nø4      0060210ECHANGEUR D213 Nø5  0090956NOVIALE             0060500003888003888630501000100000000001299      015833  857                                                                                              016139   015734               110168881 1067    100178301 1117    09      1         08      1         07      1         015199   015934   016374   017909   018163   018568                                                                                            
630500800210012 00750 1110241Carf.RD978 Nø4      0060210ECHANGEUR D213 Nø5  0090956NOVIALE             0060500003888003888630501000100000000001299      006416  197                                                                                              006619   006350               110068371  217    100081591  237    09      1         08      1         07      1         006083   006435   006446   007424   006989   008404                                                                                            
630501300110012 00750 1110241Carf RD 9           0300000Carf. RD 996        0310000ORBEIL              0310000001120001120630501300100000000001299      012514 1067                                                                            010912   012275   013071   012592               110143581 1047    100131001 1057    09      1         08      1         07      1         009280   010606   010831   014191   012958   014908   021234   020798   013017                                                                 
630501300110012 00750 1110241Carf RD 9           0300000Carf. RD 996        0310000ORBEIL              0310000001120001120630501300100000000001299      011148 1327    009105   008492   010482   012209   013425   013471   014692                              010524   010421               110103781 1337    100101531 1287    09      1         08      1         07      1         007694   008671   008862   010968   010085   011306   015208   015342                                                                          
630501300110012 00750 1110241Carf RD 9           0300000Carf. RD 996        0310000ORBEIL              0310000001120001120630501300100000000001299      002125  317                                                                                              001983   002171               110100621 1337    100101531 1287    09      1         08      1         07      1         007696   008671   008862   010968   010085   011306   015208   014440   004998                                                                 
630501300210012 00750 1110241Carf RD 9           0300000Carf. RD 996        0310000ORBEIL              0310000001120001120630501300100000000001299      011137 1227    009105   008492   010482   012209   013425   013471   014692                              010185   010466               110133411 1217    100132091 1237    09      1         08      1         07      1         009485   010178   010721   013407   012948   014309   018277   017768   012765                                                                 
630501300210012 00750 1110241Carf RD 9           0300000Carf. RD 996        0310000ORBEIL              0310000001120001120630501300100000000001299      008914 1187                                                                                              008648   008999               110108781 1307    100102561 1317    09      1         08      1         07      1         008239   008779   009141   010895   010555   011483   013964   013898   011030                                                                 
630501300210012 00750 1110241Carf RD 9           0300000Carf. RD 996        0310000ORBEIL              0310000001120001120630501300100000000001299      001484  947                                                                                              001537   001467               110028301  877    100026911  857    09      1         08      1         07      1         001163   001422   002121   002493   002393   003494   004800   004816   002720                                                                 
630500501110012 0A750 1150241A 71                0000000Voie ferrée         0010000LA POUDRIERE        0000845001000001000630501000100000000000408      032325  807    026875                                                                  020501   033758   033275   031463               110328751  877    100319261  867    09      1         08      1         07      1         028407   029412   030964   031666   032323   034085   039045   034999   034250   034062   032300   032674                                      
630500501210012 0A750 1150241A 71                0000000Voie ferrée         0010000LA POUDRIERE        0000845001000001000630501000100000000000408      031068  887    029460                                                                  024592   032853   031465   029505               110319861  897    100312271  837    09      1         08      1         07      1         027380   028304   029843   030625   031311   032826   036479   038085   033745   032882   031274   030743                                      
630500502110012 0A750 1150241Voie ferrée         0010000Ech 1               0020000LA PARDIEU          0010547001000001000630501000100000000000408      024383  987    020891                                                                  017492   026417   024454   022884               110258181 1007    100239141  977    09      1         08      1         07      1         021714   023757   023971   026446   025447   026039   033261   029717   026646   025395   023575   023626                                      
630500502210012 0A750 1150241Voie ferrée         0010000Ech 1               0020000LA PARDIEU          0010547001000001000630501000100000000000408      024273  907    024413                                                                  020780   025940   024315   022689               110260301  917    100253881  887    09      1         08      1         07      1         022451   023907   024437   026464   025258   026520   030484   030917   027740   026028   024350   023632                                      
630500700110012 00750 1110241Carf.RD 137         0040810Carf.RD978          0060210LES LITTES          0050500001437001437630501000100000000001299      032675  637    028586   028783   031237   032339   032113   035052   040044   036448   023790   032792   031109   030215               110327761  637    100320831  617    09      1         08      1         07      1         028403   030092   030363   033462   032509   034753   041146   035873   033344   032312   030090   030727                                      
630500701110012 00750 2110201Carf.RD 137         0040810Carf.RD978          0060210LES LITTES          00505000014370014376305010001000      01299      007725  567    008072   007889   009125   007520   007463   008244   007123   005759   004133   008159   009068   007518               110076221  547    100072151  547    09      1         08      1         07      1         007465   007383   007995   007563   007685   007441   006747   005753   009124   008183   008258   007912                                      
630500600210012 00750 1150241Ech 1               0020000Carf.RD 137         0040810AUBIERE             0020350002810002810630501000100000000001299      031207  697    030153                                                                  027623   033002   030922   029841               110321411  727    100318381  727    09      1         08      1         07      1         026950   027739   029215   031971   032869   034158   037014   039632   033950   031744   029850   030213                                      
120500400310012 00750 1110231ECH.ENGAYRESQUE     2000000ECH ST GERMAIN      2150050LA GAMASSE          2100400015050015050          00000000000194      016690 1577    005935   006919   010195   016867   017748   017146   029699   036226   019526   013288   010941   011373               110156981 1267    100158821 1707    09      1         08      1         07      1         009243   010490   011316   017221   015567   017868   025417   029411   016563   014970   011435   008383                                      
120500600310012 00750 1110231VIADUC DE MILLAU SUD2220953DEP HERAULT         2520695A 75 LA CAVALERIE   2380210030012030012          00000000000998      019167 1267    010341   011106   012612   018890   020040   019898   031980   039403   023332   015996   012594   012853               110192561 1287    100187151 1267    09      1         08      1         07      1         010337   011759   012707   019242   017604   022162   034725   038226   020879   016793   012565   013272                                      
340000500310012 00750 1113041NORD RN 109         2800000RN 109              2900450LODEVE_SUD          2800200010450010450          00000000000490      019282 1147    015663   015548   018128   023859   024525                              025104   021142   018647   018003               110243341 1037    100222511 1037    09      1         08      1         07      1         015502   017175   017957   024617   023097   027430   039131   041697   026208   022253   017837   018378                                      
340001404310012 01090 4810101EB 20 MONTPELLIER   0040000A 750               0100000JUVIGNAC OUEST      0050000006000006000          00000000000190      028516  757    025990   024671   027135   032825   033059                                                         030054               110310528  567    100222388  487    09      8         08      8         07      8         027451   028941   029107   032271   028711   029424   036221   037028   034065   030044   028849   030321                                      
480500100310012 00750 1110241LIMITE CANTAL       1140527LA GARDE SUD        1160943ALBARET_MARI_M      1160700002416002416480500100300000000000592      014841 1337    007601   008210   009221   014119   014669   014681   025233   032978   017846   011062   008616   009752               110147111 1317    100142601 1307    09      1         08      1         07      1         007547   008556   009322   014474   012745   015959   027574   032079   015410   012572   009460   010124                                      
480500101310012 00750 2110201LA GARDE            1160700LA GARDE            1160700ALBARET_MARI_M      1160700000000000000480500100300000000000794      001728 1757    001135   000483            001019                              003350                                                   110023191 1497    100023031 1517    09      1         08      1         07      1         001141   001207   001464   002125   002127   002495   004574   005361   002406   001940   001478   001364                                      
480500400310012 00750 1110241ST CHELY-SUD        1270799AUMONT-NORD         1330830AUMONT-NORD         1330830006053006053480500400348000010030393      013919 1397    006973   007312   008553   013378   013696   013523   024414   030591   016516   010499   008084   008936               110110621 1267    100104341         09      1         08      1         07      1                                                               000518                                       010017                                      
480500600310012 00750 1110241ECH.37 LE BUISSON   1460000ECH.39 LE MONASTIER 1610000CHIRAC              15800000151000151006305019003          0199      013454 1197    006459   006904   007982   012894   013381   013338   024035   030538   016147   009961   007591   008414               110161491 1077    100127731 1187    09      1         08      1         07      1                                                               028593   029647   014381   011162   008139   008669                                      
480500800310012 00750 1110241ECH.40 BANASSAC     1720047LIMITE AVEYRON      1790296BANASSAC            1720100007249007249630501900300000000000199      014876 1677    007462   007821   009236   014413   014976   014740   025569   031904   017525            007852   008280               110175361 1567    100143391 1657    09      1         08      1         07      1                                                               030243   031157   015987   012613   009440   009562                                      
480500801310012 00750 2111001ECH.40              0000000ECH.40              0010000BANASSAC            0000005001000001000630501900300000000000199      002992                                                                                                            002807               110011751         100010641         09      1         08      1         07      1                                                               001379   001384   001136   001127   001017   000952                                      
480500701310012 00750 2111001ECH.40              0000000ECH.40              0010000BANASSAC            0000005001000001000630501900300000000000199      000125                                                                                                            000004               110009481         100008581         09      1         08      1         07      1                                                               001233   001218   000875   000832   000763   000704                                      
480500700310012 00750 1110241ECH.39 LE MONASTIER 1610724ECH.40 BANASSAC     1720047ST GERMAIN DU TEIL  1670000010323010323630501900300000000000199      016527 1217    008793   009425   010976   015949   016707   016694   027752   034318   019617   012745   009336   010915               110123101 1437    10      1         09      1         08      1         07      1                                                                                 015853   014299   010843   010121                                      
480002300310012 01060 4113001INTER.D98-JALCRESTE 0221020INTER.D907-FLORAC   0440660FLORAC_SUD          0380500020631020631480002500300000000000995      002704 1387                                                                                              002747   002691               11      1         10      1         09      1         08      1         07      1                                                                                                                                                        
480002400310012 01060 4112001INTER.D907-FLORAC   0440660INTER.D907B-R.PERCEE0510305FLORAC              0490000006245005698480002500300000000001287      003752  697    002612   002572   003040   003443   003740   003978   005385   006350   004266   003559   002924   002631               110037671  707    100036801  687    09      1         08      1         07      1         002564   002835   002946   003679   003610   004100   005562   006353   004210   003602   002937   002717                                      
480000900310012 00880 4113001N102-ARDECHE        0000000INTERS.D906         0020000LANGOGNE            0010460002298000790480000900300000000000592      006876  837    003377                                                006857   008403   005685   004410                                 110049441 1027    100048011 1007    09      1         08      1         07      1         003139   003493   003834   004860   004907   005671   007165   008332   005427   004868   003933   003564                                      
480001900310012 00880 4113001CARR.RN106 BALSIEGES0580619CARR.RN108 BARJAC   0650751BALSIEGES           0590200006756006640480001900300000000001192      006042         004869   004998   005548   006175   006597   005869   008221   007941   006008   006613   004543   003920               110065071         100063721         09      1         08      1         07      1         004836   005128   005523   006747   006876   007178   008511   009085   006911   006514   005448   005201                                      
480002100310012 00880 4113001INTER.D31-CHANAC    0710883INTER.N9-AJUSTONS   0840280CHANAC              0740500011181011181480002500300000000001192      004271 1307    003056   003107   003595   004324   004737   004564            007094   005005   004425   003414   003274               110044211 1337    100042311 1347    09      1         08      1         07      1         002993   003328   003653   004340   004385   004941   006301   007001   004874   004253   003557   003320                                      
480001800310012 00880 4113001EB20 MENDE          0530185CARR.RN106 BALSIEGES0580619MENDE-SUD           0550300005284005015480001900300000000000793      009250  897    007821   007832   008628   008936   009449   009768   011361   011688   009892   009133   008399   007933               110094271  907    100093721  927    09      1         08      1         07      1         007752   008281   008328   009736   009964   010136   011111   011606   009975   009601   008448   008095                                      
480002500310012 01060 4112001CARR.D907B          0510305ST BAUZILE D41      0730660FLORAC_NORD         0530900021847021847480002500300000000000995      001080 1967    000681   000725   000859   001093   001251   001285            002359   001524   001032   000818   000748               110013181 1767    100013141 1757    09      1         08      1         07      1         000662   000730   000909   001191   001192   001554   002336   002793   001574   001159   000883   000777                                      
340001501310012 07500 4110201NORD GIGNAC         0320000A 75                0380625ST FELIX DE LODEZ   0370600006625006625340000500300000000000402      023850  747    021267   021234   023714   026141   027301                                       026691   024237   023583               110246971  737    10      1         09      1         08      1         07      1                                                                                 027596   025613   022279   023316                                      
150500200310012 00750 1110241MASSIAC NORD        0630988MASSIAC SUD         0680500MASSIAC             0670600004512004512          00000000001200      010248 1717    012848                                                                  014377   011204   008569   009501               110147551 1677    100145161 1807    09      1         08      1         07      1         007808   008687   009297   014639   013132   016038   028479   030758   015214   012562   009865   009887                                      
150500300310012 00750 1110241MASSIAC SUD         0680500VIELLESPESSE        0840600SALBAS              0760300016100016100          000      01200      011064 1697    013628                                                                  015019   011968   009477   010346               110127601 1707    10      1         09      1         08      1         07      1                                                                                 016033   013633   010653   010761                                      
150500400310012 00750 111 241VIELLESPESSE        0840600ST FLOUR NORD       0920550ST FLOUR NORD       0910400007950007950                    1200      011245 1647                                                                            015245   012365   009634   010528               11      1         10      1         09      1         08      1         07      1                                                                                                                                                        
150500500310012 00750 111 241ST FLOUR NORD       0920550ST FLOUR SUD        0960300ST FLOUR            0930300003750003750                    1200      008899 1897                                                                            012860   009771   007469   008407               11      1         100066871 2087    09      1         08      1         07      1                                                      000389                                                                                            
150500600310012 00750 1110241ST FLOUR SUD        0960300LIMITE LOZERE       1140610LOUBARESSE          1120800018310018310          000      00300      009951 1787    011075                                                                  013772   010763   008422   009451               110158311 1647    100076521 1897    09      1         08      1         07      1                           008665   014246   013104   016020   028235   031061   015022   012160   009242   009177                                      
150001900310012 01220 4113001NEUSSARGUES-MOISSAC 1100900MASSIAC CARF.RN 9   1360144LA ROCHE            1330000025244025244          00000000031294      003534 1367    002855   003212   003331   003329   003457   003679   004352   004447   003715   003544   003188   003040               110036361 1447    100036571 1567    09      1         08      1         07      1         003081   003362   003272   003540   003409   003959   004423   004598   003752   003760   003310   003145                                      
150001700310012 01220 4113 51TUNNEL DU LIORAN    0880000MURAT               1010850LA GRANGE DE GANILH 09708500138500138500000000000          1200      005844 1067    004948   006200   005711   005151   005733   005787   006503   007591   005927   005607   004951   004155               110060141 1067    100059571 1037    09      1         08      1         07      1         005190   006308   005968   005568   005583   006234   006928   007771   006072   005827   005274   005452                                      
150001500310012 01220 4113001BANCOU              0530380VIC SUR CERE        0680800MEYMAC              06202000154200154200000000000000      01287      007703  897    006996   007668   007589   007244   007658   007957   008313   009023   007975   007774   006997   006793               110078851  927    100078611  867    09      1         08      1         07      1         006995   007750   007644   007824   007793   008147   008618   009221   008113   007840   007387   007269                                      
150001200310012 01220 4113001MAURS               0050100LE ROUGET CARF.CD 200270800LE MARTINET         01507000227000227001500015003000      01294      003613 1127    003075   003170   003450   003505   003622   003532   004172   004545   003685   003809   002548   003306               110036891 1107    100037751         09      1         08      1         07      1                  002881   003278   003797   003657   003796   004155   004210                     003383   003332                                      
070003300310012 01020 4113001CAR CD536           0530729MAYRES              0680187THUEYTS           B 0600000014317014317070003300300000000000188      005452 1167    003099   003136   003790   005081   005914   005985   008166   009875   006543   013025   003797   003314               110054081 1157    100052861 1117    09      1         08      1         07      1         003015   003474   003811   005385   005367   006456   008506   009888   006094   005280   003967   003474                                      
070003500310012 01020 4113001CAR CD108           0840161LIMITE DEPT43       0941069PEYRABEILLE       B 0890400011024011024          00000000000188      003746 1417    001998   001948   002518   003406   004084   004003   006056   007757   004537   003128   002313   002183               110031941 1507    10      1         09      1         08      1         07      1                                                                                 004193   003528   002672   002398                                      
070003200310012 01020 4113001CARD578             0440616CARD536             0530729LALEVADE            0470000009115009115070003300300000000000105      012615  627    009764   009685   011020   011965   012892   013501   016068   017607   013908   012829   010588   010117               110125711  637    100113301  657    09      1         08      1         07      1         009449   010119   010745   012641   012635   013673   016085   017588   013573   012555   010854   010207                                      
430000600310012 00880 4113001ECHANGEURD47        0160000ECHANGEUR.RD103     0350835BAL DES NEIGES      0230700019835019835          000      00500      014683  967    012220   012360   013928   014814   015037   017189   016623   016148   016118   015084   013855   012791               110141871  957    100142101  927    09      1         08      1         07      1         011927   012472   013205   014376   014807   015269   015906   015776   015333   014798   013611   012659                                      
430002000310012 01020 4113001CARREF.RD513        0560300VIEILLE-BRIOUDE     0740550LA LOCANDA          0640050018450018450430002000300000000001193      008946 1347    007032   006916   008104   008893   009376   009266   011905   012023   008465   009211   007552   007147               110094361 1347    10      1         09      1         08      1         07      1                                    009347   009023   008939   011743   011833   009323   009045   008141   007441                                      
630501000310012 00750 1110241Carf.RD978          0140634ECHANGEUR COUDES Nø80180582AUTHEZAT            0170000004115004115630501000100000000001299      037113 1037    029205   028725   032933   031745   037590   039152   050203   055980   041127   008239   032658   031705               110379181 1047    100309391 1227    09      1         08      1         07      1         029180   031730   032182   038271   036837   040699   052942   053246   039775   035964   031113   032427                                      
630501900310012 07110 1110241Carf.RN 89          0000000Carf. A 72          0060410SORTIE EST          0040000005056005056          00000000001299      043278  507    043393   041900   045461   042754   042693   046258   043000   037315   044727   048401   046609   042991               110451781  507    10      1         09      1         08      1         07      1                                                                                 045652   045566   045021   044484                                      
630500600310012 00750 1150241Ech 1               0020000Carf.RD137          0040810AUBIERE             0020350002810002810630501000100000000001299      063411  877    056091   056057   061902   062109   062026   066970   073739   072934   067793   062833   060285   056687               110627931  887    100607121  857    09      1         08      1         07      1         051643   058091   058983   063107   062360   065537   074069   071111   067424   062940   059096   058838                                      
630500800310012 00750 1110241Carf.RD978          0060210Carf.RD213          0090956NOVIALE             0060500003888003888630501000100000000001299      046179  737    010243                                                                  008390   015353   046422   045221               110490421  797    100495061  797    09      1         08      1         07      1         042533   045742   045799   051441   049657   052977   024565   020149   015010   014836   012572   013302                                      
630501300310012 00750 1110241Carf RD 9           0300000Carf. RD 996        0310000ORBEIL              0310000001120001120630501300100000000001299      023651 1157                      000483   002210   003426   003472   004693            000913   002276   023256   023058               110276991 1127    100263091 1147    09      1         08      1         07      1         018765   020784   021552   027598   025906   029217   039511   038566   025782                                                                 
630500501310012 0A750 1150241A 71                0000000Voie ferrée         0010000LA POUDRIERE        0000845001000001000630501000100000000000408      063393  847    056335                                                                  045093   066611   064740   060968               110648611  887    100631531  847    09      1         08      1         07      1         055787   057716   060807   062291   063634   066911   075524   073084   067995   066944   063574   063417                                      
630500502310012 0A750 1150241Voie ferrée         0010000Ech 1               0020000LA PARDIEU          0010547001000001000630501000100000000000408      048656  947    045304                                                                  038272   052357   048769   045573               110518481  957    100493021  927    09      1         08      1         07      1         044165   047664   048408   052910   050705   052559   063745   060634   054386   051423   047925   047258                                      
