090000300310017 00200 4813 51RD 624              0150000PAMIERS A 66        0180000LE VERNET D'AR.     01500000022890022890900004023000       0187      000000                                                                                                                                 160000008         150000008         140000008         130000008         120000008                                                                                                                                                        
090000402310017 00200 411 251PAMIERS A 66        0180000RD 119              0210444PAMIERS             01902900034440034440900004023000       0187      024368  567    021503   025521   024299   024289   023702   024776   025702   025261   025124   025699   023408   023248               160237091    7    150232251    7    140225171    7    130219121    7    120218921    7    022037   024191   023891   023473   023192   023345   024471   024529   024074   024734   022750   023812                                      
090000402210017 00200 411 251PAMIERS A 66        0180000RD 119              0210444PAMIERS             01902900034440034440900004023000       0187      011928  577    010631   012355   011922   011898   011531   012159   012537   012593   012346   012620   011417   011172               160116471    7    150114001    7    140110791    7    130107481    7    120107421    7    011001   011765   011767   011488   011403   011466   011990   012258   011796   012099   011223   011498                                      
090000402110017 00200 411 251PAMIERS A 66        0180000RD 119              0210444PAMIERS             01902900034440034440900004023000       0187      012440  537    010872   013166   012377   012391   012171   012617   013165   012668   012778   013079   011991   012076               160120621    7    150118251    7    140114381    7    130111641    7    120111501    7    011036   012426   012124   011985   011789   011879   012481   012271   012278   012635   011527   012314                                      
090000501310017 00200 481 251RD 119              0210444RD 12               0241071ENTRE D12 ET D119   02309000036290036290900004023000       0187      000000                                                                                                                                 160000008         150000008         140000008         130223058         120000008                                                                                                                                                        
090000501210017 00200 481 251RD 119              0210444RD 12               0241071ENTRE D12 ET D119   02309000036290036290900004023000       0187      000000                                                                                                                                 160000008         150000008         140000008         130109758         120000008                                                                                                                                                        
090000501110017 00200 481 251RD 119              0210444RD 12               0241071ENTRE D12 ET D119   02309000036290036290900004023000       0187      000000                                                                                                                                 160000008         150000008         140000008         130113308         120000008                                                                                                                                                        
090000601310017 00200 481 251RD 12               0241071RD 13               0290000VARILHES DEV NORD   02602000044630044630900004023000       0187      000000                                                                                                                                 160000008         150000008         140000008         130230538         120000008                                                                                                                                                        
090000601210017 00200 481 251RD 12               0241071RD 13               0290000VARILHES DEV NORD   02602000044630044630900004023000       0187      000000                                                                                                                                 160000008         150000008         140000008         130115988         120000008                                                                                                                                                        
090000601110017 00200 481 251RD 12               0241071RD 13               0290000VARILHES DEV NORD   02602000044630044630900004023000       0187      000000                                                                                                                                 160000008         150000008         140000008         130114558         120000008                                                                                                                                                        
090000604310017 00200 481 251RD 13               0290000FOIX NORD           0350000GARRIGOU            02908000057790057790900004023000       0190      000000                                                                                                                                 160000008         150000008         140000008         130242758         120000008                                                                                                                                                        
090000604210017 00200 481 251RD 13               0290000FOIX NORD           0350000GARRIGOU            02908000057790057790900004023000       0190      000000                                                                                                                                 160000008         150000008         140000008         130121478         120000008                                                                                                                                                        
090000604110017 00200 481 251RD 13               0290000FOIX NORD           0350000GARRIGOU            02908000057790057790900004023000       0190      000000                                                                                                                                 160000008         150000008         140000008         130121288         120000008                                                                                                                                                        
090000801310017 00200 4113251FOIX NORD           0350000FOIX SUD            0391127FOIX TUNNEL         03903400047270047270900010013000       0102      016595  568    013320   017608   015936   016531   016205   016461   018784   019987   017001   017306   015249   014814               160162031    8    150160881    7    140159571    7    130152151    7    120154871    7    014687   016473   016062   015539   015490   015856   018163   019029   016189   016736   014578   015562                                      
090000801210017 00200 4113251FOIX NORD           0350000FOIX SUD            0391127FOIX TUNNEL         03903400047270047270900010013000       0102      008258  518    006697   008621   007957   008214   008097   008194   009229   010146   008481   008593   007691   007200               160081011    8    150080211    7    140079491    7    130075761    7    120077121    7    007496   008094   008077   007785   007820   007977   008877   009656   008071   008307   007357   007652                                      
090000801110017 00200 4113251FOIX NORD           0350000FOIX SUD            0391127FOIX TUNNEL         03903400047270047270900010013000       0102      008337  608    006623   008987   007979   008317   008108   008267   009555   009841   008520   008713   007558   007614               160081021    8    150080671    7    140080081    7    130076391    7    120077751    7    007191   008379   007985   007754   007670   007879   009286   009373   008118   008429   007221   007910                                      
090000901310017 00200 411 251FOIX SUD            0391127RD 117              0430500MONTGAILLARD        04106240035550035550900010013000       0102      020501  608    016674   020715   019989   020302   019992   020920   023404   025359   021039   020964   018400   018222               160201551    8    150199111    8    140195181    8    130188741    8    120192371    8    017771   019808   019826   019329   019558   019977   022854   024357   020412   020378   018178   019304                                      
090000901210017 00200 411 251FOIX SUD            0391127RD 117              0430500MONTGAILLARD        04106240035550035550900010013000       0102      010310  608    008642   010149   010085   010134   010231   010486   011645   012842   010568   010549   009357   008990               160101321    8    150100001    8    140097941    8    130094571    8    120096271    8    009084   009852   009997   009742   009849   010016   011331   012357   010266   010288   009283   009465                                      
090000901110017 00200 411 251FOIX SUD            0391127RD 117              0430500MONTGAILLARD        04106240035550035550900010013000       0102      010191  598    008032   010566   009904   010168   009761   010434   011759   012517   010471   010415   009043   009232               160100231    8    150099111    8    140097241    8    130094171    8    120096101    8    008687   009956   009829   009587   009709   009961   011523   012000   010146   010090   008895   009839                                      
090001001310017 00200 411 251RD 117              0430500RD 8                0540498ARIGNAC             05107460110780110780900010013000       0187      014700  548    011282   014888   014146   014697   014313   014774   017579   019066   015273   015034   012979   012347               160143711    8    150144651    8    140146851    8    130141651    8    120145841    8    012206   013552   013799   013581   013891   014431   016786   018178   014751   014864   012612   013676                                      
090001001210017 00200 411 251RD 117              0430500RD 8                0540498ARIGNAC             05107460110780110780900010013000       0187      007434  508    005838   007730   007243   007383   007240   007319   008724   010023   007628   007556   006570   005951               160071821    8    150072461    8    140073381    8    130070641    8    120072801    8    006261   006910   007031   006811   006981   007075   008102   009229   007258   007371   006356   006738                                      
090001001110017 00200 411 251RD 117              0430500RD 8                0540498ARIGNAC             05107460110780110780900010013000       0187      007266  588    005444   007158   006903   007314   007073   007455   008855   009043   007645   007478   006409   006396               160071891    8    150072191    8    140073471    8    130071011    8    120073041    8    005945   006642   006768   006770   006910   007356   008684   008949   007493   007493   006256   006938                                      
090001100310017 00200 4113 51RD 8                0540498RD 102              0710104LES CABANNES        06204200169260169260900010013000       0187      009553  557    006619   010301   008747   009518   009083   009343   011952   014116   009791   009978   007492   007708               160094451    7    150092361    7    140091981    7    130089241    7    120091251    7    007638   009283   009039   008477   008926   008852   011752   013396   009666   009856   007499   008829                                      
090001100210017 00200 4113 51RD 8                0540498RD 102              0710104LES CABANNES        06204200169260169260900010013000       0187      004757  547    003361   004929   004419   004761   004551   004639   005867   007207   004921   004980   003776   003664               160047141    7    150046491    7    140046371    7    130044511    7    120045451    7    003882   004548   004591   004250   004464   004409   005741   006813   004832   004935   003780   004256                                      
090001100110017 00200 4113 51RD 8                0540498RD 102              0710104LES CABANNES        06204200169260169260900010013000       0187      004796  577    003258   005372   004328   004757   004532   004704   006085   006909   004870   004998   003716   004044               160047311    7    150045871    7    140045611    7    130044731    7    120045801    7    003756   004735   004448   004227   004462   004443   006011   006583   004834   004921   003719   004573                                      
090001200310017 00200 4813 51RD 102              0710104RD 613              0790614PERLES CASTELET     07309000082050082050900010013000       0187      000000                                                                                                                                 160097481    7    150097681    7    140096761    7    130092781    7    120094231    7    008209   010098   009752   008756   009009   009293   012044   013711   009637   009919   007803   008658                                      
090001200210017 00200 4813 51RD 102              0710104RD 613              0790614PERLES CASTELET     07309000082050082050900010013000       0187      000000                                                                                                                                 160048621    7    150048791    7    140048381    7    130046311    7    120047071    7    004225   005006   004957   004390   004498   004624   005895   006935   004774   004924   003907   004167                                      
090001200110017 00200 4813 51RD 102              0710104RD 613              0790614PERLES CASTELET     07309000082050082050900010013000       0187      000000                                                                                                                                 160048861    7    150048891    7    140048381    7    130046471    7    120047161    7    003984   005092   004795   004366   004511   004669   006149   006776   004863   004995   003896   004491                                      
090001300310017 00200 4813 51RD 613              0790614RD 322              0880240MERENS NORD         08609400083410083410900010013000       0187      000000                                                                                                                                 160000008         150000008         140000008         130077258         120000008                                                                                                                                                        
090001300210017 00200 4813 51RD 613              0790614RD 322              0880240MERENS NORD         08609400083410083410900010013000       0187      000000                                                                                                                                 160000008         150000008         140000008         130038418         120000008                                                                                                                                                        
090001300110017 00200 4813 51RD 613              0790614RD 322              0880240MERENS NORD         08609400083410083410900010013000       0187      000000                                                                                                                                 160000008         150000008         140000008         130038848         120000008                                                                                                                                                        
090001400310017 00200 4113 51RD 322              0880240RN 22               0970737MERENS              08904330094990094990900014003000       0187      006990  488    003913   006854   005994   007283   006696   006848   009344   011420   007519   007413   005673   004886               160069301    8    150068051    8    140069251    8    130065601    8    120070901    8    004963   006104   006004   006251   006612   006613   009086   010779   007207   007290   005360   006757                                      
090001400210017 00200 4113 51RD 322              0880240RN 22               0970737MERENS              08904330094990094990900014003000       0187      003507  488    002016   003381   003074   003661   003331   003430   004591   005888   003784   003723   002786   002394               160034871    8    150034171    8    140034771    8    130032851    8    120035501    8    002582   003024   003065   003168   003347   003320   004468   005512   003630   003667   002694   003296                                      
090001400110017 00200 4113 51RD 322              0880240RN 22               0970737MERENS              08904330094990094990900014003000       0187      003483  478    001897   003473   002920   003622   003365   003418   004753   005532   003735   003690   002887   002492               160034431    8    150033881    8    140034481    8    130032751    8    120035401    8    002381   003080   002939   003083   003265   003293   004618   005267   003577   003623   002666   003461                                      
090001800310017 00200 4813 01RN 22               0970737RN 320              0980831LHOSPITALET EST     0980100001094001094000000000000000000000187      000000                                                                                                                                 160000008         150000008         140000008         130000008         120000008                                                                                                                                                        
090001500310017 00220 4113 51RN 20               0000000RN 320              0040100CARREFOUR SUD       00309140040150040150900014003000       0187      000000                                                                                                                                 160000001         150000001         140000001         130074591         120000001                                                                                                                                                        
090001600310017 03200 4813 51RN 20               0000000DEPARTEMENT 66      0020132R.N 320 AUX P.O     0010800002136002136090001400366000100030187      000000                                                                                                                                 160000008         150000008         140000008         130067008         120000008                                                                                                                                                        
120000600310017 00880 4113 51RN 9                0020800RD 28               0240290VARES               01201000221070221070000000000000       0187      006912 2057    005095   005742   005855   007214   007131   007352   008991   009547   007264   006957   005974   005710               160069281 1977    150069211 1967    140000001         130000001         120066041         005111   005636   005933   007027   007701   007288   008886   010079   007189   006584   005742   005869                                      
120000600210017 00880 4113 51RN 9                0020800RD 28               0240290VARES               01201000221070221070000000000000       0187      003471 2017    002541   002853   002914   003610   003533   003684   004570   004921   003644   003485   002988   002848               160034581 1957    150034641 1957    140000001         130000001         120033131         002543   002816   002933   003478   003859   003644   004414   005122   003597   003264   002868   002913                                      
120000600110017 00880 4113 51RN 9                0020800RD 28               0240290VARES               01201000221070221070000000000000       0187      003441 2087    002554   002889   002941   003604   003598   003668   004421   004626   003620   003472   002986   002862               160034701 2017    150034571 1977    140000001         130000001         120032911         002568   002820   003000   003549   003842   003644   004472   004957   003592   003320   002874   002956                                      
120000700310017 00880 4113 51RD 28               0240290RD 224              0420390GAGES               03604000181510181510000000000000       0187      010361 1198    008631   009318   009598   010597   010483   010931   012124   012383   010782   010563   009647   009192               160107861 1028    150104051    8    140090261 1228    130100171 1178    120000001         008705   009433   009629   010760   012407   011862   013495   012556   010781   010394   009572   009748                                      
120000700210017 00880 4113 51RD 28               0240290RD 224              0420390GAGES               03604000181510181510000000000000       0187      005146 1128    004268   004607   004761   005253   005205   005412   006044   006218   005349   005252   004780   004562               160050911    8    150049851    8    140051581 1218    130050291 1168    120051711         004205   004576   004667   005157   005325   005203   005644   006257   005348   005130   004729   004823                                      
120000700110017 00880 4113 51RD 28               0240290RD 224              0420390GAGES               03604000181510181510000000000000       0187      005215 1268    004363   004711   004837   005344   005278   005519   006080   006165   005433   005311   004867   004630               160056951 1138    150054201 1088    140038681 1238    130049881 1188    120000001         004500   004857   004962   005603   007082   006659   007851   006299   005433   005264   004843   004925                                      
120000801310017 00880 4813 51RD 224              0420390RD 988              0430500LA ROQUETTE OUEST   04304500011220011220000000000000       0187      000000                                                                                                                                 160000008         150000008         140146358         130138188         120000008                                                                                                                                                        
120000801210017 00880 4813 51RD 224              0420390RD 988              0430500LA ROQUETTE OUEST   04304500011220011220000000000000       0187      000000                                                                                                                                 160000008         150000008    7    140074288    7    130072518 1157    120000008                                                                                                                                                        
120000801110017 00880 4813 51RD 224              0420390RD 988              0430500LA ROQUETTE OUEST   04304500011220011220000000000000       0187      000000                                                                                                                                 160000008         150000008         140072068         130065678         120000008                                                                                                                                                        
120000902310017 00880 4113 51RD 988              0460500AV DES 4 SAISONS    0470000SAINT MARC OUEST    04605500006100006100000000000000       0187      026846         020109   021539   024520   028184            028128   029843   029563   029037   028669   027417   026207               160260411         150000001         140000001         130000001         120000001         025278   023765   023034   026390   028835   026247   027299   030883   029065   026446   023041   022080                                      
120000902210017 00880 4113 51RD 988              0460500AV DES 4 SAISONS    0470000SAINT MARC OUEST    04605500006100006100000000000000       0187      012742         007087   007606   010128   013733   014492   013277   015134   015209   014608   014419   013712   013140               160117011         150000001         140000001         130000001         120000001         012258   009932   009015   011560   014486   011418   012323   015974   014272   011958   009073   008014                                      
120000902110017 00880 4113 51RD 988              0460500AV DES 4 SAISONS    0470000SAINT MARC OUEST    04605500006100006100000000000000       0187      014104         013022   013933   014392   014451            014851   014709   014354   014429   014250   013705   013067               160143401         150000001         140000001         130000001         120000001         013020   013833   014019   014830   014349   014829   014976   014909   014793   014488   013968   014066                                      
120000901310017 00880 4113 51RD 217              0430500RD 988              0460500SAINT MARC EST      04604500030480030480000000000000       0187      010139         007935   010485   011511   011630   007950   010613   011469   011785   010442   009995   009136   008790               160052501         150000001         140000001         130000001         120000001         005396   007070   008945   008519   006928   006488   000682   001063   009692   001164   007534   000000                                      
120000901210017 00880 4113 51RD 217              0430500RD 988              0460500SAINT MARC EST      04604500030480030480000000000000       0187      005058 1377    003822   005108   005640   005741   002326   005605   006132   006321   005487   005233   004763   004569               160023121    7    150000001         140000001         130000001         120000001         002460   002932   004297   003633   002094   002570   000325   000512   004901   000568   003669   000000                                      
120000901110017 00880 4113 51RD 217              0430500RD 988              0460500SAINT MARC EST      04604500030480030480000000000000       0187      005081         004113   005377   005871   005889   005624   005008   005337   005464   004955   004762   004373   004221               160029381         150000001         140000001         130000001         120000001         002936   004138   004648   004886   004834   003918   000357   000551   004791   000596   003865   000000                                      
120001002310017 00880 4113 51RD 901              0480100RN 140              0480660LES MOUTIERS OUEST  04801500005600005600000000000000       0187      032008         012436   014248   015334   015381   015317   016129   016222   015861   015489   013142   012608   012711               160301721         150345031         140341821         130347691         120000001         014293   014583   015437   016297   015615   016110   015278   007452   013771   005526   011320   006774                                      
120001002210017 00880 4113 51RD 901              0480100RN 140              0480660LES MOUTIERS OUEST  04801500005600005600000000000000       0187      017436                                                                                                                                 160174961         150000001         140000001         130000001         120000001                                                                                                                                                        
120001002110017 00880 4113 51RD 901              0480100RN 140              0480660LES MOUTIERS OUEST  04801500005600005600000000000000       0187      014572                                                                                                                                 160126761         150000001         140000001         130000001         120000001                                                                                                                                                        
120001001310017 00880 4113 51RD 988              0470000RD 901              0480100LES MOUTIERS EST    04800500011800011800000000000000       0187      025746         025123   030109   026220   028466   025901   029130   029508   029603   022881   021869   020852   019663               160284141         150318761         140263461         130260651         120000001         029148   031129   030212   033518   031319   033310   025074   028102   025259   025137   021771   027168                                      
120001001210017 00880 4113 51AV DES 4 SAISONS    0470000RD 901              0480100LES MOUTIERS EST    04800500011800011800000000000000       0187      013740         012802   015305   013429   015192   013639   015443   015709   015914   012658   012423   011575   010936               160148301         150000001         140000001         130000001         120000001         014805   015856   015371   017100   015983   016973   015074   015063   013257   013178   011460   013886                                      
120001001110017 00880 4113 51AV DES 4 SAISONS    0470000RD 901              0480100LES MOUTIERS EST    04800500011800011800000000000000       0187      012006         012321   014804   012791   013274   012262   013687   013799   013689   010223   009446   009277   008727               160135841         150000001         140000001         130000001         120000001         014343   015273   014841   016418   015336   016337   010000   013039   012002   011959   010311   013282                                      
120001003310017 00880 4113 51RN 140              0480660RD 84 RD 67         0500000SAINT-CLOUD EST     04909500015620015620000000000000000000 0187      023743  757    021852   023177   023826   023967   024085   024773   024493   023662   024431   024616   023633   022405               160235481    7    150229461    7    140225911         130221281    7    120000001         021498   022635   023251   024281   023495   024431   024417   023404   024369   024097   023350   023370                                      
120001003210017 00880 4113 51RN 140              0480660RD 84 RD 67         0500000SAINT-CLOUD EST     04909500015620015620000000000000       0187      012356  767    011341   012015   012420   012418   012503   012818   012688   012355   012816   012913   012298   011688               160122571    7    150119491    7    140117951         130115421    7    120000001         011164   011808   012139   012633   012266   012773   012581   012199   012711   012529   012152   012146                                      
120001003110017 00880 4113 51RN 140              0480660RD 84 RD 67         0500000SAINT-CLOUD EST     04909500015620015620000000000000       0187      011387  747    010511   011162   011406   011549   011582   011955   011805   011307   011615   011703   011335   010717               160112911    7    150109971    7    140107961         130105861    7    120000001         010334   010827   011112   011648   011229   011658   011836   011205   011658   011568   011198   011224                                      
120001004310017 00880 4113 51RD 84 RD 67         0500000PONT V.C. OLEMPS    0520200SAINT-CLOUD OUEST   05000500023230023230000000000000       0187      027153  677    024981   026711   027327   027395   027447   027883   028198   027233   028192   028345   026841   025291               160268701    7    150241331         140253231         130240311    7    120000001         024240   026092   026544   027837   026933   027758   027895   026637   027902   027420   026696   026519                                      
120001004210017 00880 4113 51RD 84 RD 67         0500000PONT V.C. OLEMPS    0520200SAINT-CLOUD OUEST   05000500023230023230000000000000       0187      013619  697    012476   013359   013695   013711   013729   014030   014137   013770   014172   014310   013350   012685               160134651    7    150111001         140127571         130120051    7    120000001         012114   013036   013318   013935   013509   013940   013902   013460   013993   013776   013339   013270                                      
120001004110017 00880 4113 51RD 84 RD 67         0500000PONT V.C. OLEMPS    0520200SAINT-CLOUD OUEST   05000500023230023230000000000000       0187      013534  637    012505   013352   013632   013684   013718   013853   014061   013463   014020   014035   013491   012606               160134051    7    150130331    7    140125661         130120261    7    120000001         012126   013056   013226   013902   013424   013818   013993   013177   013909   013644   013357   013249                                      
120001005310017 00880 4813 51PONT V.C.OLEMPS     0520200RD 66 RD 212        0530000LE LACHETversST-CLOU05208000008770008770000000000000       0187      000000                                                                                                                                 160000008         150000008         140000008         130000008         120000008                                                                                                                                                        
120001006310017 00880 4813 51RD66 RD212          0530000RD 911              0560800LA PRIMAUBE         05407100038000038000000000000000       0187      000000                                                                                                                                 160000008         150000008         140000008         130000008         120000008                                                                                                                                                        
120001006210017 00880 4813 51RD66 RD212          0530000RD 911              0560800LA PRIMAUBE         05407100038000038000000000000000       0187      000000                                                                                                                                 160000008         150000008         140000008         130000008         120000008                                                                                                                                                        
120001006110017 00880 4813 51RD66 RD212          0530000RD 911              0560800LA PRIMAUBE         05407100038000038000000000000000       0187      000000                                                                                                                                 160000008         150000008         140000008         130000008         120000008                                                                                                                                                        
120001100310017 00880 4113 51LA PRIMAUBE RD 911  0560800BARAQUEVILLE RD 911 0680015LE LAC              06207300090910090910000000000000       0187      017247  988    015051   016283   016868   017460   017349   018205   018575   018267   018176   018301   016875   015510               160168861    7    150163611    8    140156141    8    130154741    8    120154821         014660   015689   016136   017110   017314   017698   018407   018171   018062   017258   015669   016406                                      
120001100210017 00880 4113 51LA PRIMAUBE RD 911  0560800BARAQUEVILLE RD 911 0680015LE LAC              06207300090910090910000000000000       0187      008607  968    007512   008115   008412   008715   008629   009084   009241   009186   009080   009137   008414   007735               160084481    7    150081701    8    140078851    8    130077201    8    120077271         007315   007843   008055   008551   008664   008868   009165   009155   009060   008637   007854   008187                                      
120001100110017 00880 4113 51LA PRIMAUBE RD 911  0560800BARAQUEVILLE RD 911 0680015LE LAC              06207300090910090910000000000000       0187      008640 1008    007539   008168   008456   008745   008720   009121   009334   009081   009096   009164   008461   007775               160084381    7    150081911    8    140077291    8    130077541    8    120077551         007345   007846   008081   008559   008650   008830   009242   009016   009002   008621   007815   008219                                      
120001200310017 00880 4813 51RD 911              0680015RD 997              0810695BARAQUEVILLE        06902340134290134290000000000000       0187      000000                                                                                                                                 160000008         150000008         140000008         130103508         120000008                                                                                                                                                        
120001301310017 00880 4113 51RD 997              0810695DEPARTEMENT 81      0910192DEV NAUCELLE        0830350009251009251320000500381000010030187      008996 1477    007388   008313   008433   009140   009117   009267   010146   010053   009544   009622   008576   008303               160084911 1437    150000001         140000001         130080691 1427    120081421         007044   007618   007945   008450   008591   008536   009630   009302   009078   009170   008106   008362                                      
120001301210017 00880 4113 51RD 997              0810695DEPARTEMENT 81      0910192DEV NAUCELLE        0830350009251009251320000500381000010030187      004506 1427    003683   004148   004222   004584   004563   004638   005099   005070   004800   004814   004250   004177               160042681 1407    150000001         140000001         130040361 1417    120040701         003517   003823   003971   004246   004315   004309   004790   004695   004571   004631   004101   004218                                      
120001301110017 00880 4113 51RD 997              0810695DEPARTEMENT 81      0910192DEV NAUCELLE        0830350009251009251320000500381000010030187      004490 1527    003705   004165   004211   004556   004554   004629   005047   004983   004744   004808   004326   004126               160042231 1487    150000001         140000001         130040331 1437    120040721         003527   003795   003974   004204   004276   004227   004840   004607   004507   004539   004005   004144                                      
310506100310017 00640 181 241ECH 22 ASF          2340270ECH 23              2390200                    2340000004930004930320000500300000000000199      000000                                                                                                                                 160000008         150000008         140000008         130000008         120000008                                                                                                                                                        
310506200310017 00640 111 241ECH 23              2390200ECH 24              2430000LAVELANET de COMMIN.2420000003800003800320000500300000000000199      036181 113                                                                                                                             160354651 111     150341581 109     140334331 113     130000001         120000001                                                                                                                                                        
310506300310017 00640 181 241ECH 24              2430000ECH 25              2460000                    2440000003000003000320000500300000000000199      000000                                                                                                                                 160000008         150000008         140000008         130000008         120000008                                                                                                                                                        
310506500310017 00640 111 241ECH 26              2460000ECH 27              2540000CARBONNE            2530750008000008000320000500300000000000199      038274 118                                                                                                                             160376571 120     150371591 116     140000001         130000001         120000001                                                                                                                                                        
310506600310017 00640 111 241ECH 27              2540000ECH 28              2580000                    2550000004000004000320000500300000000000199      000000  98                                                                                                                             160000001         150000001         140000001         130000001         120000001                                                                                                                                                        
310506700310017 00640 181 241ECH 28              2580000ECH 29              2590500                    2590000001500001500320000500300000000000199      000000                                                                                                                                 160000008         150000008         140000008         130000008         120000008                                                                                                                                                        
310506800310017 00640 181 241ECH 29              2590500ECH 30              2610200                    2600000001700001700320000500300000000000199      000000                                                                                                                                 160000008         150000008         140000008         130000008         120000008                                                                                                                                                        
310506900310017 00640 181 241ECH 30              2610200ECH 31              2630000                    2620000001800001800320000500300000000000199      000000                                                                                                                                 160000008         150000008         140000008         130000008         120000008                                                                                                                                                        
310507000310017 00640 181 241ECH 31              2630000ECH 32              2640800                    2640000001800001800320000500300000000000199      000000                                                                                                                                 160000008         150000008         140000008         130000008         120000008                                                                                                                                                        
310507201310017 00640 111 241ECH 32              2640800ECH 33              2690000MURET SUD           2670800004200004200320000500300000000000199      056418  987    051177   055616   055071   056649   054864   058673   060902   059187   057584   058312   054872   054091               160554131         150544911         140528811         130000001         120000001                                                                                                                                                        
310507204310017 00640 111 241ECH 33              2690000ECH 34              2720000PODIO               2690673003000003000320000500300000000000199      055036 1007    049850   054474   053947   055927   053333   056839   059224   057292   056220   057004   053679   052675               160542021    7    150527811    7    140496821    7    130585971 1057    120498791    7    055263   059949   060656   061891   059960   060160   064449   062949   023671   063202   058658   056421                                      
310507200310017 00640 111 241ECH 34              2720000ECH 35 ASF          2740089MURET NORD ND       2720800002032002032320000500300000000000199      059742 1007    055051   061929   061500   062008   060488   058690   056883   057946   062096   062013   059191   059425               160573211    7    150547341    7    140574721    7    130265181    7    120000001         050551   053845   054220   055115   054531   057695   059972   058816   056553   055257   053502   054834                                      
310505200310017 00680 181 241GEMIL FIN CONCEDEE  0170105DPT81               0220000A68 ETAT GESTION 81 0180000005004005004320000500381050010030187      000000                                                                                                                                 160000008         150000008         140000008         130000008         120000008                                                                                                                                                        
310003202310017 01240 311 251FIN A624            0060000Fin 2x2 voies       0090317COLLEGE             00705250029200029203200005003000       0187      080014  56                                                                                                                             160000001         150000001         140000001         130000001         120000001                                                                                                                                                        
310003300310017 01240 311 251FIN 2X2 VOIES       0090317RD 24               0130192LA TUILERIE         01102850039190039193200005003000       0187      058400  437    055905   057548   059719   058355   058020   061609   059143   054061   060319   060207   058955   057064               160573041         150000001         140000001         130000001         120000001                                                                                                                                                        
310003400310017 01240 381 251RD 24               0130192DEPARTEMENT 32      0191064LA SALVETAT         0140020007216007216320000500332000090030187      000000                                                                                                                                 160000001         150000001         140000001         130000001         120000001                                                                                                                                                        
310003600310017 01250 4113 51A 645               0030000RD 33 LABROQUERE    0050196LABROQUERE          00408000019010019013200005003000       0187      012240  967    010877   013298   012237   012058   011591   011909   013554   014505   012195   012095   011051   011562               160116851    7    150119161    7    140000001         130000001         120000001         010908   012275   012353   011545   011513   011904   013421   012058   010289   011796   010649   011472                                      
310003600210017 01250 4113 51A 645               0030000RD 33 LABROQUERE    0050196LABROQUERE          00408000019010019013200005003000       0187      006054  957    005472   006519   006074   005940   005734   005882   006653   007253   006051   005980   005533   005579               160057981    7    150058761    7    140000001         130000001         120000001         005537   006013   006159   005696   005716   005896   006616   006053   005136   005865   005319   005544                                      
310003600110017 01250 4113 51A 645               0030000RD 33 LABROQUERE    0050196LABROQUERE          00408000019010019013200005003000       0187      006186  987    005405   006779   006163   006118   005857   006027   006901   007252   006144   006115   005518   005983               160058871    7    150060401    7    140000001         130000001         120000001         005371   006262   006194   005849   005797   006008   006805   006005   005153   005931   005330   005928                                      
310338500310017 01250 4813 51LABROQUERE          0050196RD 33 CHAUM         0181625GALIE               01403000137150137153200005003000       0211      000000                                                                                                                                 160000008         150000008         140000008         130000008         120000008                                                                                                                                                        
310338500210017 01250 4813 51LABROQUERE          0050196RD 33 CHAUM         0181625GALIE               01403000137150137153200005003000       0211      000000                                                                                                                                 160000008         150000008         140000008         130000008         120000008                                                                                                                                                        
310338500110017 01250 4813 51LABROQUERE          0050196RD 33 CHAUM         0181625GALIE               01403000137150137153200005003000       0211      000000                                                                                                                                 160000008         150000008         140000008         130000008         120000008                                                                                                                                                        
310003800310017 01250 4112 51RD 33 CHAUM         0181625RD 44               0230442CHAUM               01907000048900048903200005003000       0187      003906  707    003254   004460   003872   003938   003571   003563   004442   004572   003740   003678   003346   004464               160036771    7    150037641    7    140036661    7    130036061    7    120039441    7    003398   003971   003822   003526   003594   003606   004517   004900   002602   003398   003138   003620                                      
310003900310017 01250 4112001RD 44               0230442ESPAGNE             0340110FOS                 03108000106990106993200005003000       0187      003247  997    002457   003450   002876   003424   003043   003068   003910   004625   003583   002927   002676   002925               160031211 1037    150032181 1007    140037681 100     130000001         120000001         002630   003327   003369   002995   003143   003082   003909   004432   002756   002906   002459   002420                                      
310000101310017 02240 4113001LIMITE GERS         0070000MONTAIGUT           0200527LEVIGNAC            0130640014319014319320000500300000000000116      003905  51                                                                                                                             160000001         150000001         140000001         130000001         120000001                                                                                                                                                        
310000200310017 02240 4113001RD 17 MONTAIGUT     0200527CORNEBARRIEU        0310876MONDONVILLE         0250850011786011786320000500300000000000187      000000                                                                                                                                 160105261    7    150103561    7    140000001         130102341    7    120101681    7    010187   010788   010786   011057   010585   010893   010490   009109   010994   009945   010931   010624                                      
310508003310017 06200 1110231SESQUIERES          0000724LES MINIMES 31      0030626GINESTOUS           0020130002857002857320000500300000000000187      131546  86                                                                                                                             160000001         151254471         141263071         130000001         121257861                                                                                                                                                        
310508003210017 06200 1110231SESQUIERES          0000580LES MINIMES 31      0030626GINESTOUS           0020130002857002857320000500300000000000187      065337  94                                                                                                                             160000001         150629671         140630831         130000001         120628801                                                                                                                                                        
310508003110017 06200 1110231SESQUIERES          0000724LES MINIMES 31      0030626GINESTOUS           0020130002857002857320000500300000000000187      066209  79                                                                                                                             160000001         150624801         140632241         130000001         120629061                                                                                                                                                        
310508106310017 06200 1110231ES MINIMES 31       0030626PONT JUMEAUX 30     0050106PONT JUMEAUX        0040432001464001464320000500300000000000187      104895  69                                                                                                                             161028331         151011371         141004181         130000001         121003161                                                                                                                                                        
310508106210017 06200 1110231ES MINIMES 31       0030626PONT JUMEAUX 30     0050106PONT JUMEAUX        0040432001464001464320000500300000000000187      053337  80                                                                                                                             160522931         150514551         140508831         130000001         120505321                                                                                                                                                        
310508106110017 06200 1110231ES MINIMES 31       0030626PONT JUMEAUX 30     0050106PONT JUMEAUX        0040432001464001464320000500300000000000187      051558  587    049318   051364   052882   051398   050617   054481   052964   047262   055795   051341   050772   050684               160505401    7    150496821    7    140495351    7    130489081    7    120497841         047159   049706   051045   050754   049609   052684   050653   046931   053952   052542   051724   049894                                      
310508204110017 06200 1110231PONT JUMEAUX 30     0050106PURPAN 29           0060074PONT GARONNE        0050354000966000966320000500300000000000187      058493 135                                                                                                                             160587841         150000001         140607821         130000001         120601661                                                                                                                                                        
310508200310017 06200 1110231PONT JUMEAUX 30     0050106PURPAN 29           0060074PONT GARONNE        0050354000966000966320000500300000000000187      119505 100                                                                                                                             161193011         150627721         141235221         130000001         121227911                                                                                                                                                        
310508200210017 06200 1110231PONT JUMEAUX 30     0050106PURPAN 29           0060074PONT GARONNE        0050354000966000966320000500300000000000187      061012  677    058772   061193   062829   060916   060537   064927   061095   057794   062274   062194   061277   058531               160605171    7    150622451    7    140627401    7    130625321    7    120626251    7    057626   061285   062306   062159   058730   064311   059561   057422   063244   062660   059523   057663                                      
310508304110017 06200 1110231PURPAN 29           0060074CEPIERE 27          0080497STATION A620        0070789002433002433320000500300000000000187      069266  62                                                                                                                             160679391         150669471         140665961         130657031         120653801                                                                                                                                                        
310508303210017 06200 1110231PURPAN 29           0060074CEPIERE 27          0080497STATION A620        0070789002433002433320000500300000000000187      073633  52                                                                                                                             160723211         150710191         140698521         130700031         120699711                                                                                                                                                        
310508300310017 06200 1110231PURPAN 29           0060074CEPIERE 27          0080497STATION A620        0070789002433002433320000500300000000000187      142899  57                                                                                                                             160000001         151379661         141364481         131357061         121353511                                                                                                                                                        
310508402210017 06200 1110231CEPIERE 27          0080497LA FAOURETTE        0090542FAOURETTE           0090100001056001056320000500300000000000187      075404  53                                                                                                                             160738421         150723971         140710141         130000001         120705751                                                                                                                                                        
310508402110017 06200 1110231CEPIERE 27          0080497LA FAOURETTE        0090542FAOURETTE           0090100001056001056320000500300000000000187      064391  59                                                                                                                             160643121         150643621         140629061         130000001         120641571                                                                                                                                                        
310508400310017 06200 1110231CEPIERE 27          0080497LA FAOURETTE        0090542FAOURETTE           0090100001056001056320000500300000000000187      139795  55                                                                                                                             161381541         151367591         141339201         130000001         121347321                                                                                                                                                        
310508502110017 06200 1110231LA FAOURETTE        0090542BORDELONGUE         0110801PT DE SEYSSES       0100604002247002247320000500300000000000187      064780  62                                                                                                                             160640511         150633581         140631451         130000001         120631121                                                                                                                                                        
310508500310017 06200 1110231LA FAOURETTE        0090542BORDELONGUE         0110801PT DE SEYSSES       0100604002247002247320000500300000000000187      136425  58                                                                                                                             161349641         151324871         141311771         130000001         121307171                                                                                                                                                        
310508500210017 06200 1110231LA FAOURETTE        0090542BORDELONGUE         0110801PT DE SEYSSES       0100604002247002247320000500300000000000187      071645  547    070765   071426   074268   070347   069831   075734   071922   065019   074247   075398   072315   068637               160709131    7    150691291    7    140680321    7    130678061    7    120676051    7    068624   071380   070802   072473   068667   075515   069771   065349   074973   073223   071201   069352                                      
310508700310017 06200 1110231LANGLADE 25         0110801EMPALOT 24          0130601EMPALOT             0120660001836001836320000500300000000000187      126172  357    122760   126418   129869   125853   124549   131540   125597   117256   130440   131040   127641   121473               161315731    7    151373761    7    141357081    7    130000001         121220791    7    134406   140832   140876   141954   134401   139707   124254   116671   130336   128696   126125   121600                                      
310508700210017 06200 1110231LANGLADE 25         0110801EMPALOT 24          0130601EMPALOT             0120660001836001836320000500300000000000187      059794  327    057396   060109   061651   059633   059414   062936   060038   055093   061980   061974   060210   057303               160635411    7    150667691    7    140658571    7    130000001         120566361    7    065635   068609   068897   069434   067112   069697   059244   054546   062407   060966   059350   057136                                      
310508700110017 06200 1110231LANGLADE 25         0110801EMPALOT 24          0130601EMPALOT             0120660001836001836320000500300000000000187      066378  407    065364   066309   068218   066220   065135   068604   065559   062163   068460   069066   067431   064170               160680321    7    150706071    7    140698511    7    130000001         120654431    7    068771   072223   071979   072520   067289   070010   065010   062125   067929   067730   066775   064464                                      
310508800310017 06200 1110231EMPALOT 24          0130601RANGUEIL 23         0140000RANGUEIL            0130888000363000363320000500300000000000187      094767  487    091063   094808   096712   095119   093913   099215   097581   091270   097261   098070   091643   090687               160938501    7    150912981    7    140890961    7    130894501    7    120881161    7    088740   093187   094176   095430   092292   099879   095654   090018   097145   095317   093408   091248                                      
310508800210017 06200 1110231EMPALOT 24          0130601RANGUEIL 23         0140000RANGUEIL            0130888000363000363320000500300000000000187      046528  477    044770   046829   047703   046877   046399   048810   048221   044714   048170   048155   043241   044506               160462731    7    150448441    7    140436061    7    130438421    7    120432941    7    044130   045844   046701   047338   045397   049128   047265   043789   048343   047037   045721   044728                                      
310508800110017 06200 1110231EMPALOT 24          0130601RANGUEIL 23         0140000RANGUEIL            0130888000363000363320000500300000000000187      048239  497    046293   047979   049009   048242   047514   050405   049360   046556   049091   049915   048402   046181               160475771    7    150464541    7    140454901    7    130456081    7    120448221    7    044610   047343   047475   048092   046895   050751   048389   046229   048802   048280   047687   046520                                      
310508900310017 06200 1110231RANGUEIL 23         0140000DEMOISELLES 21      0150880RANGUEIL-DEMOIS     0140536001873001873320000500300000000000187      106723  51                                                                                                                             161050711         151022051         141001711         130000001         120992471                                                                                                                                                        
310508900210017 06200 1110231RANGUEIL 23         0140000DEMOISELLES 21      0150880RANGUEIL-DEMOIS     0140536001873001873320000500300000000000187      051729  51                                                                                                                             160510141         150495331         140481991         130000001         120481871                                                                                                                                                        
310508900110017 06200 1110231RANGUEIL 23         0140000DEMOISELLES 21      0150880RANGUEIL-DEMOIS     0140536001873001873320000500300000000000187      054994  51                                                                                                                             160540571         150526721         140519721         130000001         120510601                                                                                                                                                        
310509100310017 06200 1110231LESPINET 20         0160048PALAYS A61          0170777LESPINET            0160285001730001730320000500300000000000187      095436         088971   099992   104014   098741   092696   093482   081410   095163   104379   104312   097358   085546               160929591    7    150973101    7    140796831         130932291    7    120950501    7    088566   097060   097844   094478   093512   093854   090377   092476   102145   072034   094773   099086                                      
310509100210017 06200 1110231LESPINET 20         0160048PALAYS A61          0170777LESPINET            0160285001730001730320000500300000000000187      047167  557    043455   049568   052454   049003   043412   042663   035740   048148   052992   052642   048822   047492               160460141    7    150468951    7    140299511    7    130443521    7    120458321    7    039944   044940   046903   045264   044815   044554   043034   044699   052648   047413   048129   049968                                      
310509100110017 06200 1110231LESPINET 20         0160048PALAYS A61          0170777LESPINET            0160285001730001730320000500300000000000187      048269         045516   050424   051560   049738   049284   050819   045670   047015   051387   051670   048536   038054               160469451    7    150504151    7    140497321         130488771    7    120492181    7    048622   052120   050941   049214   048697   049300   047343   047777   049497   024621   046644   049118                                      
310509000310017 06200 1110231DEMOISELLES 21      0150880LESPINET 20         0160048DEMOISELLES         0160000000172000172320000500300000000000187      112126  537    108259   112015   115045   110622   108975   117327   114257   105253   115808   115970   112884                        161101111    7    151073401    7    141048671    7    131054531    7    121040321    7    104467   110247   110537   111689   109276   117654   111642   104002   114576   111528   110147   106015                                      
310509000210017 06200 1110231DEMOISELLES 21      0150880LESPINET 20         0160048DEMOISELLES         0160000000172000172320000500300000000000187      057431  517    055180   057351   058794   056612   055935   059667   058665   053636   059396   059092   057524                        160561861    7    150546801    7    140530011    7    130535441    7    120531141    7    053811   056153   056560   057316   055726   059781   057064   052427   058920   057000   055704   053992                                      
310509000110017 06200 1110231DEMOISELLES 21      0150880LESPINET 20         0160048DEMOISELLES         0160000000172000172320000500300000000000187      054695  577    053079   054664   056251   054010   053040   057660   055592   051617   056412   056878   055360   051927               160539251    7    150526601    7    140518661    7    130519091    7    120509181    7    050656   054094   053977   054373   053550   057873   054578   051575   055656   054528   054443   052023                                      
310509612210017 06210 1110231ST MICHEL DU TOUCH  0000000LE RITOURET         0030992RITOURET EST        0020825003990003990320000500300000000000998      050281  377    050723   051929   053256   050692   050296   043523   050373   044930   052888   053448   051214   050171               160500961         150000001         140000001    7    130000001    7    120409651    7                                                                                                                                                   
310509611110017 06210 1110231ST MICHEL DU TOUCH  0000000LE RITOURET         0030992RITOURET EST        0020825003990003990320000500300000000000998      051625  307    053026   054073   055103   051811   050369   039059   052469   046633   055296   055919   053468   052294               160487741    7    150421081         140504371    7    130503661    7    120502621    7    049743   053156   051741   052533   050420   051158   047098   045061   053241   052402   039875   048265                                      
310509600310017 06210 1110231ST MICHEL DU TOUCH  0000000LE RITOURET         0030992RITOURET EST        0020825003990003990320000500300000000000998      000000                                                                                                                                 160988701         150000001         140000001    7    130000001    7    120912271    7                                                                                                                                                   
310509200310017 06230 1114031PALAYS              0000000CNES                0000415GIRAT PALAYS        0000250000415000415320000500300000000000187      029979  397    031022   030541   031804   029668   029268   031959   028503   024545   031321   031265   031351   028686               160252671    7    150278961    7    140279061    7    130000001         120000001         023913   001468   025504   029054   026691   028980   023923   023883   029285   028457   031381   029697                                      
310502103210017 06240 111 231BAYLAC 1            0000520ST MARTIN DU TOUCH  0010500BAYLAC              0001184001163001163320000500300000000000194      056344  51                                                                                                                             160564311         150555771         140550361         130000001         120545811                                                                                                                                                        
310502103110017 06240 111 231BAYLAC 1            0000520ST MARTIN DU TOUCH  0010500BAYLAC              0001184001163001163320000500300000000000194      054755  52                                                                                                                             160555501         150543841         140499451         130000001         120450321                                                                                                                                                        
310502100310017 06240 111 231BAYLAC 1            0000520ST MARTIN DU TOUCH  0010500BAYLAC              0001184001163001163320000500300000000000194      111099  51                                                                                                                             161119811         151099611         141049811         130000001         120996131                                                                                                                                                        
310502002210017 06240 111 231PURPAN              0000000BAYLAC 1            0000520PURPAN A624         0000351000520000520320000500300000000000194      059509  42                                                                                                                             160588401         150582281         140573821         130000001         120568871    7                                                                                                                                                   
310502002110017 06240 111 231PURPAN              0000000BAYLAC 1            0000520PURPAN A624         0000351000520000520320000500300000000000194      050839  48                                                                                                                             160503891         150496421         140490311         130000001         120485041                                                                                                                                                        
310502000310017 06240 111 231PURPAN              0000000BAYLAC 1            0000520PURPAN A624         0000351000520000520320000500300000000000194      110348  48                                                                                                                             161092291         151078701         141064131         130000001         121053911                                                                                                                                                        
310502203210017 06240 111 231ST MARTIN DU TOUCH  0010500LA CRABE            0030900CRABE EST           0020252002400002400320000500300000000000194      064743  56                                                                                                                             160652571         150640121         140631701         130000001         120615641                                                                                                                                                        
310502203110017 06240 111 231ST MARTIN DU TOUCH  0010500LA CRABE            0030900CRABE EST           0020252002400002400320000500300000000000194      067031  56                                                                                                                             160669371         150656771         140646721         130000001         120634731                                                                                                                                                        
310502200310017 06240 111 231ST MARTIN DU TOUCH  0010500LA CRABE            0030900CRABE EST           0020252002400002400320000500300000000000194      131774  56                                                                                                                             161321941         151296891         141278421         130000001         121250371                                                                                                                                                        
320000200310017 00210 4113 51LECTOURE NORD       0100760FLEURANCE EB 10     0220960SAINT GENY          01708500114290114293200005003000       0187      006203  928    005582   005855   006211   006067   006135   006563   006595   006666   006510   006336   006113   005776               160062141    8    150061461    8    140062751 1188    130062461    8    120068241    8    005532   005860   006106   006186   006178   006507   006588   006772   006611   006297   006051   005873                                      
320000200210017 00210 4113 51LECTOURE NORD       0100760FLEURANCE EB 10     0220960SAINT GENY          01708500114290114293200005003000       0187      003082  908    002774   002888   003092   003013   003042   003258   003274   003344   003236   003152   003044   002853               160030891    8    150030561    8    140031251 1398    130031141    8    120031541    8    002758   002903   003030   003076   003065   003228   003274   003390   003296   003132   003006   002904                                      
320000200110017 00210 4113 51LECTOURE NORD       0100760FLEURANCE EB 10     0220960SAINT GENY          01708500114290114293200005003000       0187      003121  938    002808   002967   003119   003054   003093   003305   003321   003322   003274   003184   003069   002923               160031251    8    150030901    8    140031501    8    130031321    8    120036701 1118    002774   002957   003076   003110   003113   003279   003314   003382   003315   003165   003045   002969                                      
320000300310017 00210 4843 51FLEURANCE EB 10     0220960FLEURANCE EB 20     0260856FLEURANCE AGGLO     02500000043080043083200005003000       0187      000000                                                                                                                                 160090728         150000008         140000008         130074778         120075098                                                                                                                                                        
320000400310017 00210 4813 51FLEURANCE EB 20     0260856RD 172              0360397FLEURANCE AN SUD    02608700096010096013200005003000       0187      000000                                                                                                                                 160000008         150000008         140000008         130078138         120000008                                                                                                                                                        
320000500310017 00210 4113 51RD 172              0360397AUCH EB 10          0460900ROUTE D'AGEN        04504500105290105293200016013000       0187      009686         009092   009813   010240   010242   009452   009936   009480   009322   009954   010016   009537   009190               160099841         150100381         140100861         130097831         120098241         009451   010062   010275   010358   010026   010491   010046   009715   010377   009966   009478   009597                                      
320000500210017 00210 4113 51RD 172              0360397AUCH EB 10          0460900ROUTE D'AGEN        04504500105290105293200016013000       0187      004832         004532   004885   005098   005095   004722   004970   004724   004676   004968   005008   004763   004563               160049731         150049981         140050141         130048681         120048291         004727   005009   005126   005163   004989   005230   004994   004863   005193   004972   004661   004763                                      
320000500110017 00210 4113 51RD 172              0360397AUCH EB 10          0460900ROUTE D'AGEN        04504500105290105293200016013000       0187      004854         004560   004928   005142   005147   004730   004966   004756   004646   004986   005008   004774   004627               160050111         150050401         140050721         130049151         120049951         004724   005053   005149   005195   005037   005261   005052   004852   005184   004994   004817   004834                                      
320000599310017 00210 4853 51AUCH EB 10          0460900AUCH EB 20          0520026AUCH                05200000054200054203200016013000       0187      017322  76                                                                                                                             160000008         150000008         140000008         130207688         120000008                                                                                                                                                        
320000601310017 00210 4113 51AUCH EB 20          0520026DEBUT 3 VOIES       0630209DEPOT FERRE         05309000111500111503200006013000       0187      007876  957    007374   007494   008040   007774   007911   008240   008023   008072   008200   008107   007835   007433               160079041    7    150079261    7    140000001         130078471         120077721         007327   007692   007944   007983   007714   008186   008020   008127   008298   008106   007752   007705                                      
320000601210017 00210 4113 51AUCH EB 20          0520026DEBUT 3 VOIES       0630209DEPOT FERRE         05309000111500111503200006013000       0187      003932  947    003697   003742   004027   003875   003962   004111   003962   004060   004079   004053   003917   003694               160039431    7    150039471    7    140000001         130038951         120038371         003672   003825   003956   003970   003846   004078   003954   004082   004141   004049   003911   003837                                      
320000601110017 00210 4113 51AUCH EB 20          0520026DEBUT 3 VOIES       0630209DEPOT FERRE         05309000111500111503200006013000       0187      003944  967    003677   003752   004013   003899   003949   004129   004061   004012   004121   004054   003918   003739               160039611    7    150039791    7    140000001         130039521         120039351         003655   003867   003988   004013   003868   004108   004066   004045   004157   004057   003841   003868                                      
320000602310017 00210 4815 51DEBUT 3 VOIES       0630209FIN 3 VOIES         0650264COMPTAGE 0006 01    06500000019810019813200006013000       0187      000000                                                                                                                                 160000008         150000008         140000008         130082478         120000008                                                                                                                                                        
320000603310017 00210 4813 51FIN 3 VOIES         0650264DEBUT 3 VOIES       0690175COMPTAGE 0006 02    06600000037430037433200006011000       0187      000000                                                                                                                                 160000008         150000008         140059028 100     130061578         120000008                                                                                                                                                        
320000604310017 00210 4815 51DEBUT 3 VOIES       0690175FIN 3 VOIES         0700499COMPTAGE 0006 03    07000000013300013303200006012000       0187      000000                                                                                                                                 160000008         150000008         140000008         130081248         120000008                                                                                                                                                        
320000605310017 00210 4813 51FIN 3 VOIES         0700499RD 104              0720812COMPTAGE 0006 04    07100000022820022823200006013000       0187      000000                                                                                                                                 160000008         150000008         140000008         130075088         120000008                                                                                                                                                        
320000700310017 00210 4813 51RD 104              0720812RD 3                0890612MIRANDE             07505000167280167283200008003000       0187      004776 102                                                                                                                             160000008         150000008         140049348 131     130056428         120000008                                                                                                                                                        
320000800310017 00210 4113 51RD 3                0890612DEPARTEMENT 65      1000408LAGUIAN             08909000102290102293200010003000       0187      004443 1157    003952   004159   004429   004375   004425   004615   004755   004813   004676   004670   004322   004113               160045071 1147    150045941 1127    140046191 1137    130046431 1127    120046751 1137    004026   004257   004377   004491   004547   004642   004782   004908   004760   004702   004351   004228                                      
320000800210017 00210 4113 51RD 3                0890612DEPARTEMENT 65      1000408LAGUIAN             08909000102290102293200010003000       0187      002224 1147    001982   002076   002219   002190   002226   002317   002365   002418   002339   002344   002161   002043               160022551 1147    150022751 1127    140022861 1157    130022961 1147    120023051 1137    002023   002120   002188   002242   002270   002335   002380   002463   002388   002359   002180   002103                                      
320000800110017 00210 4113 51RD 3                0890612DEPARTEMENT 65      1000408LAGUIAN             08909000102290102293200010003000       0187      002219 1157    001970   002083   002210   002185   002199   002298   002390   002395   002337   002326   002161   002070               160022521 1157    150023191 1107    140023331 1107    130023471 1107    120023701 1127    002003   002137   002189   002249   002277   002307   002402   002445   002372   002343   002171   002125                                      
320000901310017 01240 4813 51DEPARTEMENT 31      0000000DEBUT DEV PUJAUDRAN 0020700COMPTAGES 0009.03   0010000002690002690320001000331000340030191      000000                                                                                                                                 160000008         150000008         140000008         130000008         120000008                                                                                                                                                        
320000902310017 01240 481 251DEBUT DEV.PUJAUDRAN 0020700FIN DEV.            0050800DEV.PUJAUDRAN       0040000002982002982320001000300000000000191      000000                                                                                                                                 160000008         150000008         140000008         130000008         120000008                                                                                                                                                        
320000902210017 01240 481 251DEBUT DEV.PUJAUDRAN 0020700FIN DEV.            0050800DEV.PUJAUDRAN       0040000002982002982320001000200000000000191      000000                                                                                                                                 160000008         150000008         140000008         130000008         120000008                                                                                                                                                        
320000902110017 01240 481 251DEBUT DEV.PUJAUDRAN 0020700FIN DEV.            0050800DEV.PUJAUDRAN       0040000002982002982320001000100000000000191      000000                                                                                                                                 160000008         150000008         140000008         130000008         120000008                                                                                                                                                        
320000903310017 01240 411 251FIN DEV .PUJAUDRAN  0050800RD 654              0130143PUJAUDRAN           0060165006290006290320001000300000000000191      023361  578    021367   022334   023290   023470   023276   024725   024670   023049   024288   024388   023469   021992               160230341    8    150231321    8    140227501    8    130229831    8    120222671    8    020882   021866   022380   023113   023161   024544   024114   022843   024239   023724   022953   022605                                      
320000903210017 01240 411 251FIN DEV .PUJAUDRAN  0050800RD 654              0130143PUJAUDRAN           0060165006290006290320001000300000000000191      011762  488    010865   011203   011648   011759   011686   012424   012386   011757   012184   012273   011838   011109               160115881    8    150116401    8    140115371    8    130118801    8    120114641    8    010592   011033   011253   011591   011685   012340   012018   011659   012202   011884   011518   011285                                      
320000903110017 01240 411 251FIN DEV .PUJAUDRAN  0050800RD 654              0130143PUJAUDRAN           0060165006290006290320001000300000000000191      011599  668    010502   011131   011642   011711   011590   012301   012284   011292   012104   012115   011631   010883               160114461    8    150114921    8    140112131    8    130111031    8    120108031    8    010290   010833   011127   011522   011476   012204   012096   011184   012037   011840   011435   011320                                      
320001000310017 01240 4113 51RD 654              0130143DEBUT 3 VOIES       0320587ISLE JOURDAIN       0170800019015019015320001000300000000000187      013089  988    011654   012288   012826   013058   013224   013709   014114   013327   013731   013521   013053   012531               160128921    8    150126851    8    140000001         130000001         120000001         011649   012260   012540   012883   012890   013661   013561   013136   013320   013451   012756   012593                                      
320001000210017 01240 4113 51RD 654              0130143DEBUT 3 VOIES       0320587ISLE JOURDAIN       0170800019015019015320001000300000000000187      006516  978    005844   006123   006376   006475   006654   006865   006985   006727   006884   006764   006392   006090               160064431    8    150063271    8    140000001         130000001         120000001         005847   006120   006253   006402   006429   006802   006758   006660   006668   006723   006408   006243                                      
320001000110017 01240 4113 51RD 654              0130143DEBUT 3 VOIES       0320587ISLE JOURDAIN       0170800019015019015320001000300000000000187      006573  998    005810   006165   006450   006583   006570   006844   007129   006600   006847   006757   006661   006441               160064491    8    150063581    8    140000001         130000001         120000001         005802   006140   006287   006481   006461   006859   006803   006476   006652   006728   006348   006350                                      
320001100310017 01240 4815 51DEBUT 3 VOIES       0320587GIR. AUBIET EST     0350180CAHUZAC             0330500002610002610320001000300000000000187      000000                                                                                                                                 160128328         150000008         140000008         130000008         120000008                                                                                                                                                        
320001200310017 01240 481 251GIR. AUBIET EST     0350180RD 928              0380970DEV AUBIET EST      0360000003877003877320001000300000000000187      000000                                                                                                                                 160000008         150000008         140000008         130000008         120000008                                                                                                                                                        
320001300310017 01240 411 251RD 928              0380970GIR. AUBIET OUEST   0430000AUBIET              0420900004171004171320001000300000000000187      013259  967    011799   012369   013000   013181   012960   013122   014329   013970   013718   014205   013385   013001               160130511         150128981         140000001         130000001         120000001                                                                                                                                                        
320001400310017 01240 4815 51GIR. AUBIET OUEST   0430000FIN 3 VOIES         0490332MARSAN              0470000006299006299320001000300000000000187      000000                                                                                                                                 160000008         150000008         140000008         130000008         120000008                                                                                                                                                        
320001501310017 01240 4813 51FIN 3 VOIES         0490332GIR ST.CRICQ        0510490ST.CRICQ            0510300002010002010320001601300000000000189      000000                                                                                                                                 160000008    7    150000008         140126268    7    130124688    7    120000008         011566   012358   012617   013038   013327   013540   014043   013856   012974   013552   012915   012797                                      
320001501210017 01240 4813 51FIN 3 VOIES         0490332GIR ST.CRICQ        0510490ST.CRICQ            0510300002010002010320001601300000000000189      000000                                                                                                                                 160000008    7    150000008         140062748    7    130061878    7    120000008         005781   006125   006285   006444   006695   006706   006918   006956   006046   006599   006453   006312                                      
320001501110017 01240 4813 51FIN 3 VOIES         0490332GIR ST.CRICQ        0510490ST.CRICQ            0510300002010002010320001601300000000000189      000000                                                                                                                                 160000008    7    150000008         140063528    7    130062818    7    120000008         005785   006233   006332   006594   006632   006834   007125   006900   006928   006953   006462   006485                                      
320001502310017 01240 4113 01GIR ST.CRICQ        0510490GIR . ENDOUMINGUE   0560100ENGACHIES           0530020003766003766320001601300000000000187      009803 1118    008635   009043   009462   009833   009319   010288   010937   010418   010224   010659   009690   009080               160098011 1108    150095201 1228    140091391 1278    130090441 1028    120085091 1418    008544   009188   009309   009974   010123   010365   010374   010567   010264   009995   009402   009499                                      
320001502210017 01240 4113 01GIR ST.CRICQ        0510490GIR . ENDOUMINGUE   0560100ENGACHIES           0530020003766003766320001601300000000000289      004964 1088    004404   004607   004793   004993   004783   005208   005463   005282   005169   005382   004921   004537               160050041 1098    150048161 1198    140046191 1238    130045591    8    120042551 1378    004404   004699   004750   005106   005217   005295   005287   005411   005180   005070   004830   004796                                      
320001502110017 01240 4113 01GIR ST.CRICQ        0510490GIR . ENDOUMINGUE   0560100ENGACHIES           0530020003766003766320001601300000000000289      004839 1148    004231   004436   004669   004840   004536   005080   005474   005136   005055   005277   004769   004543               160047971 1128    150047041 1258    140045201 1318    130044851 1098    120042541 1508    004140   004489   004559   004868   004906   005070   005087   005156   005084   004925   004572   004703                                      
320001601310017 01240 4113 01GIR . ENDOUMINGUE   0560100GIR. RD 930         0620500DURAN               0610450005388005388320001601300000000000287      011385  967    010090   010558   011101   011435   011439   012030   012613   012374   011829   011660   010947   010496               160113001    7    150112281    7    140109121    7    130106781 1007    120104021 1027    010048   010562   010657   011372   011651   011681   012222   012189   011805   011624   010885   010874                                      
320001601210017 01240 4113 01GIR . ENDOUMINGUE   0560100GIR. RD 930         0620500DURAN               0610450005388005388320001601300000000000287      005703  967    005071   005271   005501   005703   005740   005965   006307   006274   005952   005863   005531   005234               160056691    7    150056481    7    140054981    7    130053671    7    120052811    7    005073   005288   005342   005689   005848   005881   006037   006230   005945   005824   005460   005398                                      
320001601110017 01240 4113 01GIR . ENDOUMINGUE   0560100GIR. RD 930         0620500DURAN               0610450005388005388320001601300000000000287      005682  967    005019   005287   005600   005732   005699   006065   006306   006100   005877   005797   005416   005262               160056311    7    150055801    7    140054141    7    130053111 1117    120051211 1137    004975   005274   005315   005683   005803   005800   006185   005959   005860   005800   005425   005476                                      
320001701310017 01240 4813 51GIR. RD 930         0620500DEBUT 3 VOIES       0730700NAHES               0650000011046011046320001601300000000000187      007141 144                                                                                                                             160076218 134     150000008         140000008         130085698         120000008                                                                                                                                                        
