840149800310017 00860 4812001N 7 LA CROISIERE    0000000D63 A MOTTE DU RHONE0010929LA CROISIERE        0010132001977001977840107050300000000001090      010848    0                                                                                                                            160000008    0    150000008    0    140101198    0    130100198    0    120096838    0                                                                                                                                                   
840149700310017 00860 4813001D63 A MOTTE DU RHONE0010929D994                0030200LA MOTTE DU RHONE   0020213001578001578840107050300000000000898      021269    0                                                                                                                            160000008    0    150000008    0    140198408    0    130196448    0    120189858    0                                                                                                                                                   
840107050310017 00860 4113001RD 994              0030200LIM DEP             0040245DEV PT ST ESPRIT    0040240001240001240840107050300000000000197      010905    0                                                                                                                            160106141    0    150000001    0    140101721    0    130100721    0    120097341    0                                                                                                                                                   
840107050210017 00860 4113001RD 994              0030200LIM DEP             0040245DEV PT ST ESPRIT    0040240001240001240840107050300000000000197      005539    0                                                                                                                            160054041    0    150000001    0    140052141    0    130051631    0    120049651    0                                                                                                                                                   
840107050110017 00860 4113001RD 994              0030200LIM DEP             0040245DEV PT ST ESPRIT    0040240001240001240840107050300000000001296      005366    0                                                                                                                            160052101    0    150000001    0    140049581    0    130049091    0    120047691    0                                                                                                                                                   
840100725310017 10070 4110201sortie gare TGV     0230500giratoire fin route 0250561RIVE GAUCHE         0250065001104001104840107050300000000000616      022756    0                                                                                                                            160207541    0    150198261    0    140000001    0    130000001    0    120000001    0                                                                                                                                                   
840100725210017 10070 4110201sortie gare TGV     0230500giratoire fin route 0250561RIVE GAUCHE         0250065001104001104840107050300000000000616      011395    0                                                                                                                            160104311    0    150100901    0    140000001    0    130000001    0    120000001    0                                                                                                                                                   
840100725110017 10070 4110201sortie gare TGV     0230500giratoire fin route 0250561RIVE GAUCHE         0250065001104001104840107050300000000000616      011361    0                                                                                                                            160103231    0    150097361    0    140000001    0    130000001    0    120000001    0                                                                                                                                                   
840100723310017 10070 4110201giratoire           0220000sortie gare TGV     0230500COURTINE NORD       0230235000641000641840107050300000000000616      017539         015755   016432   017415   017489   017552   018766   019403   017104   018449   017942   017521   016605               160159181         150151431    0    140000001    0    130000001    0    120000001    0    013721   014074   015562   016070   016098   017142   017420   015639   016632   015731   016890   016008                                      
840100723210017 10070 4110201giratoire           0220000sortie gare TGV     0230500COURTINE NORD       0230235000641000641840107050300000000000616      008546         007807   008086   008599   008517   008594   009147   009231   008042   008954   008726   008672   008170               160077801         150074351         140000001         130000001         120000001         006874   007000   007758   007890   007876   008348   008272   007397   008184   007651   008253   007852                                      
840100723110017 10070 4110201giratoire           0220000sortie gare TGV     0230500COURTINE NORD       0230235000641000641840107050300000000000616      008993         007948   008346   008816   008972   008958   009619   010172   009062   009495   009216   008849   008435               160081381         150077081    0    140000001    0    130000001    0    120000001    0    006847   007074   007804   008180   008222   008794   009148   008242   008448   008080   008637   008156                                      
840003800310017 01290 4813001N 7                 0000000N 7                 0000775AUTOROUTE AVI SUD   0000690000775000775840001400300000000000500      019742                                                                                                                                 160204848         150000008         140199148         130192848         120189338                                                                                                                                                        
840001400310017 00070 4117001Charles de Gaulle   0540000D 973               0610922CAUMONT_N7          0600176006996006996840001400300000000000493      039847         037133   038240   039754   040442   039932   041953   043040   038313   041395   040947   038705   038253               160413441    0    150000001    0    140401931    0    130394431    7    120382901    0                                                                                                                                                   
840001400210017 00070 4117001Charles de Gaulle   0540000D 973               0610922CAUMONT_N7          0600176006996006996840001400300000000000493      019715         018568   018905   019610   019915   019667   020499   021011   018979   020586   020333   019381   019093               160201441    0    150000001    0    140196681    0    130195681    7    120187771    0                                                                                                                                                   
840001400110017 00070 4117001Charles de Gaulle   0540000D 973               0610922CAUMONT_N7          0600176006996006996840001400300000000000493      020132         018565   019335   020144   020527   020265   021454   022029   019334   020809   020614   019324   019160               160212001    0    150000001    0    140205251    0    130198751    7    120195131    0                                                                                                                                                   
840000400310017 00070 4815001EB 20 ORANGE        0270485D 977               0290015COURTHEZON NORD     0290000006372006372840000202300000000000490      014323                                                                                                                                 160146688         150000008         140156838         130156068         120157348                                                                                                                                                        
840000399310017 00070 4855001EB 10 ORANGE        0240000EB 20 ORANGE        0270485TRAVERSEE ORANGE    0250000003219000000840000202300000000000401      016432                                                                                                                                 160168288         150000008         140179928         130179038         120180508                                                                                                                                                        
840000300310017 00070 4813001D 976               0220000EB 10 ORANGE        0240000ENTREE NORD ORANGE  0220000002005002005840000202300000000000490      016023                                                                                                                                 160164098         150000008         140175448         130174578         120176008                                                                                                                                                        
840000202310017 00070 4112001A7 PIOLENC          0190200D 976               0220000ORANGE NORD         0190800002793002793840000202300000000001291      011211         009973   010484   011050   011192   011421   011665   012073   012522   011423   011086   010730   010847               160114811    0    150000001    0    140122751    0    130122141    0    120123141    0                                                                                                                                                   
840000202210017 00070 4112001A7 PIOLENC          0190200D 976               0220000ORANGE NORD         0190800002793002793840000202300000000001291      005314         004847   004991   005303   005334   005400   005553   005767   005570   005408   005307   005094   005171               160054081    0    150000001    0    140054151    0    130053191    0    120054161    0                                                                                                                                                   
840000202110017 00070 4112001A7 PIOLENC          0190200D 976               0220000ORANGE NORD         0190800002793002793840000202300000000001291      005897         005126   005493   005747   005858   006021   006112   006306   006952   006015   005779   005636   005676               160060731    0    150000001    0    140068601    0    130068951    0    120068981    0                                                                                                                                                   
840000201310017 00070 4112001D 994               0050740A7 PIOLENC          0190200MONDRAGON SUD       0110088013449010468840000202300000000001191      013576         011450   012177   012914   013569   014091   014528   015521   016564   013944   013461   012638   011930               160131391         150104181         140119171         130117581    7    120116851    8    010231   010680   011524   013164   013865   014166   016042   016550   013895   012965   012416   012047                                      
840000201210017 00070 4112001D 994               0050740A7 PIOLENC          0190200MONDRAGON SUD       0110088013449010468840000202300000000001191      006855         005727   006074   006458   006783   007124   007200   007749   008967   007081   006700   006331   005993               160064311         150039471         140051481         130050761    7    120049661    8    004460   004607   005254   006489   006946   006934   007915   008886   006925   006475   006185   006007                                      
840000201110017 00070 4112001D 994               0050740A7 PIOLENC          0190200MONDRAGON SUD       0110088013449010468840000202300000000001191      006721         005723   006103   006456   006786   006967   007328   007772   007597   006863   006761   006307   005937               160067081         150064711         140067691         130066821 1337    120067191 1378    005771   006073   006270   006675   006919   007232   008127   007664   006970   006490   006231   006040                                      
840000100310017 00070 4115001LIMITE DROME        0000000D 994               0050740LAPALUD             0010500005786005786840000202326000250030390      010734         008592   009634   009927   010466   011090   011486   012936   014238   010967   010503   009721   009126               160106461         150095331         140098531         130097561         120091841         008599   009392   009753   010489   010968   011308   013431   013945   011022   010233   009519   009010                                      
840000100210017 00070 4115001LIMITE DROME        0000000D 994               0050740LAPALUD             0010500005786005786840000202326000250030390      005339         004325   004865   004980   005291   005456   005810   006635   006568   005388   005262   004833   004604               160053361         150046301         140046611         130046151         120042681         004382   004782   004923   005303   005422   005739   006975   006434   005535   005124   004791   004589                                      
840000100110017 00070 4115001LIMITE DROME        0000000D 994               0050740LAPALUD             0010500005786005786840000202326000250030390      005395         004267   004769   004947   005175   005634   005676   006301   007670   005579   005241   004888   004522               160053101         150049031         140051921         130051411         120049161         004217   004610   004830   005186   005546   005569   006456   007511   005487   005109   004728   004421                                      
830650200310017 05700 111 431LA CRAU             0030000HYERES              0070160LA CRAU             00604550041600041608400002023          0193      000000                                                                                                                                 160000001         150000001         140592361         130586501         120586501                                                                                                                                                        
830650200210017 05700 111 431LA CRAU             0030000HYERES              0070160LA CRAU             00604550041600041608400002023          0193      000000                                                                                                                                 160000001         150000001         140291341         130288461         120288461                                                                                                                                                        
830650200110017 05700 111 431LA CRAU             0030000HYERES              0070160LA CRAU             00604550041600041608400002023          0193      000000                                                                                                                                 160000001         150000001         140301021         130298041         120298041                                                                                                                                                        
830650100310017 05700 111 131LA GARDE            0000000LA CRAU             0030000LA BASTIDE          00009400030000030008400002023          0290      000000                                                                                                                                 160000001         150000001         140580601         130574861         120574861                                                                                                                                                        
830650100210017 05700 111 131LA GARDE            0000000LA CRAU             0030000LA BASTIDE          00009400030000030008400002023          0290      000000                                                                                                                                 160000001         150000001         140285851         130283021         120283021                                                                                                                                                        
830650100110017 05700 111 131LA GARDE            0000000LA CRAU             0030000LA BASTIDE          00009400030000030008400002023          0290      000000                                                                                                                                 160000001         150000001         140294751         130291841         120291841                                                                                                                                                        
830002799310017 00980 4856001A 570 HYERES        0000000EB10 HYERES         0100334HYERES OUEST        0100000001100001100830650200300000000000295      000000                                                                                                                                 160000008         150000008         140363548         130359958         120359958                                                                                                                                                        
480002200310017 01060 4812001LIMITE GARD         0000000INTER.D984-JALCRESTE0220995LE COLLET DE DEZE   0100800022038020321300003500300000000001287      002309                                                                                                                                 160025438         150025488         140025308         130025058         120025168                                                                                                                                                        
380003900310017 00850 4113001VIZILLE             0560310LIMITE HAUTES-ALPES 1030982LAFFREY             0730600050574050574300003500305000090010907      009925    0    008337   009543   009641   009779   009471   009676   012589   012187   010410   010084   009142   008177               160092731    0    150094641    0    140097801    0    130096841    0    120096841    0                                                                                                                                                   
380003900210017 00850 4113001VIZILLE             0560310LIMITE HAUTES-ALPES 1030982LAFFREY             0730600050574050574300003500305000090010907      005395    0    004556   005228   005222   005360   005117   005255   006697   006555   005670   005473   004971   004606               160049901    0    150051151    0    140049111    0    130048631    0    120048631    0                                                                                                                                                   
380003900110017 00850 4113001VIZILLE             0560310LIMITE HAUTES-ALPES 1030982LAFFREY             0730600050574050574300003500305000090010907      004530    0    003781   004315   004419   004419   004354   004421   005892   005632   004740   004611   004171   003571               160042831    0    150043491    0    140048691    0    130048211    0    120048211    0                                                                                                                                                   
340003702310017 01130 4813001VENDARGUES D65      0160150VENDARGUES LIMITE   0160786VENDARGUES LIMITE   0160700002797002197340003600300000000000180      021836                                                                                                                                 160223788         150240368         140237038         130234698         120239278                                                                                                                                                        
340003701310017 01130 4813001VENDARGUES A9       0150450VENDARGUES D65      0160150VENDARGUES A9 D65   0160000002797002197340003600300000000000180      040912                                                                                                                                 160419268         150450318         140444078         130439688         120448268                                                                                                                                                        
340003601110017 01130 4113001BAILLARGUES         0140750VENDARGUES A9       0150450BAILLARGUES         0140948002797002797340003600300000000000616      014145         013643   014069   014759   014250   014176   014833   014366   013458   014613   014234   013952   013411               160163201         150290671    0    140000001    0    130000001    0    120000001    0    033103   034186   029854   004710   004247   007145   013109   013002   015014   014298   013968   013566                                      
340003600310017 01130 4113001EB 20 LUNEL         0040630BAILLARGUES         0140750VALERGUES           0090000010811008088340003600300000000000490      013113         012591   012748   013291   013318   013301   013996   013574   012867   013665   013207   012805   011998               160134381         150144331    0    140142331    0    130140931    7    120143681    0    012910   013423   013276   013605   013631   013824   014060   013721   013910   013213   013095   012615                                      
340003600210017 01130 4113001EB 20 LUNEL         0040630BAILLARGUES         0140750VALERGUES           0090000010811008088340003600300000000000490      006538         006255   006301   006591   006547   006587   007051   006753   006407   006842   006626   006462   006033               160067001         150071981    0    140070731    0    130070031    7    120073411    0    006470   006675   006621   006831   006780   006878   006916   006929   007015   006562   006509   006232                                      
340003600110017 01130 4113001EB 20 LUNEL         0040630BAILLARGUES         0140750VALERGUES           0090000010811008088340003600300000000000490      006575         006336   006447   006700   006771   006714   006945   006821   006460   006823   006581   006343   005965               160067381         150072351    0    140071601    0    130070901    7    120070271    0    006440   006748   006655   006774   006851   006946   007144   006792   006895   006651   006586   006383                                      
340003300310017 01130 4113001LIMITE GARD         0000000EB10 LUNEL          0010670LUNEL               0010200001754001754340003600330000480030490      026282         022834   023897   025613   027179   027620   028934   029502   029144   027107   025107   024907   023401               160266231         150257231         140245681         130242031         120241441         022429   023652   024776   026475   026655   027953   029640   030264   029027   028654            023256                                      
340003300210017 01130 4113001LIMITE GARD         0000000EB10 LUNEL          0010670LUNEL               0010200001754001754340003600330000480030490      013172         011510   012007   012800   013489   013901   014468   014616   014563   013620   012647   012542   011833               160133951         150129421         140123371         130121651         120120891         011362   011970   012484   013350   013347   013992   014640   015306   014590   014576            011698                                      
340003300110017 01130 4113001LIMITE GARD         0000000EB10 LUNEL          0010670LUNEL               0010200001754001754340003600330000480030490      013110         011324   011890   012813   013690   013719   014466   014886   014581   013487   012460   012365   011568               160132281         150127811         140122311         130120381         120120551         011067   011682   012292   013125   013308   013961   015000   014958   014437   014078            011558                                      
300004801310017 01130 4812001RN 572              0490420LIMITE HERAULT      0490798PONT / VIDOURLE     0490798000378000378300004700300000000000189      015518                                                                                                                                 160171018         150156208         140151788         130000008         120000008                                                                                                                                                        
300004800310017 01130 4812001A9 RN 313           0470480RN 572              0490420GALLARGUES          0490000001931001931300004700300000010030589      016670                                                                                                                                 160183718         150167808         140163068         130000008         120000008                                                                                                                                                        
300004700310017 01130 4112001RD 139 VERGEZE      0420395A.9 RN 313          0470480CODOGNAN            0430540005085004465300004700300000000000589      011304         009886   010361   010381   011477   011798   012123   012906   012494   011566   011419   010680   010488               160124571         150113781         140110561         130000001         120000001         011015   011407   011262   011865   012343   022858   012544   013060   012396   010530   010292   010086                                      
300004700210017 01130 4112001A.9 RN 313          0420395RD 139 VERGEZE      0470480CODOGNAN            0430540005085004465300004700300000000000589      005489         004776   005011   005012   005602   005758   005917   006221   006120   005621   005562   005152   005081               160073811         150075001         140057891         130000001         120000001         007528   007685   007445   007881   008083   012029   008121   008164   006776   005114   004986   004846                                      
300004700110017 01130 4112001RD 139 VERGEZE      0420395A.9 RN 313          0470480CODOGNAN            0430540005085004465300004700300000000000589      005815         005110   005350   005369   005875   006040   006206   006685   006374   005945   005857   005528   005407               160050761         150038781         140052671         130000001         120000001         003487   003722   003817   003984   004260   010829   004423   004896   005620   005416   005306   005240                                      
300004601310017 01130 4113001RD 14 BERNIS        0360391RD 139 VERGEZE      0420395BERNIS              0360480006662006662300004700300000000000589      017580         015829   017013   017509   017481   018180   018700   019287   018403   017988   017634   016845   016054               160175571         150177021         140172321         130000001         120000001         015534   016623   017176   017778   017880   018686   019318   019126   018093   016800   016496   017142                                      
300004601210017 01130 4113001RD 139 VERGEZE      0360391RD 14 BERNIS        0420395BERNIS              0360480006662006662300004700300000000000589      008872         007960   008578   008807   008809   009175   009470   009685   009299   009124   008958   008500   008078               160088821         150089271         140085901         130000001         120000001         007820   008393   008680   008981   009046   009472   009716   009769   009199   008501   008333   008654                                      
300004601110017 01130 4113001RD 14 BERNIS        0360391RD 139 VERGEZE      0420395BERNIS              0360480006662006662300004700300000000000589      008708         007869   008435   008702   008672   009005   009230   009602   009104   008864   008676   008345   007976               160086751         150087751         140086421         130000001         120000001         007714   008230   008496   008797   008834   009214   009602   009357   008894   008299   008163   008488                                      
300004600310017 01130 4812001EB20 NIMES          0320195RD 14 BERNIS        0360391DEVIATION DE MILHAUD0330000005034005034300004601300000000000589      022225                                                                                                                                 160221968         150223808         140217868         130000008         120000008                                                                                                                                                        
300004599310017 01130 4857001A9 N106             0300000EB 20 NIMES         0320195NIMES PERIPH SUD OUE0310000002408000000300004601300000000000301      034313                                                                                                                                 160342698         150345538         140336368         130000008         120000008                                                                                                                                                        
300004598310017 01130 4857001RN 86 BD SUD        0260640A9 RN 106           0290820NIMES  PERIPHERIQUE 0280760003143000000300004601300000000000589      034575                                                                                                                                 160345308         150348168    0    140338928    0    130000008    0    120000008    0                                                                                                                                                   
300004598210017 01130 4857001RN 86 BD SUD        0260040A9 RN 106           0290820NIMES PERIPHERIQUE  0280760003143000000          00000000000589      000000    0                                                                                                                            160000008    0    150000008    0    140000008    0    130000008    0    120000008    0                                                                                                                                                   
300004598110017 01130 4857001RN 86 BD SUD        0260040A9 RN 106           0290820NIMES PERIPHERIQUE  0280760003143000000300004601100000000000589      000000    0                                                                                                                            160000008    0    150000008    0    140000008    0    130000008    0    120000008    0                                                                                                                                                   
300004597310017 01130 4852001EB 10 NIMES         0240280RN 86 BD SUD        0260640NIMES ENTREE SUD    0250000002405000000300004601300000000000301      034313                                                                                                                                 160342698         150345538         140336368         130000008         120000008                                                                                                                                                        
300003500310017 01060 4112001LA GRAND COMBE      0570400LIMITE LOZERE       0660832SAINTE CECILE       0650200009457006617300004601300000220030290      002775         002061   002379   002484   003036   002703   002860   003635   003949   002962   002867   002222   002094               160030561         150030611         140030391         130000001         120000001         002190   002323   002534   002872   003138   003218   004157   004662   003268   003191   002583   002483                                      
300003500210017 01060 4112001LIMITE LOZERE       0570400LA GRAND COMBE      0660832SAINTE CECILE       0650200009457006617300004601300000220030290      001459         001147   001314   001371   001688   001498   001530   001818   001967   001507   001447   001142   001061               160016711         150016851         140016561         130000001         120000001         001217   001281   001385   001546   001725   001751   002278   002509   001785   001744   001435   001370                                      
300003500110017 01060 4112001LA GRAND COMBE      0570400LIMITE LOZERE       0660832SAINTE CECILE       0650200009457006617300004601300000220030290      001316         000914   001065   001113   001348   001205   001330   001817   001982   001455   001420   001080   001033               160013851         150013761         140013831         130000001         120000001         000973   001042   001149   001326   001413   001467   001879   002153   001483   001447   001148   001113                                      
300003400310017 01060 4112001EB20 ALES           0470000LA GRAND COMBE      0570400ST_MARTIN_VALG      0490800010324008844300004601300000000000290      010822         009726   010045   010644   010827   010901   011165   011388   011384   011446   011542   010458   010274               160107901         150106781         140104401    8    130000001         120000001         009784   010005   010496   010720   010896   011380   011231   011319   011199   010989   010497   010934                                      
300003400210017 01060 4112001LA GRAND COMBE      0470000EB20 ALES           0570400ST_MARTIN_VALG      0490800010324008844300004601300000000000290      005399         004887   005048   005344   005425   005470   005578   005649   005645   005691   005727   005208   005089               160054221         150053561         140052421    8    130000001         120000001         004911   005022   005273   005392   005479   005710   005633   005703   005635   005531   005251   005506                                      
300003400110017 01060 4112001EB20 ALES           0470000LA GRAND COMBE      0570400ST_MARTIN_VALG      0490800010324008844300004601300000000000290      005423         004839   004997   005300   005402   005431   005587   005739   005739   005755   005815   005250   005185               160053681         150053221         140051981    8    130000001         120000001         004873   004983   005223   005328   005417   005670   005598   005616   005564   005458   005246   005428                                      
300003300310017 01060 4112001RD 982 PONT DE NERS 0270300EB10 ALES           0390707SAINT HILAIRE       0380700012257010167300004601300000000000589      000000                                                                                                                                 160000001         150000001         140000001         130000001         120000001                                                                                                                                                        
300003300210017 0106004110201RD 982 PONT DE NERS 0270300EB 10 ALES          0390707SAINT HILAIRE       0380700012257010167300004601300000000000404      000000                                                                                                                                 160000001         150000001         140000001         130000001         120000001                                                                                                                                                        
300003300110017 0106004110201RD 982 PONT DE NERS 0270300EB 10 ALES          0390707SAINT HILAIRE       0380700012257010167300004601300000000000404      000000                                                                                                                                 160000001         150000001         140000001         130000001         120000001                                                                                                                                                        
300003201310017 01060 4110101RD 8 BRIGNON        0200770RD 982 PONT DE NERS 0270300BOUCOIRAN           0270000006332004632300004601300000000000301      035732         063555   028042   034768   041224   033368   033798   036092   034672   034754   032542   019879   034927               160903521         150379411         140000001         130000001         120000001         047608   093291   059562   083536   087951   113813   129418   104700   092656   086204   082938   103101                                      
300003201210017 0106004110101RD 8 BRIGNON        0200730RD 982 PONT DE NERS 0270300BOUCOIRAN           0270000006332004632300004601300000000000404      017044         046284   010103   016680   022587   016122   014610   015793   014937   015041   013051   001213   016967               160713871         150182511         140000001         130000001         120000001         030006   075810   041203   064558   069299   094692   109881   085049   072704   066946   063517   083581                                      
300003201110017 0106004110101RD 8 BRIGNON        0200730RD 982 PONT DE NERS 0270300BOUCOIRAN           0270000006332004632300004601300000000000404      018688         017271   017939   018088   018637   017246   019188   020299   019735   019713   019491   018666   017960               160189651         150196901         140000001         130000001         120000001         017602   017481   018359   018978   018652   019121   019537   019651   019952   019258   019421   019520                                      
300003200310017 01060 4110101GIRATOIRE           0140430RD 8 BRIGNON        0200770ST GENIES           0170748005385005385300004601300000000000589      019101         016700   017839   018250   019152   019225   020039   020960   020903   021662   019398   018370   016683               160187201         150182931    0    140174661    0    130000001    0    120000001    0    016175   017262   017964   018829   018797   019546   020671   020587   019511   019337   018196   017712                                      
300003200210017 01060 4110101GIRATOIRE           0140430RD 8 BRIGNON        0200770ST GENIES           0170748005385005385300004601300000000000589      009504         008344   008891   009070   009509   009605   010028   010411   010414   010717   009616   009160   008270               160093331         150090971    0    140086991    0    130000001    0    120000001    0    008068   008607   008929   009385   009383   009731   010280   010388   009734   009592   009101   008768                                      
300003200110017 01060 4110101GIRATOIRE           0140430RD 8 BRIGNON        0200770ST GENIES           0170748005385005385300004601300000000000589      009597         008356   008948   009180   009643   009620   010011   010549   010489   010945   009782   009210   008413               160093871         150091961    0    140087671    0    130000001    0    120000001    0    008107   008655   009035   009444   009414   009815   010391   010199   009777   009745   009095   008944                                      
300003000310017 01060 4112001RD 907              0050322RD 22 LA CALMETTE   0130500NIMES NORD          0050370008022008022300004601300000000000589      029096         027186   028792   029377   029128   021684   031361   032267   030644   030503   030990   029471   027860               160293791         150312351         140280601         130000001         120000001         026730   027937   028942   029876   029171   030679   031231   030594   030433   029902   028580   028441                                      
300003000210017 01060 4112001RD 907              0050322RD 22 LA CALMETTE   0130500NIMES NORD          0050370008022008022300004601300000000000304      014417         013015   013916   014059   014743   014501   015076   015492   014970   014693   014921   014210   013400               160142011         150137861         140136571         130000001         120000001         012892   013486   013912   014422   014167   014846   015180   014982   014677   014417   013758   013653                                      
300003000110017 01060 4112001RD 907              0050300RD 22 LA CALMETTE   0130322NIMES NORD          0050370008022008022300004601300000000000304      014679         014171   014876   015318   014385   007183   016285   016775   015674   015810   016069   015261   014460               160151781         150174491         140144031         130000001         120000001         013838   014451   015030   015454   015004   015833   016051   015612   015756   015485   014822   014788                                      
300002700310017 01000 4110201RN580               0150900LIMITE VAUCLUSE     0170269LES ANGLES          0160475003732003732300004601300000000000616      040679    0                                                                                                                            160410071    0    150393911    0    140000001    0    130000001    0    120000001    0                                                                                                                                                   
300002700210017 01000 4110201RN580               0150900LIMITE VAUCLUSE     0170269LES ANGLES          0160475003732003732300004601300000000000616      020422    0                                                                                                                            160205331    0    150195481    0    140000001    0    130000001    0    120000001    0                                                                                                                                                   
300002700110017 01000 4110201RN580               0150900LIMITE VAUCLUSE     0170269LES ANGLES          0160475003732003732300004601300000000000616      020257    0                                                                                                                            160204741    0    150198431    0    140000001    0    130000001    0    120000001    0                                                                                                                                                   
300002600310017 01000 4112001RD 976              0070653RN 580              0150900ROCHEFORT           0140500008238008238300004601300000000000589      020751         017970   018796   019358   021184   021179   022492   025073   023447   021298   020517   019083   018463               160208551         150203401         140202581         130000001         120000001         017955   018313   019849   020987   020858   022233   025104   023421   021685   021656   019006   019047                                      
300002600210017 01000 4112001RD 580              0070653RD 976              0150900ROCHEFORT           0140500008238008238300004601300000000000589      010444         009002   009460   009758   010660   010654   011372   012697   011713   010666   010308   009615   009341               160104901         150102361         140101901         130000001         120000001         009001   009257   010034   010567   010466   011211   012692   011646   010885   010824   009580   009651                                      
300002600110017 01000 4112001RD 976              0070653RN 580              0150900ROCHEFORT           0140500008238008238300004601300000000000589      010307         008968   009336   009600   010524   010525   011120   012376   011734   010632   010209   009468   009122               160103651         150101041         140100681         130000001         120000001         008954   009056   009815   010420   010392   011022   012412   011775   010800   010832   009426   009396                                      
300002500310017 01000 4112001A 9 RD 192          0020400RD 976              0070653ESTEZARGUES         0060800005056005056300004601300000000000589      019579         016245   017423   018218   019967   020108   021480   023922   022616   020800   019340   017724   016953               160196471         150191301         140000001         130000001         120000001         016719   016572   018446   019567   019747   021076   024204   022859   020299   019760   018996   017356                                      
300002500210017 01000 4112001RD 976              0020400A9 RD 192           0070653ESTEZARGUES         0060800005056005056300004601300000000000589      009790         008120   008721   009123   009979   010029   010755   012031   011249   010361   009655   008852   008529               160098301         150095771         140094711         130000001         120000001         008383   008333   009246   009792   009848   010560   012183   011342   010118   009850   009489   008737                                      
300002500110017 01000 4112001A 9 RD 192          0020400RD 976              0070653ESTEZARGUES         0060800005056005056300004601300000000000589      009789         008125   008702   009095   009988   010079   010725   011891   011367   010439   009685   008872   008424               160098171         150095531         140000001         130000001         120000001         008336   008239   009200   009775   009899   010516   012021   011517   010181   009910   009507   008619                                      
300000700310017 00860 4142001EB 20 PONT ST ESPRIT0040991RD 980              0120860BAGNOLS NORD        0120857007907006709300004601300000000000589      017772         015494   016573   017385   018081   018377   019053   019552   019387   018544   017945   016756   016049               160178201         150179151         140177511         130000001         120000001         016064   016775   017574   018297   018224   018664   019335   019539   019043   017128   016634   016545                                      
300000700210017 00860 4142001RD 980              0040991EB 10 PONT ST ESPRIT0120860BAGNOLS NORD        0120630007907006709300004601300000000000589      008947         007807   008286   008749   009047   009281   009579   009677   009978   009376   009039   008465   008040               160089941         150090751         140089921         130000001         120000001         008102   008450   008794   009192   009194   009349   009722   010073   009699   008648   008418   008274                                      
300000700110017 00860 4142001EB 20 PONT ST ESPRIT0040991RD 980              0120860BAGNOLS NORD        0120630007907006709300004601300000000000589      008825         007687   008287   008636   009034   009096   009474   009875   009409   009168   008906   008291   008009               160088261         150088401         140087591         130000001         120000001         007962   008325   008780   009105   009030   009315   009613   009466   009344   008480   008216   008271                                      
300000300310017 00860 4842001EB 10 PT ST ESPRIT  0020063EB 20 PT ST ESPRIT  0040991AGGLO PT ST ESPRIT  0020100002961000000300000700300000000000589      008395                                                                                                                                 160084188         150084638         140083868         130000008         120000008                                                                                                                                                        
130645000310017 05170 1110231A 51                0000000A7                  0001157LIAISON A51 A7BN    0000000001160001160300000700300000000000589      000000                                                                                                                                 160000001         150000001         140419561         130415411         120415411                                                                                                                                                        
130645000210017 05170 1110231A 51                0000000A7                  0001157LIAISON A51 A7BN    0000000001160001160300000700300000000000589      000000                                                                                                                                 160000001         150000001         140197611         130195661         120195661                                                                                                                                                        
130645000110017 05170 1110231A 51                0000000A7                  0001157LIAISON A51 A7BN    0000000001160001160300000700300000000000589      000000                                                                                                                                 160000001         150000001         140221941         130219751         120219751                                                                                                                                                        
130644000310017 05160 1110231A 51                0000000A8                  0000915LIAISON A51 A8      0000000000915000915300000700300000000000589      000000                                                                                                                                 160000001         150000001         140000001         130000001         120000001                                                                                                                                                        
130644000210017 05160 1110231A 51                0000000A8                  0000915LIAISON A51 A8      0000000000915000915300000700300000000000589      000000                                                                                                                                 160000001         150000001         140000001         130000001         120000001                                                                                                                                                        
130644000110017 05160 1110231A 51                0000000A8                  0000915LIAISON A51 A8      0000000000915000915300000700300000000000589      000000                                                                                                                                 160000001         150000001         140000001         130000001         120000001                                                                                                                                                        
130643000310017 05150 1110231A 51                0000000D6                  0010242LIAISON A51 D6      0000000001197001197300000700300000000000589      000000                                                                                                                                 160000001         150000001         140485721         130480921         120480921                                                                                                                                                        
130643000210017 05150 1110231A 51                0000000D6                  0010242LIAISON A51 D6      0000000001197001197300000700300000000000589      000000                                                                                                                                 160000001         150000001         140241781         130239391         120239391                                                                                                                                                        
130643000110017 05150 1110231A 51                0000000D6                  0010242LIAISON A51 D6      0000000001197001197300000700300000000000589      000000                                                                                                                                 160000001         150000001         140243941         130241531         120241531                                                                                                                                                        
130642000310017 05520 1110231A 55                0000000A7                  0001620LIAISON A7BN A55    0000000001620001620300000700300000000000589      000000                                                                                                                                 160000001         150000001         140356231         130352711         120352711                                                                                                                                                        
130642000210017 05520 1110231A 55                0000000A7                  0001620LIAISON A7BN A55    0000000001620001620300000700300000000000589      000000                                                                                                                                 160000001         150000001         140151701         130150201         120150201                                                                                                                                                        
130642000110017 05520 1110231A 55                0000000A7                  0001620LIAISON A7BN A55    0000000001620001620300000700300000000000589      000000                                                                                                                                 160000001         150000001         140204531         130202511         120202511                                                                                                                                                        
130641000310017 05510 1110231A 55                0000000A7                  0001177LIAISON A7N A55L    0000000001177001177300000700300000000000589      000000                                                                                                                                 160000001         150000001         140000001         130000001         120000001                                                                                                                                                        
130641000210017 05510 1110231A 55                0000000A7                  0001177LIAISON A7N A55L    0000000001177001177300000700300000000000589      000000                                                                                                                                 160000001         150000001         140000001         130000001         120000001                                                                                                                                                        
130641000110017 05510 1110231A 55                0000000A7                  0001177LIAISON A7N A55L    0000000001177001177300000700300000000000589      000000                                                                                                                                 160000001         150000001         140188341         130186481         120186481                                                                                                                                                        
130640000510017 05570 1153031A 55                0000000ARENC               0010500LIAISON A7 A55      0000000001500001500300000700300000000000589      000000                                                                                                                                 160000001         150000001         140159461         130157891         120157891                                                                                                                                                        
130636700310017 00550 1810241MARTIGUES NORD      0370980RN 568.             0381061MARTIGUES NORD      0380500001080001080130007000300000000000589      071613                                                                                                                                 160682688         150665008    0    140750028    0    130742608    0    120742608    0                                                                                                                                                   
130636700210017 00550 1810241MARTIGUES NORD      0370980RN 568.             0381061MARTIGUES NORD      0380500001080001080000000000000000000000589      000000                                                                                                                                 160000008         150000008         140342928         130339538         120339538                                                                                                                                                        
130636700110017 00550 1810241MARTIGUES NORD      0370980RN 568.             0381061MARTIGUES NORD      0380500001080001080000000000000000000000589      000000                                                                                                                                 160000008         150000008         140407108         130403078         120403078                                                                                                                                                        
130636600310017 00550 1810241MARTIGUES SUD       0360400MARTIGUES NORD      0370980MARTIGUES SUD       0370500001584001584130007000300000000000589      075104                                                                                                                                 160715968         150697428    0    140786588    0    130778808    0    120778808    0                                                                                                                                                   
130636600210017 00550 1810241MARTIGUES SUD       0360400MARTIGUES NORD      0370980MARTIGUES SUD       0370000001584001584000000000000000000000589      000000                                                                                                                                 160000008         150000008         140400778         130396818         120396818                                                                                                                                                        
130636600110017 00550 1810241MARTIGUES SUD       0360400MARTIGUES NORD      0370980MARTIGUES SUD       0370000001584001584000000000000000000000589      000000                                                                                                                                 160000008         150000008         140385808         130381998         120381998                                                                                                                                                        
130636500310017 00550 1810241MARTIGUES CENTRE    0330190MARTIGUES SUD       0360400MARTIGUES CENTRE    0350100003280003280000000000000000000000589      000000                                                                                                                                 160000008         150000008         140560438         130554898         120554898                                                                                                                                                        
130636500210017 00550 181 241MARTIGUES CENTRE    0330190MARTIGUES SUD       0360400MARTIGUES CENTRE    03501000032800032800000000000          0589      000000                                                                                                                                 160000008         150000008         140298018         130295068         120295068                                                                                                                                                        
130636500110017 00550 181 241MARTIGUES CENTRE    0330190MARTIGUES SUD       0360400MARTIGUES CENTRE    03501000032800032800000000000          0589      000000                                                                                                                                 160000008         150000008         140262428         130259838         120259838                                                                                                                                                        
130636400310017 00550 1810241LA MEDE OUEST       0310650MARTIGUES CENTRE    0330190LA MEDE OUEST       0320000001471001471130636001300000000000589      000000    0                                                                                                                            160000008    0    150000008    0    140694928    0    130688048    0    120688048    0                                                                                                                                                   
130636400210017 00550 1810241LA MEDE OUEST       0310650MARTIGUES CENTRE    0330190LA MEDE OUEST       0320000001471001471130636001200000000000589      000000    0                                                                                                                            160000008    0    150000008    0    140345588    0    130342168    0    120342168    0                                                                                                                                                   
130636400110017 00550 1810241LA MEDE OUEST       0310650MARTIGUES CENTRE    0330190LA MEDE OUEST       0320000001471001471130636001100000000000589      000000    0                                                                                                                            160000008    0    150000008    0    140349338    0    130345888    0    120345888    0                                                                                                                                                   
130636300310017 00550 1810241LA MEDE EST         0290400LA MEDE OUEST       0310650LA MEDE EST         0300000002251002251130636001300000000000589      000000    0                                                                                                                            160000008    0    150000008    0    140636518    0    130630218    0    120630218    0                                                                                                                                                   
130636300210017 00550 1810241LA MEDE EST         0290400LA MEDE OUEST       0310650LA MEDE EST         0300000002251002251130636001200000000000589      000000    0                                                                                                                            160000008    0    150000008    0    140342278    0    130338898    0    120338898    0                                                                                                                                                   
130636300110017 00550 1810241LA MEDE EST         0290400LA MEDE OUEST       0310650LA MEDE EST         0300000002251002251130636001100000000000589      000000    0                                                                                                                            160000008    0    150000008    0    140294238    0    130291328    0    120291328    0                                                                                                                                                   
130636200310017 00550 1810241CARRY               0240130LA MEDE EST         0290400CARRY               0250000005274005274130636001300000000000589      000000    0                                                                                                                            160000008    0    150000008    0    140508088    0    130503058    0    120503058    0                                                                                                                                                   
130636200210017 00550 1810241CARRY               0240130LA MEDE EST         0290400CARRY               0250000005274005274130636001200000000000589      000000    0                                                                                                                            160000008    0    150000008    0    140252868    0    130250368    0    120250368    0                                                                                                                                                   
130636200110017 00550 1810241CARRY               0240130LA MEDE EST         0290400CARRY               0250000005274005274130636001100000000000589      000000    0                                                                                                                            160000008    0    150000008    0    140255218    0    130252698    0    120252698    0                                                                                                                                                   
130636100310017 00550 1810241LES PIELETTES       0200495CARRY               0240130LES PIELETTES       0220000003421003421130636001300000000000589      000000    0                                                                                                                            160000008    0    150000008    0    140589008    0    130583178    0    120583178    0                                                                                                                                                   
130636100210017 00550 1810241LES PIELETTES       0200495CARRY               0240130LES PIELETTES       0220000003421003421130636001200000000000589      000000    0                                                                                                                            160000008    0    150000008    0    140298188    0    130295238    0    120295238    0                                                                                                                                                   
130636100110017 00550 1810241LES PIELETTES       0200495CARRY               0240130LES PIELETTES       0220000003421003421130636001100000000000589      000000    0                                                                                                                            160000008    0    150000008    0    140290818    0    130287948    0    120287948    0                                                                                                                                                   
130636001310017 00550 1110241JONCTION A7 NORD    0140000LES PIELETTES       0200495REBUTY PMV          0160474006078006078130636001100000000000589      000000    0                                                                                                                            160661071    0    150730241    0    140717731    0    130710631    0    120710631    0                                                                                                                                                   
130636001210017 00550 1110241JONCTION A7 NORD    0140000LES PIELETTES       0200495REBUTY PMV          0160474006078006078130636001100000000000589      000000    0                                                                                                                            160328891    0    150363791    0    140367171    0    130363541    0    120363541    0                                                                                                                                                   
130636001110017 00550 1110241JONCTION A7 NORD    0140000LES PIELETTES       0200495REBUTY PMV          0160474006078006078130636001100000000000589      000000    0                                                                                                                            160332181    0    150366451    0    140350561    0    130347091    0    120347091    0                                                                                                                                                   
130636000310017 00550 1810241JONCTION A7 NORD    0140000LES PIELETTES       0200495GIGNAC              0150500006078006078130635800300000000000589      000000                                                                                                                                 160000008         150000008         140692878         130686018         120686018                                                                                                                                                        
130636000210017 00550 1810241JONCTION A7 NORD    0140000LES PIELETTES       0200495GIGNAC              0150500006078006078          00000000000589      000000                                                                                                                                 160000008         150000008         140339778         130336418         120336418                                                                                                                                                        
130636000110017 00550 1810241JONCTION A7 NORD    0140000LES PIELETTES       0200495GIGNAC              0150500006078006078          00000000000589      000000                                                                                                                                 160000008         150000008         140353098         130349608         120349608                                                                                                                                                        
130635901310017 00550 1110231JONCTION A7 SUD     0120880JONCTION A7 NORD    0140000JONCTION A7 SUD NORD0140000001115001115          00000000000589      000000                                                                                                                                 160000001         150000001         140193691         130191781         120191781                                                                                                                                                        
130635901210017 00550 1110231JONCTION A7 SUD     0120880JONCTION A7 NORD    0140000JONCTION A7 SUD NORD0140000001115001115          00000000000589      000000                                                                                                                                 160000001         150000001         140117021         130115871         120115871                                                                                                                                                        
130635901110017 00550 1110231JONCTION A7 SUD     0120880JONCTION A7 NORD    0140000JONCTION A7 SUD NORD0140000001115001115          00000000000589      000000                                                                                                                                 160000001         150000001         140076661         130075911         120075911                                                                                                                                                        
130635900310017 00550 1110231GD LITTORAL         0070150JONCTION A7 SUD     0120880GD LITTORAL         0070279007244007244          00000000000191      000000                                                                                                                                 160000001         150000001         140673451         130666791         120666791                                                                                                                                                        
130635900210017 00550 1110211GD LITTORAL         0070150JONCTION A7 SUD     0120880GD LITTORAL         0070279007244007244          00000000000191      000000                                                                                                                                 160000001         150000001         140320921         130317751         120317751                                                                                                                                                        
130635900110017 00550 1110231GD LITTORAL         0070150JONCTION A7 SUD     0120880GD LITTORAL         0070279007244007244          00000000000191      000000                                                                                                                                 160000001         150000001         140352531         130349041         120349041                                                                                                                                                        
130635800310017 00550 1110231MIRABEAU            0050620GD LITTORAL         0070150VERDURON            0070279007244007244          00000000000191      000000                                                                                                                                 160000001         150000001         140580441         130574701         120574701                                                                                                                                                        
130635800210017 00550 1110211MIRABEAU            0050620GD LITTORAL         0070150VERDURON            0070279007244007244          00000000000191      000000                                                                                                                                 160000001         150000001         140318111         130314971         120314971                                                                                                                                                        
130635800110017 00550 1110231MIRABEAU            0050620GD LITTORAL         0070150VERDURON            0070279007244007244          00000000000191      000000                                                                                                                                 160000001         150000001         140262321         130259731         120259731                                                                                                                                                        
130635600310017 00550 1110231CAP JANET           0040660MIRABEAU            0050620CAP JANET           0050000000960000960          00000000000589      000000                                                                                                                                 160000001         150000001         140639891         130633561         120633561                                                                                                                                                        
130635600210017 00550 1110231CAP JANET           0040660MIRABEAU            0050620CAP JANET           0050000000960000960          00000000000589      000000                                                                                                                                 160000001         150000001         140297511         130294571         120294571                                                                                                                                                        
130635600110017 00550 1110231CAP JANET           0040660MIRABEAU            0050620CAP JANET           0050000000960000960          00000000000589      000000                                                                                                                                 160000001         150000001    0    140342371    0    130338991    0    120338991    0                                                                                                                                                   
130635400310017 00550 1110431CAP PINEDE          0030460CAP JANET           0040660CAP PINEDE          0040305001200001200          00000000000589      000000                                                                                                                                 160000001         150000001         140510181         130505131         120505131                                                                                                                                                        
130635400210017 00550 1110431CAP PINEDE          0030460CAP JANET           0040660CAP PINEDE          0040305001200001200          00000000000589      000000                                                                                                                                 160000001         150000001    0    140287491    0    130284651    0    120284651    0                                                                                                                                                   
130635400110017 00550 1110431CAP PINEDE          0030460CAP JANET           0040660CAP PINEDE          0040305001200001200          00000000000589      000000                                                                                                                                 160000001         150000001         140222681         130220481         120220481                                                                                                                                                        
130635300310017 00550 1150231ARENC               0020060CAP PINEDE          0030460ARENC               0020800001406001406          00000000000589      000000                                                                                                                                 160000001         150000001         140696031         130689141         120689141                                                                                                                                                        
130635300210017 00550 1110231ARENC               0020060CAP PINEDE          0030460ARENC               0020800001406001406          00000000000589      000000                                                                                                                                 160000001         150000001         140267491         130264851         120264851                                                                                                                                                        
130635300110017 00550 1150231ARENC               0020060CAP PINEDE          0030460ARENC               0020800001406001406          00000000000589      000000                                                                                                                                 160000001         150000001    0    140428531    0    130424291    0    120424291    0                                                                                                                                                   
130635200410017 00550 1150231ARENC               0010349JOLIETTE            0020060JOLIETTE.           0020000000462000462          00000000000589      000000                                                                                                                                 160000001         150000001         140408321         130404281         120404281                                                                                                                                                        
130635100510017 00550 1111031PORT                0010000JOLIETTE            0020060JOLIETTE            0010442000160000160          00000000000589      000000                                                                                                                                 160000001         150387311    0    140462171    0    130457601    0    120457601    0                                                                                                                                                   
130620900310017 00510 1850231RACCORDEMENT A.8.   0160515AIX-OUEST(Z.A.C.)   0170826RAC.A8-AIX-OUEST ZAC0170000001319001319130620500300000000000589      118810                                                                                                                                 160000008         150000008         140901588         130892668         120892668                                                                                                                                                        
130620900210017 00510 1850231RACCORDEMENT A.8.   0160515AIX-OUEST(Z.A.C.)   0170826RAC.A8-AIX-OUEST ZAC0170000001319001319130620500200000000000589      059328                                                                                                                                 160000008         150000008         140509638         130504598         120504598                                                                                                                                                        
130620900110017 00510 1850231RACCORDEMENT A.8.   0160515AIX-OUEST(Z.A.C.)   0170826RAC.A8-AIX-OUEST ZAC0170000001319001319130620500100000000000589      059482                                                                                                                                 160000008         150000008         140391958         130388078         120388078                                                                                                                                                        
130620800310017 00510 1850231AIX-CENTRE          0150770RACCORDEMENT A.8    0160515AIX-CENTRE          0160200000751000751130620500300000000000589      105297                                                                                                                                 160000008         150000008         140794898         130787028         120787028                                                                                                                                                        
130620800210017 00510 1850231AIX-CENTRE          0150770RACCORDEMENT A.9    0160515AIX-CENTRE          0160200000751000751130620500200000000000189      050502                                                                                                                                 160000008         150000008         140433818         130429528         120429528                                                                                                                                                        
130620800110017 00510 1850231AIX-CENTRE          0150770RACCORDEMENT A.8    0160515AIX-CENTRE          0160200000751000751130620500100000000000589      054795                                                                                                                                 160000008         150000008         140361078         130357508         120357508                                                                                                                                                        
130620700310017 00510 1810441LES MILLES          0140720AIX-CENTRE          0150770LES MILLES          0150000001358001358130620500300000000000589      146896                                                                                                                                 160000008         150000008         141105878         131094938         121094938                                                                                                                                                        
130620700210017 00510 1810441LES MILLES          0140720AIX-CENTRE          0150770LES MILLES          0150000001358001358130620500200000000000589      068935                                                                                                                                 160000008         150000008         140592158         130586298         120586298                                                                                                                                                        
130620700110017 00510 1810441LES MILLES          0140720AIX-CENTRE          0150770LES MILLES          0150000001358001358130620500100000000000589      077961                                                                                                                                 160000008         150000008         140513728         130508648         120508648                                                                                                                                                        
130620690310017 00510 1810241LUYNES              0130325LES MILLES          0140720LUYNES PMV          0140000001393001393130620500300000000000189      090785                                                                                                                                 160000008         150000008         140675228         130668548         120668548                                                                                                                                                        
130620690210017 00510 1810241LUYNES              0130325LES MILLES          0140720LUYNES PMV          0140000001393001393130620500200000000000589      038486                                                                                                                                 160000008         150000008         140330608         130327338         120327338                                                                                                                                                        
130620690110017 00510 1810241LUYNES              0130325LES MILLES          0140720LUYNES PMV          0140000001393001393130620500100000000000589      052299                                                                                                                                 160000008         150000008         140344628         130341218         120341218                                                                                                                                                        
130620500310017 00510 1110241LES 3 PIGEONS       0100135LUYNES              01303253 PIGEONS-LUYNES    0100300003191003191130620500100000000000589      077025    0                                                                                                                            160000001    0    150000001    0    140579081    0    130573351    0    120573351    0                                                                                                                                                   
130620500210017 00510 1110241LES 3 PIGEONS       0100135LUYNES              01303253 PIGEONS-LUYNES    0100300003191003191130620500100000000000589      035757    0                                                                                                                            160000001    0    150000001    0    140307151    0    130304111    0    120304111    0                                                                                                                                                   
130620500110017 00510 1110241LES 3 PIGEONS       0100135LUYNES              01303253 PIGEONS-LUYNES    0100300003191003191130620500100000000000589      041268    0                                                                                                                            160000001    0    150000001    0    140271931    0    130269241    0    120269241    0                                                                                                                                                   
130620400310017 00510 1110241LES CHABAUDS        0050035LES 3 PIGEONS       0100135CABRIES MARIUS      0060100005116005116130620500100000000000589      072299    0                                                                                                                            160539891    0    150548411    0    140725091    0    130717921    0    120717921    0                                                                                                                                                   
130620400210017 00510 1110241LES CHABAUDS        0050035LES 3 PIGEONS       0100135CABRIES MARIUS      0060100005116005116130620500100000000000589      037569    0                                                                                                                            160273711    0    150277971    0    140356111    0    130352591    0    120352591    0                                                                                                                                                   
130620400110017 00510 1110241LES CHABAUDS        0050035LES 3 PIGEONS       0100135CABRIES MARIUS      0060100005116005116130620500100000000000589      035230    0                                                                                                                            160266181    0    150270441    0    140362921    0    130359331    0    120359331    0                                                                                                                                                   
130620300310017 00510 1810241PLAN DE CAMPAGNE    0020925LES CHABAUDS        0050035BOUC BEL AIR        0050000002111002111130620400300000000000589      153538    0                                                                                                                            161138358    0    151161748    0    141068408    0    131057838    0    121057838    0                                                                                                                                                   
130620300210017 00510 1810441PLAN DE CAMPAGNE    0020925LES CHABAUDS        0050035BOUC BEL AIR        0050000002111002111130620400200000000000589      080438    0                                                                                                                            160586048    0    150589488    0    140585868    0    130580068    0    120580068    0                                                                                                                                                   
130620300110017 00510 1810441PLAN DE CAMPAGNE    0020925LES CHABAUDS        0050035BOUC BEL AIR        0050000002111002111130620400100000000000589      073100    0                                                                                                                            160552318    0    150572268    0    140482548    0    130477778    0    120477778    0                                                                                                                                                   
130620200310017 00510 1810431BRETELLE A 7        0010080PLAN DE CAMPAGNE    0020925BRETELLE A7-PLAN DE 0020000001848001848130620400300000000000589      135920    0                                                                                                                            161010218    0    151176288    0    141266608    0    131254068    0    121254068    0                                                                                                                                                   
130620200210017 00510 1810431BRETELLE A 7        0010080PLAN DE CAMPAGNE    0020925BRETELLE A7-PLAN DE 0020000001848001848130620400200000000000589      061998    0                                                                                                                            160451698    0    150561898    0    140627558    0    130621348    0    120621348    0                                                                                                                                                   
130620200110017 00510 1810431BRETELLE A 7        0010080PLAN DE CAMPAGNE    0020925BRETELLE A7-PLAN DE 0020000001848001848130620400100000000000589      073922    0                                                                                                                            160558528    0    150614398    0    140639048    0    130632728    0    120632728    0                                                                                                                                                   
130620100310017 00510 1810441SEPTEMES (A 7)      0000000BRETELLE A7         0010080SEPTEMES            0000300000967000967130620400300000000001192      083525    0                                                                                                                            160618198    0    150713528    0    140832168    0    130823938    0    120823938    0                                                                                                                                                   
130620100210017 00510 1810441SEPTEMES (A 7)      0000000BRETELLE A7         0010080SEPTEMES            0000300000967000967130620400200000000001192      047750    0                                                                                                                            160347898    0    150376988    0    140450408    0    130445958    0    120445958    0                                                                                                                                                   
130620100110017 00510 1810441SEPTEMES (A 7)      0000000BRETELLE A7         0010080SEPTEMES            0000300000967000967130620400100000000001192      035775    0                                                                                                                            160270308    0    150336548    0    140381758    0    130377988    0    120377988    0                                                                                                                                                   
130618100310017 05020 1110231AUBAGNE SUD (A 50)  0000000AUBAGNE EST (D 559A)0010619AUBAGNE GEMENOS     0000500001601001601130620400100000000000589      000000                                                                                                                                 160000001         150000001         140278021         130275271         120275271                                                                                                                                                        
130618100210017 05020 1110231AUBAGNE SUD (A 50)  0000000AUBAGNE EST (D 559A)0010619AUBAGNE GEMENOS     0000500001601001601130620400100000000000589      000000                                                                                                                                 160000001         150000001         140138541         130137171         120137171                                                                                                                                                        
130618100110017 05020 1110231AUBAGNE SUD (A 50)  0000000AUBAGNE EST (D 559A)0010619AUBAGNE GEMENOS     0000500001601001601130620400100000000000589      000000                                                                                                                                 160000001         150000001    0    140139481    0    130138101    0    120138101    0                                                                                                                                                   
130617200310017 05010 1150231AUBAGNE OUEST       0000840AUBAGNE NORD        0020589AUBAGNE NORD        0020000001780001780130620400100000000000589      000000                                                                                                                                 160272401    0    150332501    0    140314171    0    130311061    0    120311061    0                                                                                                                                                   
130617200210017 05010 1150231AUBAGNE OUEST       0000840AUBAGNE NORD        0020589AUBAGNE NORD        0020000001780001780130620400100000000000589      000000                                                                                                                                 160135881    0    150166941    0    140160821    0    130159231    0    120159231    0                                                                                                                                                   
130617200110017 05010 1150231AUBAGNE OUEST       0000840AUBAGNE NORD        0020589AUBAGNE NORD        0020000001780001780130620400100000000000589      000000                                                                                                                                 160136521    0    150165561    0    140153341    0    130151831    0    120151831    0                                                                                                                                                   
130617100310017 05010 1150231AUBAGNE (A 50)      0000000AUBAGNE OUEST       0000840AUBAGNE OUEST       0000800000840000840130620400100000000000589      000000                                                                                                                                 160000001         150398351    0    140432431    0    130428151    0    120428151    0                                                                                                                                                   
130617100210017 05010 1150231AUBAGNE (A 50)      0000000AUBAGNE OUEST       0000840AUBAGNE OUEST       0000800000840000840130620400100000000000589      000000                                                                                                                                 160000001         150192831    0    140207701    0    130205651    0    120205651    0                                                                                                                                                   
130617100110017 05010 1150231AUBAGNE (A 50)      0000000AUBAGNE OUEST       0000840AUBAGNE OUEST       0000800000840000840130620400100000000000589      000000                                                                                                                                 160000001         150205521    0    140224721    0    130222501    0    120222501    0                                                                                                                                                   
