040000800310012 00850 4113001ECH.AUBIGNOSC       0160000INTER. D404         0190090CHATEAU-ARNOUX      0190000002777002510040001100300000000000193      010148                                                                                                                                 110099301         100102571         090105931    7    080105981    0    070109491    0    007617   008655   009234   010110   010462   010714   011849   012369   010816   009822   009004   008414                                      
040000800210012 00850 4113001ECH.AUBIGNOSC       0160000INTER. D404         0190090CHATEAU-ARNOUX      0190000002777002510040001100300000000000193      004953                                                                                                                                 110049961         100051551         090053181    7    080052891    0    070054401    0    003874   004406   004663   005089   005235   005370   006060   006128   005387   004906   004534   004245                                      
040000800110012 00850 4113001ECH.AUBIGNOSC       0160000INTER. D404         0190090CHATEAU-ARNOUX      0190000002777002510040001100300000000000193      005195  547    004395   004468   004985   005218   005419   005596   005989   006219   005625   005165   004746   004475               110049341         100051021         090052751    7    080053091    0    070055091    0    003742   004248   004570   005020   005226   005343   005787   006239   005428   004914   004468   004168                                      
040000900310012 00850 4843001INTER. D404         0190090INTER. N96          0200840GENDARMERIE         0200000001743000065040001100300000000000190      012574                                                                                                                                 110132598         100127838         090123248         080124718    0    070128828    0                                                                                                                                                   
040001000310012 00850 4843001INTER. N96          0200840LIMITE AGGLO.       0210291SUBDI.CHATEAU-ARNOUX0210000000440000000040001100300000000000188      010507                                                                                                                                 110110798         100110488         090110178         080111488    0    070115158    0                                                                                                                                                   
040001100310012 00850 4113001LIMITE AGGLO.       0210291INTER. D4           0260400L'ESCALE            0220500005153004888040001200300000000000188      009063         007402   007650   008274   008639   008901   009460   010190   010376   009117   008408   007734   007439               110091071         100088931         090086821         080087851    0    070090741    0    008398   008542   008933   009471   009704   010093   008492   000000   000000   009916   009078   008458                                      
040001100210012 00850 4113001LIMITE AGGLO.       0210291INTER. D4           0260400L'ESCALE            0220500005153004888040001200300000000000188      004534                                                                                                                                 110045681         100045171         090044661         080044641    0    070045911    0    004191   004271   004420   004698   004758   005006   004299   000000   000000   004978   004785   004275                                      
040001100110012 00850 4113001LIMITE AGGLO.       0210291INTER. D4           0260400L'ESCALE            0220500005153004888040001200300000000000188      004529                                                                                                                                 110045391         100043751         090042161         080043211    0    070044831    0    004207   004270   004515   004774   004950   005089   004189   000000   000000   004936   004279   004181                                      
040001101310012 00850 4813001INTER.D4            0260400INTER.DEV.MALIJAI   0270885MALIJAI             0270300001499000740040001200300000000000190      007403                                                                                                                                 110075318         100074978         090075948         080076278         070077598    0                                                                                                                                                   
040001200310012 00850 4113001INTER.DEV.MALIJAI   0270885INTER. D17          0360220MALLEMOISSON        0330700008162007132040001200100000000000190      013114  527    011520   011973   012735   012847   012844   014072   014722   014986   013777   013362   012594   011850               110133361    8    100132751         090134461    8    080135031         070137361    8    011816   012626   012782   013195   013772   014038   014893   015202   014081   013271   012368   011926                                      
040001200210012 00850 4113001INTER.DEV.MALIJAI   0270885INTER. D17          0360220MALLEMOISSON        0330700008162007132040001200100000000000190      006532  547    005803   005972   006387   006396   006272   007037   007195   007557   006835   006678   006298   005931               110066681 1248    100066291         090067091    8    080067221    7    070068461    8    005962   006241   006445   006600   006932   007020   007246   007662   007087   006639   006216   005934                                      
040001200110012 00850 4113001INTER.DEV.MALIJAI   0270885INTER. D17          0360220MALLEMOISSON        0330700008162007132040001200100000000000190      006582                                                                                                                                 110066681    8    100066461         090067371    8    080067811         070068901    8    005854   006385   006337   006595   006840   007018   007647   007540   006994   006632   006152   005992                                      
040001201310012 00850 4813001INTER. D17          0360220INTER. N1085        0390945LE ROCHER COUPE     0390850003715003715040001200300000000000202      016601                                                                                                                                 110168908         100168148         090170328         080171058         070174018                                                                                                                                                        
040001201210012 00850 4813001INTER. D17          0360220INTER. N1085        0390945LE ROCHER COUPE     0390850003715003715040001200200000000000202      008247                                                                                                                                 110084198         100083708         090084728         080084898         070086468                                                                                                                                                        
040001201110012 00850 4813001INTER. D17          0360220INTER. N1085        0390945LE ROCHER COUPE     0390850003715003715040001200100000000000202      008354                                                                                                                                 110084718         100084448         090085608         080086168         070087558                                                                                                                                                        
040001202310012 00850 4813001INTER. N1085        0390945Espace Commercial   0410630NOUVELLE SUBDI      0400000001640001640040001203300000000000202      012553                                                                                                                                 110128948         100130108         090129958         080132888         070134108                                                                                                                                                        
040001202210012 00850 4813001INTER. N1085        0390945Espace Commercial   0410630NOUVELLE SUBDI      0400000001640001640040001203200000000000202      005999                                                                                                                                 110060918         100061538         090061058         080062348         070062838                                                                                                                                                        
040001202110012 00850 4813001INTER. N1085        0390945Espace Commercial   0410630NOUVELLE SUBDI      0400000001640001640040001203100000000000202      006554                                                                                                                                 110068038         100068578         090068908         080070548         070071278                                                                                                                                                        
040001203310012 00850 4113001Espace Commercial   0410630BD POMPIDOU         0440140DIGNE_W_N85         04200000025000025000400012031          1295      017976                                                                                                                                 110183561    7    100185201         090184891    7    080189021    7    070190731    7    017086   017722   018187   018300   019111   018976   018764   019137   019203   018745   017866   017149                                      
040001203210012 00850 4113001Espace Commercial   0410630BD POMPIDOU         0440140DIGNE_W_N85         0420000002500002500040001203100000000001295      009331                                                                                                                                 110093831    7    100094771         090094031    7    080096011    7    070096761    7    008803   008997   009336   009337   009721   009693   009448   009830   009809   009623   009193   008792                                      
040001203110012 00850 4113001Espace Commercial   0410630BD POMPIDOU         0440140DIGNE_W_N85         0420000002500002500040001203100000000001295      008645  317    008207   008444   008723   008666   008197   008788   009194   009144   009033   008977   008376   007990               110089731    7    100090431         090090861    7    080093011    7    070093971    7    008283   008725   008851   008963   009390   009283   009316   009307   009394   009122   008673   008357                                      
040001205310012 00850 4843001BD POMPIDOU         0440140LA PALE             0440685PONT DAVID NEEL     0440545000545000000040001203300000000000107      007737                                                                                                                                 110079288         100079998         090079928         080081738         070082498                                                                                                                                                        
040001205210012 00850 4843001BD POMPIDOU         0440140LA PALE             0440685PONT DAVID NEEL     0440545000545000000040001203200000000000107      003535                                                                                                                                 110035668         100036028         090035748         080036508         070036798                                                                                                                                                        
040001205110012 00850 4843001BD POMPIDOU         0440140LA PALE             0440685PONT DAVID NEEL     0440545000545000000040001203100000000000107      004202                                                                                                                                 110043628         100043978         090044188         080045238         070045708                                                                                                                                                        
040001700310012 00850 4113001RD 12               0470290INTER. D907         0570250DIGNE_EST_N85       0500180008487008487050001100300000000000188      004767  867    003598   003797   004343   004536   004859   005345   006331   007059   005277   004444   003892   003662               110048711    7    100048501         090049791    8    080050431    8    070051181    8    003698   004131   004251   004743   004877   005071   006539   007057   005366   004852   003961   003818                                      
040001700210012 00850 4113001RD 12               0470290INTER. D907         0570250DIGNE_EST_N85       0500180008487008487050001100300000000000188      002401  837    001813   001913   002179   002257   002441   002691   003094   003633   002697   002253   001970   001841               110024591    7    100024471         090025111    8    080025711    8    070025761    8    001872   002053   002137   002381   002448   002571   003209   003601   002740   002536   001996   001918                                      
040001700110012 00850 4113001RD 12               0470290INTER. D907         0570250DIGNE_EST_N85       0500180008487008487050001100300000000000188      002366  917    001785   001884   002164   002279   002418   002654   003237   003426   002580   002191   001922   001821               110024121    7    100024031         090024681    8    080024721    8    070025421    8    001826   002078   002114   002362   002429   002500   003330   003456   002626   002316   001965   001900                                      
040001800310012 00850 4112001INTER. D907         0570250INTER. N202         0750128BARRÊME             0740800017685017285050001100300000000000188      004173  727    002799   003108   003653   003949   004429   004601   006132   006980   004631   003623   003104   002989               110042231    7    100042181         090043541    7    080042471    7    070043261    7    002979   003476   003536   003571   004096   004627   006337   006974   004716   003999   003179   003088                                      
040001800210012 00850 4112001INTER. D907         0570250INTER. N202         0750128BARRÊME             0740800017685017285050001100300000000000188      002062  747    001397   001534   001808   001950   002193   002254   002906   003527   002343   001799   001550   001446               110020861    7    100020841         090021501    7    080021001    7    070021431    7    001497   001672   001768   001758   002024   002291   002961   003539   002377   001995   001595   001506                                      
040001800110012 00850 4112001INTER. D907         0570250INTER. N202         0750128BARRÊME             0740800017685017285050001100300000000000188      002111  687    001402   001574   001845   001999   002236   002347   003226   003453   002288   001824   001554   001543               110021371    7    100021341         090022041    7    080021471    7    070021831    7    001482   001804   001768   001813   002072   002336   003376   003435   002339   002004   001584   001582                                      
040003200310012 02020 4112001INTER. N85          0000000INTER. D955         0130590GEVAUDAN            0060450013354011302050001100300000000000188      002517                  001159   001269   001971   002666   002843   003659   004243   002767   002718   002356   002210               110027201         100027141         090027741         080027411         070028271         002155   002497   002466   002342   002501   002765   003702   004123   002856   002627   002334   002224                                      
040003200210012 02020 4112001INTER. N85          0000000INTER. D955         0130590GEVAUDAN            0060450013354011302050001100300000000000188      001140                  000000   000000   000701   001350   001424   001795   002195   001389   001365   001165   001088               110013521         100013511         090013851         080013731         070014001         001086   001202   001244   001156   001242   001366   001787   002110   001442   001314   001164   001085                                      
040003200110012 02020 4112001INTER. N85          0000000INTER. D955         0130590GEVAUDAN            0060450013354011302050001100300000000000188      001377         001116   001159   001269   001270   001316   001419   001864   002048   001378   001353   001191   001122               110013681         100013631         090013891         080013681         070014271         001069   001295   001222   001186   001259   001399   001915   002013   001414   001313   001170   001139                                      
040003300310012 02020 4112001INTER. D955         0130590INTER. D955         0210343SAINT JULIEN        0200050007683006489050001100300000000000188      002452                                                                                                                                 110024791         100024721         090025471         080023251    0    070025001    0    001836   002184   002118   002150   002175   002585   003711   004367   002652   002265   001799   001859                                      
040003300210012 02020 4112001INTER. D955         0130590INTER. D955         0210343SAINT JULIEN        0200050007683006489050001100300000000000188      001249                                                                                                                                 110012591         100012551         090012971         080011971         070012681         000903   001129   001055   001093   001108   001315   001847   002214   001356   001165   000913   000988                                      
040003300110012 02020 4112001INTER. D955         0130590INTER. D955         0210343SAINT JULIEN        0200050007683006489050001100300000000000188      001203                                                                                                                                 110012201         100012171         090012501         080011281    0    070012321    0    000933   001055   001063   001057   001067   001270   001864   002153   001296   001100   000886   000871                                      
040003400310012 02020 4112001INTER. D955         0210343INTER. D908         0380410ROUAINE             0330620016825015738050001100300000000000188      001552  747    001063   001155   001366   001511   001598   001736   002368   002803   001764   001372   000826   001026               110016241         100016331         090017241    7    080016381    0    070016351    0    001081   001218   001384   001552   001498   001775   002480   002692   001712   001651   001269   001136                                      
040003400210012 02020 4112001INTER. D955         0210343INTER. D908         0380410ROUAINE             0330620016825015738050001100300000000000188      000777  697    000521   000573   000678   000752   000795   000881   001159   001429   000891   000694   000422   000508               110008101         100008161         090008551    7    080008351    0    070008341    0    000511   000595   000664   000769   000754   000907   001220   001350   000875   000848   000639   000571                                      
040003400110012 02020 4112001INTER. D955         0210343INTER. D908         0380410ROUAINE             0330620016825015738050001100300000000000188      000775  847    000542   000582   000688   000759   000803   000855   001209   001374   000873   000678   000404   000518               110008141         100008171         090008691    7    080008031 1010    070008011    0    000570   000623   000720   000783   000744   000868   001260   001342   000837   000803   000630   000565                                      
040003500310012 02020 4112001INTER.D908          0380410INTER. D2202        0450150PONT DE GUEYDAN     0440850006608006460050001100300000000000188      002563  567    001930   001982   002285   002409   002729   002857   003560   004012   002827   002393   001812   001903               110026241    8    100025511         090029231    0    080023111    0    070025961    8    001928   002207   002269   002443   002485   002915   003758   003987   002798   002516   002086   002043                                      
040003500210012 02020 4112001INTER.D908          0380410INTER. D2202        0450150PONT DE GUEYDAN     0440850006608006460050001100300000000000188      001276  567    000926   000993   001117   001199   001364   001445   001743   002023   001404   001205   000895   000972               110013091    8    100012731         090014651    0    080011441    0    070013031    8    000913   001097   001116   001221   001234   001468   001876   002014   001409   001262   001026   001044                                      
040003500110012 02020 4112001INTER.D908          0380410INTER. D2202        0450150PONT DE GUEYDAN     0440850006608006460050001100300000000000188      001287  577    001004   000989   001168   001210   001365   001412   001817   001989   001423   001188   000917   000931               110013151    8    100012781         090014581    0    080011671    0    070012931    8    001015   001110   001153   001222   001251   001447   001882   001973   001389   001254   001060   000999                                      
050000900310012 00850 4113001LIMITE ISERE        0000000CARREF.CD945 LA FARE0220651ST FIRMIN           0050050022581020386050001100338000400031287      003291  717    002324   003027   002944   002912   003204   003448   005028   005902   003284   002643   002283   002433               110034641    8    100034791         090034991    8    080034501    8    070034841    8    002373   003049   003216   003235   002942   003756   005649   005982   003466   002972   002324   002529                                      
050000900210012 00850 4113001LIMITE ISERE        0000000CARREF.CD945 LA FARE0220651ST FIRMIN           0050050022581020386050001100338000400031287      001658  717    001209   001501   001504   001453   001621   001716   002355   003149   001719   001332   001161   001146               110017311    8    100017431         090017731    8    080017611    8    070017651    8    001233   001455   001651   001599   001448   001868   002662   003196   001784   001485   001177   001176                                      
050000900110012 00850 4113001LIMITE ISERE        0000000CARREF.CD945 LA FARE0220651ST FIRMIN           0050050022581020386050001100338000400031287      001633  707    001115   001526   001440   001459   001583   001732   002673   002753   001565   001311   001122   001287               110017331    8    100017361         090017261    8    080016891    8    070017191    8    001140   001594   001565   001636   001494   001888   002987   002786   001682   001487   001147   001353                                      
050001100310012 00850 4113001CARREF.CD945 LA FARE0220651CARREF.CD944        0330328BAYARD PUYMO        0330290010689009884050001100300000000000989      006366  477    005488   005956   005742   006424   006704   006521   008345   008600   006236   005717   005141   005452               110064001    7    100065081         090065601    7    080064331    7    070062441    7    005209   005898   005759   005803   005863   006495   008084   008606   006313   006552   006051   006094                                      
050001100210012 00850 4113001CARREF.CD945 LA FARE0220651CARREF.CD944        0330328BAYARD PUYMO        0330290010689009884050001100300000000000989      003186  457    002792   002978   002859   003149   003313   003235   004173   004482   003154   002863   002531   002667               110031721    7    100032291         090032671    7    080031941    7    070030571    7    002555   002913   002835   002858   002891   003249   003956   004451   003180   003216   002943   002981                                      
050001100110012 00850 4113001CARREF.CD945 LA FARE0220651CARREF.CD944        0330328BAYARD PUYMO        0330290010689009884050001100300000000000989      003180  517    002696   002978   002883   003275   003391   003286   004172   004118   003082   002854   002610   002785               110032281    7    100032791         090032931    7    080032391    7    070031871    7    002654   002985   002924   002945   002972   003246   004128   004155   003133   003336   003108   003113                                      
050001200310012 00850 4813001CARREF.CD944        0330328SORTIE GAP NORD AGGL0351330VARSIE              0350950003015003015050001100300000000001287      008547                                                                                                                                 110085938         100087398         090088098         080086398         070083868                                                                                                                                                        
050001299310012 00850 4853001SORTIE GAP NORD AGGL0351330CARREFOUR EUROPE    0380360AV CDT DUMONT       0360900002781000000050001100300000000001287      008536                                                                                                                                 110085828         100087278         090087978         080086278         070083748                                                                                                                                                        
050001399310012 00850 4853001CARREFOUR EUROPE    0380360SORTIE GAP SUD AGGLO0400726AV.JEAN JAURES      0390100002477000000050001100300000000000394      021841                                                                                                                                 110219588         100223298         090225088         080220738         070214258                                                                                                                                                        
050001395310012 00850 4813001SORTIE AGGLO SUD    0400726ACCES  CAR RD 47    0400964BEL AUREILLE        0400560000238000238050001300305000130030100      016330                                                                                                                                 110166488         100164498         090165098         080158728         070161768                                                                                                                                                        
050001300310012 00850 4113001SORTIE GAP CAR RD 470400964CARREF.CD942 TALLARD0510523GAP SUD N85         0490550010422010422050001300300000000001287      011842 1057    011308   011861   012282   011475   011525   012158   012811   013007   011932   011948   010936   010838               110120721         100119271         090119701    7    080115081    8    070117281    8    011377   012303   012155   011869   012097   012268   013126   013290   012324   011652   011134   011266                                      
050001300210012 00850 4113001SORTIE GAP CAR RD 470400964CARREF.CD942 TALLARD0510523GAP SUD N85         0490550010422010422050001300300000000001287      005821 1237    005535   006028   006059   005595   005649   006011   006325   006456   005820   005807   005237   005326               110060901    7    100060161         090060491    7    080058181    8    070059361    8    005633   006263   006013   005976   006081   006218   006621   006761   006244   005904   005596   005778                                      
050001300110012 00850 4113001SORTIE GAP CAR RD 470400964CARREF.CD942 TALLARD0510523GAP SUD N85         0490550010422010422050001300300000000001287      006021  717    005773   005833   006223   005880   005876   006147   006486   006551   006112   006141   005699   005512               110059821         100059111         090059211    7    080056901    8    070057921    8    005744   006040   006142   005893   006016   006050   006505   006529   006080   005748   005538   005488                                      
050001400310012 00850 4113001CARREF RD 942 TALLAR0510523CARREF A51          0520421LA SAULCE           0520150000687000687050002100300000000000202      016532  727    016280   017310   018535   015368   015015   016070   019724   020479   015600   015269   013735   014882               110165641    7    100162171         090161621    7    080148091    0    070159031    7    016091   018441   017747   016084   014972   016023   019103   019437   015620   015309   014389   015599                                      
050001400210012 00850 4113001CARREF RD 942 TALLAR0510523CARREF A51          0520421LA SAULCE           0520150000687000687050002100300000000000202      008302  747    008014   008889   009066   007688   007400   008505   010016   009925   007780   007832   006846   007623               110083421    7    100081481         090081431    7    080074221         070079851    7    007790   009564   008614   007991   007487   008114   009709   009884   007891   007733   007318   008059                                      
050001400110012 00850 4113001CARREF RD 942 TALLAR0510523CARREF A51          0520421LA SAULCE           0520150000687000687050002100300000000000202      008230  687    008266   008421   009469   007680   007615   007565   009708   010554   007820   007437   006889   007259               110082221    7    100080691         090080191    7    080073871    0    070079181    7    008301   008877   009133   008093   007485   007909   009394   009553   007729   007576   007071   007540                                      
050002199310012 00940 4853001CARREF.MUSEE        0700000SORTIE GAP EST AGGLO0720245AVENUE EMBRUN       0710000002042000000050002100300000000001287      019372                                                                                                                                 110196168         100193688         090192368         080189608         070188938                                                                                                                                                        
050002100310012 00940 4113001SORTIE GAP EST AGGLO0720245CARREF.RD 942       0820090GAP EST N94         0750800009851009489050002100300000000001287      012314  467    011321   012154   012226   011584   011669   012993   014300   014434   012150   012203   011477   011216               110124691    7    100123111         090122271    7    080120511    7    070120081    7    011342   012306   012718   011840   012401   012636   014418   014415   012527   011839   011537   011598                                      
050002100210012 00940 4113001SORTIE GAP EST AGGLO0720245CARREF.RD 942       0820090GAP EST N94         0750800009851009489050002100300000000001287      006142  467    005712   006048   006129   005752   005774   006425   007000   007305   006087   006152   005789   005511               110061891    7    100061161         090060601    7    080059751    7    070059381    7    005758   006040   006410   005869   006139   006234   007078   007228   006228   005855   005734   005662                                      
050002100110012 00940 4113001SORTIE GAP EST AGGLO0720245CARREF.RD 942       0820090GAP EST N94         0750800009851009489050002100300000000001287      006172  457    005609   006106   006097   005832   005895   006568   007300   007129   006063   006051   005688   005705               110062801    7    100061951         090061671    7    080060761    7    070060701    7    005584   006266   006308   005971   006262   006402   007340   007187   006299   005984   005803   005936                                      
050002200310012 00940 4113001CARREF.CD942 MONTGAR0820090CARREF.CD954 BARCELO0980880CAR MONGARDIN       0820150016673015996050002500300000000001287      013956  827    013146   014319   014442   012583   012452   014177   017908   019260   013243   012428   011469   011928               110142951    7    100139341         090139321    7    080136391    7    070137291    7    013099   014905   014985   013016   012838   014244   018370   019123   013746   012613   011556   012953                                      
050002200210012 00940 4113001CARREF.CD942 MONTGAR0820090CARREF.CD954 BARCELO0980880CAR MONGARDIN       0820150016673015996050002500300000000000191      006969  777    006834   007031   007104   006306   006200   007008   008762   009873   006682   006169   005759   005830               110071391    7    100069421         090070001    7    080067771    7    070068591    7    006814   007192   007764   006521   006405   007046   008932   009777   006917   006266   005832   006134                                      
050002200110012 00940 4113001CARREF.CD942 MONTGAR0820090CARREF.CD954 BARCELO0980880CAR MONGARDIN       0820150016673015996050002500300000000000191      006987  907    006312   007288   007338   006277   006252   007169   009146   009387   006561   006259   005710   006098               110071561    7    100069921         090069321    7    080068621 1007    070068701 1007    006285   007713   007221   006495   006433   007198   009438   009346   006829   006347   005724   006819                                      
050002400310012 00940 4113001CARREF.CD954 BARCELO0980880AGGLO SUD EMBRUM    1080800SAVINES-CROTS       1070546008803008015050002500300000000001287      013664  607    012201   013350   014182   011451   011671   013445   019645   021652   012532   011307   010688   011607               110139261    7    100135551         090136941    7    080133761    7    070133871    7    012137   013999   014308   012433   011794   013536   020059   021515   012982   011615   010575   011971                                      
050002400210012 00940 4113001CARREF.CD954 BARCELO0980880AGGLO SUD EMBRUN    1080800SAVINES-CROTS       1070546008803008015050002500300000000001287      006843  607    006206   006554   007381   005797   005850   006688   009720   011067   006182   005680   005317   005546               110069881    7    100068051         090068671    7    080066891    7    070067101    7    006318   006733   007412   006328   005917   006753   009904   011024   006562   005788   005334   005661                                      
050002400110012 00940 4113001CARREF.CD954 BARCELO0980880AGGLO SUD EMBRUN    1080800SAVINES-CROTS       1070546008803008015050002500300000000001287      006821  597    005995   006796   006801   005654   005821   006757   009925   010585   006350   005627   005371   006061               110069381    7    100067501         090068271    7    080066871    7    070066771    7    005819   007266   006896   006105   005877   006783   010155   010491   006420   005827   005241   006310                                      
050002501310012 00940 4813001EMBRUN-SUD          1080800EMBRUN-NORD         1140440DEV_EMBRUN          1140000005640005640050002502300000000000409      000000                                                                                                                                 110000008         100000008         090000008         080000008    0    070000008    0                                                                                                                                                   
050002502310012 00940 4113001RD 263              1140440RD 902 A            1280350GUILLESTRE N94      1270234009874009291050002700300000000000199      008849  637    008264   009107   009856   007786   007295   008568   011939   013281   008069   007327   006801   007781               110091141    8    100089471         090091151    7    080089441    8    070089131    8    008185   009618   009685   008018   007468   008792   012493   013949   008242   007709   007062   008062                                      
050002502210012 00940 4113001RD 263              1140440RD 902 A            1280350GUILLESTRE N94      1270234009874009291050002700300000000000199      004429  517    004339   004430   005064   003939   003631   004244   005883   006739   004068   003637   003415   003694               110045361    8    100044641         090045261    7    080044231    8    070044441    8    004292   004576   005036   004026   003720   004357   006125   007035   004100   003835   003498   003769                                      
050002502110012 00940 4113001RD 263              1140440RD 902 A            1280350GUILLESTRE N94      1270234009874009291050002700300000000000199      004420  877    003925   004677   004792   003847   003664   004324   006056   006542   004001   003690   003386   004087               110045781    8    100044831         090045891    7    080045211    8    070044691    8    003893   005042   004649   003992   003748   004435   006368   006914   004142   003874   003564   004293                                      
050002600310012 00940 4113001CARREF.CD902A GUIL. 1280350CARREF.CD994E       1440520ARGENTIERE          1430800015594013008050002700300000000001287      006435  917    005437   006035   006617   005699   005552   006502   009013   009939   006431   005628   004919   005349               110063361    7    100062851         090062461    7    080061321    7    070064401    7    005571   006305   006521   005877   005496   006370   008849   009695   005939   005226   004740   005358                                      
050002600210012 00940 4113001CARREF.CD902A GUIL. 1280350CARREF.CD994E       1440520ARGENTIERE          1430800015594013008050002700300000000000192      003185  787    002685   002938   003308   002827   002716   003182   004542   004971   003217   002863   002417   002505               110031371    7    100031061         090030891    7    080030281    7    070031741    7    002823   003043   003281   002919   002706   003146   004393   004870   002930   002554   002315   002611                                      
050002600110012 00940 4113001CARREF.CD902A GUIL. 1280350CARREF.CD994E       1440520ARGENTIERE          1430800015594013008050002700300000000000192      003250 1167    002752   003097   003309   002872   002836   003320   004471   004968   003214   002765   002502   002844               110031991 1387    100031791         090031571 1147    080031041    7    070032661    7    002748   003262   003240   002958   002790   003224   004456   004825   003009   002672   002425   002747                                      
050002700310012 00940 4113001CARREF.CD994E       1440520CARREF.CD2 BRIAN.SUD1590079PRELLES             1520700014248012943050002700300000000000189      007894 1047    003418   003778   004011   003467   003454   004110   005129   005750   003774   003420   003209   003333               110080121 1067    100079191         090000001 1037    080076481 1080    070079051 1097    003407   003880   004027   003613   003534   004160   005342   005815   004083   003559   003302   003380                                      
050002700210012 00940 4113001CARREF.CD994E       1440520CARREF.CD2 BRIAN.SUD1590079PRELLES             1520700014248012943050002700300000000000189      003743                                                                                                                                 110037511         100038481         090039471 1000    080038151 1050    070039501 1087    000000   000000   000000   000000   000000   000000   000000   000000   000000   000000   000000   000000                                      
050002700110012 00940 4113001CARREF.CD994E       1440520CARREF.CD2 BRIAN.SUD1590079PRELLES             1520700014248012943050002700300000000000189      004151                                                                                                                                 110041981         100040711         090039471 1000    080038331 1100    070039551 1127    000000   000000   000000   000000   000000   000000   000000   000000   000000   000000   000000   000000                                      
050002899310012 00940 4843001CARREF.CD2 BRIAN.   1590079CARREF.CD994F AGGLO 1600586BRIANCON AV PROVENCE1590600001550000000050002700300000000001287      007542                                                                                                                                 110077448         100076448         090077978         080151098         070156168                                                                                                                                                        
050003099310012 00940 4843001CARREF.CD994F AGGLO 1600586CARREF.RN91 CH.MARS 1610905BRIANCON AV FORGUES 1610000001339000000050002700300000000001287      006692                                                                                                                                 110068728         100067868         090069228         080067078         070069328                                                                                                                                                        
050003199310012 00940 4813001CARREF.RN91 CH.MARS 1610905AGGLO BRI NORD      1620412LA VACHETTE         1620050000511000000050003200300000000001287      008258                                                                                                                                 110084178         100082868         090084268         080082718         070084768                                                                                                                                                        
050003200310012 00940 4113001AGGLO BRI NORD      1620412SORTIE MONTGENEVRE  1720580COL MTG             1640150010980009660130004300100000000001287      005854  577    005209   006055   006133   004941   004161   005606   008533   010644   005130   004383   004245   005107               110059661    8    100058731         090059721    8    080058621    8    070060071    8    005676   005920   006038   005204   004381   005550   008892   010711   005249   004460   004148   005240                                      
050003200210012 00940 4113001AGGLO BRI NORD      1620412SORTIE MONTGENEVRE  1720580COL MTG             1640150010980009660130004300100000000001287      002929  577    002599   003025   003079   002466   002074   002801   004264   005352   002561   002187   002127   002563               110029821    8    100029351         090029741    8    080029211    8    070029931    8    002808   002928   003021   002586   002189   002792   004422   005388   002622   002229   002073   002665                                      
050003200110012 00940 4113001AGGLO BRI NORD      1620412SORTIE MONTGENEVRE  1720580COL MTG             1640150010980009660130004300100000000001287      002925  567    002610   003030   003054   002475   002087   002805   004269   005292   002569   002196   002118   002544               110029841    8    100029381         090029981    8    080029411    8    070030141    8    002868   002992   003017   002618   002192   002758   004470   005323   002627   002231   002075   002575                                      
050003220310012 00940 4113001AGGLO BRI NORD      1720580SORTIE MONTGENEVRE  1730390MTG TREMIE          1730120010980009660130004300100000000001287      003084  677    003749   003610   003659   002761   001669   002432   004345   006018   002294   001710   001927   002768               110031791    8    100026181         090025981    8    080025641    8    070027591    8    003918   003782   003850   002872   001823   002294   004727   006087   002260   001860   001600   003006                                      
050003220210012 00940 4113001AGGLO BRI NORD      1720580SORTIE MONTGENEVRE  1730390MTG TREMIE          1730120010980009660130004300100000000001287      001216  647    001287   001261   001326   001067   000710   001054   001822   002570   000957   000706   000758   001041               110012481    8    100012311         090012471    8    080012241    8    070013281    8    001330   001273   001333   001095   000758   000996   002000   002596   000961   000810   000641   001138                                      
050003220110012 00940 4113001AGGLO BRI NORD      1720580SORTIE MONTGENEVRE  1730390MTG TREMIE          1730120010980009660130004300100000000001287      001868  717    002462   002349   002333   001694   000959   001378   002523   003448   001337   001004   001169   001727               110019311    8    100013871         090013511    8    080013401    8    070014311    8    002588   002509   002517   001777   001065   001298   002727   003491   001299   001050   000959   001868                                      
050003300310012 00940 4113001SORTIE MONTGENEVRE  1730390LIMITE FRONTIERE    1740834POSTE P.A.F         1740600001451001451130004300100000000001287      002778  777    003206   003189   003067   002542   001518   002101   003910   005695   002057   001523   001727   002737               110029091    7    100028611         090029631    7    080031831    7    070031621    7    003878   003454   003396   002669   001531   001827   004079   005763   002030   001698   001739   002784                                      
050003300210012 00940 4113001SORTIE MONTGENEVRE  1730390LIMITE FRONTIERE    1740834POSTE P.A.F         1740600001451001451130004300100000000001287      001390  787    001607   001596   001524   001261   000753   001068   001981   002850   001016   000763   000864   001367               110014521    7    100014311         090014821    7    080015391    7    070015841    7    001870   001720   001671   001323   000762   000968   002045   002894   001009   000849   000876   001407                                      
050003300110012 00940 4113001SORTIE MONTGENEVRE  1730390LIMITE FRONTIERE    1740834POSTE P.A.F         1740600001451001451130004300100000000001287      001388  767    001599   001593   001543   001281   000765   001033   001929   002845   001041   000760   000863   001370               110014571    7    100014301         090014811    7    080016441    7    070015781    7    002008   001734   001725   001346   000769   000859   002034   002869   001021   000849   000863   001377                                      
050002499310012 20940 4843001AGGLO SUD EMBRUN    1100195AGGLO NORD EMBRUN   1120659AGGLO EMBRUN        1100200002359000000050002500300000000000191      006774                                                                                                                                 110040478         100039418         090041148         080044628    0    070117388    0                                                                                                                                                   
050002500310012 20940 4113001FIN AGLO NORD EMBRUN1120659CARREF.CD263        1170420EMBRUN NORD         1130900004776004776050002502300000000001287      005670  877    002818   003033   003201   004177   005687   005787   009797   011145   006357   005593   005169   005063               110033871    7    100032981         090034421    7    080037331    7    070098191    7    002941   003204   003288   003093   003162            004529   004760   003361   003134   002905   002833                                      
050002500210012 20940 4113001FIN AGLO NORD EMBRUN1120659CARREF.CD263        1170420EMBRUN NORD         1130900004776004776050002502300000000001287      002887  857    001443   001502   001628   002100   002886   002971   005049   005549   003183   002850   002592   002779               110017131    7    100016631         090017141    7    080018081    7    070048981    7    001507   001592   001668   001561   001595            002291   002452   001705   001577   001465   001404                                      
050002500110012 20940 4113001FIN AGL NORD EMBRUN 1120659CARREF.CD263.       1170420EMBRUN NORD         1130900004776004776050002502300000000001287      002783  917    001375   001531   001573   002077   002801   002816   004748   005596   003174   002743   002577   002284               110016741    7    100016351         090017281    7    080019251    7    070049211    7    001434   001612   001620   001532   001567            002238   002308   001656   001557   001440   001429                                      
130601300310012 00070 1810241BERRE               0000000VITROLLES           2590570ROGNAC              2550450005750005750130601690300000000000589      062192                                                                                                                                 110632138         100622308         090000008         080615818         070637478    0    000000   000000   000000   000000   000000   000000   000000   000000   000000   000000   000000   000000                                      
130601300210012 00070 1810241BERRE               0000000VITROLLES           2590570ROGNAC              2550450005750005750130601690200000000000589      031678                                                                                                                                 110317658         100317408         090000008         080317238         070326978    0    000000   000000   000000   000000   000000   000000   000000   000000   000000   000000   000000   000000                                      
130601300110012 00070 1810241BERRE               0000000VITROLLES           2590570ROGNAC              2550450005750005750130601690100000000000589      030514                                                                                                                                 110305118         100301188         090000008         080298588         070310508    0    000000   000000   000000   000000   000000   000000   000000   000000   000000   000000   000000   000000                                      
130601400310012 00070 1810241VITROLLES           2590570VITROLLES Z.I.      2610270VITROLLES NORD SUD  2600500001705001705130601690300000000000589      057522                                                                                                                                 110572798         100567898         090000008         080564648         070584528    0    000000   000000   000000   000000   000000   000000   000000   000000   000000   000000   000000   000000                                      
130601400210012 00070 1810241VITROLLES           2590570VITROLLES Z.I.      2610270VITROLLES NORD SUD  2600500001705001705130601690200000000000589      029245                                                                                                                                 110292758         100291118         090000008         080290028         070298938    0    000000   000000   000000   000000   000000   000000   000000   000000   000000   000000   000000   000000                                      
130601400110012 00070 1810241VITROLLES           2590570VITROLLES Z.I.      2610270VITROLLES NORD SUD  2600500001705001705130601690100000000000589      028277                                                                                                                                 110282548         100277778         090000008         080274628         070285598    0    000000   000000   000000   000000   000000   000000   000000   000000   000000   000000   000000   000000                                      
130601500310012 00070 1810241VITROLLES Z.I.      2610270MARIGNANE           2620120CARREFOUR VITROLLES 2610800000849000849130601690300000000000589      051738                                                                                                                                 110517888         100510838         090000008         080507748         070525888    0    000000   000000   000000   000000   000000   000000   000000   000000   000000   000000   000000   000000                                      
130601500210012 00070 1810241VITROLLES Z.I.      2610270MARIGNANE           2620120CARREFOUR VITROLLES 2610800000849000849130601690200000000000589      023370                                                                                                                                 110234068         100232768         090000008         080231898         070239018    0    000000   000000   000000   000000   000000   000000   000000   000000   000000   000000   000000   000000                                      
130601500110012 00070 1810241VITROLLES Z.I.      2610270MARIGNANE           2620120CARREFOUR VITROLLES 2610800000849000849130601690100000000000589      028368                                                                                                                                 110283828         100279028         090000008         080275858         070286878    0    000000   000000   000000   000000   000000   000000   000000   000000   000000   000000   000000   000000                                      
130601600310012 00070 1810231MARIGNANE           2620120RN 113              2640000MARIGNANE           2640000002187002187130601690300000000000589      079954                                                                                                                                 110799348         100788978         090000008         080784448         070812108    0    000000   000000   000000   000000   000000   000000   000000   000000   000000   000000   000000   000000                                      
130601600210012 00070 1810231MARIGNANE           2620120RN 113              2640000MARIGNANE           2640000002187002187130601690200000000000401      040076                                                                                                                                 110400858         100398618         090000008         080397128         070409318    0    000000   000000   000000   000000   000000   000000   000000   000000   000000   000000   000000   000000                                      
130601600110012 00070 1810231MARIGNANE           2620120RN 113              2640000MARIGNANE           2640000002187002187130601690100000000000401      039878                                                                                                                                 110398498         100391768         090000008         080387328         070402798    0    000000   000000   000000   000000   000000   000000   000000   000000   000000   000000   000000   000000                                      
130601690310012 00070 1110231RN 113              2640300SORTIE L'AGAVON     2650000L AGAVON PMV        2640650000593000593130620500100000000000589      108333                                                                                                                                 111084271         101071831         090000001         081065441    7    071103311    8    000000   000000   000000   000000   000000   000000   000000   000000   000000   000000   000000   000000                                      
130601690210012 00070 1110241RN 113              2640300SORTIE L'AGAVON     2650000L AGAVON PMV        2640650000593000593130620500100000000000589      050671                                                                                                                                 110508081         100506281         090000001         080505081    7    070520581    8    000000   000000   000000   000000   000000   000000   000000   000000   000000   000000   000000   000000                                      
130601690110012 00070 1110241RN 113              2640300SORTIE L'AGAVON     2650000L AGAVON PMV        2640650000593000593130620500100000000000589      057662                                                                                                                                 110576191         100566651         090000001         080560361    0    070582731    8    000000   000000   000000   000000   000000   000000   000000   000000   000000   000000   000000   000000                                      
130601700310012 00070 1110441SORTIE L'AGAVON     2650000A 55 NORD           2651040L'ANJOLY            2650500001040001040130620500100000000000589      112133                                                                                                                                 111123401         101094211         091098451         081107061    0    071064401    0    106512   109609   112057   113566   120206   117252   116849   114498   118490   113332   104062   101513                                      
130601700210012 00070 1110241SORTIE L'AGAVON     2650000A 55 NORD           2651040L'ANJOLY            2650500001040001040130620500100000000000589      054637                                                                                                                                 110546991         100541061         090543721         080544691    0    070526841    0    052212   053768   055699   056353   059028   057535   057553   056617   058211   055824   048302   045248                                      
130601700110012 00070 1110441SORTIE L'AGAVON     2650000A 55 NORD           2651040L'ANJOLY            2650500001040001040130620500100000000000589      057496                                                                                                                                 110576411         100553141         090554731         080562371    0    070537561    0    054300   055841   056358   057213   061178   059717   059296   057881   060279   057508   055760   056265                                      
130601800310012 00070 1110241A 55 NORD           2651040A 55 SUD            2670280LES PENNES CRICR    2660500001363001363130620500100000000000589      065320                                                                                                                                 110653571         100697871         090000001         080728931 1110    070666811    0    000000   000000   000000   000000   000000   000000   000000   000000   000000   000000   000000   000000                                      
130601800210012 00070 1110241A 55 NORD           2651040A 55 SUD            2670280LES PENNES CRICR    2660500001363001363130620500100000000000589      028391                                                                                                                                 110284391         100294261         090000001         080300991 1260    070287531    0    000000   000000   000000   000000   000000   000000   000000   000000   000000   000000   000000   000000                                      
130601800110012 00070 1110241A 55 NORD           2651040A 55 SUD            2670280LES PENNES CRICR    2660500001363001363130620500100000000000589      036929                                                                                                                                 110369181         100403611         090000001         080427941    7    070379281    0    000000   000000   000000   000000   000000   000000   000000   000000   000000   000000   000000   000000                                      
130601900310012 00070 1110341A55 SUD             2670280LES PENNES MIRABEAU 2690000A55 LES PENNES      2680000002450002450130620500100000000000989      099303                                                                                                                                 110991821         101000741         091014441         080987851    0    071000541    0    090854   096640   095631   100657   091098   106959   105616   099945   102997   103336   097944   093217                                      
130601900210012 00070 1110441A55 SUD             2670280LES PENNES MIRABEAU 2690000A55 LES PENNES      2680000002450002450130620500100000000000989      047293                                                                                                                                 110472661         100473061         090473461         080456201    0    070488331    0    043977   046265   045807   048584   039177   051647   051229   049097   049690   049869   047324   044685                                      
130601900110012 00070 1110341A55 SUD             2670280LES PENNES MIRABEAU 2690000A55 LES PENNES      2680000002450002450130620500100000000000989      052010                                                                                                                                 110519161         100529961         090540981         080531651    7    070512211    0    047318   050825   050270   052557   052173   055827   054904   051362   053802   053964   051094   048969                                      
130601901310012 00070 1110431PENNES MIRABEAU     2690000A 51 NORD           2700585PENNES MIRABEAU     2700000000860000860130620500100000000000589      087414                                                                                                                                 110874231         100882771         090877621         080860261    0    070925921    0    063859   067170   061402   064952   062252   073787   072314   069618   077294   081516   083781   085601                                      
130601901210012 00070 1110231PENNES MIRABEAU     2690000A 51 NORD           2700585PENNES MIRABEAU     2700000000860000860130620500100000000000589      044542                                                                                                                                 110446601         100436311         090426251         080423111    0    070489801    0    019681   020673   020352   022898   022372   024345   024048   025329   029699   032066   044059   041061                                      
130601901110012 00070 1110431PENNES MIRABEAU     2690000A 51 NORD           2700585PENNES MIRABEAU     2700000000860000860130620500100000000000589      042872                                                                                                                                 110427631         100439341         090451371         080437151    7    070436121    0    042001   044204   039093   040114   038062   047080   045969   042286   045522   047336   038612   043027                                      
130602000310012 00070 1110231A 51 NORD           2700585A 51 SUD            2710620SEPTEMES A 7        2700833001025001025130620500100000000000589      050434                                                                                                                                 110504371         100586911         090596381         080518261    0    070489931    0    047332   049641   053902   051272   051795   051022   051727   048931   052654   050371   050039   046584                                      
130602000210012 00070 1110231A 51 NORD           2700585A 51 SUD            2710620SEPTEMES A 7        2700833001025001025130620500100000000000589      017899                                                                                                                                 110178621         100292791         090299511         080226801    7    070331901    0    018712   020404   023179   018914   016329   016009   015887   016600   018510   017951   017540   014540                                      
130602000110012 00070 1110231A 51 NORD           2700585A 51 SUD            2710620SEPTEMES A 7        2700833001025001025130620500100000000000589      032535                                                                                                                                 110325751         100294121         090296871         080291461    0    070158031    0    028620   029237   030723   032358   035466   035013   035840   032331   034144   032420   032499   032044                                      
130602100310012 00070 1110431A 51 SUD            2710620ST ANTOINE          2730510SEPTEMES TRON COMMUN2720000001894001894130620500100000000000589      142580                                                                                                                                 111423471         101354421         091402921         081393651         071149041    0    137285   140300   144277   142707   148405   145028   138629   140885   146978   143973   140449   139237                                      
130602100210012 00070 1110431A 51 SUD            2710620ST ANTOINE          2730510SEPTEMES TRON COMMUN2720000001894001894130620500100000000000589      065343                                                                                                                                 110652501         100616881         090642451         080635501    0    070516831    0    062775   064094   065929   065876   068363   066300   063839   064759   066896   065925   064320   063891                                      
130602100110012 00070 1110431A 51 SUD            2710620ST ANTOINE          2730510SEPTEMES TRON COMMUN2720000001894001894130620500100000000000589      077237                                                                                                                                 110770971         100735881         090760471         080758151    0    070622211    0    074510   076206   078348   076831   080042   078728   074790   076126   080082   078048   076129   075346                                      
130602200310012 00070 1110431ST ANTOINE          2730510LES AYGALADES       2750080SAINT ANTOINE       2740000001570001570130620500100000000000589      139501                                                                                                                                 111395311         101423401         091452061         081426141         071383791    0    112500   126705   141197   147380   142164   151120   143132   132490   147921   149171   145139   135268                                      
130602200210012 00070 1110431ST ANTOINE          2730510LES AYGALADES       2750080SAINT ANTOINE       2740000001570001570130620500100000000000589      066168                                                                                                                                 110660371         100676831         090693701         080675881    0    070663781    0    042301   053130   068172   072201   069121   073099   069483   064986   071535   072966   070814   064139                                      
130602200110012 00070 1110431ST ANTOINE          2730510LES AYGALADES       2750080SAINT ANTOINE       2740000001570001570130620500100000000000589      073333                                                                                                                                 110734941         100746561         090758361         080750261    0    070720011    0    070398   073700   073002   075137   073011   077994   073619   067464   076360   076164   074289   071129                                      
130602300310012 00070 1110431LES AYGALADES       2750080M.I.N.ARNAVAUX      2780915LES  AYGALADES      2760000003402003402130620500100000000000589      133006                                                                                                                                 111336401         101342731         091363901         081372021         071228801    0    108387   114131   112464   116380   114259   119989   114663   107841   116504   118615   113994   109961                                      
130602300210012 00070 1110431LES AYGALADES       2750080M.I.N.ARNAVAUX      2780915LES  AYGALADES      2760000003402003402130620500100000000000589      067076                                                                                                                                 110668831         100662371         090670561         080666451    0    070637881    0    065988   067429   069300   068410   071009   069400   068939   063332   062857   064769   065976   065208                                      
130602300110012 00070 1110431LES AYGALADES       2750080M.I.N.ARNAVAUX      2780915LES  AYGALADES      2760000003402003402130620500100000000000589      065930                                                                                                                                 110660341         100676641         090693341         080705571    7    070580921    0    045722   048304   047778   049063   048214   050568   048460   046121   049069   049820   047410   046363                                      
130602500310012 00070 1110431LA ROSE             2780915PLOMBIERES          2800130LA ROSE             2800000001210001210130620500100000000000589      087369                                                                                                                                 110874141         101071411         090000001         081125341         071017491    0    000000   000000   000000   000000   000000   000000   000000   000000   000000   000000   000000   000000                                      
130602500210012 00070 1110431LA ROSE             2780915PLOMBIERES          2800130LA ROSE             2800000001210001210130620500100000000000589      050154                                                                                                                                 110502841         100515421         090000001         080523941    7    070506911    0    000000   000000   000000   000000   000000   000000   000000   000000   000000   000000   000000   000000                                      
130602500110012 00070 1110431LA ROSE             2780915PLOMBIERES          2800130LA ROSE             2800000001210001210130620500100000000000589      037215                                                                                                                                 110371301         100555991         090000001         080601401    0    070510581    0    044198   047357   048483   042448   034087   033706   030320   030463   035201   034268   034466   031466                                      
130602600310012 00070 1110431PLOMBIERES          2800130ST CHARLES          2820100PLOMBIERES ST CHARLE2810000001975001975130620500100000000000589      073954                                                                                                                                 110740841         100782681         090831251         080781431    7    070739131    0    000000   000000   000000   000000   000000   000000   000000   000000   000000   000000   000000   000000                                      
130602600210012 00070 1110431PLOMBIERES          2800130SAINT CHARLES       2820100PLOMBIERES ST CHARLE2820000001975001975130620500100000000000401      051480                                                                                                                                 110515531         100518421         090521321         080520991    0    070505261    0    000000   000000   000000   000000   000000   000000   000000   000000   000000   000000   000000   000000                                      
130602600110012 00070 1110431PLOMBIERES          2800130SAINT CHARLES       2820100PLOMBIERES ST CHARLE2820000001975001975130620500100000000000401      022474                                                                                                                                 110225311         100264261         090309931         080260441         070233871    0    017484   020712   023072   023708   023289   023936   023524   021624   023815   024113   023140   021913                                      
130615200310012 00500 1110431MENPENTI            0000000LA POMME            0020000MENPENTI            0010000002260002260130620500100000000000589      089192                                                                                                                                 110891951         100901871         090909101         080843521    7    070931341    0    000000   000000   000000   000000   000000   000000   000000   000000   000000   000000   000000   000000                                      
130615200210012 00500 1110431MENPENTI            0000000LA POMME            0020000MENPENTI            0010000002260002260130620500100000000000589      045796                                                                                                                                 110458061         100468001         090478151         080428861    7    070475251    0    000000   000000   000000   000000   000000   000000   000000   000000   000000   000000   000000   000000                                      
130615200110012 00500 1110431MENPENTI            0000000LA POMME            0020000MENPENTI            0010000002260002260130620500100000000000589      043396                                                                                                                                 110433891         100432421         090430951         080414661    7    070456091    0    000000   000000   000000   000000   000000   000000   000000   000000   000000   000000   000000   000000                                      
130615300310012 00500 1110431LA POMME            0020000LA VALENTINE        0070507LA VALENTINE        0050000004635004635130620500100000000000589      124858                                                                                                                                 111249471         101248461         091247451         081210331    7    071290651    0    000000   000000   000000   000000   000000   000000   000000   000000   000000   000000   000000   000000                                      
130615300210012 00500 1110431LA POMME            0020000LA VALENTINE        0070507LA VALENTINE        0050000004635004635130620500100000000000589      063195                                                                                                                                 110631131         100632581         090634031         080606021    7    070653341    0    000000   000000   000000   000000   000000   000000   000000   000000   000000   000000   000000   000000                                      
130615300110012 00500 1110431LA POMME            0020000LA VALENTINE        0070507LA VALENTINE        0050000004635004635130620500100000000000589      061663                                                                                                                                 110618341         100615881         090613421         080604311    7    070637311    0    000000   000000   000000   000000   000000   000000   000000   000000   000000   000000   000000   000000                                      
130615490310012 00500 1110431LA VALENTINE        0070507LA PENNE            0100495LA PENNE            0090316002990002990130620500100000000000589      110588                                                                                                                                 111106401         101021991         090948691         080937391    7    071399841    8    000000   000000   000000   000000   000000   000000   000000   000000   000000   000000   000000   000000                                      
130615490210012 00500 1110431LA VALENTINE        0070507LA PENNE            0100495LA PENNE            0090316002990002990130620500100000000000589      055401                                                                                                                                 110553401         100475221         090408081         080401881    0    070817141    8    000000   000000   000000   000000   000000   000000   000000   000000   000000   000000   000000   000000                                      
130615490110012 00500 1110431LA VALENTINE        0070507LA PENNE            0100495LA PENNE            0090316002990002990130620500100000000000589      055187                                                                                                                                 110553001         100546771         090540611         080535511    7    070582701    8    000000   000000   000000   000000   000000   000000   000000   000000   000000   000000   000000   000000                                      
130615500310012 00500 1110431LA PENNE            0100495AUBAGNE (A 501)     0120880AUBAGNE OUEST       0110820002392002392130620500100000000000589      110856                                                                                                                                 111107171         101078061         091050061         081072041    7    071282921    0    000000   000000   000000   000000   000000   000000   000000   000000   000000   000000   000000   000000                                      
130615500210012 00500 1110431LA PENNE            0100495AUBAGNE (A 501)     0120880AUBAGNE OUEST       0110820002392002392130620500100000000000589      056542                                                                                                                                 110564911         100559931         090554991         080525911    7    070613741    0    000000   000000   000000   000000   000000   000000   000000   000000   000000   000000   000000   000000                                      
130615500110012 00500 1110431LA PENNE            0100495AUBAGNE (A 501)     0120880AUBAGNE OUEST       0110820002392002392130620500100000000000589      054314                                                                                                                                 110542261         100518131         090495071         080546131    7    070669181    0    000000   000000   000000   000000   000000   000000   000000   000000   000000   000000   000000   000000                                      
130615600310012 00500 1150231AUBAGNE (A 501)     0120880AUBAGNE (A 502)     0150303AUBAGNE OUEST       0140000002413002413130620500100000000000589      071387                                                                                                                                 110713641         100708181         090700331         080696831         070750951         065512   067203   069846   071594   073259   073198   077621   077663   072731   070238   067228                                               
130615600210012 00500 1150231AUBAGNE (A 501)     0120880AUBAGNE (A 502)     0150303AUBAGNE OUEST       0140000002413002413130620500100000000000589      035854                                                                                                                                 110358531         100354261         090350721         080349351    7    070373331    0    032935   033766   035119   036015   036975   037031   039361   038997   036555   035238   033702   034332                                      
130615600110012 00500 1150231AUBAGNE (A 501)     0120880AUBAGNE (A 502)     0150303AUBAGNE OUEST       0140000002413002413130620500100000000000589      035533                                                                                                                                 110355111         100353921         090349611         080347481    7    070377621    0    032577   033437   034727   035579   036284   036167   038260   038666   036176   035000   033526                                               
130620100310012 00510 1110441SEPTEMES (A 7)      0000000BRETELLE A7         0010080SEPTEMES            0000300000967000967130620500100000000001192      082586                                                                                                                                 110823931         100814381         090805171         080979121    0    070790331    0    095226   099636   099452   102711   099782   106723   101543   093829   103513   105390   099082   096647                                      
130620100210012 00510 1110441SEPTEMES (A 7)      0000000BRETELLE A7         0010080SEPTEMES            0000300000967000967130620500100000000001192      044679                                                                                                                                 110445951         100433741         090421861         080591611    0    070427241    0    059324   061974   062672   064757   062803   067587   065268   060353   064944   065745   061613   060175                                      
130620100110012 00510 1110441SEPTEMES (A 7)      0000000BRETELLE A7         0010080SEPTEMES            0000300000967000967130620500100000000001192      037907                                                                                                                                 110377981         100380641         090383311         080387511    0    070363091    0    036450   038229   037401   038598   037597   039826   036995   034145   039197   040259   038033   037026                                      
130620200310012 00510 1110431BRETELLE A 7        0010080PLAN DE CAMPAGNE    0020925BRETELLE A7-PLAN DE 0020000001848001848130620500100000000000589      125071                                                                                                                                 111254061         101198411         091204711         081204071    0    071169481    0    117989   120779   124518   123711   130985   128464   128288   122714   131644   127595   123881   124057                                      
130620200210012 00510 1110431BRETELLE A 7        0010080PLAN DE CAMPAGNE    0020925BRETELLE A7-PLAN DE 0020000001848001848130620500100000000000589      061984                                                                                                                                 110621341         100600061         090597401         080598811    0    070607761    0    058770   060137   062066   061187   064480   063142   063714   061431   065281   063020   060912   061344                                      
130620200110012 00510 1110431BRETELLE A 7        0010080PLAN DE CAMPAGNE    0020925BRETELLE A7-PLAN DE 0020000001848001848130620500100000000000589      063087                                                                                                                                 110632721         100598341         090607311         080605261    7    070561721    0    059219   060642   062452   062524   066505   065322   064574   061283   066363   064575   062969   062713                                      
130620300310012 00510 1110241PLAN DE CAMPAGNE    0020925LES CHABAUDS        0050035BOUC BEL AIR        0050000002111002111130620500100000000000589      105736                                                                                                                                 111057831         101108031         091118101         081105661    0    071072741    0    106827   111226   110015   114554   112516   117486   112618   102427   111461   110327   102358   106192                                      
130620300210012 00510 1110441PLAN DE CAMPAGNE    0020925LES CHABAUDS        0050035BOUC BEL AIR        0050000002111002111130620500100000000000589      057841                                                                                                                                 110580061         100579591         090579121         080582931    0    070579751    0    054972   057333   057077   059523   058202   062139   059582   054819   058813   060640   057753   055364                                      
130620300110012 00510 1110441PLAN DE CAMPAGNE    0020925LES CHABAUDS        0050035BOUC BEL AIR        0050000002111002111130620500100000000000589      047895                                                                                                                                 110477771         100527631         090538981         080522731    0    070492991    0    055664   057161   056841   045789   034835   053031   045676   042609   046178   043402   046081   046970                                      
130620400310012 00510 1110241LES CHABAUDS        0050035LES 3 PIGEONS       0100135CABRIES MARIUS      0060100005116005116130620500100000000000589      071372                                                                                                                                 110717921         100698851         090683161         080671981    7    070696061    0    000000   000000   000000   000000   000000   000000   000000   000000   000000   000000   000000   000000                                      
130620400210012 00510 1110241LES CHABAUDS        0050035LES 3 PIGEONS       0100135CABRIES MARIUS      0060100005116005116130620500100000000000589      035349                                                                                                                                 110352591         100351951         090351311         080346081    7    070355321    0    000000   000000   000000   000000   000000   000000   000000   000000   000000   000000   000000   000000                                      
130620400110012 00510 1110241LES CHABAUDS        0050035LES 3 PIGEONS       0100135CABRIES MARIUS      0060100005116005116130620500100000000000589      036023                                                                                                                                 110359331         100345321         090331851         080325901    7    070340741    0    000000   000000   000000   000000   000000   000000   000000   000000   000000   000000   000000   000000                                      
130620500310012 00510 1110241LES 3 PIGEONS       0100135LUYNES              01303253 PIGEONS-LUYNES    0100300003191003191130620500100000000000589      057200                                                                                                                                 110573351         100560811         090548591         080543271    7    070687371    0    000000   000000   000000   000000   000000   000000   000000   000000   000000   000000   000000   000000                                      
130620500210012 00510 1110241LES 3 PIGEONS       0100135LUYNES              01303253 PIGEONS-LUYNES    0100300003191003191130620500100000000000589      030322                                                                                                                                 110304111         100300311         090296551         080295691    7    070365461    0    029494   031169   031431   031866   030499   029088   031924   029522   030011   029766   029649   030545                                      
130620500110012 00510 1110241LES 3 PIGEONS       0100135LUYNES              01303253 PIGEONS-LUYNES    0100300003191003191130620500100000000000589      026878                                                                                                                                 110269241         100260501         090252041         080247581    7    070321911    0    000000   000000   000000   000000   000000   000000   000000   000000   000000   000000   000000   000000                                      
130620690310012 00510 1810241LUYNES              0130325LES MILLES          0140720LUYNES PMV          0140000001393001393130620500300000000000189      066935                                                                                                                                 110668548         100642358         090617188         080610758    0    070774668    8    000000   000000   000000   000000   000000   000000   000000   000000   000000   000000   000000   000000                                      
130620690210012 00510 1810241LUYNES              0130325LES MILLES          0140720LUYNES PMV          0140000001393001393130620500200000000000589      032818                                                                                                                                 110327338         100315288         090303678         080302798    0    070374248    8    000000   000000   000000   000000   000000   000000   000000   000000   000000   000000   000000   000000                                      
130620690110012 00510 1810241LUYNES              0130325LES MILLES          0140720LUYNES PMV          0140000001393001393130620500100000000000589      034117                                                                                                                                 110341218         100327078         090313518         080307968    0    070400428    8    000000   000000   000000   000000   000000   000000   000000   000000   000000   000000   000000   000000                                      
130620700310012 00510 1810441LES MILLES          0140720AIX-CENTRE          0150770LES MILLES          0150000001358001358130620500300000000000589      109711                                                                                                                                 111094938         101052278         091011258         081001418    0    071267218    0    000000   000000   000000   000000   000000   000000   000000   000000   000000   000000   000000   000000                                      
130620700210012 00510 1810441LES MILLES          0140720AIX-CENTRE          0150770LES MILLES          0150000001358001358130620500200000000000589      058703                                                                                                                                 110586298         100564708         090543908         080542338    0    070670308    0    000000   000000   000000   000000   000000   000000   000000   000000   000000   000000   000000   000000                                      
130620700110012 00510 1810441LES MILLES          0140720AIX-CENTRE          0150770LES MILLES          0150000001358001358130620500100000000000589      051008                                                                                                                                 110508648         100487568         090467358         080459088    0    070596918    0    000000   000000   000000   000000   000000   000000   000000   000000   000000   000000   000000   000000                                      
130620800310012 00510 1850231AIX-CENTRE          0150770RACCORDEMENT A.8    0160515AIX-CENTRE          0160200000751000751130620500300000000000589      078574                                                                                                                                 110787028         100767948         090749348         080742218    0    070938548    0    000000   000000   000000   000000   000000   000000   000000   000000   000000   000000   000000   000000                                      
130620800210012 00510 1850231AIX-CENTRE          0150770RACCORDEMENT A.9    0160515AIX-CENTRE          0160200000751000751130620500200000000000189      042892                                                                                                                                 110429528         100421558         090413728         080412538    0    070509878    0    000000   000000   000000   000000   000000   000000   000000   000000   000000   000000   000000   000000                                      
130620800110012 00510 1850231AIX-CENTRE          0150770RACCORDEMENT A.8    0160515AIX-CENTRE          0160200000751000751130620500100000000000589      035682                                                                                                                                 110357508         100346398         090335628         080329688    0    070428678    0    000000   000000   000000   000000   000000   000000   000000   000000   000000   000000   000000   000000                                      
130620900310012 00510 1850231RACCORDEMENT A.8.   0160515AIX-OUEST(Z.A.C.)   0170826RAC.A8-AIX-OUEST ZAC0170000001319001319130620500300000000000589      089348                                                                                                                                 110892668         100857758         090824268         080836688    0    071057578    0    000000   000000   000000   000000   000000   000000   000000   000000   000000   000000   000000   000000                                      
130620900210012 00510 1850231RACCORDEMENT A.8.   0160515AIX-OUEST(Z.A.C.)   0170826RAC.A8-AIX-OUEST ZAC0170000001319001319130620500200000000000589      050573                                                                                                                                 110504598         100488588         090473078         080471708    0    070583018    0    000000   000000   000000   000000   000000   000000   000000   000000   000000   000000   000000   000000                                      
130620900110012 00510 1850231RACCORDEMENT A.8.   0160515AIX-OUEST(Z.A.C.)   0170826RAC.A8-AIX-OUEST ZAC0170000001319001319130620500100000000000589      038775                                                                                                                                 110388078         100369178         090351198         080364988    0    070474568    0    000000   000000   000000   000000   000000   000000   000000   000000   000000   000000   000000   000000                                      
130635100510012 00550 1111031PORT                0010000JOLIETTE            0020060JOLIETTE            0010442000160000160          00000000000589      045824                                                                                                                                 110457601         100417171         090380311         080414391    7    070465201    0    000000   000000   000000   000000   000000   000000   000000   000000   000000   000000   000000   000000                                      
130635200410012 00550 1150231ARENC               0010349JOLIETTE            0020060JOLIETTE.           0020000000462000462          00000000000589      040317                                                                                                                                 110404281         100394811         090385561         080392391    7    070413771    0    000000   000000   000000   000000   000000   000000   000000   000000   000000   000000   000000   000000                                      
130635300310012 00550 1150231ARENC               0020060CAP PINEDE          0030460ARENC               0020800001406001406          00000000000589      068810                                                                                                                                 110689141         100657751         090627851         080653471    0    070704821    0    048102   050667   050080   052864   051290   052961   051835   051603   052502   052958   049829   049324                                      
130635300210012 00550 1110231ARENC               0020060CAP PINEDE          0030460ARENC               0020800001406001406          00000000000589      026503                                                                                                                                 110264851         100256051         090247541         080249431    7    070291051    0    024740   025869   025842   027455   026875   027567   026983   027150   027086   027371   025708   025176                                      
130635300110012 00550 1150231ARENC               0020060CAP PINEDE          0030460ARENC               0020800001406001406          00000000000589      042307                                                                                                                                 110424291         100401701         090380311         080404041    7    070413771    0    023099   024528   023962   025109   024113   025091   024555   024145   025125   025293   023846   023887                                      
130635400310012 00550 1110431CAP PINEDE          0030460CAP JANET           0040660CAP PINEDE          0040305001200001200          00000000000589      050567                                                                                                                                 110505131         100625701         090803401         080553111    7    070429001    0    044762   043433   042533   049753   050426   054431   051935   048912   050076   050991   048760   048493                                      
130635400210012 00550 1110431CAP PINEDE          0030460CAP JANET           0040660CAP PINEDE          0040305001200001200          00000000000589      028459                                                                                                                                 110284651         100293191         090301981         080324441    0    070226821    0    024565   020720   020610   028286   031411   033657   032554   031412   028641   029531   030120   029546                                      
130635400110012 00550 1110431CAP PINEDE          0030460CAP JANET           0040660CAP PINEDE          0040305001200001200          00000000000589      022108                                                                                                                                 110220481         100332501         090501421         080322861    0    070202181    0    020991   021821   021220   022873   021903   023759   022464   020805   022941   023190   021298   021372                                      
130635600310012 00550 1110231CAP JANET           0040660MIRABEAU            0050620CAP JANET           0050000000960000960          00000000000589      063227                                                                                                                                 110633561         100659101         090687361         080671491    0    070581311    0    000000   000000   000000   000000   000000   000000   000000   000000   000000   000000   000000   000000                                      
130635600210012 00550 1110231CAP JANET           0040660MIRABEAU            0050620CAP JANET           0050000000960000960          00000000000589      029389                                                                                                                                 110294571         100290061         090285611         080286851    7    070307351    0    000000   000000   000000   000000   000000   000000   000000   000000   000000   000000   000000   000000                                      
