900001300310018 10190 4110701Ech. Morvillars     0140622Frontière           0201200SRDT FECHE_EGLISE   0180600006578006578          00000000000515      000000                                                                                                                                 170000001         160084001 0600    150080481    7    140075791    7    130000001    0                                                                                                                                                   
900001000310018 10190 4113001Début (limite dépt 70000000Ech. Sévenans (A36) 0050454SRDT DORANS         0040900005497005497          00000000000515      000000                                                                                                                                 170000001         160000001         150000001         140000001    0    130000001    0                                                                                                                                                   
900000300310018 10190 4113001Ech. Sévenans (A36) 0050454Ech. Morvillars     0140622SRDT BOUROGNE       0110600009103009103          00000000000515      013410 0857    013513   013729   014319   014176   013246   014636   013285   012127   014155   014535   011923   011352               170135221 0867    160134961 0897    150000001         140115441    7    130000001    0    011976            014121   013974   013817   014426   012238   012388   014073   014312   013961   013548                                      
880003210310018 20660 4813001Début viaduc du Séch0370000Fin viaduc du Séchen0370688Séchenat            0370500000688000688          00000000000515      000000                                                                                                                                 170000008         160000008         150000008         140000008    0    130000008    0                                                                                                                                                   
880003200310018 00660 4815001Bussang (inter D89) 0350417Limite dépt 68      0380520Bussang Est         0350700003166002815680000700368000070030187      000000                                                                                                                                 170000008         160000008         150000008         140000008    0    130000008    0                                                                                                                                                   
880003100310018 00660 4813001Saint-Maurice (inter0300618Busanng (inter D89) 0350417Bussang Ouest       0320000004752002073680000700300000000000515      000000                                                                                                                                 170000008         160000008         150000008         140000008    0    130000008    0                                                                                                                                                   
880003000310018 00660 4813001Fin voie expresse (S0180250Saint-Maurice (inter0300618La Hardoye          0300000012407007157680000700300000000000515      000000                                                                                                                                 170000008         160000008         150000008         140000008    0    130000008    0                                                                                                                                                   
880002900310018 00660 4110701Ech. Accrues Noël   0020957Fin voie expresse (S0180250SRDT LEPANGE        0080300021720016034680000700300000000000515      007919 1087    007550   007832   007994   008289   007218   008177   008522            008403            007697   007531               170080931 1107    160079931 1107    150079291 1107    140078381 1137    130000001    0    007125   007976   008009   008225   008163   008614   008632   008158   008410            007982   007685                                      
880002800310018 00660 3810201Ech. Moulin (N57)   0000000Ech. Accrues Noël   0020957                    0010000002959002959880002900300000000000515      000000                                                                                                                                 170000008         160000008         150000008         140000008    0    130000008    0                                                                                                                                                   
880002400310018 01590 4113001Début (N59)         0000000Fin (concession TML)0030775SRDT BERTRIMOUTIERS 0010130003823003823880002900300000000000515      008852         007800   008208   008435   008959   009291                     009712   009372   009316   008832   008557               170085791         160081621 1297    150078391 1147    140000001    0    130000001    0             007975   008179   008861   008532            009085   009292            008801   008455   008192                                      
880002200310018 00590 4815001Ech. Fin 2x2        0240753Fin (éch. N159)     0280032Remomeix            0260100003263003263          00000000000515      000000                                                                                                                                 170000008         160000008         150000008         140000008    0    130000008    0                                                                                                                                                   
880002110310018 00590 3810201Ech. D415           0230110Ech. Fin 2x2        0240753Saint-Dié Sud       0240000001643001643880002100300000000000515      000000                                                                                                                                 170000008         160051228         150049278         140049028    0    130044508    0                                                                                                                                                   
880002100310018 00590 3110201Ech. D85            0140876Ech. D415           0230110SRDT ST_DIE         0210300009038009038880002100300000000000515      000000                                                                                                                                 170000001         160169541 1267    150163071         140162231 1157    130147251    0                                                                                                                                                   
880002000310018 00590 3110201Ech. D32            0120163Ech. D85            0140876SRDT LA_PECHERIE    0140100009038009038880002100300000000000515      028175 0937    025930   027166   027312   028900   028879   030205   029011   028330   029221   029291   027697   026172               170277991 0887    160272841 0857    150000001         140000001    0    130263591    0    024657   026758   027386   028165   027873   029730   028163   027963   029194   028571   027106   028016                                      
880001900310018 00590 3110201Ech. D259           0040033Ech. D32            0120163SRDT ETIVAL         0070100007766007766880002100300000000000515      000000                                                                                                                                 170154591 1907    160151661         150148861 1237    140145871 1077    130142781 1127    013606   014951   014968   015923   015458   015894   016063   015966   016108   015763   014986   015808                                      
880001510310018 00590 3810201Limite Dépt 54      0000000Ech. D259           0040033N59 - dév. de Raon-l0030880003418003418880001900354000580030515      000000                                                                                                                                 170000008         160000008         150000008         140000008    0    130000008    0                                                                                                                                                   
880001400310018 00570 4813001Ech. Plombières     0640788Limite Dépt 70      0720268Plombières Sud      0650000006870006870880001300370000100030515      000000                                                                                                                                 170000008         160000008         150000008         140000008    0    130000008    0                                                                                                                                                   
880001300310018 00570 3113001Ech. Le Baccu       0560883Ech. Plombières     0640788SRDT OLICHAMP       0590000007903007903880001300300000000000515      012218         010585   011590   011759   012436   012338   013048   013610   013430   012774   012577   011200   011226               170121891 2147    160119951 2067    150116651 2107    140114191 2107    130000001    0    009891   011681   011676   012872   012266   012898   013670   013266   012505   012502   011637   011394                                      
880001200310018 00570 3810201Ech. Moulin (N66)   0550090Ech. Le Baccu       0560883Saint Nabord Sud    0560000001802001802880001300300000000000515      000000                                                                                                                                 170000008         160000008         150000008         140000008    0    130000008    0                                                                                                                                                   
880001100310018 00570 3810201Ech. Peuxy          0500717Ech. Moulin (N66)   0550090Saint Nabord        0520000004412004412880001010300000000000515      030562                                                                                                                                 170306348         160302368         150294598         140290288    0    130000008    0                                                                                                                                                   
880001010310018 00570 3110201Ech. Pouxeux        0450351Ech. Peuxy          0500717SRDT POUXEUX        0480100005379005379880001010300000000000515      026981 1457    025386   026961   027219   027895   027192   028726   028474   025777   027770                     024872               170270441 1407    160266921 1377    150260061 1397    140256251 1397    130000001    0    023947   027308   027329   027257   026958   028357   028029   026651   028231   028126   026707   025730                                      
880000900310018 00570 3810201Ech. Arches         0400572Ech. Pouxeux        0450351                    0430000004777004777880001010300000000000515      000000                                                                                                                                 170000008         160000008         150000008         140000008    0    130000008    0                                                                                                                                                   
880000740310018 00570 3110201Ech. Razimont       0330426Ech. Arches         0400572SRDT DEV_EPINAL     0340340007157007157880001010300000000000515      027299 1187    026134   027521   027606   028108   027039   027733   028120   027303   028106   028618   025936   025411               170273441         160268791         150000001         140220731 1437    130000001    0    024342   027781   027712   027639   027193   028737   028321   026799   028586   028195   026901   026043                                      
880000730310018 00570 3810201Ech. Parc expos     0310988Ech. Razimont       0330426Failloux            0330000001439001439880000740300000000000515      028442                                                                                                                                 170284898         160280058         150000008         140229988    0    130266838    0                                                                                                                                                   
880000720310018 00570 3810201Ech. Jeuxey         0300876Ech. Parc expos     0310988Les Grandes Terres  0310300001113001113880000740300000000000515      038952                                                                                                                                 170390178         160383548         150000008         140314978    0    130365428    0                                                                                                                                                   
880000710310018 00570 3810201Ech. Chavelot       0260155Ech. Jeuxey         0300876Les Neuf Lieux      0280000004729004729880000740300000000000515      035651                                                                                                                                 170357108         160351038         150000008         140288278    0    130334458    0                                                                                                                                                   
880000600310018 00570 3110201Ech. Igney          0200297Ech. Chavelot       0260155SRDT CHAVELOT       0240300005894005894880000740300000000000515      000000                                                                                                                                 170338201 1217    160331331 1197    150325641 1197    140313721 1167    130317991 1197    030744   034386   034721   033942   033725   035992   034606   031947   035321   034454   033482   032688                                      
880000200310018 00570 3810201Ech. Châtel-sur-Mose0140844Ech. Igney          0200297Dév. Nomexy         0150350005492005492880000100300000000000515      028695                                                                                                                                 170286898         160281238         150274908         140269228    0    130258758    0                                                                                                                                                   
880000100310018 00570 3110201Limite Dépt 54      0000000Ech. Châtel-sur-Mose0140844SRDT CHARMES        0060400014882014882880000100354000550030515      022882 1657    021114   022896   022676   023500   023293   024582   024252   023114   023824   023210   021349   020836               170228771 1587    160224251 1547    150219201 1567    140214671 1567    130000001    0    020103   023113   022508   023048   023148   024530   024421   022890   024082   023501   021865   021400                                      
700001700310018 00570 4813001Ech. Rioz           0690253Limite Dépt 25      0810690Rioz                0720000012517012517700001600325000010030193      011341                                                                                                                                 170112938         160115888         150117398         140116048    0    130110028    0                                                                                                                                                   
700001600310018 00570 4113001Giratoire D457      0510700Ech. Rioz           0690253SRDT LA_MALACHERE   0680000017407017103700001600300000000000515      010450 1400                                                                                                                            170104051 1427    160106761 1337    150108151 1357    140106901 1377    130101351    0    010368   010200   010434   010357   009914   010908   010767   010371   010920   010896   010194   009536                                      
700001399310018 00570 4853001Inter N19           0450000Giratoire D457      0510700                    0500000007201000000          00000000000515      000000                                                                                                                                 170000008         160000008         150000008         140000008    0    130000008    0                                                                                                                                                   
700001301310018 00570 4813001Saulx (inter D14)   0320600Inter N19           0440529Comberjon           0430000011728011000700001300300000000000515      011413                                                                                                                                 170116598         160118748         150115658         140119378    0    130117578    0                                                                                                                                                   
700001300310018 00570 4113001Fin dév. Luxeuil (gi0180950Saulx (inter D14)   0320600SRDT PONT_JOLY      0290600013906013498700001300300000000000515      007709 2047    006989   007385   007773   007954   006854   008397   008573   008355   008186   008035   007239   006770               170078751 2087    160080201 2007    150078111 1827    140080621 1907    130079401 2037    006672   007710   007877   008211   007557   008834   008333   008265   008219   008158   007634   007057                                      
700001200310018 00570 4813001Ech. Zouzette       0150610Fin dév. Luxeuil (gi0180950Saint-Sauveur       0180000003672003672          00000000000515      000000                                                                                                                                 170000008         160000008         150000008         140000008    0    130000008    0                                                                                                                                                   
700001100310018 00570 4810201Ech. de la Motte    0090183Ech. Zouzette       0150610Luxeuil             0140000002112001762          00000000000515      000000                                                                                                                                 170000008         160000008         150000008         140000008    0    130000008    0                                                                                                                                                   
700001000310018 00570 4813001Limite Dépt 88      0000000Ech. de la Motte    0090183Fougerolles         0080000009182009182880001300388000140030515      000000                                                                                                                                 170000008         160000008         150000008         140000008    0    130000008    0                                                                                                                                                   
700000901310018 00190 4813001Frahier (inter D16) 0920900Fin (D19)           0980343Frahier             0940000005386002550700000800300000000000515      008924                                                                                                                                 170088748         160000008         150082338         140079288    0    130073008    0                                                                                                                                                   
700000900310018 00190 4813001Romchamp (inter D4) 0840300Frahier (inter D16) 0920900Ronchamp            0860000008568005206700000800300000000000515      006002                                                                                                                                 170059688         160000008         150055378         140053328    0    130049108    0                                                                                                                                                   
700000801310018 00190 4813001Ech. Dév. Lure      0740382Romchamp (inter D4) 0840300Roye                0750300010291004349700000800300000000000515      000000                                                                                                                                 170000008         160000008         150000008         140000008    0    130000008    0                                                                                                                                                   
700000800310018 00190 4110201Giratoire Lure (D64)0690000Ech. Dév. Lure      0740382SRDT LURE           0730500005329005329700000800300000000000515      017360 1867    016142   016873   017680            018496                     017025   018554   018898   016987   016273               170172611 1817    160000001         150160131 1787    140154181 1747    130141961    0    014338   016251   016665   017366   017324   018313            016860   018570   019501   017760   016924                                      
700000601310018 00190 4813001Ech. D919           0450161Giratoire Lure (D64)0681452Bouhans-lès-Lure    0670000024144021780700000800300000000000515      009285                                                                                                                                 170092338         160000008         150085668         140082488    0    130075958    0                                                                                                                                                   
700000600310018 00190 4853001Ech. Frotey-lès-Veso0430138Ech. D919           0450161Frotey-lès-vesoul   0440000002050000000700000400300000000000515      000000                                                                                                                                 170000008         160131758         150124368         140000008    0    130000008    0                                                                                                                                                   
700000500310018 00190 4815001VESOUL              0410600Ech. Frotey-lès-Veso0430138Vesoul              0430000001544000000700000400300000000000515      000000                                                                                                                                 170000008         160258898         150244378         140000008    0    130000008    0                                                                                                                                                   
700000400310018 00190 4153001Ech. Zone de l'Oasi 0391028VESOUL              0410600SRDT LA_VAUGINE     0400200001702000000700000400300000000000515      000000                                                                                                                                 170000001         160275321 1247    150259871 1167    140000001    0    130000001    0                                                                                                                                                   
700000301310018 00190 4810201Ech. Charmoille     0360047Ech. Zone de l'Oasi 0391028Pusey               0380000003975003975700000400300000000000515      000000                                                                                                                                 170000008         160206008         150194448         140000008    0    130000008    0                                                                                                                                                   
700000300310018 00190 4813001PORT S /SAONE       0310100Ech. Charmoille     0360047Port-sur-Saône      0330000004949004649520001300300000000000515      000000                                                                                                                                 170184838         160183888         150188898         140000008    0    130175838    0                                                                                                                                                   
700000200310018 00190 4813001Combeaufontaine (int0170981PORT S/ SAONE       0310100Port-sur-Saône      0290000013036010287520001300300000000000515      000000                                                                                                                                 170086978         160086528         150088888         140000008    0    130082748    0                                                                                                                                                   
700000100310018 00190 4113001Limite Dépt 52      0000000Combeaufontaine (int0170981SRDT COMBEAU        0160800017916016360520001300352000140030515      000000                                                                                                                                 170000001         160000001    0    150000001    0    140000001    0    130000001    0                                                                                                                                                   
680501900310018 00350 1150231Limite N83 (Houssen)0590000Ech. Colmar Nord ZI 0630405SRDT THEINHEIMER    0610390003596003596520001300300000000000515      000000                                                                                                                                 170000001         160000001         150406731 1867    140400251 1877    130392671 1957                                                                                                                                                   
680501800310018 00350 1150231Ech. Colmar Nord ZI 0630405Ech. Colmar Sud     0660600SRDT HORBOURG       0640884003202003202520001300300000000000515      000000                                                                                                                                 170000001         160556591 1597    150548111 1607    140502171 1537    130521711 1677                                                                                                                                                   
680501700310018 00350 1110241Ech. Colmar Sud     0660600Ech. Colmar centre  0690158SRDT DACHSBUHL      0670547002560002560520001300300000000000515      000000                                                                                                                                 170000001         160452641 1787    150439861 1817    140417911 1977    130419381 1937                                                                                                                                                   
680501600310018 00350 1110241Ech. Colmar centre  0690158Ech. Niederhergheim 0750279SRDT FRONHOLZ       0710500006092006092520001300300000000000515      000000                                                                                                                                 170566031 1597    160000001         150000001         140000001    0    130491021 1637    047937   053189   055922   056663   056163   059749   061330   057295   059741   059341   055879   055878                                      
680501500310018 00350 1110241Ech. Niederhergheim 0750279Ech. Meyenheim      0830153SRDT OBERHERGHEIM   0810600007760007760520001300300000000000515      049323 1637    045671   046305   047840   051068   049538   051663   052608   049870   050116   050597   047074                        170492971 1627    160477201 1637    150460541 1677    140000001    0    130444441    0    043098   046443   048613   049583   048649   051571   053444   050461   051446   051483   048100   048515                                      
680501400310018 00350 1110241Ech. Meyenheim      0830153Ech. Ensisheim      0880928SRDT MEYENHEIM      0840600005691005691520001300300000000000515      045348 1667    036236   043660   044817   047849   046150   048259   049109   046375   045991   046335   043413   045952               170457341 1637    160445401 1667    150426551 1707    140000001    0    130000001    0    038763   043277   045227   046410   045302   047800   049540   046848   047344   047526   044415   046215                                      
680501300310018 00350 1110241Ech. Ensisheim      0880928Ech. Croix de la Har1000039SRDT BALDERSHEIM    0970300010885010885520001300300000000000515      048655 1500                                                                                                                            170000001    0    160000001    0    150000001    0    140000001    0    130000001    0                                                                                                                                                   
680501100310018 00350 1810241Ech. Croix de la Har1000039Ech. Rixheim        1040629Rixheim Nord        1030000004570004570680501000300000000000515      000000                                                                                                                                 170000008         160000008         150000008         140553608    0    130541788    0                                                                                                                                                   
680501000310018 00350 1110241Ech. Rixheim        1040629Ech. Bartenheim     1170923SRDT RIXHEIM        1050320013316013316680501000300000000000515      000000                                                                                                                                 170000001         160000001         150000001         140512781    7    130501831    7                                                                                                                                                   
680500920310018 00350 1110241Ech. Aéroport       1220760Ech. Huningue       1240398SRDT HESINGUE       1240200001638001638680501000300000000000515      000000                                                                                                                                 170000001         160000001         150000001         140000001    0    130000001    0                                                                                                                                                   
680500900310018 00350 1110241Ech. Bartenheim     1170923Ech. Aéroport       1220760SRDT BLOTZHEIM      1210750004804004804680501000300000000000515      050305 0600                                                                                                                            170537461 0607    160531091 0667    150521081    7    140517631    7    130000001    0    048528   053077   055175   054995   054870   056269   056573   050268   054275   054744   054218   052049                                      
680500800310018 00350 1110241Ech. Huningue       1240398PFD Saint-Louis     1260000SRDT SAINT_LOUIS    1250380001602001602680501000300000000000515      032040 0600                                                                                                                            170000001    0    160000001    0    150314741    8    140312941    8    130313101    8                                                                                                                                                   
680500700310018 00360 1110241Douane              1180600Frontière           1200542SRDT OTTMARSHEIM    1190840001908001908680501000300000000000515      000000                                                                                                                                 170000001         160166801 3200    150157321 3087    140000001    0    130144341 2647                                                                                                                                                   
680500600310018 00360 1810241Ech. Peugeot        1120170Douane              1180600Ottmarsheim Ouest   1160000006430006430680500700300000000000515      000000                                                                                                                                 170000008         160217668         150205298         140000008    0    130188368    0                                                                                                                                                   
680500500310018 00360 1110241Ech. Croix de la Har1100750Ech. Peugeot        1120170SRDT PEUGEOT        1110300001420001420680500700300000000000515      000000                                                                                                                                 170000001         160000001         150000001         140000001    0    130000001    0                                                                                                                                                   
680500300310018 00360 1150431Ech. Mulhouse centre1050580Ech. Croix de la Har1100750SRDT ILE_NAPOL      1080000005170001247680500700300000000000515      094518 1487    090105   093707   094147   098686   096048   101367   096405   088936   093749   098927   092433   089889               170928521         160960391 1357    150959691 1337    140922801 1337    130913111 1317    086710   093296   097256   094696                     088352   087153   096502   097888   094990   091971                                      
680500200310018 00360 1150431Ech. Mulhouse-Dornac1020042Ech. Mulhouse centre1050580SRDT BOURTZWILLER   1040700003538000000680500700300000000000515      000000                                                                                                                                 170000001         160877081 1367    150889281 1367    140872411 1357    130852971 1367                                                                                                                                                   
680500100310018 00360 1850231Fin concession      1000000Ech. Mulhouse-Dornac1020042Mulhouse Ouest      1010000002042000000680500200300000000000515      000000                                                                                                                                 170000008         160846118         150857888         140841618    0    130822868    0                                                                                                                                                   
680004200310018 00350 1810241Limite Dépt 67      0000000N83                 0010484Ziergel             0010000001484000000680004110367050181030515      000000                                                                                                                                 170000008         160000008         150000008         140000008    0    130000008    0                                                                                                                                                   
680004110310018 00830 3110201Ech. Guémar         0650975Limite A35 (Bergheim0681006SRDT GUEMAR         0660820002875002875680004110300000000000515      000000                                                                                                                                 170000001         160586051 1507    150000001         140000001    0    130518141 1577                                                                                                                                                   
680004000310018 00830 3810201Ech. Ostheim        0620737Ech. Guémar         0650975Guémar Sud          0640500003422003422680004110300000000000515      000000                                                                                                                                 170000008         160566058         150000008         140000008    0    130500468    0                                                                                                                                                   
680003900310018 00830 3110201Limite A35 (Houssen)0580000Ech. Ostheim        0620737SRDT OSTHEIM        0610050004229001000680004110300000000000515      000000                                                                                                                                 170637361 1337    160000001         150000001         140581721 1457    130573481 1487    053694   059285   061404   064536   062429   067149   069197   067005   067148   066151   061646   064937                                      
680001610310018 00660 3110201Ech. Wittelsheim Sud0330026Ech. A36            0370855SRDT LUTTERBACH     0360700004797004797680004110300000000001187      000000                                                                                                                                 170000001         160330001 0600    150321201    7    140340691    7    130333791    7                                                                                                                                                   
680001500310018 00660 4110201Ech. Cernay Sud (D830280811Ech. Wittelsheim Sud0330026SRDT WITTELSHEIM    0320540004450004215680004110300000000001187      000000                                                                                                                                 170000001         160000001         150000001         140000001         130000001                                                                                                                                                        
680001400310018 00660 3110201Thann Est           0230469Ech. Cernay Sud (D830280811SRDT CERNAY         0270870004222004222680004110300000000000515      000000                                                                                                                                 170238561 0777    160240411 0787    150238271    7    140234071    7    130232711    7    021564   023032   024332   024496   025047   026027   023704   023201   024454   024579   023594   022263                                      
680001200310018 00660 4843001Giratoire Thann Fbg.0210217Thann Est (inter D100230469Thann               0210400002256000000680001100300000000000515      000000                                                                                                                                 170000008         160000008         150000008         140000008    0    130000008    0                                                                                                                                                   
680001100310018 00660 4133001Bitschwiller (inter 0190553Giratoire Thann Fbg.0210217SRDT BITSCHWILLER   0200400001628000000680001100300000000000515      000000                                                                                                                                 170000001         160000001         150000001         140000001    0    130000001    0                                                                                                                                                   
680001000310018 00660 4833001Willer-sur-Thur (int0170985Bitschwiller (inter 0190553Willer-Bitschwiller 0180500001600000000680001100300000000000515      000000                                                                                                                                 170000008         160000008         150000008         140000008    0    130000008    0                                                                                                                                                   
680000920310018 00660 4833001Moosch (inter D13bVI0150246Willer-sur-Thur (int0170985Moosch - Willer/Thur0160300002736001000680001100300000000000515      000000                                                                                                                                 170000008         160000008         150000008         140000008    0    130000008    0                                                                                                                                                   
680000910310018 00660 4833001Giratoire St-Amarin 0140222Moosch (inter D13bVI0150246St-Amarin Moosch    0140300001024000000680001100300000000000515      000000                                                                                                                                 170000008         160000008         150000008         140000008    0    130000008    0                                                                                                                                                   
680000905310018 00660 4833001Giratoire St-Amarin 0120127Giratoire St-Amarin 0140222Déviation St-Amarin 0130000002067002067680001100300000000000515      000000                                                                                                                                 170000008         160000008         150000008         140000008    0    130000008    0                                                                                                                                                   
680000900310018 00660 4823001Giratoire Wesserling0100258Giratoire St-Amarin 0120127Ranspach            0100300001863000300680001100300000000000515      000000                                                                                                                                 170000008         160000008         150000008         140101758    0    130000008    0                                                                                                                                                   
680000800310018 00660 4813001Urbès               0070076Giratoire Wesserling0100258Wesserling          0090004003151001911680000700300000000000515      000000                                                                                                                                 170048548         160049738         150049768         140049178    0    130000008    0                                                                                                                                                   
680000700310018 00660 4115001Limite Dépt 88      0000000Sortie d'Urbès      0070076SRDT COL_BUSSANG    0060102006919006902680000700388000320030515      000000                                                                                                                                 170035151 1868    160036011 1868    150036031 1888    140035601 1858    130000001 1608    002678   003175   003223   003721   003677   003887   004097   004225   003692   003628   003132   003014                                      
680000600310018 00590 4813001Giratoire D459      0140730Limite Dépt 67      0180148Bois l'Abbesse      0170000003550003550680000510367000160130515      000000                                                                                                                                 170000008         160117658         150112038         140108668    0    130104628    0                                                                                                                                                   
680000510310018 00590 4113001Début (Ste-Marie-aux0080000Giratoire D459      0140730SRDT LIEPVRE        0130800006705006705680000510300000000000515      000000                                                                                                                                 170000001         160075681 0997    150072061    7    140069891    7    130067291    7                                                                                                                                                   
670507000310018 03400 1810241Début (A4)          0000000Fin (D1340)         0030564Bernolsheim         0010000003568003568000000000000000000000515      000000                                                                                                                                 170000008         160000008         150000008         140000008    0    130000008    0                                                                                                                                                   
670503000310018 00350 1110241Ech. D500           4180174Ech. Goxwiller      4200992SRDT NIEDERNAI      4190000002818002818000000000000000000000515      053481 1577    048175   051244   052171   055231   054388   054921   055706   053873   055496   055340   052048   053080               170537051 1567    160530861 1547    150512391 1557    140499011 1557    130485501 1597    045798   050705   052913   054741   053827   056276   057313   054623   056447   055526   052161   053997                                      
670502000310018 00350 1110241Ech. Hoerdt         2450606Ech. A4             2480580SRDT HOERDT         2470000002963002963000000000000000000000515      000000                                                                                                                                 170000001         160000001         150331591         140331461 1987    130328761 2097                                                                                                                                                   
670501820310018 00350 1810241Ech. Dambach        4350307Ech. Maison Rouge   4380582Selestat Nord       4350000003275003275670501800300000000000515      000000                                                                                                                                 170000008         160000008         150000008         140000008    0    130000008    0                                                                                                                                                   
670501810310018 00350 1810241Ech. N59            4420401Limite Dépt 68      4460737Châtenois           4450000004338004338670501800368000420030515      000000                                                                                                                                 170000008         160000008         150000008         140000008    0    130000008    0                                                                                                                                                   
670501800310018 00350 1110241Ech. Maison Rouge   4380582Ech. N59            4420401SRDT SELESTAT       4400900003818003818670501800300000000000515      000000                                                                                                                                 170000001         160000001         150521791 1567    140515541    0    130507301 1707                                                                                                                                                   
670501700310018 10830 4810201Début (D1083)       0500000A35                 0520498Ebersheim           0520000002551002551          00000000000515      000000                                                                                                                                 170000008         160000008         150000008         140000008    0    130000008    0                                                                                                                                                   
670501610310018 23500 3150231Ech. A35            0000000Fin A350            0010236SRDT HERRENSCHMIDT  0000800001238001238          00000000000515      000000                                                                                                                                 170418651         160409971         150414761    7    140420651    7    130000001    0    039650   041328   043943   041174   043233   043957   038180                     043799   043085   040330                                      
670501510310018 03510 1150231Ech. Centre sportif 0020700Ech. Wolfisheim     0040200SRDT BUGATTI        0030398001490000000          00000000000515      042370         041651   042765   042328   044191   041710   045062   041661   038966   043416   043856   042644   040416               170424211         160423941         150426071         140423751    0    130419171    0    040127   042135   044477   041950   043307   045095   040511   038739   044348   044293   042735   041453                                      
670501500310018 03510 1150231Ech. Wolfisheim     0040200Fin (N4)            0040811SRDT WOLFISHEIM     0040200000611000611          00000000000515      000000                                                                                                                                 170000001         160207321 0627    150205621    7    140205451    7    130213271    7                                                                                                                                                   
670501310310018 03510 1150231Ech. CHU            0010430Ech. Centre sportif 0020700SRDT CENTRALE_THERM 0010870001266000000          00000000000515      055734 0477    055581   057102   056341   057801   054631   058730   053689   050594   056721   058248   056028   053673               170000001         160564641         150572461         140574421    0    130559411    7                                                                                                                                                   
670501300310018 03520 1110241                    0020000Ech. Molsheim       0090850SRDT DUTTLENHEIM    0040500007032007032          00000000000515      000000                                                                                                                                 170000001         160266371         150267971    7    140271351    7    130260991    7                                                                                                                                                   
670501200310018 03510 1150431Ech. A35            0000000Ech. CHU            0010430SRDT CHARMILLE      0000636001429000000          00000000000515      090364 0577    090866   093802   090394   092807   088547   095449   086253   081474   090748   094280   091359   089003               170906011         160905711 0537    150889481    7    140876751    7    130869901    7    088408   092079   096584   091635   091421   092852   084506   080653   093096   094934   091960   089450                                      
670501100310018 00040 4150401Ech. A35            0440000Fin (pl. etoile)    0450522SRDT N4CONT_SUD     0450300001523000000          00000000000515      000000                                                                                                                                 170000001         160000001         150000001         140000001    0    130637591    7                                                                                                                                                   
670501020310018 00350 1110241                    3130500                    3150000SRDT GEISPO_VILLAGE 3140180001988001988          00000000000515      000000                                                                                                                                 170000001         160748761 1207    150731781 1187    140719471 1187    130000001    0                                                                                                                                                   
670501010310018 00350 1110241Ech. Geispolsheim   3120200                    3130500SRDT ECH_GEISPO     3120700001294001294          00000000000515      000000                                                                                                                                 170000001         160749691 1237    150733161         140718811 1227    130707281 1237                                                                                                                                                   
670500900310018 00350 1110241Ech. Vigie          3100000Ech. Geispolsheim   3120200SRDT GENS_VOYAGE    3100200002176002176          00000000000515      000000                                                                                                                                 170000001         160830711 1187    150817181 1167    140804151 1177    130792421 1207                                                                                                                                                   
670500810310018 00350 1150431                    3080000Ech. Vigie          3100000SRDT AIRE_SERVICE   3080350002004000000          00000000000515      118000 0900                                                                                                                            171182231 0907    161193551 0907    151194271    7    141175961    7    130000001    0    110434   118130   121632   118982   118115   122106   117242   114955   121373   121622   117206   117088                                      
670500800310018 00350 1140431Ech. Baggersee      3060780                    3080000SRDT OSTWALD        3080000001213000000          00000000000515      000000                                                                                                                                 171204481         161220261 1027    151209911 1017    141191361 1017    131187221 1077    112255   120150   123732   121194   120291   124595   119783   117221   123758   124130   119100   119353                                      
670500720310018 00350 1150441                    3060000Ech. Baggersee      3060780SRDT BAGGERSEE      3060000000780000000          00000000000515      000000                                                                                                                                 171283721 0577    161229791 0687    151183071    7    141165901    7    130000001    0    120393   128373   132285   128990   128571   133125   127303   124787   132720   132285   127778   124143                                      
670500710310018 00350 1150431                    3050000                    3060000SRDT PLAINE_BOUCHERS3050100001008000000          00000000000515      129631 0987    124359   129908   129024   132716   128974   135015   130919   123834   133274   135670   126291   125892               171299201 0977    161314681 0947    151311821    7    141300591    7    130000001    0    121699   129740   133819   130127   129848   134512   128379   125763   134277   133844   129662   127640                                      
670500700310018 00350 1150431Ech. Porte Schirmeck3030950                    3050000SRDT ELSAU          3040150001053000000          00000000000515      130250 1537    125451   131052   129039   133679   129921   134156   131605   124292   133894   135853   127380   127021               171307791 1537    161291061 1387    151316111 1287    141308021 1297    131282651 1297    122772   130718   133882   131137   130789   135505   129380   126637   135164   134707   130273   128668                                      
670500600310018 00350 1150631Ech. Porte Blanche (3020200Ech. Porte Schirmeck3030950SRDT PTE_SCHIRMECK  3030200001761000000          00000000000515      139785         151955   157502   157666   162790   159380   167112   129157   115058   121214   124048   119216   114397               171546441 0907    161565101 0897    151555471    7    141544721    7    131460631    7    147853   157370            157186   158258   164236   149636   141828   157620   162680   156920   148322                                      
670500500310018 00350 1150631Ech. Cronenbourg (A33000900Ech. Porte Blanche (3020200SRDT CRONENBOURG    3010500001285000000          00000000000515      000000                                                                                                                                 170000001         161650251 0857    151628471    7    141621561    7    131592331    7                                                                                                                                                   
670500400310018 00350 1150431Fin A4              3000000Ech. Cronenbourg (A33000900SRDT PLACE_HAGUENAU 3000324000900000000          00000000000515      099226 1237    095889   098787   099269   101925   098211   103744   101276   097012   101321   103762   095016   094628               170983871 1227    160992091 1207    151000111 1187    140973431 1207    130946081 1277    091861   098780   101935   099454   099121   102460   097296   094741   101092   101161   097619   095397                                      
670500320310018 00040 1150431                    0060000Fin A4 (A35)        0061012SRDT SCHILTIGHEIM   0060650001012000000          00000000000515      123642         119636   124212   123435   127137   122797   130158   125007   118560   126634   128501   119644   118324               171231521 1047    161240651 1007    151230471    7    141216611 1017    130000001    0    115749   123938   128310   123624   123546   127943   119951   115980   126917   126927   124168   121169                                      
670500310310018 00040 1150431Ech. Bischheim      0050000                    0060000SRDT BISCHHEIM      0050910001009000000          00000000000515      000000                                                                                                                                 171139931         161142411 1077    150000001         140000001    0    131110461 1087    107942   114744   118334   114727   115070   118789   111703   105507   116831   116625                                                        
670500210310018 00040 1150431                    0030000Ech. Hoenheim       0040200SRDT GARE_TRIAGE    0030700001207000000          00000000000515      102477 1197    097863   101681   101073   104876   101675   108571   105693   100475   105226   106906   097937   097889               171024241         161021961 1167    151013701 1157    141002071 1157    130000001    0    094229   101043   104257   100927   100913   106556   103251   099955   106657   107956   102278   101155                                      
670500200310018 00040 1150431Fin concession (Reic0000000                    0030000SRDT SOUFFEL        0020550002364000000          00000000000515      108405 1247    103575   107460   105870   110860   107364   115060   112716   105980   111233   113138   104080   103678               171079161 1217    161079221 1197    151070771 1177    141055941 1197    131051511 1227    099668   106801   109424   106775   106784   112251   108226   104611   111927   113477   108630   106569                                      
670500100310018 00040 1150431Ech. Hoenheim       0040200Ech. Bischheim      0050000SRDT HOENHEIM       0040500000813000000          00000000000515      097924         093560   096792   096335   100070   096867   102946   100523   095925   100471   101967   096331   093445               170982111         160980801 1167    150970241 1157    140960361 1177    130955861 1197    089997   096610   099591   096882   096715   102073   099335   096331   102569   103572   098260   096673                                      
670353400310018 03530 4113001Ech. Rocade Est     0080050Frontière           0080819SRDT PFLIMLIN       0080100000769000769          00000000000515      000000                                                                                                                                 170149431 1407    160137321         150000001         140000001    0    130126221 1557    010585   012959   013534   014800   014976   018005   019032   016999   014224   014198                                                        
670353300310018 03530 4110201Ech. D468           0050800Ech. Rocade Est     0080050SRDT N353EST        0060400002254002254          00000000000515      000000                                                                                                                                 170194301         160227461 2087    150228751 2077    140000001    0    130224521 2207    018305   019065   018896   018827   018904   020322   019735   019564   019775   020889                                                        
670353200310018 03530 4110201                    0050000Ech. D468           0050800SRDT N353CENTRE     0050260000800000800          00000000000515      000000                                                                                                                                 170000001         160241801 2000    150236751 1977    140000001    0    130000001    0                                                                                                                                                   
670353100310018 03530 4110201Début               0030000                    0050000SRDT N353OUEST      0040810002000002000          00000000000515      000000                                                                                                                                 170000001         160000001         150000001         140000001    0    130000001    0                                                                                                                                                   
670350800310018 00350 1110231                    3150000Ech. Duppigheim     3160767SRDT DUPPIGHEIM_NORD3160600001754001754          00000000000515      069635         064753   068411   068787   074178   070143   071257   071330   068102   071692   071827   066775   068409               170699221         160704921         150685461         140677111    0    130000001    0    062499   068697   070965   071474   069792   072129   071689   070021   072468   072006   068033   069319                                      
670350700310018 00350 1110231Ech. Duppigheim     3160767Début VRPV          3190000SRDT DUPPIGHEIM_SUD 3170180002024002024          00000000000515      069250         064517   068177   068722   072416                     070647   068520   071971   071957   067254   068341               170699591 1217    160702571 1187    150684591 1177    140674481 1177    130000001    0    062204   068268   070792   071379   069838   072867   071821   070010   072601   072211   068137   069384                                      
670350500310018 00350 1110241Début VRPV (A35/A3523190000Ech. Innenheim      4110694SRDT INNENHEIM_NORD 3210630003476003476          00000000000515      043221         039307   041817   042587   044768   043898            045181   043959   044658   044007   041737   043427               170435101         160436371 1447    150422351 1437    140411241 1427    130402821 1487    037770   041799   043232   044829   043194   044536   045715   045263   045267   044564   041695   044157                                      
670350400310018 00350 1110241Ech. Innenheim      4110694Ech. D500           4180174SRDT INNENHEIM_SUD  4120000006440006440          00000000000515      046126         042134   044676   045420   047728   046714            047578   046315   047793   047444   045167   046354               170463371         160464161 1407    150446651 1407    140432981 1417    130422871 1457    040189   044364   046222   047530   046042   047159   048052   047673   048540   047939   045020   047208                                      
670350200310018 00350 1110241Ech. Zellwiller     4250400Ech. Dambach        4350307SRDT SAINT_PIERRE   4260800010390010390          00000000000515      046000 1400                                                                                                                            170461491 1407    160417001 1500    150429921 1497    140419251 1527    130000001    0    038562   043178   044633   047167   044906   048160   050673   047979   048457   047526   044236   048142                                      
670350100310018 00350 1110241Ech. Goxwiller      4200992Ech. Zellwiller     4250400SRDT GERTWILLER     4230200004392004392          00000000000515      051043 1387    045918   048942   049631   052689   052136   052678   053431   052874            052411   049306   051304               170511501 1387    160497461 1417    150481251 1417    140000001    0    130000001    0    043182   047955   049917   051236   051070   053524   054617   052932   054065   053076   049641   052402                                      
670005100310018 00350 1810241Début A35           2020000Ech. Forstfeld      2160035Forstfeld           2140000005028005028670005000300000000000515      000000                                                                                                                                 170000008         160000008         150000008         140000008    0    130000008    0                                                                                                                                                   
670005000310018 00350 1110241Ech. Forstfeld      2160035Ech. Rountzenheim   2210562SRDT LEUTENHEIM     2180700005502005502670005000300000000000515      000000                                                                                                                                 170000001         160245001 2200    150241951 2207    140232721 2237    130229121 2207                                                                                                                                                   
670004900310018 00350 1810241Ech. Rountzenheim   2210562Ech. Rohrwiller     2320167Sessenheim          2230000010568010568670005000300000000000515      000000                                                                                                                                 170000008         160170758         150168638         140162208    0    130159708    0                                                                                                                                                   
670004701310018 00350 1810241Ech. Rohrwiller     2320167Ech. Offendorf      2360418Herrlisheim Ouest   2340000004237004237670005000300000000000515      000000                                                                                                                                 170000008         160000008         150000008         140000008    0    130000008    0                                                                                                                                                   
670004600310018 00350 1810241Ech. Offendorf      2360418Ech. Hoerdt         2450606Kilstett            2400000009152009152670502000300000000000515      000000                                                                                                                                 170000008         160000008         150255458         140255358    0    130253278    0                                                                                                                                                   
670004310310018 00830 4110401Début (D1083)       0390000Ech. D222           0400650SRDT ELISA          0400000000782000782670502000300000000000515      049948         047493   048545   048565   051458   049922   053564   051483   051162   051467            049112   046708               170000001         160490031         150485181 1207    140000001    0    130000001    0                                                                                                                                                   
670004300310018 00830 4150401Ech. D222           0400650Ech. Vigie          0420387SRDT ROND_POINT     0410500001727001727670502000300000000000515      000000                                                                                                                                 170612741 0987    160617611 0977    150614601    7    140603571    7    130605301 1017    056647   061095   063488   061440   061571   063897   060763   058437   062996   063700   061710   059685                                      
670001700310018 00590 4833001Giratoire D424      0040115Giratoire D1059     0060973Châtenois           0050500002890000000680000510300000000000515      000000                                                                                                                                 170000008         160000008         150000008         140000008    0    130000008    0                                                                                                                                                   
670001601310018 00590 4813001Limite dépt 68      0000000Giratoire D424      0040115La Vancelle         0000250004095004095680000510368000051030515      000000                                                                                                                                 170000008         160000008         150000008         140000008    0    130000008    0                                                                                                                                                   
670001100310018 00040 4815001Intersection D228   0360551Ech. A351           0380315Wolfisheim Ouest    0370000001759001759670501500300000000000515      000000                                                                                                                                 170000008         160249128         150247088         140246888    0    130256288    0                                                                                                                                                   
670001000310018 00040 4815001Début (Ittenheim)   0330000Intersection D228   0360551Ittenheim           0350000003609003049670501500300000000000515      000000                                                                                                                                 170000008         160211748         150210018         140209848    0    130217838    0                                                                                                                                                   
570502800310018 00300 1110241Ech. Fontoy         0170847Limité Dépt 54      0260429SRDT AUMETZ         0220260008402008402670501500354000381030515      026530 1007    024620   025508   026799   026702   026157   027834   025291   025082   027998   029132   028372   024923               170256561 1517    160243641 1467    150231041         140223441    0    130211501 1387    022891   025223   026920   026117   025640   027815   025232   023060   027701   027074   026501   023834                                      
570502710310018 00300 1810241                    0120000Ech. Fontoy         0170847Tunnel              0130000005847005847570502700300000000000515      000000                                                                                                                                 170000008         160000008         150000008         140000008    0    130000008    0                                                                                                                                                   
570502700310018 00300 1110241Ech. Hayange Ouest  0100580                    0120000SRDT HAYANGE        0110380001420001420570502700300000000000515      023690 1607    022039   023103   023543   023686   023789   025430   024014   021743   024667   025667   024841   021827               170226781 1567    160222001 1537    150000001         140207401 1667    130197511 1597    020641   022351   023735   022732   023092   024631   022128   020815   024082   023625   023357   021039                                      
570502600310018 00300 1810241Ech. Hayange Est    0080234Ech. Hayange Ouest  0100580Hayange             0100000002340002340570502700300000000000515      033804                                                                                                                                 170323608         160316788         150000008         140295958    0    130281848    0                                                                                                                                                   
570502500310018 00300 1810241Ech. Fameck centre  0060007Ech. Hayange Est    0080234Sérémange           0070000002233002233570502700300000000000515      049870                                                                                                                                 170477408         160467348         150000008         140436618    0    130415798    0                                                                                                                                                   
570502400310018 00300 1810241Ech. VR52           0040800Ech. Fameck centre  0060007Rémélange           0050500001348001348570502300300000000000515      032707                                                                                                                                 170315198         160304508         150297798         140287868    0    130273998    0                                                                                                                                                   
570502300310018 00300 1110241Ech. Uckange        0000934Ech. VR52           0040800SRDT UCKANGE        0010000003771003771570502300300000000000515      037661 1247    035466   037061   037366   038578   037766   040331   037289   034391   039250   040629   038736   035215               170362921 1217    160350611 1137    150342881 1097    140331441 1117    130315461 1277    033705   035781   037741   036191   036928   038846   034960   032738   038745   038192   037207   034607                                      
570502200310018 00300 1810241Bifurcation A31     0000000Ech. Uckange        0000934Richemont           0000500000934000934570502300300000000000515      000000                                                                                                                                 170000008         160000008         150000008         140000008    0    130000008    0                                                                                                                                                   
570502100310018 03200 1110241Ech. Stiring-Wendel 0120100Frontière           0130635SRDT SPICHEREN      0130600001550001550570502300300000000000515      020546 1777    018856   018461   019762   021129            020187   022472   022378   021511   021165   019334                        170000001         160179971 1337    150198671 1457    140196801 1397    130189001 1387                                                                                                                                                   
570502000310018 03200 1810241Ech. Forbach centre 0090500Ech. Stiring-Wendel 0120100Stiring             0110000002594002594570502100300000000000515      000000                                                                                                                                 170000008         160000008         150000008         140000008    0    130000008    0                                                                                                                                                   
570501900310018 03200 1110241Ech. Forbach Ouest  0060500Ech. Forbach centre 0090500SRDT FORBACH        0070000002994002994570502100300000000000515      045110 0977    042747   043457   044941   046803   045539   046872   045816   044125   046996   047512   044381   042116               170000001         160437001 0700    150417271    7    140414141    0    130000001    0                                                                                                                                                   
570501700310018 03200 1810241Ech. Rosbruck       0030200Ech. Forbach Ouest  0060500Rosbruck            0050200003301003301570501600300000000000515      035821                                                                                                                                 170353238         160351188         150365988         140000008    0    130000008    0                                                                                                                                                   
570501600310018 03200 1130241A4                  0000000Ech. Rosbruck       0030200SRDT ROSBRUCK2      0030070002909000000570501600300000000000515      032547         030652   031376   032366   033988   032425   034015   033909   032350   033938   034150   031838   029570               170320941         160319071 0977    150332511 1027    140000001    0    130000001    0    029503   030939   032863   032904   032703            032547   032598            032725   031728   031040                                      
570501560310018 00310 1110241Ech. Kanfen         3440525Frontière (Zoufftgen3480987SRDT ZOUFFTGEN      3480120004471004471570501600300000000000515      061891 1157    056068   059250   059525   060397   060469   064060   071482   072389   063381   061059   057429   056858               170605261 1157    160606161 0957    150584031 1167    140000001    0    130528931    0    053550   057081   059670   060731   057542   061717   070883   072465   062572   058589   055564   055574                                      
570501400310018 00310 1110241Ech. Elange         3360725Ech. Kanfen         3440525SRDT KANFEN         3400560007909007909570501600300000000000515      068390 1147    061897   065426   065648   067605   067772   071245   077393   077549   070266   068115   064440   063040               170656021 1187    160597491 1247    150609571 1267    140615731 1227    130621431 1307    057329   062004   063434   066459   062730   068375   074842   076483   068607   064439   061306   060950                                      
570501350310018 00310 1110241Ech. Bétange        3340848Ech. Elange         3360725SRDT VEYMERANGE     3350960001877001877570501600300000000000515      071145 1137    064016   067651   067775   071323   071067   074539   079967   079793   073359   071340   067140   065487               170687211 1157    160654561 1197    150644061 1267    140642501 1267    130000001    0    059789   064852   067727   069856   066552   072545   077257   078882   071866   067800   064146   063120                                      
570501320310018 00310 1150231Ech. Beauregard     3310452Ech. Bétange        3340848SRDT LINKLING       3320020003396000000570501600300000000000515      073300 0957    067487   070482   070356   072331   072859   077214   079187   078553   075599   074282   071457   069627               170725341 0977    160718881 0997    150711561 1057    140709531 1057    130000001    0    065749   069623   072044   073216   071593   076925   079193   078594   074541   071750   068886   068116                                      
570501300310018 00310 1150231Ech. Thionville cent3290967Ech. Beauregard     3310452SRDT BEAUREGARD     3300700001483000000570501600300000000000515      000000                                                                                                                                 170000001         160830081 0997    150795211         140798991 1067    130676951 1067                                                                                                                                                   
570501232310018 00310 1810241Ech. Yutz Est       3280618Ech. Thionville cent3290967Yutz R2             3290350001347001347570501200300000000000515      000000                                                                                                                                 170000008         160000008         150000008         140000008    0    130000008    0                                                                                                                                                   
570501201310018 00310 1110241Bifurcation A30     3230000Ech. Guénange       3240800SRDT RICHEMONT 2    3240040001801001801570501200300000000000515      069654 1167    062875   066934   066731   070848   069577   073307   077821   076007   071417   069712   066202   064262               170685971         160676951 1187    150653571 1217    140641311 1277    130000001    0    060055   065287   067807   069889   066630   071438   077058   076919   070719   068369   064733   064007                                      
570501200310018 00310 1110241Ech. Guénange       3240800Ech. Yutz Est       3280618SRDT GUENANGE       3250770003809003809570501200300000000000515      083873 1077             079548   079584   084297   083291   088771   092033   088492   085247   084075   079828   077108               170825331 1087    160811011 1087    150751561 1157    140768211 1167    130410961 1197    072613   078135   081664   082966   080107   086616   090258   089333   085840   081903   078106                                               
570501000310018 00310 1110441Ech. Mondelange     3200250Bifurcation A30     3230000SRDT RICHEMONT      3210450002741002741570501200300000000000515      103369 1207    094258   099249   099710   105554   104462   110900   113370   106626   105688   106129   100133   094237               171018091 1177    161004731 1187    150986601 1207    140971051 1217    130000001    0    091397   097738   102252   102632   101438   108952   110183   106618   105467   102747   098436   093723                                      
570500920310018 00310 1110441Ech. Talange        3170895Ech. Mondelange     3200250SRDT HAGONDANGE     3190090002330002330570501200300000000000515      107302 1257    098395   103856   103695   109963   106902   113229   114466   110361   110804   110671   104916   100338               171053751 1237    161032851 1227    151010991 1267    140000001    0    130944031    0    094378   101002   104331   106051   103469   111829   113669   110539   110631   107039   102181   099246                                      
570500900310018 00310 1110341Ech. Maizières      3150122Ech. Talange        3170895SRDT MAIZIERES      3160350002782002782570501200300000000000515      107888 1147    099240   103765   104457   109934   107796   114982   116583   110699   110879   110576   105086   100565               171057271 1127    161040431 1127    151013861 1147    140992811 1167    130961741 1197    094682   101301   106069   106429   103433   111762   113694   110453   111045   107533   102630   099548                                      
570500801310018 00310 1110441Croix Hauconcourt   3130292Ech. Maizières      3150122SRDT HAUCONCOURT    3130300001848001848570501200300000000000515      067805 1100                                                                                                                            170671301 1107    160663431 1137    150000001    0    140000001    0    131046341    0    060558   064173   066925   067353   065630   071603   073709   071701   070166   067046   064427   062146                                      
570500730310018 00310 1150431Ech. La Maxe        3070673Croix Hauconcourt   3130292SRDT ST_REMY        3110400005639000000570501200300000000000515      086428 1097    081706   085519            088742   087285   093239   095124   089850   075651            085000   081737               170873501 1117    160866021 1087    150853551 1107    140842951 1047    130000001    0    079421   084047   087404   087327   085457   092974   094010   090663   091060   087936   084845   082953                                      
570500600310018 00310 1150431Ech. Metz Nord      3050601Ech. La Maxe        3070673SRDT LA_MAXE        3070750002078000000570501200300000000000515      080942 1127    074147   078062   078236   082624   080329   085418   089542   083920   083385   082222   078124   075193               170799261 1117    160000001         150743911 1197    140000001    0    130000001    0    071445   075450   077697   079915   077768   084606   088822   085416   083855   080739   077323   075837                                      
570500500310018 00310 1850431Ech. Metz centre    3030011Ech. Metz Nord      3050601Metz centre         3040280002672000000          00000000000515      000000                                                                                                                                 170000008         160000008         150000008         140000008    0    130000008    0                                                                                                                                                   
570500400310018 00310 1150431Ech. Moulins        2990142Ech. Metz centre    3030011SRDT METZ_SUD       3010410003827000000          00000000000515      000000                                                                                                                                 170000001         160772851 1187    150759021 1197    140738481 1227    130720561 1237                                                                                                                                                   
570500300310018 00310 1150431Ech. Jouy           2970000Ech. Moulins        2990142SRDT JOUY           2970020002124000000          00000000000515      070373 1307    064245   066538   067444   071246   069703   074532   078505   075646   072417   071088   066983   065874               170714661 1287    160690911 1237    150672971 1297    140653961 1267    130643761 1387    061682   066415   071956   074891   072370   077796   078409   076931   073716   070414   066470   066282                                      
570500200310018 00310 1110241Ech. Féy            2920000Ech. Jouy           2970000SRDT AUGNY          2940440005723005723          00000000000515      055368 1707    049483   052623   052819   056016   054738   058716   063991   061028   057382   055349   051682   050397               170550721 1657    160540401 1627    150528251 1637    140513611 1667    130503091 1667    047528   051600   053125   055745   053415   058333   063798   062388   057814   055022   051008   050841                                      
570500100310018 00310 1110241Limite Dépt 54      2840000Ech. Féy            2920000SRDT FEY            2900770007987007987          54050100030515      000000                                                                                                                                 170000001         160581181 1747    150568701 1777    140556461 1797    130000001    0                                                                                                                                                   
570220200310018 00040 3110201Ech. Sarrebourg Oues0180100Ech. Sarrebourg Est 0231050SRDT SARREBOURG     0200000006788006788          00000000000515      000000                                                                                                                                 170000001         160000001         150000001         140202261    0    130202071    0                                                                                                                                                   
570010403310018 04310 3110201Ech. Magny (D913)   0080400Ech. Féy (A31)      0140700SRDT MARLY          0100000006500006500          00000000000515      026430 0847    025240   026251   025786   027271   025962   029454   025140   023888   027502   028865   027146   024809               170259311 0947    160253081 0927    150246221    7    140237541    7    130233731    7    024442   025216   027126   025744   026070   027792   024386   023262   027808   027768   026864   024777                                      
570010401310018 04310 3110201Ech. Metz FIM (D999)0020900Ech. Magny (D913)   0080400SRDT GRIGY          0030550005500005500          00000000000515      000000                                                                                                                                 170229681         160226081 1017    150220581 1097    140215881 1077    130000001    0    021645   022429   024009   023196   022947   024433   021143   021190   024702   024279   023648   022078                                      
570010300310018 04310 3150201début (éch. D603)   0000000Ech. Metz FIM (D999)0020900SRDT BORNY          0020200002754000000          00000000000515      043702         043358   043446   042343   042591   044372   046335   041135   039886   045899   047746                                 170442671         160436801 0827    150428361    7    140417261    7    130341171    7    041089   043075   045869   043951   046005   047127   041827   040187   047350   047443   045397   041981                                      
570007500310018 00610 4133001Fin 2x2             0300750Frontière           0351503SRDT GROSBLIED      0350000005133002510          00000000000515      006580 0177    006022   006147   006427   006881   006982   007047   006629   006804   006778   006726   006390   006104               170064531         160064661 0177    150067411    7    140000001    0    130000001    0    005768   006148            006542   006749                     006494            006441   006390   006169                                      
570007401310018 00610 4110201Ech. D99            0210550Fin 2x2             0300750SRDT SARREGUEMINES  0250400007249007249          00000000000515      019754         017114   018131   019364   022689   021684   023251   020566   019179   019594   019733   018354   017387               170182981         160179251         150000001         140174241    7    130170331    7    016011   017215   018227   018508   018391   019844   018128   018406   019604   019419   018583   017244                                      
570007300310018 00610 4110201Giratoire D674      0190839Ech. D99            0210550SRDT WOUSTWILLER    0200920002083002083          00000000000515      022284 0767    020997   021757   021808   022780   022675   024209   022679   021734   022904   023420   021909   020569               170224351 0707    160224921 0687    150223761         140219551    7    130000001    0    020700   021762   022861   022544   022686   024628   022385   021987   023136   023065   022409   021084                                      
570007200310018 00610 4113001Ech. A4             0160000Giratoire D674      0190839SRDT HAMBACH        0170970003681003681          00000000000515      013876         012776   013204   013683   014359   014141   015310   014199   013266   014560   014909   013674   012448               170135641         160135321 0767    150000001         140000001    0    130000001    0    012386   013297   013985   013888   013685   014797   013499   013481            014147   013316   012737                                      
570004300310018 00520 4810201Giratoire D9 - D10  0160000Ech. A30            0180600Fameck              0170300002600002600          00000000000515      000000                                                                                                                                 170000008         160000008         150000008         140000008    0    130000008    0                                                                                                                                                   
570004200310018 00520 4840201Ech. D9             0120350Giratoire D9 - D10  0160000Clouange            0130500003649001000          00000000000515      000000                                                                                                                                 170000008         160000008         150000008         140000008    0    130000008    0                                                                                                                                                   
570004100310018 00520 4840201Gir. Cité Leclerc   0110156Ech. D9             0120350Rombas centre       0120300001358000000          00000000000515      000000                                                                                                                                 170000008         160000008         150000008         140000008    0    130000008    0                                                                                                                                                   
570004000310018 00520 4843001Giratoire D181      0100400Gir. Cité Leclerc   0110156Rombas Sud          0110000000783000000          00000000000515      000000                                                                                                                                 170000008         160000008         150000008         140000008    0    130000008    0                                                                                                                                                   
570003900310018 00520 4813001Ech. A4             0060000Giratoire D181      0100400Pierrevillers       0090750004242004242          00000000000515      000000                                                                                                                                 170000008         160000008         150000008         140000008    0    130000008    0                                                                                                                                                   
570003100310018 00330 4110201Giratoire Creutzwald0110200Frontière           0150590SRDT CREUTZWALD_CONT0110310004600004600          00000000000515      008039         006868   007493   007972   008630   008688   009042   008553   008276   008264   008302   007732   006644               170074751         160073971 1777    150067551         140064041    0    130000001    0    006388   007195   007480   007560   007815   008300   007619   007799            007816   007264   006979                                      
570003010310018 00330 4813001Ech. Carling        0070090Giratoire Creutzwald0110200Carling Nord        0100000004113004113570003100300000000000515      000000                                                                                                                                 170000008         160000008         150000008         140000008    0    130000008    0                                                                                                                                                   
570003000310018 00330 4850201Ech. A4             0050703Fin 2x2             0070090Carling             0070000001335000000570003100300000000000515      000000                                                                                                                                 170000008         160000008         150000008         140000008    0    130000008    0                                                                                                                                                   
570002900310018 00330 4850201Début               0040000Giratoire ZI Nord   0050703Cité Huchet         0040000000900000000570003100300000000000515      000000                                                                                                                                 170000008         160000008         150000008         140000008    0    130000008    0                                                                                                                                                   
570002500310018 00040 3110201Ech. Sarrebourg Est 0231050Ech. A4             0320882SRDT BROUVILLER     0270000008470008470570003100300000000000515      020994 2047    019556   020112   020678   022124   021772   023039   021206   020117   021397   021997   020543   019411               170000001         160202651 1900    150202211 1927    140195941    0    130000001    0                                                                                                                                                   
570002101310018 00040 3110201Ech. Héming         0100375Ech. Sarrebourg Oues0180100SRDT BEBING         0160000007064007064570003100300000000000515      000000                                                                                                                                 170000001         160134501 2700    150136941    0    140135861 2637    130000001    0                                                                                                                                                   
570002000310018 00040 4113001Limite Dépt 54      0000000Ech. Héming         0100375SRDT IBIGNY         0020350010507010507570003100300000000000515      010149         009203   009616   010047   010738   010482   010960   010754   010265   010378   010587   009779   008972               170000001         160101001 2900    150099771    0    140098261 3177    130000001    0                                                                                                                                                   
550002400310018 11350 4113001Giratoire D1916     0000000Giratoire N135      0050877SRDT LONGEVILLE_BAR 0050030005877002527570003100300000000000515      006214 1047    005892   006137   006315   006362   006321   006716   006040   005645   006381   006444   006292   006043               170062311 1117    160061851         150060851 1017    140059141    0    130000001    0    005874   006212   006593   006237   006243   006739   005815   005601   006504   006437   006337   006203                                      
550002101310018 01350 4843001Ech. Ligny          0140290Fin (N4)            0151249Ligny centre        0150000002447000000          00000000000515      000000                                                                                                                                 170000008         160000008         150000008         140000008    0    130000008    0                                                                                                                                                   
550002100310018 01350 4113001Giratoire N1135     0050000Ech. Ligny          0140290SRDT TANNOIS        0060200008792005463          00000000000515      000000                                                                                                                                 170000001         160102861         150104721 1057    140103071 1067    130100401 1057                                                                                                                                                   
