090000300310018 00200 4813 51RD 624              0150000PAMIERS A 66        0180000LE VERNET D'AR.     01500000022890022890900004023000       0187      000000                                                                                                                                 170000008         160000008         150000008         140000008         130000008                                                                                                                                                        
090000402310018 00200 411 251PAMIERS A 66        0180000RD 119              0210444PAMIERS             01902900034440034440900004023000       0187      024991  607    023172   024618   025413   025060   024163   026151   026551   026441   026274   026214   022904   022911               170243681  567    160237091    7    150232251    7    140225171    7    130219121    7    021503   025521   024299   024289   023702   024776   025702   025261   025124   025699   023408   023248                                      
090000402210018 00200 411 251PAMIERS A 66        0180000RD 119              0210444PAMIERS             01902900034440034440900004023000       0187      012230  617    011501   011794   012424   012344   011874   012722   012905   013030   012992   012860   011273   011011               170119281  577    160116471    7    150114001    7    140110791    7    130107481    7    010631   012355   011922   011898   011531   012159   012537   012593   012346   012620   011417   011172                                      
090000402110018 00200 411 251PAMIERS A 66        0180000RD 119              0210444PAMIERS             01902900034440034440900004023000       0187      012761  597    011671   012824   012989   012716   012289   013429   013646   013411   013282   013354   011631   011900               170124401  537    160120621    7    150118251    7    140114381    7    130111641    7    010872   013166   012377   012391   012171   012617   013165   012668   012778   013079   011991   012076                                      
090000501310018 00200 481 251RD 119              0210444RD 12               0241071ENTRE D12 ET D119   02309000036290036290900004023000       0187      000000                                                                                                                                 170248048         160000008         150000008         140000008         130223058                                                                                                                                                        
090000501210018 00200 481 251RD 119              0210444RD 12               0241071ENTRE D12 ET D119   02309000036290036290900004023000       0187      000000                                                                                                                                 170122058         160000008         150000008         140000008         130109758                                                                                                                                                        
090000501110018 00200 481 251RD 119              0210444RD 12               0241071ENTRE D12 ET D119   02309000036290036290900004023000       0187      000000                                                                                                                                 170125998         160000008         150000008         140000008         130113308                                                                                                                                                        
090000601310018 00200 481 251RD 12               0241071RD 13               0290000VARILHES DEV NORD   02602000044630044630900004023000       0187      000000                                                                                                                                 170256358         160000008         150000008         140000008         130230538                                                                                                                                                        
090000601210018 00200 481 251RD 12               0241071RD 13               0290000VARILHES DEV NORD   02602000044630044630900004023000       0187      000000                                                                                                                                 170128978         160000008         150000008         140000008         130115988                                                                                                                                                        
090000601110018 00200 481 251RD 12               0241071RD 13               0290000VARILHES DEV NORD   02602000044630044630900004023000       0187      000000                                                                                                                                 170127388         160000008         150000008         140000008         130114558                                                                                                                                                        
090000604310018 00200 481 251RD 13               0290000FOIX NORD           0340900GARRIGOU            02908000057790057790900004023000       0190      000000                                                                                                                                 170269958         160000008         150000008         140000008         130242758                                                                                                                                                        
090000604210018 00200 481 251RD 13               0290000FOIX NORD           0340900GARRIGOU            02908000057790057790900004023000       0190      000000                                                                                                                                 170135088         160000008         150000008         140000008         130121478                                                                                                                                                        
090000604110018 00200 481 251RD 13               0290000FOIX NORD           0340900GARRIGOU            02908000057790057790900004023000       0190      000000                                                                                                                                 170134878         160000008         150000008         140000008         130121288                                                                                                                                                        
090000801310018 00200 4113251FOIX NORD           0340900FOIX SUD            0391127FOIX TUNNEL         03903400047270047270900010013000       0102      016415  588    014941   016354   016720   016664   016240   017127   018750   019762   017865   017530   013448   011552               170165951  788    160162031    8    150160881    7    140159571    7    130152151    7    013320   017608   015936   016531   016205   016461   018784   019987   017001   017306   015249   014814                                      
090000801210018 00200 4113251FOIX NORD           0340900FOIX SUD            0391127FOIX TUNNEL         03903400047270047270900010013000       0102      008152  548    007616   007988   008322   008318   008126   008456   009231   009896   008916   008642   006680   005609               170082581 1008    160081011    8    150080211    7    140079491    7    130075761    7    006697   008621   007957   008214   008097   008194   009229   010146   008481   008593   007691   007200                                      
090000801110018 00200 4113251FOIX NORD           0340900FOIX SUD            0391127FOIX TUNNEL         03903400047270047270900010013000       0102      008263  618    007325   008366   008398   008346   008114   008671   009519   009866   008949   008888   006768   005943               170083371  328    160081021    8    150080671    7    140080081    7    130076391    7    006623   008987   007979   008317   008108   008267   009555   009841   008520   008713   007558   007614                                      
090000901310018 00200 411 251FOIX SUD            0391127RD 117              0430500MONTGAILLARD        04106240035550035550900010013000       0102      020489  628    018245   019471   020288   020346   019940   021528   023263   025333   021981   020771   017269   017318               170205011  358    160201551    8    150199111    8    140195181    8    130188741    8    016674   020715   019989   020302   019992   020920   023404   025359   021039   020964   018400   018222                                      
090000901210018 00200 411 251FOIX SUD            0391127RD 117              0430500MONTGAILLARD        04106240035550035550900010013000       0102      010291  628    009337   009729   010255   010272   010034   010685   011561   012814   011054   010480   008646   008558               170103101  348    160101321    8    150100001    8    140097941    8    130094571    8    008642   010149   010085   010134   010231   010486   011645   012842   010568   010549   009357   008990                                      
090000901110018 00200 411 251FOIX SUD            0391127RD 117              0430500MONTGAILLARD        04106240035550035550900010013000       0102      010198  628    008908   009742   010033   010074   009906   010843   011702   012519   010927   010291   008623   008760               170101911  368    160100231    8    150099111    8    140097241    8    130094171    8    008032   010566   009904   010168   009761   010434   011759   012517   010471   010415   009043   009232                                      
090001001310018 00200 411 251RD 117              0430500RD 8                0540498ARIGNAC             05107460110780110780900010013000       0187      014738  578    012697   013488   014263   014634   014204   015242   017288   019231   015832   014663   012065   013089               170147001  368    160143711    8    150144651    8    140146851    8    130141651    8    011282   014888   014146   014697   014313   014774   017579   019066   015273   015034   012979   012347                                      
090001001210018 00200 411 251RD 117              0430500RD 8                0540498ARIGNAC             05107460110780110780900010013000       0187      007430  518    006513   006787   007304   007409   007183   007566   008638   010014   007994   007360   005914   006391               170074341  378    160071821    8    150072461    8    140073381    8    130070641    8    005838   007730   007243   007383   007240   007319   008724   010023   007628   007556   006570   005951                                      
090001001110018 00200 411 251RD 117              0430500RD 8                0540498ARIGNAC             05107460110780110780900010013000       0187      007308  638    006184   006701   006959   007225   007021   007676   008650   009217   007838   007303   006151   006698               170072661  348    160071891    8    150072191    8    140073471    8    130071011    8    005444   007158   006903   007314   007073   007455   008855   009043   007645   007478   006409   006396                                      
090001100310018 00200 4113 51RD 8                0540498RD 102              0710104LES CABANNES        06204200169260169260900010013000       0187      009735  567    007682   009040   009088   009412   009230   009857   011711   014387   010652   009399   007594   008651               170095531  557    160094451    7    150092361    7    140091981    7    130089241    7    006619   010301   008747   009518   009083   009343   011952   014116   009791   009978   007492   007708                                      
090001100210018 00200 4113 51RD 8                0540498RD 102              0710104LES CABANNES        06204200169260169260900010013000       0187      004860  557    003942   004404   004589   004732   004628   004893   005751   007296   005356   004682   003808   004169               170047571  547    160047141    7    150046491    7    140046371    7    130044511    7    003361   004929   004419   004761   004551   004639   005867   007207   004921   004980   003776   003664                                      
090001100110018 00200 4113 51RD 8                0540498RD 102              0710104LES CABANNES        06204200169260169260900010013000       0187      004875  597    003740   004636   004499   004680   004602   004964   005960   007091   005296   004717   003786   004482               170047961  577    160047311    7    150045871    7    140045611    7    130044731    7    003258   005372   004328   004757   004532   004704   006085   006909   004870   004998   003716   004044                                      
090001200310018 00200 4813 51RD 102              0710104RD 613              0790614PERLES CASTELET     07309000082050082050900010013000       0187      000000                                                                                                                                 170000001         160097481    7    150097681    7    140096761    7    130092781    7                                                                                                                                                   
090001200210018 00200 4813 51RD 102              0710104RD 613              0790614PERLES CASTELET     07309000082050082050900010013000       0187      000000                                                                                                                                 170000001         160048621    7    150048791    7    140048381    7    130046311    7                                                                                                                                                   
090001200110018 00200 4813 51RD 102              0710104RD 613              0790614PERLES CASTELET     07309000082050082050900010013000       0187      000000                                                                                                                                 170000001         160048861    7    150048891    7    140048381    7    130046471    7                                                                                                                                                   
090001300310018 00200 4813 51RD 613              0790614RD 322              0880240MERENS NORD         08609400083410083410900010013000       0187      000000                                                                                                                                 170080168         160000008         150000008         140000008         130077258                                                                                                                                                        
090001300210018 00200 4813 51RD 613              0790614RD 322              0880240MERENS NORD         08609400083410083410900010013000       0187      000000                                                                                                                                 170039868         160000008         150000008         140000008         130038418                                                                                                                                                        
090001300110018 00200 4813 51RD 613              0790614RD 322              0880240MERENS NORD         08609400083410083410900010013000       0187      000000                                                                                                                                 170040308         160000008         150000008         140000008         130038848                                                                                                                                                        
090001400310018 00200 4113 51RD 322              0880240RN 22               0970737MERENS              08904330094990094990900014003000       0187      007376  508    004934   005722   006487   007190   007138   007444   009229   011916   008297   007241   005728   007000               170069901  458    160069301    8    150068051    8    140069251    8    130065601    8    003913   006854   005994   007283   006696   006848   009344   011420   007519   007413   005673   004886                                      
090001400210018 00200 4113 51RD 322              0880240RN 22               0970737MERENS              08904330094990094990900014003000       0187      003690  508    002499   002757   003328   003627   003587   003711   004547   006027   004180   003623   002883   003409               170035071  368    160034871    8    150034171    8    140034771    8    130032851    8    002016   003381   003074   003661   003331   003430   004591   005888   003784   003723   002786   002394                                      
090001400110018 00200 4113 51RD 322              0880240RN 22               0970737MERENS              08904330094990094990900014003000       0187      003686  508    002435   002965   003159   003563   003551   003733   004682   005889   004117   003618   002845   003591               170034831  638    160034431    8    150033881    8    140034481    8    130032751    8    001897   003473   002920   003622   003365   003418   004753   005532   003735   003690   002887   002492                                      
090001800310018 00200 4813 01RN 22               0970737RN 320              0980831LHOSPITALET EST     0980100001094001094000000000000000000000187      000000                                                                                                                                 170000008         160000008         150000008         140000008         130000008                                                                                                                                                        
090001500310018 00220 4113 51RN 20               0000000RN 320              0040100CARREFOUR SUD       00309140040150040150900014003000       0187      000                                                                                                                                    170000001         160000001         150000001         140000001         130074591                                                                                                                                                        
090001600310018 03200 4813 51RN 20               0000000DEPARTEMENT 66      0020132R.N 320 AUX P.O     0010800002136002136090001400366000100030187      000000                                                                                                                                 170071398         160000008         150000008         140000008         130067008                                                                                                                                                        
120000600310018 00880 4113 51RN 9                0020800RD 28               0240290VARES               01201000221070221070000000000000       0187      006905 2087    005239   005678   005963   007118   007427   007273   008728   009679   007226   006752   005987   005665               170069121 2037    160069281 1977    150069211 1967    140000001         130000001         005095   005742   005855   007214   007131   007352   008991   009547   007264   006957   005974   005710                                      
120000600210018 00880 4113 51RN 9                0020800RD 28               0240290VARES               01201000221070221070000000000000       0187      003458 2067    002620   002839   002966   003549   003725   003653   004348   004904   003605   003373   003029   002820               170034711 2017    160034581 1957    150034641 1957    140000001         130000001         002541   002853   002914   003610   003533   003684   004570   004921   003644   003485   002988   002848                                      
120000600110018 00880 4113 51RN 9                0020800RD 28               0240290VARES               01201000221070221070000000000000       0187      003447 2117    002619   002839   002997   003569   003702   003620   004380   004775   003621   003379   002958   002845               170034411 2087    160034701 2017    150034571 1977    140000001         130000001         002554   002889   002941   003604   003598   003668   004421   004626   003620   003472   002986   002862                                      
120000700310018 00880 4113 51RD 28               0240290RD 224              0420390GAGES               03604000181510181510000000000000       0187      010238 1207    008707   008958   009602   010451   010558   010879   011753   012083   010600   010384   009537   009242               170103611  888    160107861 1028    150104051    8    140090261 1228    130100171 1178    008631   009318   009598   010597   010483   010931   012124   012383   010782   010563   009647   009192                                      
120000700210018 00880 4113 51RD 28               0240290RD 224              0420390GAGES               03604000181510181510000000000000       0187      005081 1187    004312   004441   004764   005180   005227   005411   005811   006080   005254   005145   004726   004571               170051461  858    160050911    8    150049851    8    140051581 1218    130050291 1168    004268   004607   004761   005253   005205   005412   006044   006218   005349   005252   004780   004562                                      
120000700110018 00880 4113 51RD 28               0240290RD 224              0420390GAGES               03604000181510181510000000000000       0187      005157 1218    004395   004517   004838   005271   005331   005468   005942   006003   005346   005239   004811   004671               170052151  948    160056951 1138    150054201 1088    140038681 1238    130049881 1188    004363   004711   004837   005344   005278   005519   006080   006165   005433   005311   004867   004630                                      
120000801310018 00880 4813 51RD 224              0420390RD 988              0430500LA ROQUETTE OUEST   04304500011220011220000000000000       0187      000000                                                                                                                                 170000008         160000008         150000008         140146358         130138188                                                                                                                                                        
120000801210018 00880 4813 51RD 224              0420390RD 988              0430500LA ROQUETTE OUEST   04304500011220011220000000000000       0187      000000                                                                                                                                 170000008         160000008         150000008    7    140074288    7    130072518 1157                                                                                                                                                   
120000801110018 00880 4813 51RD 224              0420390RD 988              0430500LA ROQUETTE OUEST   04304500011220011220000000000000       0187      000000                                                                                                                                 170000008         160000008         150000008         140072068         130065678                                                                                                                                                        
120000902310018 00880 4113 51RD 988              0460500AV DES 4 SAISONS    0470000SAINT MARC OUEST    04605500006100006100000000000000       0187      027305  737    025195   026138   027908   028151   027656   029442   029455   028843   028176   027487   024464   024664               170268461         160260411         150000001         140000001         130000001         020109   021539   024520   028184            028128   029843   029563   029037   028669   027417   026207                                      
120000902210018 00880 4113 51RD 988              0460500AV DES 4 SAISONS    0470000SAINT MARC OUEST    04605500006100006100000000000000       0187      013554  777    012318   012963   013949   014170   013915   014844   015022   014842   014188   013397   011372   011621               170127421         160117011         150000001         140000001         130000001         007087   007606   010128   013733   014492   013277   015134   015209   014608   014419   013712   013140                                      
120000902110018 00880 4113 51RD 988              0460500AV DES 4 SAISONS    0470000SAINT MARC OUEST    04605500006100006100000000000000       0187      013751  647    012877   013175   013959   013981   013741   014598   014433   014001   013988   014090   013092   013043               170141041         160143401         150000001         140000001         130000001         013022   013933   014392   014451            014851   014709   014354   014429   014250   013705   013067                                      
120000901310018 00880 4113 51RD 217              0430500RD 988              0460500SAINT MARC EST      04604500030480030480000000000000       0187      008595         008593   008910   009457   010345   010328   010457   011031   005445   005513   008098   007869   007120               170101391         160052501         150000001         140000001         130000001         007935   010485   011511   011630   007950   010613   011469   011785   010442   009995   009136   008790                                      
120000901210018 00880 4113 51RD 217              0430500RD 988              0460500SAINT MARC EST      04604500030480030480000000000000       0187      003898 1297    004464   004619   004809   005323   005367   005453   005793   000896   000666   003273   003449   002711               170050581 1377    160023121    7    150000001         140000001         130000001         003822   005108   005640   005741   002326   005605   006132   006321   005487   005233   004763   004569                                      
120000901110018 00880 4113 51RD 217              0430500RD 988              0460500SAINT MARC EST      04604500030480030480000000000000       0187      004697         004129   004291   004648   005022   004961   005004   005238   004549   004847   004825   004420   004409               170050811         160029381         150000001         140000001         130000001         004113   005377   005871   005889   005624   005008   005337   005464   004955   004762   004373   004221                                      
120001002310018 00880 4113 51RD 901              0480100RN 140              0480660LES MOUTIERS OUEST  04801500005600005600000000000000       0187      024330         012152   012401   013003   012991   012471   013098   012997   012966   012733   012513   010703   011383               170145721         160301721         150345031         140341821         130347691         012436   014248   015334   015381   015317   016129   016222   015861   015489   013142   012608   012711                                      
120001002210018 00880 4113 51RD 901              0480100RN 140              0480660LES MOUTIERS OUEST  04801500005600005600000000000000       0187      011878                                                                                                                                 170000001         160174961         150000001         140000001         130000001                                                                                                                                                        
120001002110018 00880 4113 51RD 901              0480100RN 140              0480660LES MOUTIERS OUEST  04801500005600005600000000000000       0187      012452                                                                                                                                 170000001         160126761         150000001         140000001         130000001                                                                                                                                                        
120001001310018 00880 4113 51RD 988              0470000RD 901              0480100LES MOUTIERS EST    04800500011800011800000000000000       0187      023216         020191   020430   023022   024189   023892   025070   025163   024984   023892   024261   020887   022383               170257461         160284141         150318761         140263461         130260651         025123   030109   026220   028466   025901   029130   029508   029603   022881   021869   020852   019663                                      
120001001210018 00880 4113 51AV DES 4 SAISONS    0470000RD 901              0480100LES MOUTIERS EST    04800500011800011800000000000000       0187      012830         011151   011500   012922   013421   013009   013821   013642   013689   013427   013300   011626   012352               170137401         160148301         150000001         140000001         130000001         012802   015305   013429   015192   013639   015443   015709   015914   012658   012423   011575   010936                                      
120001001110018 00880 4113 51AV DES 4 SAISONS    0470000RD 901              0480100LES MOUTIERS EST    04800500011800011800000000000000       0187      010386         009040   008930   010100   010768   010883   011249   011521   011295   010465   010961   009261   010031               170120061         160135841         150000001         140000001         130000001         012321   014804   012791   013274   012262   013687   013799   013689   010223   009446   009277   008727                                      
120001003310018 00880 4113 51RN 140              0480660RD 84 RD 67         0500000SAINT-CLOUD EST     04909500015620015620000000000000000000 0187      023536         022069   022552   024110   024173   024165   025203   025165   023784   024254   024532   020675   021661               170237431  757    160235481    7    150229461    7    140225911         130221281    7    021852   023177   023826   023967   024085   024773   024493   023662   024431   024616   023633   022405                                      
120001003210018 00880 4113 51RN 140              0480660RD 84 RD 67         0500000SAINT-CLOUD EST     04909500015620015620000000000000       0187      012190         011485   011697   012522   012483   012567   013037   012921   012387   012628   012767   010593   011150               170123561  767    160122571    7    150119491    7    140117951         130115421    7    011341   012015   012420   012418   012503   012818   012688   012355   012816   012913   012298   011688                                      
120001003110018 00880 4113 51RN 140              0480660RD 84 RD 67         0500000SAINT-CLOUD EST     04909500015620015620000000000000       0187      011346         010584   010855   011588   011690   011598   012166   012244   011397   011626   011765   010082   010511               170113871  747    160112911    7    150109971    7    140107961         130105861    7    010511   011162   011406   011549   011582   011955   011805   011307   011615   011703   011335   010717                                      
120001004310018 00880 4113 51RD 84 RD 67         0500000PONT V.C. OLEMPS    0520200SAINT-CLOUD OUEST   05000500023230023230000000000000       0187      026983  677    025243   025876   027527   027622   027195   028910   029018   027050   027792   028126   024497   024854               170271531  677    160268701    7    150241331         140253231         130240311    7    024981   026711   027327   027395   027447   027883   028198   027233   028192   028345   026841   025291                                      
120001004210018 00880 4113 51RD 84 RD 67         0500000PONT V.C. OLEMPS    0520200SAINT-CLOUD OUEST   05000500023230023230000000000000       0187      013507  687    012644   012924   013766   013827   013589   014457   014494   013672   013930   014124   012193   012415               170136191  697    160134651    7    150111001         140127571         130120051    7    012476   013359   013695   013711   013729   014030   014137   013770   014172   014310   013350   012685                                      
120001004110018 00880 4113 51RD 84 RD 67         0500000PONT V.C. OLEMPS    0520200SAINT-CLOUD OUEST   05000500023230023230000000000000       0187      013476  677    012599   012952   013761   013795   013606   014453   014524   013378   013862   014002   012304   012439               170135341  637    160134051    7    150130331    7    140125661         130120261    7    012505   013352   013632   013684   013718   013853   014061   013463   014020   014035   013491   012606                                      
120001005310018 00880 4813 51PONT V.C.OLEMPS     0520200RD 66 RD 212        0530000LE LACHETversST-CLOU05208000008770008770000000000000       0187      000000                                                                                                                                 170000008         160000008         150000008         140000008         130000008                                                                                                                                                        
120001006310018 00880 4813 51RD66 RD212          0530000RD 911              0560800LA PRIMAUBE         05407100038000038000000000000000       0187      000000                                                                                                                                 170000008         160000008         150000008         140000008         130000008                                                                                                                                                        
120001006210018 00880 4813 51RD66 RD212          0530000RD 911              0560800LA PRIMAUBE         05407100038000038000000000000000       0187      000000                                                                                                                                 170000008         160000008         150000008         140000008         130000008                                                                                                                                                        
120001006110018 00880 4813 51RD66 RD212          0530000RD 911              0560800LA PRIMAUBE         05407100038000038000000000000000       0187      000000                                                                                                                                 170000008         160000008         150000008         140000008         130000008                                                                                                                                                        
120001100310018 00880 4113 51LA PRIMAUBE RD 911  0560800BARAQUEVILLE RD 911 0680015LE LAC              06207300090910090910000000000000       0187      017029 1008    015396   015828   016075   017637   017781   018339   017593   018173   018060   017827   015708   015872               170172471  818    160168861    7    150163611    8    140156141    8    130154741    8    015051   016283   016868   017460   017349   018205   018575   018267   018176   018301   016875   015510                                      
120001100210018 00880 4113 51LA PRIMAUBE RD 911  0560800BARAQUEVILLE RD 911 0680015LE LAC              06207300090910090910000000000000       0187      008540 1008    007683   007922   008387   008826   008892   009141   008747   009126   009002   008924   007872   007921               170086071  798    160084481    7    150081701    8    140078851    8    130077201    8    007512   008115   008412   008715   008629   009084   009241   009186   009080   009137   008414   007735                                      
120001100110018 00880 4113 51LA PRIMAUBE RD 911  0560800BARAQUEVILLE RD 911 0680015LE LAC              06207300090910090910000000000000       0187      008489 1018    007713   007906   007688   008811   008889   009198   008846   009047   009058   008903   007836   007951               170086401  838    160084381    7    150081911    8    140077291    8    130077541    8    007539   008168   008456   008745   008720   009121   009334   009081   009096   009164   008461   007775                                      
120001200310018 00880 4813 51RD 911              0680015RD 997              0810695BARAQUEVILLE        06902340134290134290000000000000       0187      000000                                                                                                                                 170000008         160000008         150000008         140000008         130103508                                                                                                                                                        
120001301310018 00880 4113 51RD 997              0810695DEPARTEMENT 81      0910192DEV NAUCELLE        0830350009251009251320000500381000010030187      008988 1487    007776   008147   008547   009054   009101   009360   010117   010248   009588   009401   008166   008278               170089961 1457    160084911 1437    150000001         140000001         130080691 1427    007388   008313   008433   009140   009117   009267   010146   010053   009544   009622   008576   008303                                      
120001301210018 00880 4113 51RD 997              0810695DEPARTEMENT 81      0910192DEV NAUCELLE        0830350009251009251320000500381000010030187      004501 1457    003873   004084   004303   004537   004530   004702   005052   005163   004786   004741   004058   004149               170045061 1427    160042681 1407    150000001         140000001         130040361 1417    003683   004148   004222   004584   004563   004638   005099   005070   004800   004814   004250   004177                                      
120001301110018 00880 4113 51RD 997              0810695DEPARTEMENT 81      0910192DEV NAUCELLE        0830350009251009251320000500381000010030187      004487 1547    003903   004063   004244   004517   004571   004658   005065   005085   004802   004660   004108   004129               170044901 1527    160042231 1487    150000001         140000001         130040331 1437    003705   004165   004211   004556   004554   004629   005047   004983   004744   004808   004326   004126                                      
310506100310018 00640 181 241ECH 22 ASF          2340270ECH 23              2390200                    2350000004930004930320000500300000000000199      000000                                                                                                                                 170000008         160000008         150000008         140000008         130000008                                                                                                                                                        
310506200310018 00640 111 241ECH 23              2390200ECH 24              2430000LAVELANET de COMMIN.2420000003800003800320000500300000000000199      036306 117                                                                                                                             170000001         160354651 111     150341581 109     140334331 113     130000001                                                                                                                                                        
310506300310018 00640 181 241ECH 24              2430000ECH 25              2460000                    2440000003000003000320000500300000000000199      000000                                                                                                                                 170000008         160000008         150000008         140000008         130000008                                                                                                                                                        
310506500310018 00640 111 241ECH 26              2460000ECH 27              2540000CARBONNE            2530750008000008000320000500300000000000199      038618 116                                                                                                                             170000001         160376571 120     150371591 116     140000001         130000001                                                                                                                                                        
310506600310018 00640 111 241ECH 27              2540000ECH 28              2580000                    2550000004000004000320000500300000000000199      042460 108                                                                                                                             170000001         160000001         150000001         140000001         130000001                                                                                                                                                        
310506700310018 00640 181 241ECH 28              2580000ECH 29              2590500                    2590000001500001500320000500300000000000199      000000                                                                                                                                 170000008         160000008         150000008         140000008         130000008                                                                                                                                                        
310506800310018 00640 181 241ECH 29              2590500ECH 30              2610200                    2600000001700001700320000500300000000000199      000000                                                                                                                                 170000008         160000008         150000008         140000008         130000008                                                                                                                                                        
310506900310018 00640 181 241ECH 30              2610200ECH 31              2630000                    2620000001800001800320000500300000000000199      000000                                                                                                                                 170000008         160000008         150000008         140000008         130000008                                                                                                                                                        
310507000310018 00640 181 241ECH 31              2630000ECH 32              2640800                    2640000001800001800320000500300000000000199      000000                                                                                                                                 170000008         160000008         150000008         140000008         130000008                                                                                                                                                        
310507201310018 00640 111 241ECH 32              2640800ECH 33              2690000MURET SUD           2670800004200004200320000500300000000000199      056166 1027    052252   052186   055800   056141   055410   058778   061378   060443   057382   058308   052367   053161               170564181  987    160554131         150544911         140528811         130000001         051177   055616   055071   056649   054864   058673   060902   059187   057584   058312   054872   054091                                      
310507204310018 00640 111 241ECH 33              2690000ECH 34              2720000PODIO               2690673003000003000320000500300000000000199      054508 1037    051321   051334   055051   055347   054232   057676   060074   059387   048299   057481   051342   052067               170550361  997    160542021    7    150527811    7    140496821    7    130585971 1057    049850   054474   053947   055927   053333   056839   059224   057292   056220   057004   053679   052675                                      
310507200310018 00640 111 241ECH 34              2720000ECH 35 ASF          2740089MURET NORD ND       2720800002032002032320000500300000000000199      058808 1067    058062   057616   060986   060755   061784   063600   060310   061404   061415   056742   049503   053409               170597421  987    160573211    7    150547341    7    140574721    7    130265181    7    055051   061929   061500   062008   060488   058690   056883   057946   062096   062013   059191   059425                                      
310505200310018 00680 181 241GEMIL FIN CONCEDEE  0170105DPT81               0220000A68 ETAT GESTION 81 0180000005004005004320000500381050010030187      000000                                                                                                                                 170000008         160000008         150000008         140000008         130000008                                                                                                                                                        
310003202310018 01240 311 251FIN A624            0060000Fin 2x2 voies       0090317COLLEGE             00705250029200029203200005003000       0187      078843  57                                                                                                                             170000001         160000001         150000001         140000001         130000001                                                                                                                                                        
310003300310018 01240 311 251FIN 2X2 VOIES       0090317RD 24               0130192LA TUILERIE         01102850039190039193200005003000       0187      057523  437    055923   056501   059667   058245   057581   061294   057186   054128   058522   059775   056108   055376               170584001  437    160573041         150000001         140000001         130000001         055905   057548   059719   058355   058020   061609   059143   054061   060319   060207   058955   057064                                      
310003400310018 01240 311 251RD 24               0130192DEPARTEMENT 32      0191064LA SALVETAT         0140020007216007216320000500332000090030187      000000                                                                                                                                 170000001         160000001         150000001         140000001         130000001                                                                                                                                                        
310003600310018 01250 4113 51A 645               0030000RD 33 LABROQUERE    0050196LABROQUERE          00408000019010019013200005003000       0187      011967  887    011268   012523   012509   011828   011510   011948   012976   014054   012157   011783   009837   011199               170122401  967    160116851    7    150119161    7    140000001         130000001         010877   013298   012237   012058   011591   011909   013554   014505   012195   012095   011051   011562                                      
310003600210018 01250 4113 51A 645               0030000RD 33 LABROQUERE    0050196LABROQUERE          00408000019010019013200005003000       0187      005929  867    005680   006127   006214   005941   005709   005871   006409   007057   006073   005828   004801   005423               170060541  957    160057981    7    150058761    7    140000001         130000001         005472   006519   006074   005940   005734   005882   006653   007253   006051   005980   005533   005579                                      
310003600110018 01250 4113 51A 645               0030000RD 33 LABROQUERE    0050196LABROQUERE          00408000019010019013200005003000       0187      006038  927    005588   006396   006295   005887   005801   006077   006567   006997   006084   005955   005036   005776               170061861  987    160058871    7    150060401    7    140000001         130000001         005405   006779   006163   006118   005857   006027   006901   007252   006144   006115   005518   005983                                      
310338500310018 01250 4813 51LABROQUERE          0050196RD 33 CHAUM         0181625GALIE               01403000137180137183200005003000       0211      000000                                                                                                                                 170000008         160000008         150000008         140000008         130000008                                                                                                                                                        
310338500210018 01250 4813 51LABROQUERE          0050196RD 33 CHAUM         0181625GALIE               01403000137180137183200005003000       0211      000000                                                                                                                                 170000008         160000008         150000008         140000008         130000008                                                                                                                                                        
310338500110018 01250 4813 51LABROQUERE          0050196RD 33 CHAUM         0181625GALIE               01403000137180137183200005003000       0211      000000                                                                                                                                 170000008         160000008         150000008         140000008         130000008                                                                                                                                                        
310003800310018 01250 4112 51RD 33 CHAUM         0181625RD 44               0230442CHAUM               01907000048870048873200005003000       0187      004480  937    005093   005909   004995   003873   003796   003978   004796   005482   004170   003997   003669   004073               170039061  707    160036771    7    150037641    7    140036661    7    130036061    7    003254   004460   003872   003938   003571   003563   004442   004572   003740   003678   003346   004464                                      
310003900310018 01250 4112001RD 44               0230442ESPAGNE             0340110FOS                 03108000106990106993200005003000       0187      003390  797    002523   003161   003432   003409   003269   003296   003862   004899   003476   003250   002896   003172               170032471  987    160031211 1037    150032181 1007    140037681 100     130000001         002457   003450   002876   003424   003043   003068   003910   004625   003583   002927   002676   002925                                      
310000101310018 02240 4113001LIMITE GERS         0070000MONTAIGUT           0200527LEVIGNAC            0130640014319014319320000500300000000000116      003844  527             003686   003950   003872   003839   004226   003846   003347   003986   003994   003983   003638               170000001         160000001         150000001         140000001         130000001                                                                                                                                                        
310000200310018 02240 4113001RD 17 MONTAIGUT     0200527CORNEBARRIEU        0310876MONDONVILLE         0250850011786011786320000500300000000000187      011749  297    015410   015633   016541   016265   015823   016991   015906   014799   016404   016385   016000   014848               170000001         160105261    7    150103561    7    140000001         130102341    7                                                                                                                                                   
310508003310018 06200 1110231SESQUIERES          0000724LES MINIMES 31      0030626GINESTOUS           0020130002857002857320000500300000000000187      130674  87                                                                                                                             170000001         160000001         151254471         141263071         130000001                                                                                                                                                        
310508003210018 06200 1110231SESQUIERES          0000580LES MINIMES 31      0030626GINESTOUS           0020130002857002857320000500300000000000187      065188  94                                                                                                                             170000001         160000001         150629671         140630831         130000001                                                                                                                                                        
310508003110018 06200 1110231SESQUIERES          0000724LES MINIMES 31      0030626GINESTOUS           0020130002857002857320000500300000000000187      065486  80                                                                                                                             170000001         160000001         150624801         140632241         130000001                                                                                                                                                        
310508106310018 06200 1110231ES MINIMES 31       0030626PONT JUMEAUX 30     0050106PONT JUMEAUX        0040432001464001464320000500300000000000187      102174  63                                                                                                                             170000001         161028331         151011371         141004181         130000001                                                                                                                                                        
310508106210018 06200 1110231ES MINIMES 31       0030626PONT JUMEAUX 30     0050106PONT JUMEAUX        0040432001464001464320000500300000000000187      052741  65                                                                                                                             170000001         160522931         150514551         140508831         130000001                                                                                                                                                        
310508106110018 06200 1110231ES MINIMES 31       0030626PONT JUMEAUX 30     0050106PONT JUMEAUX        0040432001464001464320000500300000000000187      049433  617    048385   048777   051622   051183   049631   050582   049815   044845   050162   052168   048640   047414               170515581  587    160505401    7    150496821    7    140495351    7    130489081    7    049318   051364   052882   051398   050617   054481   052964   047262   055795   051341   050772   050684                                      
310508204110018 06200 1110231PONT JUMEAUX 30     0050106PURPAN 29           0060074PONT GARONNE        0050354000966000966320000500300000000000187      055278 125                                                                                                                             170000001         160587841         150000001         140607821         130000001                                                                                                                                                        
310508200310018 06200 1110231PONT JUMEAUX 30     0050106PURPAN 29           0060074PONT GARONNE        0050354000966000966320000500300000000000187      112143 101                                                                                                                             170000001         161193011         150627721         141235221         130000001                                                                                                                                                        
310508200210018 06200 1110231PONT JUMEAUX 30     0050106PURPAN 29           0060074PONT GARONNE        0050354000966000966320000500300000000000187      056865  777    057710   057386   062181   060065   057367   062077   048483   059100   057413   057899   053609   049323               170610121  677    160605171    7    150622451    7    140627401    7    130625321    7    058772   061193   062829   060916   060537   064927   061095   057794   062274   062194   061277   058531                                      
310508304110018 06200 1110231PURPAN 29           0060074CEPIERE 27          0080497STATION A620        0070789002433002433320000500300000000000187      069160  62                                                                                                                             170000001         160679391         150669471         140665961         130657031                                                                                                                                                        
310508303210018 06200 1110231PURPAN 29           0060074CEPIERE 27          0080497STATION A620        0070789002433002433320000500300000000000187      069781  53                                                                                                                             170000001         160723211         150710191         140698521         130700031                                                                                                                                                        
310508300310018 06200 1110231PURPAN 29           0060074CEPIERE 27          0080497STATION A620        0070789002433002433320000500300000000000187      138941  57                                                                                                                             170000001         160000001         151379661         141364481         131357061                                                                                                                                                        
310508402210018 06200 1110231CEPIERE 27          0080497LA FAOURETTE        0090542FAOURETTE           0090100001056001056320000500300000000000187      074225  55                                                                                                                             170000001         160738421         150723971         140710141         130000001                                                                                                                                                        
310508402110018 06200 1110231CEPIERE 27          0080497LA FAOURETTE        0090542FAOURETTE           0090100001056001056320000500300000000000187      062635  59                                                                                                                             170000001         160643121         150643621         140629061         130000001                                                                                                                                                        
310508400310018 06200 1110231CEPIERE 27          0080497LA FAOURETTE        0090542FAOURETTE           0090100001056001056320000500300000000000187      136860  57                                                                                                                             170000001         161381541         151367591         141339201         130000001                                                                                                                                                        
310508502110018 06200 1110231LA FAOURETTE        0090542BORDELONGUE         0110801PT DE SEYSSES       0100604002247002247320000500300000000000187      063525  63                                                                                                                             170000001         160640511         150633581         140631451         130000001                                                                                                                                                        
310508500310018 06200 1110231LA FAOURETTE        0090542BORDELONGUE         0110801PT DE SEYSSES       0100604002247002247320000500300000000000187      134275  58                                                                                                                             170000001         161349641         151324871         141311771         130000001                                                                                                                                                        
310508500210018 06200 1110231LA FAOURETTE        0090542BORDELONGUE         0110801PT DE SEYSSES       0100604002247002247320000500300000000000187      070750  547    068157   069543   074303   073003   067656   075392   073523   066906   069785   075401   069750   065626               170716451  547    160709131    7    150691291    7    140680321    7    130678061    7    070765   071426   074268   070347   069831   075734   071922   065019   074247   075398   072315   068637                                      
310508700310018 06200 1110231LANGLADE 25         0110801EMPALOT 24          0130601EMPALOT             0120660001836001836320000500300000000000187      125956  397    122937   124441   126609   123640   127277   133100   129543   119747   132356   132314   122037   117564               171261721  357    161315731    7    151373761    7    141357081    7    130000001         122760   126418   129869   125853   124549   131540   125597   117256   130440   131040   127641   121473                                      
310508700210018 06200 1110231LANGLADE 25         0110801EMPALOT 24          0130601EMPALOT             0120660001836001836320000500300000000000187      066624  397    057982   059114   065040   066329   070360   073973   070984   065625   072922   074271   066718   055877               170597941  327    160635411    7    150667691    7    140658571    7    130000001         057396   060109   061651   059633   059414   062936   060038   055093   061980   061974   060210   057303                                      
310508700110018 06200 1110231LANGLADE 25         0110801EMPALOT 24          0130601EMPALOT             0120660001836001836320000500300000000000187      059332  387    064955   065327   061569   057311   056917   059127   058559   054122   059434   058043   055319   061687               170663781  407    160680321    7    150706071    7    140698511    7    130000001         065364   066309   068218   066220   065135   068604   065559   062163   068460   069066   067431   064170                                      
310508800310018 06200 1110231EMPALOT 24          0130601RANGUEIL 23         0140000RANGUEIL            0130888000363000363320000500300000000000187      094774  497    091513   092219   096418   096157   093727   099377   099431   091814   096937   098982   091517   089109               170947671  487    160938501    7    150912981    7    140890961    7    130894501    7    091063   094808   096712   095119   093913   099215   097581   091270   097261   098070   091643   090687                                      
310508800210018 06200 1110231EMPALOT 24          0130601RANGUEIL 23         0140000RANGUEIL            0130888000363000363320000500300000000000187      046697  487    044901   045540   047659   047491   046303   048728   049622   045092   047900   048563   044710   043806               170465281  477    160462731    7    150448441    7    140436061    7    130438421    7    044770   046829   047703   046877   046399   048810   048221   044714   048170   048155   043241   044506                                      
310508800110018 06200 1110231EMPALOT 24          0130601RANGUEIL 23         0140000RANGUEIL            0130888000363000363320000500300000000000187      048077  517    046612   046679   048759   048666   047424   050649   049809   046722   049037   050419   046807   045303               170482391  497    160475771    7    150464541    7    140454901    7    130456081    7    046293   047979   049009   048242   047514   050405   049360   046556   049091   049915   048402   046181                                      
310508900310018 06200 1110231RANGUEIL 23         0140000DEMOISELLES 21      0150880RANGUEIL-DEMOIS     0140536001873001873320000500300000000000187      106096  53                                                                                                                             170000001         161050711         151022051         141001711         130000001                                                                                                                                                        
310508900210018 06200 1110231RANGUEIL 23         0140000DEMOISELLES 21      0150880RANGUEIL-DEMOIS     0140536001873001873320000500300000000000187      051699  53                                                                                                                             170000001         160510141         150495331         140481991         130000001                                                                                                                                                        
310508900110018 06200 1110231RANGUEIL 23         0140000DEMOISELLES 21      0150880RANGUEIL-DEMOIS     0140536001873001873320000500300000000000187      054397  53                                                                                                                             170000001         160540571         150526721         140519721         130000001                                                                                                                                                        
310509100310018 06200 1110231LESPINET 20         0160048PALAYS A61          0170777LESPINET            0160285001730001730320000500300000000000187      094485  627    085403   090309   093966   097472   093206   103346   096390   093735   094701   101566   093706   089988               170954361         160929591    7    150973101    7    140796831         130932291    7    088971   099992   104014   098741   092696   093482   081410   095163   104379   104312   097358   085546                                      
310509100210018 06200 1110231LESPINET 20         0160048PALAYS A61          0170777LESPINET            0160285001730001730320000500300000000000187      048104  617    046232   046338   048316   048327   047337   052846   047303   045921   049432   051714   047588   045913               170471671  557    160460141    7    150468951    7    140299511    7    130443521    7    043455   049568   052454   049003   043412   042663   035740   048148   052992   052642   048822   047492                                      
310509100110018 06200 1110231LESPINET 20         0160048PALAYS A61          0170777LESPINET            0160285001730001730320000500300000000000187      046381  627    039171   043971   045650   049145   045869   050500   049087   047814   045269   049852   046118   044075               170482691         160469451    7    150504151    7    140497321         130488771    7    045516   050424   051560   049738   049284   050819   045670   047015   051387   051670   048536   038054                                      
310509000310018 06200 1110231DEMOISELLES 21      0150880LESPINET 20         0160048DEMOISELLES         0160000000172000172320000500300000000000187      112231  547    108680   109682   113349   114414   110157   117191   116361   105813   115565   118738   110221   106620               171121261  537    161101111    7    151073401    7    141048671    7    131054531    7    108259   112015   115045   110622   108975   117327   114257   105253   115808   115970   112884                                               
310509000210018 06200 1110231DEMOISELLES 21      0150880LESPINET 20         0160048DEMOISELLES         0160000000172000172320000500300000000000187      057591  527    055513   056254   058111   058801   056361   059502   060012   053998   059568   061166   056757   055055               170574311  517    160561861    7    150546801    7    140530011    7    130535441    7    055180   057351   058794   056612   055935   059667   058665   053636   059396   059092   057524                                               
310509000110018 06200 1110231DEMOISELLES 21      0150880LESPINET 20         0160048DEMOISELLES         0160000000172000172320000500300000000000187      054640  597    053167   053428   055238   055613   053796   057689   056349   051815   055997   057572   053464   051565               170546951  577    160539251    7    150526601    7    140518661    7    130519091    7    053079   054664   056251   054010   053040   057660   055592   051617   056412   056878   055360   051927                                      
310509612210018 06210 1110231ST MICHEL DU TOUCH  0000000LE RITOURET         0030992RITOURET EST        0020825003990003990320000500300000000000998      051283  337    050802   051319   053443   052028   050378   054054   051225   045388   051840   054240   051299   049516               170502811  377    160500961         150000001         140000001    7    130000001    7    050723   051929   053256   050692   050296   043523   050373   044930   052888   053448   051214   050171                                      
310509611110018 06210 1110231ST MICHEL DU TOUCH  0000000LE RITOURET         0030992RITOURET EST        0020825003990003990320000500300000000000998      053679  307    052909   053405   055821   054152   052445   056792   054062   047253   054293   057376   053860   051900               170516251  307    160487741    7    150421081         140504371    7    130503661    7    053026   054073   055103   051811   050369   039059   052469   046633   055296   055919   053468   052294                                      
310509600310018 06210 1110231ST MICHEL DU TOUCH  0000000LE RITOURET         0030992RITOURET EST        0020825003990003990320000500300000000000998      103024  347    102288   104174   108826   103296   099557   109621   104084   091718   104605   107702   101082   099653               170000001         160988701         150000001         140000001    7    130000001    7                                                                                                                                                   
310509200310018 06230 1114031PALAYS              0000000CNES                0000415GIRAT PALAYS        0000250000415000415320000500300000000000187      029793  397    029525   029981   031420   029795   028981   031538   029144   024680   030971   031908   030899   028822               170299791  397    160252671    7    150278961    7    140279061    7    130000001         031022   030541   031804   029668   029268   031959   028503   024545   031321   031265   031351   028686                                      
310502103210018 06240 111 231BAYLAC 1            0000520ST MARTIN DU TOUCH  0010500BAYLAC              0001184001163001163320000500300000000000194      056602  53                                                                                                                             170000001         160564311         150555771         140550361         130000001                                                                                                                                                        
310502103110018 06240 111 231BAYLAC 1            0000520ST MARTIN DU TOUCH  0010500BAYLAC              0001184001163001163320000500300000000000194      045118  54                                                                                                                             170000001         160555501         150543841         140499451         130000001                                                                                                                                                        
310502100310018 06240 111 231BAYLAC 1            0000520ST MARTIN DU TOUCH  0010500BAYLAC              0001184001163001163320000500300000000000194      101720  53                                                                                                                             170000001         161119811         151099611         141049811         130000001                                                                                                                                                        
310502002210018 06240 111 231PURPAN              0000000BAYLAC 1            0000520PURPAN A624         0000351000520000520320000500300000000000194      059231  36                                                                                                                             170000001         160588401         150582281         140573821         130000001                                                                                                                                                        
310502002110018 06240 111 231PURPAN              0000000BAYLAC 1            0000520PURPAN A624         0000351000520000520320000500300000000000194      050283  49                                                                                                                             170000001         160503891         150496421         140490311         130000001                                                                                                                                                        
310502000310018 06240 111 231PURPAN              0000000BAYLAC 1            0000520PURPAN A624         0000351000520000520320000500300000000000194      109514  42                                                                                                                             170000001         161092291         151078701         141064131         130000001                                                                                                                                                        
310502203210018 06240 111 231ST MARTIN DU TOUCH  0010500LA CRABE            0030900CRABE EST           0020252002400002400320000500300000000000194      064106  58                                                                                                                             170000001         160652571         150640121         140631701         130000001                                                                                                                                                        
310502203110018 06240 111 231ST MARTIN DU TOUCH  0010500LA CRABE            0030900CRABE EST           0020252002400002400320000500300000000000194      066537  58                                                                                                                             170000001         160669371         150656771         140646721         130000001                                                                                                                                                        
310502200310018 06240 111 231ST MARTIN DU TOUCH  0010500LA CRABE            0030900CRABE EST           0020252002400002400320000500300000000000194      130643  58                                                                                                                             170000001         161321941         151296891         141278421         130000001                                                                                                                                                        
320000200310018 00210 4113 51LECTOURE NORD       0100760FLEURANCE EB 10     0220960SAINT GENY          01708500114290114293200005003000       0187      006103  938    005666   005838   006070   006065   006157   006522   006409   006427   006306   006275   005892   005603               170062031  668    160062141    8    150061461    8    140062751 1188    130062461    8    005582   005855   006211   006067   006135   006563   006595   006666   006510   006336   006113   005776                                      
320000200210018 00210 4113 51LECTOURE NORD       0100760FLEURANCE EB 10     0220960SAINT GENY          01708500114290114293200005003000       0187      003038  928    002829   002914   003016   003026   003064   003246   003187   003228   003139   003122   002912   002768               170030821  668    160030891    8    150030561    8    140031251 1398    130031141    8    002774   002888   003092   003013   003042   003258   003274   003344   003236   003152   003044   002853                                      
320000200110018 00210 4113 51LECTOURE NORD       0100760FLEURANCE EB 10     0220960SAINT GENY          01708500114290114293200005003000       0187      003065  958    002837   002924   003054   003039   003093   003276   003222   003199   003167   003153   002980   002835               170031211  688    160031251    8    150030901    8    140031501    8    130031321    8    002808   002967   003119   003054   003093   003305   003321   003322   003274   003184   003069   002923                                      
320000300310018 00210 4843 51FLEURANCE EB 10     0220960FLEURANCE EB 20     0260856FLEURANCE AGGLO     02307000043080043083200005003000       0187      008899  66                                                                                                                             170088018         160090728         150000008         140000008         130074778                                                                                                                                                        
320000400310018 00210 4813 51FLEURANCE EB 20     0260856RD 172              0360397FLEURANCE AN SUD    02608700096010096013200005003000       0187      006395  96                                                                                                                             170077358         160000008         150000008         140000008         130078138                                                                                                                                                        
320000500310018 00210 4113 51RD 172              0360397AUCH EB 10          0460900ROUTE D'AGEN        04504500105290105293200016013000       0187      009084  707    009015   008252   009792   009449   009247   009876   009252   008952   009503   009778   007982   007854               170096861         160099841         150100381         140100861         130097831         009092   009813   010240   010242   009452   009936   009480   009322   009954   010016   009537   009190                                      
320000500210018 00210 4113 51RD 172              0360397AUCH EB 10          0460900ROUTE D'AGEN        04504500105290105293200016013000       0187      004510  697    004517   004126   004890   004718   004609   004932   004608   004470   004737   004885   003857   003747               170048321         160049731         150049981         140050141         130048681         004532   004885   005098   005095   004722   004970   004724   004676   004968   005008   004763   004563                                      
320000500110018 00210 4113 51RD 172              0360397AUCH EB 10          0460900ROUTE D'AGEN        04504500105290105293200016013000       0187      004574  727    004498   004126   004902   004731   004638   004944   004644   004482   004766   004893   004125   004107               170048541         160050111         150050401         140050721         130049151         004560   004928   005142   005147   004730   004966   004756   004646   004986   005008   004774   004627                                      
320000599310018 00210 4853 51AUCH EB 10          0460900AUCH EB 20          0520026AUCH                05200000054200054203200016013000       0187      000000                                                                                                                                 170221438         160000008         150000008         140000008         130207688                                                                                                                                                        
320000601310018 00210 4113 51AUCH EB 20          0520026DEBUT 3 VOIES       0630209DEPOT FERRE         05309000111500111503200006013000       0187      007701 1017    007287   006853   007933   007835   007779   008234   007924   007754   007937   008036   007521   007263               170078761  957    160079041    7    150079261    7    140000001         130078471         007374   007494   008040   007774   007911   008240   008023   008072   008200   008107   007835   007433                                      
320000601210018 00210 4113 51AUCH EB 20          0520026DEBUT 3 VOIES       0630209DEPOT FERRE         05309000111500111503200006013000       0187      003852 1007    003650   003429   003951   003943   003920   004086   003960   003893   003960   004025   003764   003615               170039321  947    160039431    7    150039471    7    140000001         130038951         003697   003742   004027   003875   003962   004111   003962   004060   004079   004053   003917   003694                                      
320000601110018 00210 4113 51AUCH EB 20          0520026DEBUT 3 VOIES       0630209DEPOT FERRE         05309000111500111503200006013000       0187      003849 1027    003637   003424   003982   003892   003859   004148   003964   003861   003977   004011   003757   003648               170039441  967    160039611    7    150039791    7    140000001         130039521         003677   003752   004013   003899   003949   004129   004061   004012   004121   004054   003918   003739                                      
320000602310018 00210 4815 51DEBUT 3 VOIES       0630209FIN 3 VOIES         0650264COMPTAGE 0006 01    06500000019810019813200006013000       0187      000000                                                                                                                                 170082778         160000008         150000008         140000008         130082478                                                                                                                                                        
320000603310018 00210 4813 51FIN 3 VOIES         0650264DEBUT 3 VOIES       0690175COMPTAGE 0006 02    06600000037430037433200006011000       0187      000000                                                                                                                                 170061448         160000008         150000008         140059028 100     130061578                                                                                                                                                        
320000604310018 00210 4815 51DEBUT 3 VOIES       0690175FIN 3 VOIES         0700499COMPTAGE 0006 03    07000000013300013303200006012000       0187      000000                                                                                                                                 170082018         160000008         150000008         140000008         130081248                                                                                                                                                        
320000605310018 00210 4813 51FIN 3 VOIES         0700499RD 104              0720812COMPTAGE 0006 04    07100000022820022823200006013000       0187      006631 113                                                                                                                             170075358         160000008         150000008         140000008         130075088                                                                                                                                                        
320000700310018 00210 4813 51RD 104              0720812RD 3                0890612MIRANDE             07505000167280167283200008003000       0187      005494  83                                                                                                                             170047458         160000008         150000008         140049348 131     130056428                                                                                                                                                        
320000800310018 00210 4113 51RD 3                0890612DEPARTEMENT 65      1000408LAGUIAN             08909000102290102293200010003000       0187      004362 1197    003975   004060   004409   004445   004368   004510   004595   004677   004584   004557   004166   003971               170044431 1157    160045071 1147    150045941 1127    140046191 1137    130046431 1127    003952   004159   004429   004375   004425   004615   004755   004813   004676   004670   004322   004113                                      
320000800210018 00210 4113 51RD 3                0890612DEPARTEMENT 65      1000408LAGUIAN             08909000102290102293200010003000       0187      002181 1187    002000   002020   002210   002222   002180   002248   002289   002358   002292   002291   002076   001971               170022241 1147    160022551 1147    150022751 1127    140022861 1157    130022961 1147    001982   002076   002219   002190   002226   002317   002365   002418   002339   002344   002161   002043                                      
320000800110018 00210 4113 51RD 3                0890612DEPARTEMENT 65      1000408LAGUIAN             08909000102290102293200010003000       0187      002181 1217    001975   002040   002199   002223   002188   002262   002306   002319   002292   002266   002090   002000               170022191 1157    160022521 1157    150023191 1107    140023331 1107    130023471 1107    001970   002083   002210   002185   002199   002298   002390   002395   002337   002326   002161   002070                                      
320000901310018 01240 4813 51DEPARTEMENT 31      0000000DEBUT DEV PUJAUDRAN 0020700COMPTAGES 0009.03   0010000002690002690320001000331000340030191      000000                                                                                                                                 170000008         160000008         150000008         140000008         130000008                                                                                                                                                        
320000902310018 01240 481 251DEBUT DEV.PUJAUDRAN 0020700FIN DEV.            0050800DEV.PUJAUDRAN       0040000002982002982320001000300000000000191      000000                                                                                                                                 170000008         160000008         150000008         140000008         130000008                                                                                                                                                        
320000902210018 01240 481 251DEBUT DEV.PUJAUDRAN 0020700FIN DEV.            0050800DEV.PUJAUDRAN       0040000002982002982320001000200000000000191      000000                                                                                                                                 170000008         160000008         150000008         140000008         130000008                                                                                                                                                        
320000902110018 01240 481 251DEBUT DEV.PUJAUDRAN 0020700FIN DEV.            0050800DEV.PUJAUDRAN       0040000002982002982320001000100000000000191      000000                                                                                                                                 170000008         160000008         150000008         140000008         130000008                                                                                                                                                        
320000903310018 01240 411 251FIN DEV .PUJAUDRAN  0050800RD 654              0130143PUJAUDRAN           0060165006290006290320001000300000000000191      023384  578    021568   021863   023126   023630   023555   025316   024905   023021   024375   024492   022657   022036               170233611  518    160230341    8    150231321    8    140227501    8    130229831    8    021367   022334   023290   023470   023276   024725   024670   023049   024288   024388   023469   021992                                      
320000903210018 01240 411 251FIN DEV .PUJAUDRAN  0050800RD 654              0130143PUJAUDRAN           0060165006290006290320001000300000000000191      011728  488    010896   010993   011532   011870   011817   012608   012468   011631   012285   012247   011353   011010               170117621  468    160115881    8    150116401    8    140115371    8    130118801    8    010865   011203   011648   011759   011686   012424   012386   011757   012184   012273   011838   011109                                      
320000903110018 01240 411 251FIN DEV .PUJAUDRAN  0050800RD 654              0130143PUJAUDRAN           0060165006290006290320001000300000000000191      011656  678    010672   010870   011594   011760   011738   012708   012437   011390   012090   012245   011304   011026               170115991  618    160114461    8    150114921    8    140112131    8    130111031    8    010502   011131   011642   011711   011590   012301   012284   011292   012104   012115   011631   010883                                      
320001000310018 01240 4113 51RD 654              0130143DEBUT 3 VOIES       0320587ISLE JOURDAIN       0170800019015019015320001000300000000000187      012894  998    011753   011784   012790   013162   013215   014169   013430   013098   013464   013550   012204   012047               170130891  698    160128921    8    150126851    8    140000001         130000001         011654   012288   012826   013058   013224   013709   014114   013327   013731   013521   013053   012531                                      
320001000210018 01240 4113 51RD 654              0130143DEBUT 3 VOIES       0320587ISLE JOURDAIN       0170800019015019015320001000300000000000187      006324  998    005772   005706   006181   006441   006465   006876   006776   006467   006637   006650   006015   005858               170065161  648    160064431    8    150063271    8    140000001         130000001         005844   006123   006376   006475   006654   006865   006985   006727   006884   006764   006392   006090                                      
320001000110018 01240 4113 51RD 654              0130143DEBUT 3 VOIES       0320587ISLE JOURDAIN       0170800019015019015320001000300000000000187      006570  998    005981   006078   006609   006721   006750   007293   006654   006631   006827   006900   006189   006189               170065731  808    160064491    8    150063581    8    140000001         130000001         005810   006165   006450   006583   006570   006844   007129   006600   006847   006757   006661   006441                                      
320001100310018 01240 4815 51DEBUT 3 VOIES       0320587GIR. AUBIET EST     0350180CAHUZAC             0330500002610002610320001000300000000000187      000000                                                                                                                                 170130288         160128328         150000008         140000008         130000008                                                                                                                                                        
320001200310018 01240 481 251GIR. AUBIET EST     0350180RD 928              0380970DEV AUBIET EST      0360000003877003877320001000300000000000187      000000                                                                                                                                 170000008         160000008         150000008         140000008         130000008                                                                                                                                                        
320001300310018 01240 411 251RD 928              0380970GIR. AUBIET OUEST   0430000AUBIET              0420900004171004171320001000300000000000187      013314 2247    011986   011109   013242   013604   013493   014289   014475   013949   013836   014215   012860   012539               170132591  987    160130511         150128981         140000001         130000001         011799   012369   013000   013181   012960   013122   014329   013970   013718   014205   013385   013001                                      
320001400310018 01240 4815 51GIR. AUBIET OUEST   0430000FIN 3 VOIES         0490332MARSAN              0470000006299006299320001000300000000000187      000000                                                                                                                                 170000008         160000008         150000008         140000008         130000008                                                                                                                                                        
320001501310018 01240 4813 51FIN 3 VOIES         0490332GIR ST.CRICQ        0510490ST.CRICQ            0510300002010002010320001601300000000000189      000000                                                                                                                                 170131728         160000008    7    150000008         140126268    7    130124688    7                                                                                                                                                   
320001501210018 01240 4813 51FIN 3 VOIES         0490332GIR ST.CRICQ        0510490ST.CRICQ            0510300002010002010320001601300000000000189      000000                                                                                                                                 170065458         160000008    7    150000008         140062748    7    130061878    7                                                                                                                                                   
320001501110018 01240 4813 51FIN 3 VOIES         0490332GIR ST.CRICQ        0510490ST.CRICQ            0510300002010002010320001601300000000000189      000000                                                                                                                                 170066278         160000008    7    150000008         140063528    7    130062818    7                                                                                                                                                   
320001502310018 01240 4113 01GIR ST.CRICQ        0510490GIR . ENDOUMINGUE   0560100ENGACHIES           0530020003766003766320001601300000000000187      009732 1088    008677   007867   009595   009930   010034   010583   010870   010491   010322   010324   008980   008965               170098031  788    160098011 1108    150095201 1228    140091391 1278    130090441 1028    008635   009043   009462   009833   009319   010288   010937   010418   010224   010659   009690   009080                                      
320001502210018 01240 4113 01GIR ST.CRICQ        0510490GIR . ENDOUMINGUE   0560100ENGACHIES           0530020003766003766320001601300000000000289      004884 1058    004392   003943   004778   004999   005005   005277   005436   005309   005215   005175   004526   004478               170049641  748    160050041 1098    150048161 1198    140046191 1238    130045591    8    004404   004607   004793   004993   004783   005208   005463   005282   005169   005382   004921   004537                                      
320001502110018 01240 4113 01GIR ST.CRICQ        0510490GIR . ENDOUMINGUE   0560100ENGACHIES           0530020003766003766320001601300000000000289      004848 1128    004285   003924   004817   004931   005029   005306   005434   005182   005107   005149   004454   004487               170048391  878    160047971 1128    150047041 1258    140045201 1318    130044851 1098    004231   004436   004669   004840   004536   005080   005474   005136   005055   005277   004769   004543                                      
320001601310018 01240 4113 01GIR . ENDOUMINGUE   0560100GIR. RD 930         0620500DURAN               0610450005388005388320001601300000000000287      010991  957    010077   008957   011022   011155   011545   011893   012341   011857   011465   011337   010093   009976               170113851  967    160113001    7    150112281    7    140109121    7    130106781 1007    010090   010558   011101   011435   011439   012030   012613   012374   011829   011660   010947   010496                                      
320001601210018 01240 4113 01GIR . ENDOUMINGUE   0560100GIR. RD 930         0620500DURAN               0610450005388005388320001601300000000000287      005506  947    005075   004472   005477   005593   005762   005925   006173   005982   005786   005675   005080   004982               170057031  967    160056691    7    150056481    7    140054981    7    130053671    7    005071   005271   005501   005703   005740   005965   006307   006274   005952   005863   005531   005234                                      
320001601110018 01240 4113 01GIR . ENDOUMINGUE   0560100GIR. RD 930         0620500DURAN               0610450005388005388320001601300000000000287      005485  967    005002   004485   005545   005562   005783   005968   006168   005875   005679   005662   005013   004994               170056821  967    160056311    7    150055801    7    140054141    7    130053111 1117    005019   005287   005600   005732   005699   006065   006306   006100   005877   005797   005416   005262                                      
320001701310018 01240 4813 51GIR. RD 930         0620500DEBUT 3 VOIES       0730700NAHES               0650000011046011046320001601300000000000187      000000                                                                                                                                 170076788         160076218 134     150000008         140000008         130085698                                                                                                                                                        
