330502201110017 06300 1110241RD 1                0100600ROCADE SORTIE 9     0140000ROCADE EXTER(S11)   0110300003666003666          00000000000187      041290  797    038959   039731   041124   040125   041687   043561   042088   041902   041204   044932   040246   039767               170421851  777    160431441  737    150431171   07    140426641  727    130422861  747    040892   042533   043561   043869   043493   044123   043884   042832   041288   041231   040254   038262                                      
330502201210017 06300 1110241RD 1                0100600ROCADE SORTIE 9     0140000ROCADE INTER(S11)   0110300003666003666          00000000000187      040722  777    038967   039130   040599   039399   040372   042504   043094   042999   040816   042509   039298   038796               170409241  797    160414691  717    150415191   07    140414261  697    130414191  717    039561   040642   041656   041599   042250   042485   041400   041642   041168   040882   040179   037261                                      
330502201310017 06300 1110241RD 1                0100600ROCADE SORTIE 9     0140000EYSINES(S11)        0110300003666003666          00000000000187      082012  787    077926   078861   081723   079524   082059   086065   085182   084901   082020   087441   079544   078563               170831091  787    160846131  727    150846361   07    140840901  707    130837051  727    080453   083175   085217   085468   085743   086608   085284   084474   082456   082113   080433   075523                                      
330502202110017 06300 111 241ROCADE SORTIE 9     0140000ROCADE SORTIE 11 B  0170330ROCADE EXTER(S16)   0150000003097003097          000       0187      046999  537    044187   045020   047684   046216   044947   050873   050231   043878   045924   051520   047527   045870               170466541  527    160452611  467    150449721   07    140428711   07    130434111   07    045022   046603   048089   047730   047548   049554   048144   043628   046965   047031   046162   043490                                      
330502202210017 06300 111 241ROCADE SORTIE 9     0140000ROCADE SORTIE 11 B  0170330ROCADE INTER(S16)   0150000003097003097          000       0187      046397  657    044412   044524   046949   045479   046018   051461   048303   043768   045034   049859   046385   044475               170463651  627    160440041  577    150440871   07    140429781   07    130440681   07    044677   046128   047395   047267   047595   050330   046451   043130   047873   046868   046195   042650                                      
330502202310017 06300 111 241ROCADE SORTIE 9     0140000ROCADE SORTIE 11 B  0170330LE CHUT(S16)        0150000003097003097          000       0187      087721  647    083154   084150   088283   085615   085319   093377   093325   086877   086740   094029   086825   084666               170875781  657    160867301  587    150864911   07    140842971  347    130848301  357    084583   087245   089745   089329   089798   092039   089544   085270   088133   087913   086341   080751                                      
330502102110018 06300 111 241ECHANGEUR LA BARDE  0050000RD 1                0100600ROCADE EXTER(S08dépo0080800005932005932          000       0187      032968 0907    032927   033689   034814   035656   035445            034614   031794   031102   036311   028516   027733               170362471 0827    160377781 0777    150377561    7    140000001         130362431    7    035675   037003   037851   037522   037168   038135   039232   037299   035609   035685   030786   032977                                      
330502102210018 06300 111 241ECHANGEUR LA BARDE  0050000RD 1                0100600ROCADE INTER(S08dépo0080800005932005932          000       0187      044138 0827    042930   043284   045069   044704   044812            046548   045689   044462   045610   041072   041186               170449341 0837    160448441 0797    150442621    7    140000001         130420681    7    042890   044204   045047   044869   046008   047223   045384   045185   045595   045604   044868   042351                                      
330502102310018 06300 111 241ECHANGEUR LA BARDE  0050000RD 1                0100600CANTINOLLE(S08déport0080800005932005932          000       0187      077106 0847    075857   076973   079883   080360   080257            081162   077483   075564   081921   069588   068919               170811811 0827    160826221 0787    150820181    7    140000001         130783111    7    078565   081207   082898   082391   083176   085358   084616   082484   081204   081289   075654   075328                                      
330512400110017 06300 1110441S22                 0210560S22                 0210560S22                 0210560000000000000          00000000000318      050957  527    047706   049354   052416   051130   050159   054107   052779   046533   052966   054773   051175   048417               170494821  507    160474891  517    150461181  517    14      1         130453381  527    047406   049497                              052231   050002   045332   051479   051906   050535   046946                                      
330512400210017 06300 1110441S22                 0210560S22                 0210560S22                 0210560000000000000          00000000000318      051302  517    049183   050206   053096   051802   050652   055586   051623   047318   052904   054887   050472   047966               170505261  537    160456891  527    150436351  397    14      1         130438481  627    047434   049245   051186   050835   050680   054908   049420   047137   053248   052862   051797   047723                                      
330512400310017 06300 1110441S22                 0210560S22                 0210560S22                 0210560000000000000          00000000000318      102259  517    096889   099560   105512   102932   100811   109693   104402   093851   105870   109660   101647   096383               171000081  527    160931781  517    150897531  457    14      1         130891861  577    094840   098742   041187   040836   040681   107139   099422   092469   104727   104768   102332   094669                                      
330502500110017 06300 111 231ECH.15              0250000ECH.16              0260000TALENCE(S26)        0260000001439001439                    0193      064587 1077    060271   061425   063777   063304   063975   066605   069360   071188   069636   066408   059798   059030               170640621  797    160642641  867    150636181 1177    140623791 1157    130623181 1127    062020   063782   065671   065999   066008   064138   064377   067563   065832   063928   061997   057454                                      
330502500210017 06300 111 231ECH.15              0250000ECH.16              0260000TALENCE(S26)        0260000001439001439                    0193      067871 1117    063060   065049   068476   068578   067781   073325   073494   068609   069909   069973   063158   062879               170673321 1057    160649471 1157    150640601 1177    140620091 1177    130612271 1157    060781   064779   067055   069053   067762   071425   072667   067091   069480   068207   066344   063318                                      
330502500310017 06300 111 231ECH.15              0250000ECH.16              0260000TALENCE(S26)        0260000001439001439                    0193      132458 1097    123331   126474   132253   131882   131756   139930   142854   139797   139545   136381   122956   121909               171313941  927    161292111 1017    151276781 1177    141243881 1167    131235451 1147    122801   128561   132726   135052   133770   135563   137044   134654   135312   132135   128341   120772                                      
330540500110017 00620 1110441ECH1-1              0090820ECH1-1              0090820S74                 0090820000000000000          00000000000318      021965 1267    019277   021232   021519   021988   021801   022932   025482   025476   022024   022176   018904   020636               170218911 1257    160217771 1237    150216651 1217    140208041 1207    130204161 1217    019140   021664   020652   021938   021361   022554   025200   024757   021928   021735   020289   021429                                      
330540500210017 00620 1110441ECH1-1              0090820ECH1-1              0090820S74                 0090820000000000000          00000000000318      021936 1207    019566   020794   021722   022047   021989   022644   024712   026581   022503   022181   018455   019859               170218681 1197    160217411 1167    150218921 1157    140207491 1257    130203741 1397    019138   021085   021081   021975   021364   022358   024433   025910   022144   021797   020232   020799                                      
330540500310017 00620 1110441ECH1-1              0090820ECH1-1              0090820S74                 0090820000000000000          00000000000318      043901 1237    038843   042026   043241   044035   043790   045576   050194   052057   044527   044357   037359   040495               170437591 1227    160435181 1197    150435571 1187    140415531 1227    130407901 1307    038278   042749   041733   043913   042725   044912   049633   050667   044072   043532   040521   042228                                      
330550600110017 00630 1110241S63                 0050660S63                 0050660S63                 0050660000000000000          00000000000318      033660 2047    028024   030519   032359   034551   034266   036514   041242   039714   034142   033653   028551   030047               170338401 2007    160304391 2037    150322521 1867    140309131 1967    130298611 1817    027517   030765   031424   035268   033756   036083   042039   039389   033857   033823   031108   030786                                      
330550600210017 00630 1110241S63                 0050660S63                 0050660S63                 0050660000000000000          00000000000318      032726 1987    028932   028765   030026   033397   033517   034306   038257   044899   035773   032164   025343   026876               170329951 1947    160322511 1887    150315251 1847    140302511 1917    130296151 1837    028622   029542   030223   033884   033176   033931   036795   044360   034642   032188   030503   027775                                      
330550600310017 00630 1110241S63                 0050660S63                 0050660S63                 0050660000000000000          00000000000318      066386 2017    056956   059284   062385   067948   067783   070820   079499   084613   069915   065817   053894   056923               170668351 1977    160626901 1947    150637771 1857    140611641 1947    130594761 1827    056139   060307   061647   069152   066932   070014   078834   083749   068499   066011   061611   058561                                      
330505000110017 06600 1110241A 63                0000000FIN 2X2 VOIES       0060664MIOS                0030000006007006007          000       0187      014270  677             012760   013441   013775   015169   016400   016380   016440   015552   014160   011522   011598               170143591  677    160136711  647    150131091   07    140126741   07    130122991   07    011635   012959   013344   015510   014759   015864   015875   016166   014398   014173   013181                                               
330505000210017 06600 1110241A 63                0000000FIN 2X2 VOIES       0060664MIOS                0030000006007006007          000       0187      014386  577             011289   012286   014216   014549   015601   016018   016547   014813                                          170135491  617    160131931  617    150134511   07    140125861   07    130122771   37    011388   012608   012895   013872   013709   014290   014873   016486   013745   013081   011990                                               
330505000310017 06600 1110241A 63                0000000FIN 2X2 VOIES       0060664MIOS SIREDO         0030000006007006007          000       0187      028656  627             024049   025727   027991   029718   028001   032398   032987   030365                                          170279081  647    160268641  637    150265601   07    140252601   07    130245761   27    023023   025567   026239   029382   028468   030154   030748   032652   028143   027254   025171                                               
330500800110017 00630 1110241RD 211              0110830A 66                0240670PIERROTON(A63ech24) 0210300012859012859          00000000000187      030966 1977    025597   027947   029878   032629   032197   034193   038589   037462   032410   030925   025858   027632               170317301 1917    160307681 1857    150300761 1857    140291791 1777    130282531 1797    025134   028298   028977   033207   031521   033965   041062   038665   031455   031219   028264   028659                                      
330500800210017 00630 1110241RD 211              0110830A 66                0240670PIERROTON(A63ech24) 0210300012859012859          00000000000187      030233 1967    026796   026484   027949   031277   031516   032146   034739   043027   033792   029481   023023   024617               170308601 1937    160305671 1857    150295641 1867    140288611 1787    130280421 1817    026560   027305   027974   031862   031057   031905   035343   042194   032549   029868   027851   025533                                      
330500800310017 00630 1110241RD 211              0110830A 66                0240670PIERROTON(A63ech24) 0210300012859012859          00000000000187      061199 1977    052393   054431   057827   063906   063713   066339   073328   080489   066202   060406   048881   052249               170625901 1927    160613351 1857    150596401 1867    140580401 1787    130562951 1807    051694   055603   056951   065069   062578   065870   076405   080859   064004   061087   056115   054192                                      
330500611210017 00630 1110241S60A                0001050S60A                0001050S60A                0001050000000000000          00000000000318      030404 2077    027575   027251   028385   030448   030666   030047   034721   040716   033695   030171   024901   025708               170302281 2067    160305871 1987    150303261 1917    140300821 1887    130212861 2437    027428   028128   028922   030454   030330   030336   032783   038596   031674   029489   028424   025971                                      
330500501110017 00620 111 241A 630               0000000ECHANGEUR LA PRADE  0090992CADAUJAC(S73)       0030000011083011083          00000000000187      035911 1097    032779   034828   035626   035496   035608   037718   039666   037941   036810   037208   032907   034213               170359081 1107    160359101 1097    150350561 1107    140320311 1137    130337811 1097    033206   035771   035551   036062   035623   037278   038735   036752   036574   036240   034473   034644                                      
330500501210017 00620 111 241A 630               0000000ECHANGEUR LA PRADE  0090992CADAUJAC(S73)       0030000011083011083          00000000000187      035028 1067    032239   033624   034045   034396   035433   036710   037858   039088   036271   036143   031623   032733               170353611 1057    160355381 1037    150351121 1027    140318831 1067    130332431 1077    032590   034621   035286   036009   035248   036697   037348   038019   036159   035200   033605   033511                                      
330500501310017 00620 111 241A 630               0000000ECHANGEUR LA PRADE  0090992CADAUJAC(S73)       0030000011083011083          00000000000194      070939 1077    065018   068452   069671   069892   071041   074428   077524   077029   073081   073351   064530   066946               170712691 1087    160714481 1067    150701681 1067    140639141 1107    130670241 1087    065796   070392   070837   072071   070871   073975   076083   074771   072733   071440   068078   068155                                      
330550601110017 00630 1110241ECHANGEUR CESTAS    0060000RD 211              0110830CESTAS(S64)         0070600005808005808          00000000000187      035480 1767    029556   032045   034063   036332   036049   038428   043509   041665   036468   035428   030199   031671               170355111 1757    160345571 1677    150339051 1707    140326621 1647    130319481 1647    028961   032264   033240   036095   035403   037977   044239   041329   035629   035557   032819   032619                                      
330550601210017 00630 1110241ECHANGEUR CESTAS    0060000RD 211              0110830CESTAS(S64)         0070600005808005808          00000000000187      031860 2047    030638   029654   030344   033885   032438   031334   031811   040191   035671   032589   026769   026794               170312571 2077    160296821 2047    150302501 1977    140279901 1887    130252661 1667    030458   031335   031262   030954   030591   026776   029666   034765   034916   034134   031259   028969                                      
330550601310017 00630 1110241ECHANGEUR CESTAS    0060000RD 211              0110830CESTAS(S64)         0070600005808005808          00000000000187      068206 1877    058488   060810   064089   069729   069566   072734   081766   086564   072241   067592   055542   058547               170685061 1847    160668081 1777    150654301 1777    140629131 1777    130615631 1737    057583   061806   063463   069979   068579   071908   081034   085689   070271   067745   063322   060394                                      
330505100110017 06600 1113041FIN2x2 VOIES        0060664RD 3                0100400FACTURE             0090000003758003758          00000000000212      012273  587                      011161   012234   011909   013753   014400   014671   013184   011568   010142   009263               170124391  587    160109981  607    150092241  597    140080691  387    130090151  657             009440   010428   012953   012513   013270                                                                                            
330505100210017 06600 1113041FIN2x2 VOIES        0060664RD 3                0100400FACTURE             0090000003758003758          00000000000212      012222  597                               012250   012577   012726   012271   013197            010309                                 170127011  617    160112821  537    150102481  587    140081331  547    130091131  637             011514   012374   012920   012790   012766                                                                                            
330505100310017 06600 1113041FIN 2X2 VOIES       0060664RD 3                0100400Facture             0090000003758003758          00000000000187      024495  597                               024484   024486   026479   026671   027868            021877                                 170251401  597    160222801  567    150194721  597    140162021  457    130181281  647             020954   022802   025873   025303   026036                                                                                            
330513101110017 06300 1110441S27                 0270330S27                 0270330S27                 0270330000000000000          00000000000318      062750 1187    058059   058984   060575   061973   061124   063691   067351   069221   068215   065726   059161   058616               170609081 1207    160615251 1157    150155581  877    140465281 1037    130598701 1057    058636   059162   061389   061731   062022   062537   061798   064015   063074   061368   059575   055528                                      
330513101210017 06300 1110441S27                 0270330S27                 0270330S27                 0270330000000000000          00000000000318      065586 1017    061455   064100   066887   067060   064979   070084   070002   066198   067112   067483   060739   060875               170654331 1177    160598171 1117    150592571 1097    140586861 1057    130566611 1057    059196   063095   064973   066957   065410   070023   069879   064362   067487   066682   064952   062195                                      
330513101310017 06300 1110441S27                 0270330S27                 0270330S27                 0270330000000000000          00000000000318      128336 1097    119514   123084   127462   129033   126103   133775   137353   135419   135327   133209   119900   119491               171263411 1197    161213421 1137    150748151 1047    141052141 1047    131165311 1057    117832   122257   126362   128688   127432   132560   131677   128377   130561   128050   124527   117723                                      
330502401110017 06300 1110441S24                 0230700S24                 0230700S24                 0230700000000000000          00000000000318      047978  577    045176   046912   047746   048348   047475   051024   049288   044007   050154   051375   048253   046058               170471241  577    160456351  567    150445121  567    14      1         130440691  607    045077   047216   048516   047710   047640   049974   046462   042785   048683   049046   047692   044880                                      
330502401210017 06300 1110441S24                 0230700S24                 0230700S24                 0230700000000000000          00000000000318      049624  537    047418   048487   049645   050515   049345   054113   050748   046513   051394   052710   048252   046421               170491561  557    160451451  547    150434981  557    14      1         130422071  547    045925   047695   049554   049764   049367   053675   048221   046210   051905   051084   049903   046707                                      
330502401310017 06300 1110441S24                 0230700S24                 0230700S24                 0230700000000000000          00000000000318      097602  557    092594   095399   097391   098863   096820   105137   100036   090520   101548   104085   096505   092479               170962801  567    160907801  557    150880101  567    14      1         130862761  577    091002   094911   098070   097474   097007   103649   094683   088995   100588   100130   097595   091587                                      
330572203110017 06300 1110441ECH11               0170160ECH11               0170160S17                 0170160000000000000          00000000000318      036175  627    033891   034941   037404   036006   034531   038616   038537   033475   035511   039568   036863   034708               170363031  637    160031751  227    150249261  757    140274251  767    130304441  727             036264   037841   037076   036694   038341   037168   033499   036358   036823   036011   033216                                      
330523402110017 06300 1110241ECH.19              0310000ECH.21              0331224ROCADE EXTER(S32)   0310345003924003924          00000000000187      069236 1357    063817   065408   067714   069768   067633   069366   073923   079736   074681   071519   062467   064406               170690341 1377    160696031 1297    150688571 1297    140677111 1237    130670011 1247    064528   067268   069278   070019   068962   070236   071357   073790   071370   070910   066904   063780                                      
330523402210017 06300 1110241ECH.19              0310000ECH.21              0331224ROCADE INTER(S32)   0310345003924003924          00000000000187      071308 1387    065871   069177   071690   073175   070383   075462   079148   075449   072368   072068   063887   066798               170725251 1357    160711411 1317    150697621 1337    140681331 1287    130666941 1297    065049   069462   071190   073747   071460   076382   081176   074302   074614   073953   069924   069045                                      
330523402310017 06300 1110241ECH.19              0310000ECH.21              0331224LA HOURCADE(S32)    0310345003924003924          00000000000187      140544 1367    129688   134585   139404   142943   138016   144828   153071   155185   147049   143587   126354   131204               171415591 1367    161407441 1307    151386191 1317    141358441 1267    131336951 1267    129577   136730   140468   143766   140422   146618   152533   148092   145984   144863   136828   132825                                      
330503401110017 06300 4140401S31                 0310968S31                 0310968S31                 0310968000000000000          00000000000316      070334 1337    063801   065383   067715   069752   068593   069343   073806   079667   074545   070354                                 170684131 1317    160694651 1267    150686681 1237    140672731 1217    130668641 1217    064439   067120   068535   069910   068812   068306   068952   074186   070797   069460   066569   063808                                      
330503401210017 06300 4140401S31                 0310968S31                 0310968S31                 0310968000000000000          00000000000316      072357 1357    065763   069069   071586   073001   071172   075157   078910   075227   072190   069580                                 170717911 1367    160708041 1387    150693301 1417    140671891 1537    130664041 1747    064955   069407   070458   073610   071187   073953   078435   074807   073432   072809   069412   068906                                      
330503401310017 06300 4140401S31                 0310968S31                 0310968S31                 0310968000000000000          00000000000316      142691 1347    129564   134452   139301   142753   139765   144500   152716   154894   146735   139934                                 171402041 1347    161402691 1327    151379981 1327    141344621 1377    131332681 1477    129394   136527   138993   143520   139999   142259   147387   148993   144229   142269   135981   132714                                      
330532200110017 06300 1110241S14                 0130050S14                 0130050S14                 0130050000000000000          00000000000318      044289  647                                                                                     048804   043684   043274               170439921  687    160457681  667    150454201  667    140445601  657    130444611  667    044008   045718   047662   047356   046964   048348   048193                                                                                   
330532200210017 06300 1110241S14                 0130050S14                 0130050S14                 0130050000000000000          00000000000318      041324  647                                                                                     038895   041898   041395               170468931  637    160433401  597    150430701  607    140423271  587    130428021  627    042198   043290   044753   043962   044458   045189   044092                                                                                   
330532200310017 06300 1110241S14                 0130050S14                 0130050S14                 0130050000000000000          00000000000318      085613  647                                                                                     087699   085582   084669               170908851  667    160891081  637    150884901  637    140868871  627    130872631  647    086206   089008   092415   091318   091422   093537   092285                                                                                   
330502300110017 06300 1110241ECH.11              0170330ECH.15              0250000ROCADE EXTER(S19)   0170330007424007424          00000000000187      048031  507    045233   046465   049344   046420   046917   051299   050134   044743   048890   052346   048704   045825               170470421  517    160434881  477    15      1         140381991  517    130411601  537    042604   046321   048764   047932   047780   050385   047851   043670   048468   048833   047745   044154                                      
330502300210017 06300 1110241ECH. 11             0170330ECH. 15             0250000ROCADE INTER(S19)   0170330007424007424          00000000000187      049316  687    047211   047894   050497   047624   048431   053227   049972   046244   050341   053554   049829   046948               170487461  677    160452361  607    15      1         140434711  527    130441231  567    046310   048059   049671   049059   049115   052607   047596   045826   051189   050511   049671   045341                                      
330502300310017 06300 1110241ECH. 11             0170330ECH. 15             0250000PESSAC(S19)         0170330007424007424          00000000000187      097347  597    092444   094359   099841   094044   095348   104526   100106   090987   099231   105900   098533   092773               170957881  597    160887241  547    15      1         140816701  527    130852831  557    088914   094380   098435   096991   096895   102992   095447   089496   099657   099344   097416   089495                                      
330522100110017 06300 1110241A 10                0000000ECHANGEUR LA BARDE  0050000ROCADE EXTER(Ech4)  0020000004954004954          00000000000188      052862  617    051053   051969   053751   053179   053330   055746   057459   052061   053751   055334   047259   049322               170532261  597    160540051  557    150537531   07    140385201  557    130508221  617    051350   052065   053659   052245   053910   054789   056593   051739   053874   054048   053046   051396                                      
330522100210017 06300 1110241A 10                0000000ECHANGEUR LA BARDE  0050000ROCADE INTER(Ech4)  0020000004954004954          00000000000188      054225  667    052228   050783   055077   055056   055230   059196   057041   054835   055910   057183   048593   049294               170549291  657    160547041  607    150538191   07    140524891  647    130519591  677    051414   053407   055057   054173   055881   057689   055574   055101   057560   056417   055161   051715                                      
330522100310017 06300 1110241A 10                0000000ECHANGEUR LA BARDE  0050000ECHANGEUR LABARDE   0020000004954004954          00000000000188      107087  647    103281   102752   108828   108235   108560   114942   114500   106896   109661   112517   095852   098616               171081551  627    161087091  587    151075721   07    140910091  607    131027811  647    102764   105472   108716   106418   109791   112478   112167   106840   111434   110465   108207   103111                                      
330504601110017 02300 411 601ECH.25              0400703A 10                0440507S47 EXTER           0440013003800003800          000       0290      062437 1537    058358   059998   062672   063652   064054   064218   067283   070025   065454   063529   054772   054941               170624151 1527    160627391 1477    150608731 1477    140000001         130000001         057691   060170   061095   063332   062710   063321   066209   067790   063969   063020   060879   058790                                      
330504601210017 02300 411 601ECH.25              0400703A 10                0440507S47 INTER           0440013003800003800          000       0290      060937 1277    056521   059302   061277   062490   061594   061981   068100   065183   061755   062179   054236   056628               170608341 1277    160610391 1267    150595641 1277    140000001         130000001         056100   059382   059650   062439   060597   062545   067026   063472   061364   060924   058541   057972                                      
330504601310017 02300 411 601ECH.25              0400703A 10                0440507S47 EXTER ET INTER  0440013003800003800          000       0290      123374 1407    114879	119300	 123949	  126142   125648   126199   135383   135208   127209	125708	 109008	  111569               171232491 1407    161237781 1367    151204371 1377    140000001         130000001         113791   119552   120745   125771   123307   125866   133235   131262   125333   123944   119420   116762                                      
330502000110017 06300 1110241ECH2                0010240ECH2                0010240ECH2                0010240000000000000          00000000000318      043138  687    041547   042537   043718   043830   043413   045396   047762   043218   043791   044854   037839   039652               170436221  667    160441311  627    150431891  627    140421201  637    130417391  657    041743   042459   043599   043126   044008   044377   047126   042787   043487   044412   043607   042629                                      
330502000210017 06300 1110241ECH2                0010240ECH2                0010240ECH2                0010240000000000000          00000000000318      043730  657    042213   042643   044585   044336   043939   047415   045879   044907   044745   045210   038782   040017               170442791  647    160439311  597    150430061  607    140419191  617    130415471  627    042085   042955   044128   043810   044808   045964   044744   044816   045844   045117   044551   042495                                      
330502000310017 06300 1110241ECH2                0010240ECH2                0010240ECH2                0010240000000000000          00000000000318      086868  667    083760   085180   088303   088166   087352   092811   093641   088125   088536   090064   076621   079669               170879011  657    160880621  617    150861951  617    140840391  627    130832861  647    083828   085414   087727   086936   088816   090341   091870   087603   089331   089529   088158   085124                                      
330503100110017 06300 1110241ECH.16              0260600ECH.19              0310000ROCADE EXTER(S28)   0270200003917003917          00000000000187      064553 1247    059578   060783   062768   063966   063088   065516   068464   070602   070279   067780   061277   060264               170631931 1257    160637941 1177    150631171   07    140617511  817    130615631 1057    060677   062360   064331   064159   064190   064806   063711   065405   065422   063891   061810   057548                                      
330503100210017 06300 1110241ECH.16              0260600ECH.19              0310000ROCADE INTER(S28)   0270200003917003917          00000000000187      068092 1207    063411   065913   069024   069667   067650   072504   073478   068873   069740   069744   063678   063313               170680521 1187    160665181 1157    150653301 1147    140633601 1127    130624271 1107    062284   065674   067062   069960   068331   071429   071871   068238   070383   069771   067093   064514                                      
330503100310017 06300 1110241ECH.16              0260600ECH.19              0310000CHANTELOISEAU(S28)  0270200003917003917          00000000000187      132645 1227    122989   126696   131792   133633   130738   138020   141942   139475   140019   137524   124955   123577               171312451 1227    161303121 1167    151284471  587    141251111  977    131239901 1077    122961   128034   131393   134119   132521   136235   135582   133643   135805   133662   128903   122062                                      
330500600110017 00630 1110241A 630               0000000ECHANGEUR CESTAS    0060000CESTAS(S62)         0060000006177006177          00000000000187      033561 1977    027939   030426   032258   034447   034145   036391   041143   039621   034034   033547   028473   029972               170339931 1927    160325051 2107    150317881 1787    140309781 1707    130295201 1517    027302   030511   031276   035095   033644   035958   041943   039298   033749   033721   034710   030712                                      
330500600210017 00630 1110241A 630               0000000ECHANGEUR CESTAS    0060000CESTAS(S62)         0060000006177006177          00000000000187      037024 1707    035535   035422   037029   039880   039975   041194   044432   049174   035234   035802   024384   025834               170393891 1637    160384611 1547    150375551 1527    140367281 1467    130353601 1477    035020   036027   037172   040224   039580   040470   042418   049882   041319   038934   037358   034260                                      
330500600310017 00630 1110241A 630               0000000ECHANGEUR CESTAS    0060000CESTAS(S62)         0060000006177006177          00000000000187      063965 2027    055514   057677   060643   064895   064811   066438   075864   080337   067729   063718   053374   055680               170642211 1997    160630921 2047    150621141 1847    140610601 1797    130508061 1867    054730   058639   060198   065549   063974   066294   074726   077894   065423   063210   063134   056683                                      
330001700110017 00890 4110201RD 115              0470300RN 230              0500260LE POTEAU D YVRAC   0470500002983002983          00000000000187      029725  887                                                                                     031261   029215   029177               170320241 1057    160341561 1017    150294821 1037    140275781  997    130020041 3817                                                 034228   032358            031249   032015                                                        
330001700210017 00890 4110201RD 115              0470300RN 230              0500260LE POTEAU D YVRAC   0470500002983002983          00000000000187      029868  877                                                                                     031775   029632   028805               170345641 1067    160328711  977    150299421  987    140291271  937    130288501  917                                                 035979   034149            032811   035187                                                        
330001700310017 00890 4110201RD 115              0470300RN 230              0500260LE POTEAU D YVRAC   0470500002983002983          00000000000187      059593  877                                                                                     063036   058847   057982               170665881 1067    160670271  997    150594241 1017    140567051  967    130308541 1127                                                 070207   066507            064060   067202                                                        
330501001110017 00630 4130201S66                 0210739S66                 0210739S66 ECH23           0210739000000000000          00000000000316      033545 1947    026346   028825   030888   034423   034403   036253   044735   043039   034767   032303   027096   028948               170332871 1917    160321311 1877    150313411 1847    140321341 1817    130291521 1797    025631   028961   029704   035119   033157   035435   044741   041847   033116   032419   029182   029709                                      
330501001210017 00630 4130201S66                 0210739S66                 0210739S66 ECH23           0210739000000000000          00000000000316      032271 1907    027940   027741   029449   033572   034008   034477   039073   046864   035890   027283   024656   025842               170327451 1857    160318741 1817    150305711 1797    140296901 1747    130288501 1757    027251   028264   029084   033643   033173   034074   037745   046689   034747   031653   029432   026779                                      
330501001310017 00630 4130201S66                 0210739S66                 0210739S66 ECH23           0210739000000000000          00000000000316      065816 1927    054286   056566   060337   067995   068411   070730   083808   089903   070657   059586   051752   054790               170660321 1887    160640051 1847    150619121 1827    140618241 1787    130580021 1777    052882   057225   058788   068762   066330   069509   082486   088536   067863   064072   058614   056488                                      
160001601110017 01410 4113 51RN 10 RTE COGNAC    0680000RD 736 JARNAC       0940160BOURRAS             0860170025948025113          00000000000187      007173  927    006307   006580   007076   007425   007416   007939   008373   007807   007658   007237   006210   006011               170073051  937    160072141  917    150071541   07    140069331   07    130068351   07    006261   006728   007008   007710   007489   007942   008453   007917   007618   007211   006918   006377                                      
160001601210017 01410 4113 51RN 10 RTE COGNAC    0680000RD 736 JARNAC       0940160BOURRAS             0860170025948025113          00000000000187      007301  917    006438   006652   007074   007567   007593   007953   008370   008167   008029   007361   006354   006021               170074281  937    160073571  907    150072801   07    140070451   07    130069581   07    006414   006784   007083   007737   007712   008055   008347   008316   007816   007329   007090   006421                                      
160001601310017 01410 4113 51RN 10 RTE COGNAC    0680000RD 736 JARNAC       0940160BOURRAS             0860170025948025113          00000000000187      014474  917    012745   013232   014150   014992   015009   015892   016743   015974   015687   014598   012564   012032               170147331  937    160145711  917    150144341   07    140139781   07    130137931   07    012675   013512   014091   015447   015201   015997   016800   016233   015434   014540   014008   012798                                      
160000402110017 00100 411 251RN 141 LES PLANES   0500950RD 699 ST. MICHEL   0530900GIRAC               0530650002969002969          00000000000187      017729 2797    015804   016671   017533   018097   018161   018203   020349   019002   018216   018663   015365   016582               170171741 2837    160166211 2827    150161581 2847    140156291 2867    130145491 2957    015026   016102   016664   017450   017002   016911   019514   018128   017581   017512   017146   016964                                      
160000402210017 00100 411 251RN 141 LES PLANES   0500950RD 699 ST. MICHEL   0530900GIRAC               0530650002969002969          00000000000187      017779 2847    016144   016296   017208   017938   018408   018515   018908   019809   018979   018926   015582   016530               170173111 2907    160168071 2867    150162761 2867    140158931 2887    130150401 3067    015530   016123   016840   017626   017400   017747   018002   019072   017973   017437   017445   016468                                      
160000402310017 00100 411 251RN 141 LES PLANES   0500950RD 699 ST. MICHEL   0530900GIRAC               0530650002969002969          00000000000187      035508 2827    031948   032967   034741   036035   036569   036718   039257   038811   037195   037589   030947   033112               170344851 2877    160334281 2847    150324341 2857    140315221 2877    130295891 3017    030556   032225   033504   035076   034402   034658   037516   037200   035554   034949   034591   033432                                      
160001502110017 01410 4110201RD 13 LA ROCHEFOU.  0430000RN 10 ANGOULEME NORD0700000RUELLE              0580500019284018513          00000000000187      012711 2237    011184   011724   012469   012979   013181   013779   014923   014046   013523   013167   010485   010980               170125351 2187    160121331 2127    150116241 2087    140113051 2117    130106581 2127    010742   011541   011910   012641   012588   013195   014367   013587   013077   012767   012276   011664                                      
160001502210017 01410 4110201RD 13 LA ROCHEFOU.  0430000RN 10 ANGOULEME NORD0700000RUELLE              0580500019284018513          00000000000187      012893 2127    011418   011746   012417   013090   013324   013790   014410   014574   014017   013376   011531   010944               170126831 2107    160122721 2057    150117461 2027    140114421 2057    130111211 2077    011005   011704   012031   012604   012836   013330   013799   014231   013542   012957   012502   011605                                      
160001502310017 01410 4110201RD 13 LA ROCHEFOU.  0430000RN 10 ANGOULEME NORD0700000RUELLE              0580500019284018513          00000000000187      025604 2177    022602   023470   024886   026069   026505   027569   029333   028620   027540   026543   022016   021924               170252181 2147    160244051 2097    150233701 2057    140227471 2087    130217791 2107    021747   023245   023941   025245   025424   026525   028166   027818   026619   025724   024778   023269                                      
160000401110017 00100 415 251ECH NORD ANGOULEME  0450000RN 141 LES PLANES   0500950L EPINEUIL          0470300006347006347          00000000000187      025564 2327    022831   023878   025222   026164   026114   026854   028988   027811   027039   027066   021804   022826               170248381 2317    160242231 2267    150233271 2297    140225711 2327    130221161 2327    021887   023571   024197   025598   024909   025871   028242   026197   026110   022575   024866   024005                                      
160000401310017 00100 415 251ECH NORD ANGOULEME  0450000RN 141 LES PLANES   0500950L EPINEUIL          0470300006347006347          00000000000187      043343 2537    038975   040174   042430   044102   044522   045369   047896   047620   046018   045992   037386   039356               170421491 2557    160410301 2517    150396031 2537    140384641 2557    130371561 2627    037417   039694   041037   043224   042309   043618   046244   045269   044083   040012   042311   040473                                      
160000401210017 00100 415 251ECH NORD ANGOULEME  0450000RN 141 LES PLANES   0500950L EPINEUIL          0470300006347006347          00000000000187      025461 2287    023255   023566   024899   026048   026322   026764   027429   028609   027494   026752   021734   022490               170251821 2327    160244661 2327    150234451 2327    140228701 2357    130223601 2377    022288   023636   024262   025527   025285   026085   026554   027740   026359   025525   025251   023603                                      
160000100110017 00100 411 251DEPARTEMENT 79      0000000ECH NORD.RUFFEC     0050000RUFFEC              0020930005279005279          86000090030187      008626 3557    007452   008034   008418   009331   008308   008576   010844   009999   008732   008611   007296   007832               170088511 3567    160086121 3537    150084651 3587    140083121 3607    130081641 3657    007204   008057   008131   009255   008827   009087   011117   010505   008813   008712   008011   008408                                      
160000100210017 00100 411 251DEPARTEMENT 79      0000000ECH NORD.RUFFEC     0050000RUFFEC              0020930005279005279          86000090031187      008868 3587    007697   007747   008237   009268   009505   009087   009759   011602   009310   008687   007688   007714               170089601 3597    160088501 3547    150085941 3557    140083541 3607    130082661 3667    007518   008177   008180   009397   009149   009163   009934   011607   009211   008713   008396   008009                                      
160000100310017 00100 411 251DEPARTEMENT 79      0000000ECH NORD.RUFFEC     0050000RUFFEC              0020930005279005279          86000090030187      017494 3577    015149   015781   016655   018599   017813   017663   020603   021601   018042   017298   014984   015546               170178111 3587    160174621 3547    150170591 3577    140166661 3607    130164301 3667    014722   016234   016311   018652   017976   018250   021051   022112   018024   017425   016407   016417                                      
160001802110017 01410 411 201RD 736 MONTAGAN     0960400GIR. CHA BERNARD    1050130GENSAC              1030059008587008560          00000000000187      009858  847    008981   009224   009582   009930   009768   010826   011334   010529   010679   010302   008423   008532               170101651  847    160092601  957    150092541   07    140096021   07    130092331   07    008695   009128   009222   012836   010541   010592   010751   010691   010526   010182   009724   009087                                      
160001802210017 01410 411 201RD 736 MONTAGAN     0960400GIR. CHA BERNARD    1050130GENSAC              1030059008587008560          00000000000187      009925  827    009009   009209   009695   010149   010085   010827   011262   010821   010913   010305   008377   008487               170100181  777    160100391  787    150096871  777    140094851  777    130093511  787    008959   009379   009703   010186   009175   010816   011001   011178   010746   010193   009815   009046                                      
160001802310017 01410 411 201RD 736 MONTAGAN     0960400GIR. CHA BERNARD    1050130GENSAC              1030059008587008560          00000000000187      019783  837    017990   018433   019277   020079   019853   021653   022596   021350   021592   020607   016800   017019               170201831  817    160192991  867    150189411  407    140190871  397    130185841  397    017654   018507   018925   023022   019716   021408   021752   021869   021272   020375   019539   018133                                      
160000102110017 00100 411 251ECH NORD.RUFFEC     0050000ECH NORD ANGOULEME  0450000AUSSAC              0270080040619039586          00000000000187      011382 2747                                        011420   011830   013105   012778   011241   011124   009464   010094               170109511 2827    160110831 2737    150111291 2977    140103861 3027    130106671 3107    009592   010463   010703   011661   011293   011639   012266                     010308                                                        
160000102210017 00100 411 251ECH NORD.RUFFEC     0050000ECH NORD ANGOULEME  0450000AUSSAC              0270080040619039586          00000000000187      011094 2897    009879   010116   010486   011527   011625   011543   011979   013445   011668   011106   009823   009842               170112301 2897    160109311 2887    150104431 3007    140104821 2967    130101401 3087    009740   010429   010603   011640   011394   011543   012083   013444   011601   011138   010869   010226                                      
160000102310017 00100 411 251ECH NORD.RUFFEC     0050000ECH NORD ANGOULEME  0450000AUSSAC              0270080040619039586          00000000000187      022476 2827                                        020925   020917   022864   024380   020551   019811   017152   017808               170199111 3177    160199331 3097    150197231 3227    140187401 3287    130189331 3357    017110   018640   018883   021058   020442   020802   022200   001608            019021                                                        
160000902110017 00100 411 201BARBEZIEUX SUD      0880750DEPARTEMENT 17      1011148REIGNAC             0900000013161013161          17000010030187      012096 3967    010440   011443   011681   012975   012753   012693   014558   013786   012200   012030   010030   010487               170118301 3977    160113761 3897    150110111 3957    140105111 3917    130102751 4017    009876   011045   011141   012177   011805   011932   014391   013362   011804   011879   011212   011260                                      
160000902210017 00100 411 201BARBEZIEUX SUD      0880750DEPARTEMENT 17      1011148REIGNAC             0900000013161013161          17000010030187      012107 4087    010642   011100   011323   012931   012893   012614   013261   014731   012756   012256   010460   010233               170119041 4107    160115741 4057    150110901 4087    140106161 4067    130103541 4187    010194   011062   011184   012271   012029   012069   013019   014509   012317   011913   011517   010701                                      
160000902310017 00100 411 201BARBEZIEUX SUD      0880750DEPARTEMENT 17      1011148REIGNAC             0900000013161013161          17000010030187      024203 4027    021082   022543   023004   025906   025646   025307   027819   028517   024956   024286   020490   020720               170237341 4047    160229501 3977    150221011 4027    140211271 3997    130206291 4107    020070   022107   022325   024448   023834   024001   027410   027871   024121   023792   022729   021961                                      
160000800110017 00100 411 201BARBEZIEUX NORD     0800000BARBEZIEUX SUD      0880750BARBEZIEUX          0820500008823008823          00000000000599      011530 4187    009989   010947   011210   012229   012182   012197   013642   012951   011713   011565   009643   010029               170113311 4187    160108131 4167    150104761 4187    140100351 4207    130098021 4257    009405   010506   010631   011657   011286   011426   013851   012755   011442   011392   010797   010739                                      
160000800210017 00100 411 201BARBEZIEUX NORD     0800000BARBEZIEUX SUD      0880750BARBEZIEUX          0820500008823008823          00000000000599      011706 4157    010294   010682   010954   012313   012380   012230   012866   014270   012450   011935   010062   009938               170115501 4167    160112071 4117    150105731 4147    140100401 4157    130099541 4257    009832   010677   010878   011918   011771   011761   012600   014076   012055   011520   011159   010293                                      
160000800310017 00100 411 201BARBEZIEUX NORD     0800000BARBEZIEUX SUD      0880750BARBEZIEUX          0820500008823008823          00000000000599      023236 4167    020283   021629   022164   024542   024562   024427   026508   027221   024163   023500   019705   019967               170228811 4177    160220201 4147    150210491 4167    140200751 4187    130197561 4257    019237   021183   021509   023575   023057   023187   026451   026831   023497   022912   021956   021032                                      
160001700110017 01410 4113001RD 736 JARNAC       0940160RD 736 MONTAGAN     0960400JARNAC              0950023002255002255          00000000000193      006511 1017    005484   005795   006042   006454   006258   007176   007701   007116            005791                                 170066491 1027    160065161 1007    150061601   07    140061781   07    130059911   07    005594   006030   006347   006962   006780   007213   007809   007425   006958   006618   006285   005735                                      
160001700210017 01410 4113001RD 736 JARNAC       0940160RD 736 MONTAGAN     0960400JARNAC              0950023002255002255          00000000000193      006540  977    005520   005831   006033   006635   006297   007286   007698   007465            005324                                 170067831  987    160066521  947    150062731   07    140062361   07    130060931   07    005732   006076   006400   006975   007000   007325   007716   007893   007230   006731   006437   005837                                      
160001700310017 01410 4113001RD 736 JARNAC       0940160RD 736 MONTAGAN     0960400JARNAC              0950023002255002255          00000000000193      013051  997    011004   011626   012075   013089   012555   014462   015399   014581            011115                                 170134321 1007    160131681  977    150124331   07    140124141   07    130120841   07    011326   012106   012747   013937   013780   014538   015525   015318   014188   013349   012722   011572                                      
160000500110017 00100 4110201CHARDIN             0670485CHARDIN             0670485CHARDIN             0670485000000000000          00000000000318      013925 3547    012459   012803   013325   014537   014543   014860   015139   016501   014897   014263   011964   012133               170138181 3567    160133391 3517    150123751 3727    140120961 3537    130102531 3557    011979   012823   013091   014181   014092   014173   014831   016266   014416   013893   013491   012517                                      
160000500210017 00100 4110201CHARDIN             0670485CHARDIN             0670485CHARDIN             0670485000000000000          00000000000318      013918 3497    012185   013116   013630   014582   014392   015291   016511   015621   014216   013974   011734   012283               170137161 3497    160131441 3457    150117231 3637    140121511 3567    130104941 3617    011564   012758   012944   014051   013735   014125   016243   015210   013831   013814   013171   013065                                      
160000500310017 00100 4110201CHARDIN             0670485CHARDIN             0670485CHARDIN             0670485000000000000          00000000000318      027843 3517    024644   025919   026955   029119   028935   030151   031650   032122   029113   028237   023698   024416               170275341 3537    160264831 3487    150240981 3687    140242471 3547    130207471 3587    023543   025581   026035   028232   027827   028298   031074   031476   028247   027707   026662   025582                                      
160001901110017 01410 4153 51GIR. CHA. BERNARD   1050130GIR. CROIN          1100000COGNAC              1080960005137005137          00000000000187      009728  807    008707   008951   009677   009818   009923   010651   010931   010556   010418   010127   008303   008672               170096061  797    160098161  827    150096651   07    140093961   07    130092001   07    008598   009021   009412   009980   009895   010455                     010109   009872   009533   009181                                      
160001901210017 01410 4153 51GIR. CHA. BERNARD   1050130GIR. CROIN          1100000COGNAC              1080960005137005137          00000000000187      009468  757    008561   008776   009337   009399   009421   010045   010527   010664   010446   009870   008108   008439               170091851  747    160096261  787    150094921   07    140092351   07    130091711   07    008079   008236   008591   009243   009606   010027                     010103   009602   009364   008976                                      
160001901310017 01410 4153 51GIR. CHA. BERNARD   1050130GIR. CROIN          1100000COGNAC              1080960005137005137          00000000000187      019196  777    017268   017727   019014   019217   019344   020696   021458   021220   020864   019997   016411   017111               170187911  777    160194421  807    150191571   07    140186311   07    130183711   07    016677   017257   018003   019223   019501   020482                     020212   019474   018897   018157                                      
160002000110017 01410 4113 51GIR. CROIN          1100000DEPARTEMENT 17      1160367MOULIN ST LAURENT   1130660006657006657          17000210030187      006718  797    005464   005783   006056   006566   007304   007683   008474   008229   007244   006719   005575   005507               170069761  767    160067181  807    150065361   07    140066811   07    13      1         005613   006291   006518   007394   007122   007534   008231   008235   007701   006771   006333   005938                                      
160002000210017 01410 4113 51GIR. CROIN          1100000DEPARTEMENT 17      1160367MOULIN ST LAURENT   1130660006657006657          17000210030187      006719  857    005342   005668   005936   006607   007454   007671   008299   008405   007399   006776   005632   005442               170070411  847    160066851  887    150065381   07    140066171  837    13      1         005749   006389   006594   007423   007313   007485   008019   008535   008012   006701   006402   005848                                      
160002000310017 01410 4113 51GIR. CROIN          1100000DEPARTEMENT 17      1160367MOULIN ST LAURENT   1130660006657006657          17000210030187      013437  827    010806   011451   011992   013173   014758   015354   016773   016634   014643   013495   011207   010949               170140171  807    160134031  847    150130741   07    140132981  417    13      1         011362   012680   013112   014817   014435   015019   016250   016770   015713   013472   012735   011786                                      
330000102110017 00100 411 251RD 18               0100137RN 137              0200120PEUJARD             0170077009398009398          000       0187      022038 2407    020386   021421   022213   022858   022843   023536   024275   022666   022571   022664   019363   019605               170218711 2387    160210511 2357    150202931 2397    140195901 2387    130190411 2387    019704   020983   021475   022045   021916   022501   024060   022281   022381   022285   021511   021255                                      
330000102210017 00100 411 251RD 18               0100137RN 137              0200120PEUJARD             0170077009398009398          000       0187      022032 2507    020554   021066   021928   022787   022910   023374   022981   023557   023149   022902   019694   019413               170219251 2517    160213011 2487    150204021 2517    140197311 2517    130192411 2537    020016   021045   021635   022208   022254   022437   022738   023183   022842   022149   021855   020710                                      
330000102310017 00100 411 251RD 18               0100137RN 137              0200120PEUJARD             0170077009398009398          000       0187      044070 2457    040940   042487   044141   045645   045753   046910   047256   046223   045720   045566   039057   039018               170437961 2457    160423521 2427    150406951 2457    140393211 2457    130382821 2467    039720   042028   043110   044253   044170   044938   046798   045464   045223   044434   043366   041965                                      
330001600110017 00890 411 251RD 13 BEYCHAC       0420223RD 115 POTEAU YVRAC 0470300MONTUSSAN (LIB-BX)  0430100005057005057          000       0187      030903  917    027742   028839   030512   031077   031196   032623   034240   031619   031797   031833   029074   028564               170312411  917    160300751   07    150288881   07    140280041   07    130270671   07                                        030924   032070   033555   031036   031472   031298   030123   029448                                      
330001600210017 00890 411 251RD 13 BEYCHAC       0420223RD 115 POTEAU YVRAC 0470300MONTUSSAN (BX-LIB)  0430100005057005057          000       0187      030077  947    027012   028121   029722   030389   030238   031662   031506   031462   031399   031257   028823   027681               170303741  927    160293221   07    150283251   07    140272881   07    130269371   07                                        030201   031340   030908   031037   031135   030586   029354   028432                                      
330001600310017 00890 411 251RD 13 BEYCHAC       0420223RD 115 POTEAU YVRAC 0470300MONTUSSAN           0430100005057005057          000       0187      060980  937    054754   056960   060234   061466   061434   064285   065746   063081   063196   063090   057897   056245               170616151  927    160593971   07    150572131   07    140552921   07    130540041   07                                        061125   063410   064463   062073   062607   061884   059477   057880                                      
330514611110017 02300 4110401S48                 0431000S48                 0431000S48                 0431000000000000000          00000000000318      033398 2077    029991   030768   032665   033898   034867   033806   037081   043554   035819   032938   027226   027812               170335271 2057    160334201 1997    150311241 1967    140302001 1907    130309931 1917    029297   031319   031331   034576   033255   033404   037244   042040   034863   033011   031133   030639                                      
330514610210017 02300 4110401S48                 0431000S48                 0431000S48                 0431000000000000000          00000000000318      025231  927    024766   025283   026314   025215   025176   027280   025655   023711   025766   026268   023538   023835               170252341  927    160255241  897    150249201  927    140237961  967    130245731  957    024859   025285   026021   025184   025587   026280   024525   023075   025846   026294   025895   024032                                      
330514610310017 02300 4110401S48                 0431000S48                 0431000S48 SENS1+2         0431000000000000000          00000000000318      058629 1497    054757	056051	 058979	  059113   060043   061086   062736   067265   061585	059206	 050764	  051647               170587611 1487    160589441 1447    150560441 1447    140539961 1437    130555661 1437    054156   056604   057352   059760   058842   059684   061769   065115   060709   059305   057028   054671                                      
330504300110017 02300 4110401ECH.24              0390541ECH.25              0400703S46                 0400258001207001207          33000000000212      060189 1527    057135   058593   060796   062136   061584   060997   062827   066567   063195   060621   053750   054068               170601981 1507    160604721 1467    150575271 1487    140000001         130000001         056202   058093   058837   060767   060133   059946   063185   066947   061927   060047   059046   057249                                      
330504300210017 02300 4110401ECH.24              0390541ECH.25              0400703S46                 0400258001207001207          33000000000212      062708 1537    057501   060835   062686   064497   063190   063698   070924   067664   063524   063458   056040   058484               170622851 1527    160623481 1487    150611531 1477    140000001         130000001         056512   060202   060482   063951   061656   063630   070238   065910   063226   062470   059692   059448                                      
330504300310017 02300 4110401ECH.24              0390541ECH.25              0400703S46                 0400258001207001207          33000000000290      122897 1537    114646	119428	 123482	  126633   124774   124695   133751   134231   126719	124079	 109790	  112552               171224831 1517    161228201 1477    151186801 1477    140000001         130000001         112714   118295   119319   124678   121789   123576   133423   132857   124253   122517   118738   116697                                      
330524300110017 02300 411 441ECH.24              0390541ECH.25              0400703ECENON (ROC-EXT)(S450400258001207001207          000       0290      060932 1527    056910   058488   061039   060902   062370   061765   064689   069345   064377   061915   054951   054178               170606751 1517    160609521 1487    150593581 1477    140580051 1467    130570731 1487    056049   058283   059059   061619   060685   060766   063557   067538   062873   061229   059135   057130                                      
330514300210017 02300 411 441ECH.24              0390541ECH.25              0400703ICENON (ROC-INT)(S440400258001207001207          000       0290      061302 1577    056674   059425   060971   060934   061614   063887   068641   066387   062137   062321   055266   057210               170608771 1577    160609791 1537    150599501 1527    140585971 1537    130578981 1527    055210   058837   059094   062576   060267   061969   068318   064690   061950   061048   058298   058105                                      
330514300310017 02300 4110401S44/45              0390541S44/45              0400703S44/45 SENS1+2      0400258001207001207          00000000000318      122234 1557    113584	117913	 122010	  121836   123984   125652   133330   135732   126514	124236	 110217	  111388               171215521 1547    161219311 1517    151193081 1507    141166021 1507    131149711 1507    111259   117120   118153   124195   120952   122735   131875   132228   124823   122277   117433   115235                                      
330504211110017 02300 4113001ECH24               0390400ECH24               0390400ECH24               0390400000000000000          00000000000318      008907         008652   008624   009132   008789   008659   009347   008912   007809   009146   009825   009162   008825               170085541         160083281         150081741         140078471         130078041         008331   008558   008803   008596   008519   008994   007928   007468   009000   009051   008924   008512                                      
330504320210017 02300 4113001ECH24               0390400ECH24               0390400ECH24               0390400000000000000          00000000000318      011497         011135   011089   011971   011442   011327   012233   011864   010062   011788   012364   011512   011175               170106321         160102431         150097881         140095641         130097491         010179   010563   010817   010272   010488   011198   010571   009126   011137   011108   011182   010975                                      
330554200110017 02300 411 401ECH.23              0360643ECH.24              0390541S42 ROCADE-EXT      0370309002897002897          000       0194      059095 1587    054953   056319   058836   060446   060103   059369   062949   068190   062537   059895   052407   052811               170585701 1527    160583981 1417    150569131 1407    140554261 1397    130545241 1417    053520   055937   056460   059389   058148   059628   060966   066231   061043   059214   057110   055027                                      
330564200210017 02300 411 401ECH.23              0360643ECH.24              0390541S42 ROCADE-INT      0370309002897002897          000       0194      055523 1687    050770   054242   054721   056949   055782   057589   062074   061425   056157   055611   048931   051816               170560731 1667    160559891 1597    150565971 1557    140554061 1537    130545461 1537    050843   054230   054311   058437   055587   056659   062975   061051   056951   055945   052974   052757                                      
330564200310018 02300 4110401ECH.23              0360643ECH.24              0390541S42 SENS 1+SENS 2   0370309002897002897          00000000000194      114618 1637    105723   110561   113557   117395   115885   116958   125023   129615   118694   115506   101338   104627               171146431 1597    161143871 1507    151135101 1487    140000001    0    130000001    0    104363   110167   110771   117826   113735   116287   123941   127282   117994   115159   110084   107784                                      
330534200110017 02300 4110401S39                 0360600S39                 0360600S39                 0360600000000000000          00000000000318      054657 1707    050577   051817   054004   055019   055681   054786   058902   064729   058297   055251   047949   048517               170542421 1697    160542641 1647    150529361 1627    140515881 1617    130508651 1627    048981   051380   052070   055084   053890   055320   056916   062611   056582   054708   052519   050643                                      
330534200210018 02300 4110401S39                 0360600S39                 0360600S39                 0360600000000000000          00000000000318      049781 1857    045985   049069   048707   051186   050404   050879   055599   055745   049922   049970   043370   046536               170506191 1777    160000001    0    150000001    0    140000001    0    130000001    0    046052   049295   049232   053593   050362   051064   057642   055686   051239   049013   046650   047603                                      
330534200310018 02300 4110401S39                 0360600S39                 0360600S39                 0360600000000000000          00000000000318      104438 1787    096562   100886   102711   106205   106085   105665   114501   120474   108219   105221   091319   095053               171048611 1737    160000001    0    150000001    0    140000001    0    130000001    0    095033   100675   101302   108677   104252   106384   114558   118297   107821   103721   099169   098246                                      
330524200110017 02300 411 451ECH.22              0350247ECH.23              0360643ROCADE-EXT(S38)     0360000001396001396          000       0194      057634 1457    053870   055147   057647   058073   058983   058465   060751   065780   061838   058486   050353   051941               170575171 1517    160574111 1497    150557141 1437    140544551 1457    130536851 1467    052531   054885   055387   058289   057147   058352   059884   065628   060121   057879   056078   053858                                      
330524200210017 02300 411 451ECH.22              0350247ECH.23              0360643ROCADE-INT(S38)     0360000001396001396          000       0194      054679 1707    050491   053775   054531   055212   055054   057067   061561   059988   054878   054469   048216   050784               170557281 1667    160553051 1557    150554851 1517    140544501 1507    130534001 1507    050366   053755   054033   058029   055415   056181   062544   060559   056865   055916   052831   052079                                      
330524200310017 02300 411 451ECH.22              0350247ECH.23              0360643S38 SENS 1+SENS 2   0360000001396001396          000       0194      112313 1577    104361   108922   112178   113285   114037   115532   122312   125768   116716   112955   098569   102725               171132451 1597    161127161 1527    151111991 1477    141089051 1487    131070851 1487    102897   108640   109420   116318   112562   114533   122428   126187   116986   113795   108909   105937                                      
330504000110017 02300 411 451ECH.21              0340000ECH.22              0350247ROCADE-EXT          0350000001242001242          000       0194      059175 1347    054663   056229   058734   059510   059937   059099   063082   068961   063090   060346   052505   053575               170563951 1387    160573471 1287    150566071 1267    140546301 1267    130546491 1307    053601   055781   056391   059117   056990   056602            057827   054142   057834   057007   055052                                      
330504000210017 02300 411 451ECH.21              0340000ECH.22              0350247ROCADE-INT          0350000001242001242          000       0194      060893 1407    056645   059891   060923   061697   061202   063763   067582   066065   061418   060886   053906   056556               170619091 1387    160582321 1357    150614001 1337    140600291 1317    130590801 1327    056319   059820   060195   064175   061527   062934   068456   065859   063272   062278   059351   058582                                      
330504000310017 02300 411 451ECH.21              0340000ECH.22              0350247PT F.MITTERAND      0350000001242001242          000       0194      120068 1377    111308   116120   119657   121207   121139   122862   130664   135026   124508   121232   106411   110131               171183041 1387    161155791 1327    151180071 1307    141146591 1297    131137291 1317    109920   115601   116586   123292   118517   119536   058457   123686   117414   120112   116358   113634                                      
170000200110017 00100 4110201RD 730              0090915DEPARTEMENT 33      0190783MONTLIEU LA GARDE   0110300009672009672          00000000030187      012521 3947    010857   011864   012079   013233   013149   013210   015048   014342   012522   012514   010501   010853               170123101 3957    160118271 3927    150114081 3997    140109211 3967    130106471 4027    010304   011479   011546   012436   012312   012526   015044   014027   012366   012212   011707   011675                                      
170000200210017 00100 411 251RD 730              0090915DEPARTEMENT 33      0190783MONTLIEU LA GARDE   0110300009672009672          00000000030187      012500 3997    011054   011531   011789   013173   013239   013095   013724   015215   013003   012664   010868   010551               170123691 4007    160120641 3957    150115161 4037    140103331 4037    130108171 4067    010647   011529   011690   012792   012638   012637   013629   015045   012515   012393   011704   011128                                      
170000200310017 00100 411 251RD 730              0090915DEPARTEMENT 33      0190783MONTLIEU LA GARDE   0110300009672009672          00000000030187      025021 3977    021911   023395   023868   026406   026388   026305   028772   029557   025525   025178   021369   021404               170246791 3987    160238911 3947    150229241 4017    140212541 4007    130214641 4047    020951   023008   023236   025228   024950   025163   028673   029072   024881   024605   023411   022803                                      
170000601110017 00110 411 251RN 137              0270000RN 137 RN 237       0350150DOMPIERRE SUR MER   0280850008146008146          000       0187      019617  827    017131   017727   018945   020103   020470   021368   021964   021095   020938   020181   017784   017570               170196061  797    160192191  817    150186121   07    140182961   07    130179881   07    016906   018045   018457   020505   020091   021220   022031   021266   020559   019630   018492   017993                                      
170000601210017 00110 411 251RN 137              0270000RN 137 RN 237       0350150DOMPIERRE SUR MER   0280850008146008146          000       0187      019423  717    017151   017482   018675   019448   020545   020884   021409   021699   020979   019745   017597   017316               170192191  687    160189631  707    150181471   07    140179561   07    130176751   07    016926   017790   018143   019952   019855   020690   021095   021543   020556   019303   017532   017168                                      
170000601310017 00110 411 251RN 137              0270000RN 137 RN 237       0350150DOMPIERRE SUR MER   0280850008146008146          000       0187      039040  767    034282   035209   037620   039551   041015   042252   043373   042794   041917   039926   035381   034886               170388251  747    160381821  767    150367591   07    140362521   07    130356631   07    033832   035835   036600   040457   039946   041910   043126   042809   041115   038933   036024   035161                                      
170003001110017 02370 411 251RN 137              0000000FIN RN 137          0090230LA DESCENDERIE      0020000009267009267          00000000000187      033983  657    031219   031727   033994   034784   034962   036533   036529   034384   035711   035345   031975   030507               170341711  647    160332231  647    150324231   07    140312561   07    130309191   07    031140   032043   033700   035029   034489   036483   036126   034854   035930   034883   033590   031719                                      
170003001210017 02370 411 251RN 137              0000000FIN RN 137          0090230LA DESCENDERIE      0020000009267009267          00000000000187      034071  657    031486   031794   034325   034511   035119   036511   036458   035256   035935   035082   031974   030267               170343611  647    160335251  707    150336671   07    140331381   07    130329141   07    031530   032416   034062   035293   034795   036349   035926   035403   036206   034975   033764   031564                                      
170003001310017 02370 411 251RN 137              0000000FIN RN 137          0090230LA DESCENDERIE      0020000009267009267          00000000000187      068054  657    062705   063521   068319   069295   070081   073044   072987   069640   071646   070427   063949   060774               170685321  647    160667481  677    150660901   07    140643941   07    130638331   07    062670   064459   067762   070322   069284   072832   072052   070257   072136   069858   067354   063283                                      
170002700110017 01500 4113001N 137 SAINTES       0470000RD 728              0500000GATERAT             0490670002959002959          00000000000187      006466  487    005602   005773   006168   006532   006511   007328   007461   007360   006703   006382   005829   005893               170068231  477    160064261  477    150063161   07    140062191   07    130061721   07    005451   005871   006100   006693   007406   008687   009064   007507   006716   006415   005977   005923                                      
170002700210017 01500 4113001N 137 SAINTES       0470000RD 728              0500000GATERAT             0490670002959002959          00000000000187      005967  477    005183   005470   005703   006019   006109   006760   006666   007057   006322   005686   005280   005322               170063811  457    160059331  467    150058701   07    140057891   07    130057011   07    005135   005465   005611   005916   007058   008286   008327   007190   006429   005952   005654   005480                                      
170002700310017 01500 4113001N 137 SAINTES       0470000RD 728              0500000GATERAT             0490670002959002959          00000000000187      012433  487    010785   011243   011871   012551   012620   014088   014127   014417   013025   012068   011109   011215               170132041  467    160123591  477    150121861   07    140120081   07    130118731   07    010586   011336   011711   012609   014464   016973   017391   014697   013145   012367   011631   011403                                      
170002900110017 01500 4113 51RD 117              0710058ROYAN EB 10         0770470MEDIS               0760000006412004816          00000000000190      008374  517    006783   007308   007894   008605   008851   009062   010696   010549   008516   008131   007022   006955               170083661  527    160082651  487    150082891   07    140082521   07    130080861   07    006575   007351   007653   008878   008548   009154   010645   010557   008359   008072   007401   007110                                      
170002900210017 01500 4113 51RD 117              0710058ROYAN EB 10         0770470MEDIS               0760000006412004816          00000000000190      008416  457    006887   007259   007776   008537   008901   008912   010416   011152   008913   008099   007159   006869               170083461  457    160082371  467    150082321   07    140082041   07    130080621   07    006648   007259   007517   008684   008597   009032   010156   011093   008617   007955   007486   007012                                      
170002900310017 01500 4113 51RD 117              0710058ROYAN EB 10         0770470MEDIS               0760000006412004816          00000000000187      016790  487    013670   014567   015670   017142   017752   017974   021112   021701   017429   016230   014181   013824               170167121  497    160165021  477    150165211   07    140164561   07    130161481   07    013223   014610   015170   017562   017145   018186   020801   021650   016976   016027   014887   014122                                      
170002101110017 01410 4113001RN 150 SAINTES      0160700SAINTES RN 137      0210225SAINTES ROCADE S-E  0180200004470004470          000       0187      010316  967    009464   009773   010344   010959   011164   012063   012375   012385   010587   010156   008000   007652               170105551  977    160104401   07    150102431   07    140101551   07    130099061   07    009090   009786   010256   011136   010949   011368   011809            011040   010689   010125   009826                                      
170002101210017 01410 4113001RN 150 SAINTES      0160700SAINTES RN 137      0210225SAINTES ROCADE S-E  0180200004470004470          000       0187      010444  947    009495   009743   010227   011047   011283   011914   012495   013040   011312   010244   008259   007706               170106841  967    160106231   07    150104991   07    140103431   07    130101061   07    009273   009830   010297   011117   011190   011416   011847            011490   010896   010282   009851                                      
170002101310017 01410 4113001RN 150 SAINTES      0160700SAINTES RN 137      0210225SAINTES ROCADE S-E  0180200004470004470          000       0187      020760  957    018959   019516   020571   022006   022447   023977   024870   025425   021899   020400   016259   015358               170212391  977    160210631   07    150207421   07    140204981   07    130200121   07    018363   019616   020553   022253   022139   022784   023656            022530   021585   020407   019677                                      
170000300110017 00110 411 251DEPARTEMENT 79      0000000RD 116              0090272BENON               0080000009375009375          79000080230187      007233 1067    005875   006237   006844   007922   007886   007979   007916   007754   007287                                          170072121 1027    160071051 1047    150068411 1067    140066571 1067    130064831 1147    005692   006343   006505   007957   007484   007921   008614   008350   007494   007289   006498   006343                                      
170000300210017 00110 411 251DEPARTEMENT 79      0000000RD 116              0090272BENON               0080000009375009375          79000080230187      007339 1067    006080   006207   006739   007943   008155   007747   007695   008249   007626                                          170072871 1037    160071671 1057    150068881 1077    140066981 1067    130065421 1137    005894   006381   006436   007854   007681   007845   008296   008891   007786   007262   006811   006257                                      
170000300310017 00110 411 251DEPARTEMENT 79      0000000RD 116              0090272BENON               0080000009375009375          79000080230187      014572 1067    011955   012444   013583   015865   016041   015726   015611   016003   014913                                          170144991 1037    160142721 1057    150137291 1077    140133551 1067    130130251 1147    011586   012724   012941   015811   015165   015766   016910   017241   015280   014551   013309   012600                                      
170001701110017 01370 411 251RD 937              1120000RN 11               1170000PERIGNY             1170000005031005031                    0187      035654  717    032480   033083   035434   036015   036907   037814   038616   038350   037552   036560   033060   031861               170357691  717    160347481  697    150328761   07    140322051   07    130315711   07    032041   033290   034615   036027   036516   037908   038066   038635   037786   036286   034855   033073                                      
170001701210017 01370 411 251RD 937              1120000RN 11               1170000PERIGNY             1170000005031005031                    0187      035194  677    032233   032882   035150   035740   036032   037153   038230   037423   036915   035969   032778   031726               170349071  707    160344041  687    150332511   07    140330911   07    130326901   07    031950   033200   034491   035158   032542   035990   037853   037590   037116   035986   033972   032956                                      
170001701310017 01370 411 251RD 937              1120000RN 11               1170000PERIGNY             1170000005031005031                    0187      070848  697    064713   065965   070584   071755   072939   074967   076846   075773   074467   072529   065838   063587               170706761  717    160691521  697    150661271   07    140652961   07    130642611   07    063991   066490   069106   071185   069058   073898   075919   076225   074902   072272   068827   066029                                      
170002100110017 01410 4113001DEPARTEMENT 16      0000000RN 150 SAINTES      0160700CHERAC              0130900016846016846          16000200030190      005008  877    004134   004296   004609   005274   005235   005562   006392   006450   005516   004903   003840   003826               170048421  877    160051741  847    150051531   07    140049271  797    130048961   07    004055   004551   004679   005097   005390   005584   005577                              004402   004241                                      
170002100310017 01410 4113001DEPARTEMENT 16      0000000RN 150 SAINTES      0160700CHERAC              0130900016846016846          16000200030187      015452  927    013629   014039   014836   016321   016518   017476   018887   019490   016828   015147   012099   011532               170155261  937    160157971  287    150156521   07    140152701  267    130150021   07    013328   014381   014976   016214   016580   017000   017424            001491   000897   014684   014092                                      
170002100210017 01410 4113001DEPARTEMENT 16      0000000RN 150 SAINTES      0160700CHERAC              0130900016846016846          16000200030190      004992  887    004195   004269   004480   005273   005247   005404   006212   006663   005680   004853   003820   003742               170047851  897    160051401  857    150049131   07    140044081  887    130045131   07    004099   004483   004556   005024   005421   005521   005416                              004382   004160                                      
170002800110017 01500 4110201ST ROMAIN           0620700ST ROMAIN           0620700ST ROMAIN DE BENET  0620700000000000000          00000000000316      006853  587    006022   005873   006702   008284   009571                                       007429   006494   006228               170076551  587    160077451  507    150079051   07    140076291  517    130071761  517    005662   006506   006698   008661   008281   008904   010460                     008261   006578   006540                                      
170002800210017 01500 4110201ST ROMAIN           0620700ST ROMAIN           0620700ST ROMAIN DE BENET  0620700000000000000          00000000000316      006721  647    005914   005789   006481   008160   008539                                       007059   007042   006052               170075251  627    160077211  577    150078611   07    140076861  607    130071231  607    005790   006440   006549   008592   008402   008712   009728                     007881   006669   006486                                      
170002800310017 01500 4110201ST ROMAIN           0620700ST ROMAIN           0620700ST ROMAIN DE BENET  0620700000000000000          00000000000316      013574  617    011936   011662   013183   016444   018110                                       014488   013536   012280               170151801  607    160154661  547    150157661   07    140153151  557    130142991  557    011452   012946   013247   017253   016683   017616   020188                     016142   013247   013026                                      
170003101110017 02370 4110201MIREUIL             0050945MIREUIL             0050945MIREUIL             0050945000000000000          00000000000316      011109  967    008485   009133   010115   011981   012173   012894   014247   013857   013023   010894   009125   008549               170110051  957    160109311  977    150111801   07    140103061  997    130103481 1037    008364   009180   009910   012292   011342   012619   013703   013640   011908   010918   009382   008699                                      
170003101210017 02370 4110201MIREUIL             0050945MIREUIL             0050945MIREUIL             0050945000000000000          00000000000316      009756 1027    006814   007088   007538   009813   009453   011130   013190   013986   012665   010108   008910   008001               170104921  947    160106371  917    150108701   07    140097291  967    130102721  987    008280   008875   009437   011740   010918   010964   011080   012649                                                                          
170003101310017 02370 4110201MIREUIL             0050945MIREUIL             0050945MIREUIL             0050945000000000000          00000000000316      020865  997    015299   016221   017653   021794   021626   024024   027437   027843   025688   021002   018035   016550               170214971  957    160215681  947    150220501   07    140200351  977    130206201 1017    016644   018055   019347   024032   022260   023583   024783   026289   001909   000919                                                        
170000102110017 00100 4110201DEPARTEMENT 16      0000000RD 730              0090915CHEVANCEAUX         0010000009935008904          16000090130187      011829 4077    010074   011066   011290   012380   012266   011804   014120   013336                              010128               170114741 4097    160109911 4057    150105861 4177    140097731 3787    130098701 4537    009543   010657   010715   011804   011430   011575   014129   013060   011422   011527   010869   010868                                      
170000102210017 00100 4110201DEPARTEMENT 16      0000000RD 730              0090915CHEVANCEAUX         0010000009935008904          16000090130187      011715 4177    010340   010782   011038   012417   012416   011966   012906   014278   012360   011945   010136   009904               170116281 4187    160113051 4137    150107711 4237    140100081 4187    130101071 4317    009959   010801   010943   012036   011768   011824   012816   014244   011956   011597   011221   010309                                      
170000102310017 00100 4110201DEPARTEMENT 16      0000000RD 730              0090915CHEVANCEAUX         0010000009935008904          16000090130187      022954 4137    020414   021848   022328   024797   024682   023770   027026   027614                              020032               170231021 4147    160222961 4097    150213571 4207    140197811 3987    130199771 4427    019502   021458   021658   023840   023198   023399   026945   027304   023378   023124   022090   021177                                      
640002801110017 01340 4112 51RD 918              0760615RD 918              0780376ASASP               0780186001751001200                    1292      001966 1217    001572   001703   001745   001848   001919   002119   002460   002788   002146   001958   001652   001694               170019651 1087    160019581 1167    150020291 1267    140018521   07    130019081 1227    001465   001704   001733   001955   001947   002022   002487   002750   002093   002001   001700   001698                                      
640002801210017 01340 4112 51RD 918              0760615RD 918              0780376ASASP               0780186001751001200                    1292      001948 1097    001646   001670   001737   001851   001912   002081   002313   002813   002136   001936   001689   001604               170019441 1017    160019371 1117    150020251 1217    140018281   07    130019091 1207    001507   001688   001756   001927   001943   002019   002306   002782   002054   001970   001746   001606                                      
640002801310017 01340 4112 51RD 918              0760615RD 918              0780376ASASP               0780186001751001200                    0187      003914 1157    003218   003373   003482   003699   003831   004200   004773   005601   004282   003894   003341   003298               170039091 1057    160038951 1137    150040541 1247    140036801   07    130038171 1217    002972   003392   003489   003882   003890   004041   004793   005532   004147   003971   003446   003304                                      
640003003110017 01340 4113 51URDOS EB 20         1090270ESPAGNE SOMPORT     1230278COL DU SOMPORT      1230000013891013891                    0194      000185  497    000319   000330   000258   000146   000062   000107   000189   000296   000130   000092   000081   000144               170001771  507    160001671  657    150001871         140002581         130002071  317    000273   000368   000275   000090   000069   000091   000180   000293   000132   000113   000064   000174                                      
640003003210017 01340 4113 51URDOS EB 20         1090270ESPAGNE SOMPORT     1230278COL DU SOMPORT      1230000013891013891                    0194      000213  437    000357   000364   000265   000163   000082   000147   000229   000364   000156   000114   000097   000164               170002011  397    160001921  677    150002031         140002471         130002221         000286   000404   000279   000116   000082   000110   000208   000360   000161   000140   000076   000194                                      
640003003310017 01340 4113 51URDOS EB 20         1090270ESPAGNE SOMPORT     1230278COL DU SOMPORT      1230000013891013891                    0194      000398  467    000676   000694   000523   000309   000144   000254   000418   000660   000286   000206   000178   000308               170003781  447    160003591  667    150003901         140005051         130004291  137    000559   000772   000554   000206   000151   000201   000388   000653   000293   000253   000140   000368                                      
640002900110017 01340 4113001918                 0780376937                 0920475SARRANCE            0860700013922013297          00000000000212      001538 1517    001313   001454   001541   001648   001657   001515                     001799   001692   001397   001446               170017001 1237    160017141 1307    150017011 1287    140015061 1117    130015741 1187    001192   001437   001458   001687   001658   001740   002240   002578   001821   001722   001413   001428                                      
640002900210017 01340 4113001918                 0780376937                 0920475SARRANCE            0860700013922013297          00000000000212      001491 1517    001283   001129   001526   001629   001649   001512                     001818   001678   001437   001366               170016751 1227    160017121 1377    150016911 1497    140015461 1217    130015821 1287    001240   001440   001498   001678   001668   001735   002070   002650   001790   001647   001352   001300                                      
640002900310017 01340 4113 51RD 918              0780376RD 237              0920475SARRANCE            0860700013922013297                    0187      003029 1517    002596   002583   003067   003277   003306   003027                     003617   003370   002834   002812               170033751 1237    160034261 1347    150033921 1397    140030521 1167    130031561 1237    002432   002877   002956   003365   003326   003475   004310   005228   003611   003369   002765   002728                                      
640002500110017 01340 4113001ESTANGUET           0980270ESTANGUET           0980270ESTANGUET           0980270000000000000          00000000000316      001297 1687    000894   001025   001046   001188   001205   001302   001877   002258   001435   001270   000987   001037               170012421 1497    160012211 1497    150010271 1487    140011491 1037    130011401 1397    000762   000993   000931   001214   001182   001234   001851   002226   001339   001241   000939   000956                                      
