77050010031 018 00060 1110441LIMITE Dept 91/77   0380385RN37                0440440A6 NAINVILLE        0400740006076006076000       000     001115       56544 116      60338    61822    67353        0    35473    36421    40019    70628    65313    67289    60780        0               17 643971 1157    16 657881 1117    15 628401  917    14 665001  917    13 665051  917     61227    62766    65688    67908    67058    65720    65700    65700    64945    62887    61623    61538                                      
77050090031 018 01040 1110231N2                  0080000N3                  0140950A104_MITRY MORY     0110500006112006112          000     00 197       94955 114      96732    80225    81400    93000   101915   107300   104113        0        0        0        0        0               171020251 114     16 800021 114     15 802001         14 802461         13 769001          94478    99374   101774   104578   103885   106191   104829    97983   105953   105982   101960    97312                                      
77050120031 018 01040 1110231N3                  0140950N34 - O             0230100N3 / N34 - O        0210200008040008040          000     00 197      100190          94963    92159    99963   105118   102734   101635   106040    89580   101543   107345   103301    97464               17 967621         16 724061         15 846211         14 772731         13 696481          84180    86437    94821    98501    98890   104974   100888    88399   102964   104063   100741    96290                                      
77050130031 018 01040 1110631N34 - O             0230100A4                  0280500N34 - O / A4        0280000005382005382          000     00 197       68038              0        0        0    68616        0        0    69478        0    68730    71262    66745    63396               17 622471         161115201         15 961241         14 551921         13 980001              0        0    64261    65645    61195    65056    63459    59502    59600    62956    61769    59031                                      
77050490031 018 01400 1110241D228                0030540Dev Meaux           0091035A140_DEV_MEAUX      0060220006330006330          000     00 111       19800  47          0        0        0        0        0        0        0        0        0        0        0        0               17 198001  477    16 198001  477    15 198001  477    14 197801  477    13 199361  467         0        0        0        0        0        0        0        0        0        0        0        0                                      
77050020031 018 00020 4110201A104                0000000N2                  0050232N2_MITRY-MORY       0020460005060005060          000     001217           0              0        0        0        0        0        0        0        0        0        0        0        0               17     01         16     01         15     01         14     01         13     01              0        0        0        0        0        0        0        0        0        0        0        0                                      
77050040031 018 00020 4110201D212                0050232D401 (Dammartin)    0140250N2_DAMMARTIN_EN_GEOL0110700009000009000000       000     00 199       45600 131          0        0        0        0        0        0        0        0        0        0        0        0               17 456001 1317    16 456001 1317    15 456001 1317    14 456001 1317    13     01              0        0        0        0        0        0        0        0        0        0        0        0                                      
77050060031 018 00020 4110201D401 (Dammartin)    0140250Dept 60             0150960N2_LAGNY-LE-SEC     0150610001710001710000       000     00 914       40288 130      38736    38055    39736    40377    41537    43322    42286    38091    41015    42121    39695    38484               17 401291 129     16 394971 131     15 384811 130     14 197401 121     13     01          37728    38537    39612    39748    40242    42795    40490    39123    42254    41893    40054    39063                                      
60000010031 018 00020 4110301N2                  0000000N2 dans l'Oise      0020670N2 / N2 (Dept 60)   0000500002630002630000       000     00 197           0              0        0        0        0        0        0        0        0        0        0        0        0               17     01         16     01         15     01         14     01         13     01              0        0        0        0        0        0        0        0        0        0        0        0                                      
77000010031 018 00030 4110201A104                0020001D212                0040725N3_BOIS FLEURY      0030360002730002730000       000     001217           0              0        0        0        0        0        0        0        0        0        0        0        0               17     01         16     01         15     01         14     01         13     01              0        0        0        0        0        0        0        0        0        0        0        0                                      
77000020031 018 00030 4110201D212                0040725D404                0090120D212 / D404         0060500004500004500000       000     00 197           0              0        0        0        0        0        0        0        0        0        0        0        0               17     01         16     01         15     01         14     01         13     01              0        0        0        0        0        0        0        0        0        0        0        0                                      
77000030031 018 00030 4117001D404                0090120D27                 0140800N3_CHARNY           0120750005700005700000       000     0010 9       36223  76      33837    33739    36603    35914    37538    39445    36927    34185    36954    37646    36540    35351               17 364631  677    16 338001  677    15 338171  677    14 327351  687    13 325971  667         0        0        0        0        0    38542    35262    32800    37869    38943    37229    34593                                      
77000040031 018 00030 4117001D27                 0140800D5                  0190534D27 / D5            0190000004940004940000       000     00 197           0              0        0        0        0        0        0        0        0        0        0        0        0               17     01         16     01         15     01         14     01         13     01              0        0        0        0        0        0        0        0        0        0        0        0                                      
77000100031 018 00040 4110201N104                0010000D351                0050635N4_PONTAULT         0030100003620003620          000     00 192       42248  85      33020    32729    32727    32513    32870    53521    50669    45726    50515    51276    46900    48957               17 298001  847    16 298381  847    15 272751  677    14 492001  957    13 492001  957         0        0        0        0        0        0        0        0        0        0        0        0                                      
77000020031 018 00040 4110201D351                0050635D350                0140490D351 / D350         0120000008860008860          000     00 197           0              0        0        0        0        0        0        0        0        0        0        0        0               17     01         16     01         15     01         14     01         13     01              0        0        0        0        0        0        0        0        0        0        0        0                                      
77000130031 018 00040 4110201D350                0140490N36                 0210216N4_CHATRES          0200550006910006910          000     0012 0       31034 115      31109    30902    30964    30694    31105    30899    30773    31169    30899    30773    31037    32078               17 326001 1177    16 326171 1177    15 318611 1177    14 316871 1137    13 308651 1007         0        0        0        0        0        0        0        0        0        0        0        0                                      
77000140031 018 00040 4113001N36                 0210216D231 (Prévers)      0410968N4_VOINSLES         0340000020640020640          000     00 4 0       10067 196       9913     9362     9109    10127    10091    10445    10386     8700    10165    10124    11299    11081               17 166671 1507    16 115001 2267    15 115121 2267    14 167291 2267    13 173571 2337         0        0        0        0        0    11277    17618    17230    17632    20672    18325    13918                                      
77000150031 018 00040 4113001D231 (Prévers)      0410968Dept 51             0680927N4_CORBIER          0430200024210024210          000     00 198       11300 327          0        0        0        0        0        0        0        0        0        0        0        0               17 113001 3277    16 113001 3277    15 112831 3277    14 111691 3277    13 110161 2927         0        0        0        0        0        0        0        0        0        0        0        0                                      
77000010031 018 00190 4115001D319                0000000N19 Servon          0020750D319 / N19 Servon   0000800002090002090000       000     00 197           0              0        0        0        0        0        0        0        0        0        0        0        0               17     01         16     01         15     01         14     01         13     01              0        0        0        0        0        0        0        0        0        0        0        0                                      
77000500031 018 00360 4113001D436                0310000N4                  0470130N36_MARLES          0450170015330015330000       000     0010 9        9371 153       8970     8850     8925     8868     9541    11129    10468     9269     8355     9725     9270     9078               17 104071 1637    16  87001 1637    15  86581 1637    14  87271 1647    13  84121 1697         0        0        0        0        0    11167     9647        0        0        0        0        0                                      
77000020031 018 00360 4113001N4                  0470130N19                 0570415N4 / N19            0520010009901009901000       000     00 197           0              0        0        0        0        0        0        0        0        0        0        0        0               17     01         16     01         15     01         14     01         13     01              0        0        0        0        0        0        0        0        0        0        0        0                                      
77000520031 018 00360 4113001N19                 0570415A5                  0650230N36_LES BORDES      0620950007672007672000       000     0010 9       10200 145          0        0        0        0        0        0        0        0        0        0        0        0               17 102001 1457    16 102001 1457    15 102001 1457    14 101821 1457    13  97101 1467         0        0        0        0        0        0        0        0        0        0        0        0                                      
77000010031 018 00370 4117001A6                  0000000D372 Perthes        0020700A6 / D372Perthes    0020700003040003040000       000     00 197           0              0        0        0        0        0        0        0        0        0        0        0        0               17     01         16     01         15     01         14     01         13     01              0        0        0        0        0        0        0        0        0        0        0        0                                      
77001050031 018 01040 4110201A4                  0000000N4                  0060978N104_LOGNES         0020150006997006997000       000     00 515      113883 125     106759   104178   112473   114869   115847   121567   116289   109094   120181   118056   114910   112375               171128771 1237    161146951 1217    151016001 1017    141016001 1017    131016001 1017    108150   110572   112128   114727   115859   117097   114225   110576   116312   115955   110653   108276                                      
77001040031 018 01040 4110201N4                  0060978N19                 0160001N104_NORD LESIGNY   0070700008531008531000       000     00 197       83634 147      77574    77499    82773    87186    85803    90392    85504    79168    88408    86475    81493    81329               17 822701 1477    16 761001 1477    15 760851 1477    14 781491 1437    13 767771 1217     75749    79424    82014    83923    83106    86975    84443    75721    85893    86560    83199    80304                                      
77000030031 018 01040 4110401N19                 0160001A5b                 0190366N19 / A5b           0170400004628004628000       000     00 197       86765          79655        0        0        0    90218    94734    91474    77882    90577        0        0    82818               17 891461         16 785921         15 799801         14 816821         13 793961          76643    80967    88389    90573    90462    96014    93664    80616    94220    95917    91861    90427                                      
77000040031 018 01040 4110201A5b                 0190366N6                  0270345A5b / N6            0220400007521007521000       000     00 197      100190          94963    92159    99963   105118   102734   101635   106040    89580   101543   107345   103301    97464               17 946971         16 831911         15 792821         14 706511         13 728471          87960    90142    92160    94169    89163    99460    93518    85149    94026    93279   109526   107811                                      
77000050031 018 01040 4110501N6                  0270345A5a                 0281074N6 / A5a            0280130001715001715000       000     00 197       55600              0        0        0        0        0        0        0        0        0        0        0        0               17 556091         16 958001         15 958001         14 958001         13 958001              0        0        0        0    56286    60158    58953    50452    53807    53252    56358        0                                      
77000010031 018 01050 1110201A5b                 0140000BDL D306            0150665A5b / BDL D306      0150000001872001872000       000     00 1 1       78334          77097    76648    81258        0        0        0        0        0        0        0        0        0               17 480081         16 485101         15 533511         14 517001         13 530081              0        0        0        0        0        0        0        0        0        0        0        0                                      
77000630031 018 03300 4113001N3 (Meaux-Crégy)    0000000D401 (ST Soupplets) 0100455N330_PENCHARD       0050300009271009271000       000     00 4 0       11800 142          0        0        0        0        0        0        0        0        0        0        0        0               17 118001 1427    16 118001 1427    15 118001 1427    14 118471 1427    13 117901 1397         0        0        0        0        0        0        0        0        0        0        0        0                                      
77000020031 018 03300 4113001D401 (St Souplets)  0100455Dept 60             0140567D401 (St Souplets) /0110500004079004079000       000     00 1 2           0              0        0        0        0        0        0        0        0        0        0        0        0               17     01         16     01         15     01         14     01         13     01              0        0        0        0        0        0        0        0        0        0        0        0                                      
60000010031 018 03300 4113001N330 dans l'Oise    0000000N330 dans l'Oise    0040104N330 dans l'Oise / N0040000004030004030000       000     00 1 2           0              0        0        0        0        0        0        0        0        0        0        0        0               17     01         16     01         15     01         14     01         13     01              0        0        0        0        0        0        0        0        0        0        0        0                                      
77000010031 018 11040 4113001N1104               0070000N1104               0130500N1104_MESNIL-AMELOT 0070500006590006590000       000     001217           0              0        0        0        0        0        0        0        0        0        0        0        0               17     01         16     01         15     01         14     01         13     01              0        0        0        0        0        0        0        0        0        0        0        0                                      
78055070031 018 00120 1110531A13                 0000000D129                0060685A12_BAILLY          0010550007077007077000       000     00 795      128310  77          0        0        0        0        0        0        0        0        0        0        0        0               171283101  777    161270001  777    151270161  777    141290751  777    131220811  657    124571   127493   131962   132352   127085   136825   131102   106062   134685   134545   134756   118276                                      
78000020031 018 00120 1110231D129                0060685N286 (Bois d'Arcy)  0071301D129 / N286 (Bois d'0070500001615001615000       000     00 889       77062              0        0    75983    76501    78667    81479    78102    71191    78318        0    76254    76411               17 780761         16 561001         15 561461         14 577331         13 556811          77088    78276    78784    79256    79838    83242    79270    69596    77594    77891    76491    79585                                      
78000010031 018 00130 1110441D182 (Vaucresson dep0090000A13 x A12           0120340D182 (Vaucresson dep0090000003532003532000       000     00 197      132400              0        0        0        0        0        0        0        0        0        0        0        0               171324001         161324001         151324001         141324181         131305471              0        0        0        0        0        0        0        0        0        0        0        0                                      
78055110031 018 00130 1110241A13 x A12           0120340D153 (Orgeval)      0250515A13_ORGEVAL         0220590013200013200000       000     00 494       89822 105      84909    83190    89710    89808    94311    96031    98840    85062    93080    87408    88079    87432               17 856821  907    16 857061  777    15 857371  887    14 857321  917    13 852191  967     79517    86844    86644    89959    87126    91210    89176    78996    87979    85177    83783    81773                                      
78055231031 018 00860 1110441N118                0590000duplex A86          0630183A86 VELIZY          0610000004030004030000       000     00 112      124709  70      92852    89188   102561   102694   137859   134224   167413   131397   135741   142076   138978   121526               17 981571  777    161147951  577    151146321  777    141143001  777    131143171  777     86408    90212    87800    98760   111910   126912    93229    89578   110481    98579    90746    93600                                      
78010050031 018 00100 4110241A12                 0120000D912 (St Quentin)   0130800N10_TRAPPES         0130200001934001934000       000     00 992       66758  79      66954    66756    66962    66369    67009    66881    66441    67144    66263    66954    67043    66309               17 668001  787    16 667621  787    15 660191  777    14 656521  767    13 651481  767         0        0        0        0        0        0        0        0        0        0        0        0                                      
78010060031 018 00100 4110201D912 (Trappes)      0130800D13 Coignères       0220725N10_ELANCOURT       0170100008928008928000       000     001295       52586  91      51318    51243    51480    50939    51389    53686    53251    53834    53178    53643    53783    53196               17 527001  767    16 527451  767    15 536111  767    14 512711  767    13 530271  777         0        0        0        0        0        0        0        0        0        0        0        0                                      
78010080031 018 00100 4110201D33                 0220725D937                0320425N10_LES ESSARTS     0250170010080010080000       000     001196       43030  79      40830    38196    42557    43636    45376    48230    45279    41062    43303    44484    42605    40801               17 433521  817    16 426851  817    15 421311  817    14 417401  797    13 413841  767     40157    40958    42501    42698    43968    48086    45855    41971    44181    44851    43600    41338                                      
78000040031 018 00100 4110201D937                0320425D936 Est (Dév. Rambo0370620D937 / D936 Est (Dév0330000005236005236000       000     00 188       42700  76          0        0        0        0        0        0        0        0        0        0        0        0               17 427001  767    16 427001  767    15 427001  767    14 427001  767    13 427001  767         0        0        0        0        0        0        0        0        0        0        0        0                                      
78010120031 018 00100 4115001D936 Est            0370620Bretelle A11        0490408N10_SONCHAMPS       0440040011840011840000       000     00 213       24158  96      24507    23808        0        0        0        0        0        0        0        0        0        0               17 293661  837    16 266001 1057    15 265561 1057    14 227741  937    13 259001              0        0        0        0        0    30507    31994    30882    29522    29376    28371    24910                                      
78010570031 018 00120 4110401A86                 0190000RD91                0290000N12_VERSAILLES      0230000001000001000000       000     00 114           0              0        0        0        0        0        0        0        0        0        0        0        0               17     01         16     01         15     01         14     01         13     01              0        0        0        0        0        0        0        0        0        0        0        0                                      
78010140031 018 00120 4110301N286 (A12)          0290000R12                 0310050N12_BOIS D'ARCY     0300800002011002011000       000     001296       86300  57          0        0        0        0        0        0        0        0        0        0        0        0               17 863001  577    16 863001  577    15 863111  577    14 833031  557    13 853161  577         0        0        0        0        0        0        0        0        0        0        0        0                                      
78000030031 018 00120 4110201R12                 0310050D134                0350915R12 / D134          0320900004897004897000       000     00 889       65200              0        0        0        0        0        0        0        0        0        0        0        0               17 652001         16 651901         15 662111         14     01         13     01              0        0        0        0        0        0        0        0        0        0        0        0                                      
78010150031 018 00120 4110201D134                0350915D76 (dév. Pontchartr0440875N12_JOUARS          0420000008819008819000       000     00 3 2       46652  76      45210    44235    47475    48087    48383    36956    48104    48595    47921    48323    48583    47946               17 489021  757    16 479001  737    15 479331  737    14 470801  737    13 459541  737         0        0        0        0        0    51917    48300    45441    50508    50657    49039    46454                                      
78010170031 018 00120 4110201D76                 0440875D179                0520850N12_LA-QUEUE-LES-YV 0460295007826007826000       000     00 492       42385  71      40771    37741    42087    43200    43931    47647    46382    34760    44847    45414    41201    40637               17 390401  607    16 410001  737    15 410371  737    14 373091  737    13 347011  937         0        0        0        0        0    27592    43106    38711    43937    43173    37217    39544                                      
78010180031 018 00120 4110201D179                0520850D983                0580750N12_BAZAINVILLE     0550080005896005896000       000     00 993       40453  90      31983    32991    34006    32039    45217    49417    47638    36192    45882    45388    43366    41319               17 383861  807    16 408711  907    15 379701  907    14 401341  937    13 393931 1497     40050    40678    41710    39897    35919    33918    43152    37458    44563    40559    33372    29515                                      
78010190031 018 00120 4110201D983 Maulette       0580750Dept 28 (dév. Houdan0630064N12_MAULETTE        0580700004313004313000       000     00 594       35031  93      33531    30971    34772    35566    36466    38080    36095    32543    36484    36921    35024    33924               17 351831  937    16 343451  927    15 342771  947    14 335431  897    13 328601 1017     32004    32753    34258    35078    37089    37813    36209    33258    36822    37439    35738    33659                                      
78000010031 018 00130 4110201D186 (Ave de St Germ0200000D284 (Ave du Général0210476D186 (Le port Marly)0200100001183001183000       000     00 599       29700  46          0        0        0        0        0        0        0        0        0        0        0        0               17 273001  407    16 297001  467    15 297001  467    14 297001  467    13 297001  467         0        0        0        0        0        0        0        0        0        0        0        0                                      
78010210031 018 00130 4110201D284                0210476N184 (St-Germain en 0240180N 13 ST GERM EN LAY 0220760002587002587000       000     001292       42056  44      42251    42056    42231    41688    42370    42102    41792    42464    41529    42251    42383    41558               17 418001  437    16 417751  437    15 415821  437    14 336391  897    13 328601  407         0        0        0        0        0        0        0        0        0        0        0        0                                      
78010220031 018 00130 4110201N184                0240180D30                 0260225N 13ST GERM         0250150004158004158000       000     001095       23400  41          0        0        0        0        0        0        0        0        0        0        0        0               17 234001  417    16 233541  417    15 230791  417    14 221231  407    13 212001  387         0        0        0        0        0        0        0        0        0        0        0        0                                      
78000010031 018 01180 4110301limite Dept 92/78   0050001Dept 91             0070057limite Dept 92/78 / 0050575001890001890000       000     00 188       87400              0        0        0        0        0        0        0        0        0        0        0        0               17 874001         16 874001         15 874091         14 929821         13 935891              0        0        0        0        0        0        0        0        0        0        0        0                                      
78000010031 018 01840 4116001N13                 0110000D190 (St Germain en 0120700N13 / D190 (St Germa0120500001218001218000       000     00 188       85300              0        0        0        0        0        0        0        0        0        0        0        0               17 853001         16 853001         15 853001         14 853001         13 853001              0        0        0        0        0        0        0        0        0        0        0        0                                      
78010339031 018 01840 4115001D190                0120701D308                0160585N184_ST_GERMAIN     0160500003865003865000       000     001095       24600  69          0        0        0        0        0        0        0        0        0        0        0        0               17 246001  697    16 246411  697    15 250591  697    14 247651  677    13 249001  697         0        0        0        0        0        0        0        0        0        0        0        0                                      
78000030031 018 01840 4115001D308                0160586D30                 0200000D308 / D30          0200000004420004420000       000     00 188           0              0        0        0        0        0        0        0        0        0        0        0        0               17     01         16     01         15     01         14     01         13     01              0        0        0        0        0        0        0        0        0        0        0        0                                      
78010340031 018 01840 4110001RD31                0200000A15                 0210640N184 CONFLANS       0210500001640001640000       000     001197       32800  66          0        0        0        0        0        0        0        0        0        0        0        0               17 328001  667    16 328001  667    15 328001  667    14 328001  667    13 327841  667         0        0        0        0        0        0        0        0        0        0        0        0                                      
78000050031 018 01840 4110201A15                 0210640Fin de secteur      0241182A15 / Fin de secteur0220200003460003460000       000     00 188       10900  38          0        0        0        0        0        0        0        0        0        0        0        0               17 109001  387    16 109001  387    15 109001  387    14 109001  387    13 109001  387         0        0        0        0        0        0        0        0        0        0        0        0                                      
78000010031 018 01860 4110101N13 Port Marly      0220000D386                0230140N13 Port Marly / D380220950001185001185000       000     00 599       23300              0        0        0        0        0        0        0        0        0        0        0        0               17 233001         16 233001         15 233001         14 233001         13 233001              0        0        0        0        0        0        0        0        0        0        0        0                                      
78010400031 018 01860 4110101D386 (N)            0230140D386 (S) (Louvecienn0250585N186_LOUVECIENNES   0250500002391002391000       000     00 196       21831  75      21478    21085    21875    21912    22421    22212        0        0        0        0        0        0               17 223041  787    16 212121  787    15 219641  787    14 217721  837    13 231391  847     21073    21618    22092    21935    22659    25198    21129    19371    23560    24037    23167    21886                                      
78000030031 018 01860 4110201D386                0250585A12                 0270815D386 / A12          0250900002228002228000       000     00 599       23300  58          0        0        0        0        0        0        0        0        0        0        0        0               17 233001  587    16 233001  587    15 233001  587    14 233001  587    13 233001  587         0        0        0        0        0        0        0        0        0        0        0        0                                      
78010500031 018 01910 4113001D7 (Dept 28)        0550000N10 - Ablis         0650707N191_ALLAINVILLE    0560300010180010180000       000     00 592       10058 161       8217     8775     9461    10204    10762    10531    10427    10492    10457    10385    10526    10456               17 109331 1597    16 102581 1597    15  99261 1767    14  99641 1627    13  97751 1627         0        0        0        0        0        0    12604    12700    10700    11130     9835     8629                                      
91050020031 018 00060 1110441Dép.94              0000000A126                0120690A6_WISSOUS          0090950004275004275000       000     00 7 2      119468 100     118603   118146   121654        0        0        0        0        0        0        0        0        0               171246191  927    161165661  987    151292501  967    141295841  927    131300051 1077    112122   119633   120346   123961   127407   129595   132747   129637   130035   128941   120510   120196                                      
91050040031 018 00060 1110441A126                0120690N445                0200515A6_VIRY             0190670007815007815000       000     00 5 1      167166  87     155369   151874   165543   173270   172738   164722   172929   165511   174971   174471   168513   166415               171653421  917    161597001  917    151596741  917    141677441  817    131653761  927         0        0        0        0        0        0        0   168046   169625   169789   162255   156995                                      
91000030031 018 00060 1110441D445                0200515N104 Ouest          0230910D445 / N104 Ouest   0210000003395003395000       000     00 599      133079         132664   132534   136585   138959   138310   135412   131424   128604   131364   133658        0   124354               171311521         161148001         151147551         141169701         131320731         110695   110700   137332   139646   135654   139385   139937   129174   135158   126160   137381   132604                                      
91050070031 018 00060 1110441N104 Ouest          0230910N104 Est            0270850A6_EVRY             0240450003933003933000       000     00 1 2      151436 115     141591   142540   148225   158471   152903   150752   155071   147103   150578   151958        0        0               171005631 1157    161056941  987    151030181  937    14 941241  997    13 932711 1027    100563   103338   105135   106615   111678        0        0        0        0        0        0        0                                      
91050110031 018 00060 1110441N104 Est            0270850N337                0340930A6_CORBEIL - SUD    0340158007084007084000       000     00 895       86836  98      77608    78794    86049    92912    91333    92364    93618    92190    87235    87154    80114    82656               17 840001 1007    16 825701 1007    15 830011  987    14 833641  977    13 816071  987     75436    81704    84564    84461    87746    91097    94711    87652    79412    79526    79940    81492                                      
91000060031 018 00060 1110441N337                0340930limite Dept 91/77   0380385N337 / limite Dept 90370000003440003440000       000     00 599       58800              0        0        0        0        0        0        0        0        0        0        0        0               17 588001 1517    16 588001 1517    15 588001 1517    14 588001 1517    13 588001 1517         0        0        0        0        0        0        0        0        0        0        0        0                                      
91000010031 018 0006b 1110441BP Porte Italie     0000000A10                 0090701BP Porte Italie / A10010000001280001280000       000     00 190      106798         104588   100356   107427   108650   106697   108298   112568   110658   108918   108099   101448   103257               171142031         161084681         151104201         141309841         131266161         109730   113651   113714   114426   111804   111695   116397   118037   116596   116057   115953   112393                                      
91000010031 018 00100 1110341D167                0000000A126 Est            0040700D137 / A126 Est     0020800004700004700000       000     00 188      141565              0   135544   143636   147714   145577   150029   139126   143582   140174   139688   136145   136003               171388441         161238171         151226841         141249021         131027031         118097   124454   142563   146551   142567   147119   149457   137236   140907   138299   140039        0                                      
91050180031 018 00100 1110441A126 Est            0040700A126 Ouest          0060470A10_CHAMPLAN        0040708001770001770000       000     001194      125102 112     117664   114942   121981   120227   135769   130078   134381   129387   128280   129776   119940   118801               171224861 1167    161225971 1147    151197091 1147    141046001 1147    131046001 1147    114351   117090   118984   118825   124042   129850   131522   129434   123463   121632   120617   119590                                      
91050140031 018 00100 1110241A126 Ouest          0060470N446                0131025A10_VILLEBON        0090130007555007555000       000     00 694       68346 132      60549    62526    67240    69711    69214    71564    73968    77440    70114    68583    64958    64281               17 641711 1317    16 762181  957    15 716391  977    14 649271 1007    13 690121 1477     66815    71110    71279    74948    62634    56345    66615    73968    57772    56088    53764    58937                                      
91050190031 018 01260 1113041A6                  0000000A10                 0020625A126_CHILLY         0010174002620002620000       000     00 598       37921  68      36089    36235    38931    38798    35507    39885    38102    34664    40771    39959    39189    36921               17 378041  777    16 327871  777    15 353051  777    14 337691  677    13 328911  697     35700    36902    37644    36788    38068    40445    37822    35751    40085    39843    38303    36355                                      
91000020031 018 01260 1113041A10 (D188)          0040000D36                 0061180A10 (D188) / D36    0040500003580003580000       000     00 198       15500  40          0        0        0        0        0        0        0        0        0        0        0        0               17 155001  407    16 155001  407    15 155041  407    14     01         13     01              0        0        0        0        0        0        0        0        0        0        0        0                                      
91000010031 018 00060 4110201Dép. 94             0000000D50 (Brunoy)        0050880N6 _BRUNOY          0040772005869005869000       000     001091       36790  62      36279    36249    36406    36048    37550    39498    37706    32048    37796    37516    36324    35882               17 360001  617    16 343711  617    15 359571  617    14 355161  587    13 352001  617         0        0        0        0        0        0        0        0        0        0        0        0                                      
91000020031 018 00060 4110201D50 (Brunoy)        0050880D33/D54 (Les Beausse0070300D50 (Brunoy) / D33  0070000001420001420000       000     001287       36800  45          0        0        0        0        0        0        0        0        0        0        0        0               17 368001  457    16 368001  457    15 368461  457    14 319001  817    13 319001  817         0        0        0        0        0        0        0        0        0        0        0        0                                      
91000030031 018 00060 4110301D33/D54 (Soisy sur s0070300D33 (Etiolles)      0090648D33 / D33           0080000002340002340000       000     001287       36800  45          0        0        0        0        0        0        0        0        0        0        0        0               17 368001  457    16 368001  457    15 368461  457    14 319001  817    13 319001  817         0        0        0        0        0        0        0        0        0        0        0        0                                      
91000040031 018 00060 4110201D33 (Etiolles)      0090648Dép. 77 (Le clos du 0111478D33 / Dép. 77 (Le cl0110500002833002833000       000     001287       34600  88          0        0        0        0        0        0        0        0        0        0        0        0               17 346001  887    16 278001         15 278001         14 278001         13 277581              0        0        0        0        0        0        0        0        0        0        0        0                                      
91000010031 018 00070 4110201Dép. 94             0020000Sud pistes Orly     0040410N7_Pistes d'Orly    0040053002330002330000       000     00 193       61276  45      58218    55123        0        0        0        0        0    70486        0        0        0        0               17 572001  497    16 584001  457    15 584001  457    14 584001  457    13 584001  457         0        0        0        0        0        0        0        0        0        0        0        0                                      
91000010031 018 00200 4110201LIAISON A10         0030000LIAISON RN20        0031270LIAISON A10 / RN20  0030000001270001270000       000     00 599      100700              0        0        0        0        0        0        0        0        0        0        0        0               171007001         161007601         151192691         141253111         13 995081              0        0        0        0        0        0        0        0        0        0        0        0                                      
91010030031 018 01040 4110251A5a                 0290000Villepecle D33      0310200N104_TIGERY         0300931002251002251000       000     001194       99119 152      97974    97666   101210    99626        0        0        0        0        0        0        0        0               171006021 1507    16 893001 1427    15 893001 1427    14 893331 1427    13 881931 1427     93942    97795    99927    99941   101263   107066   104366    92292   103682   105764        0        0                                      
91000020031 018 01040 4110201Villepecle D33      0310200N7                  0340950N104_Corbeil D33 / N0340000003654003654000       000     00 194      117640 115     104059   102221   105402   123290   121314   135284   133286   123549        0        0        0   110357               171203441 1157    161043161 1157    151039601 1157    141189001 1157    131189241 1157    107545   117142   117732   116441   124692   131916   126273   109273   114994   127809   127023   123189                                      
91000030031 018 01040 4110201N7                  0340950A6                  0370050N7 / A6             0360000002060002060000       000     00 194      110259         104918   105071   108767        0        0   107954   118032   104259   116355   118066   110735   108428               171108361         161171001         151041691         141066871         13 979501         104483   109422   112857   111424   114649   119749   112098   100585   112502   111198   113759   107311                                      
91010080031 018 01040 4110201A6                  0370050N449                0400640N104_EVRY           0391097003876003876000       000     00 1 2       94973 115          0    87992    96497    93096    91915   100852    97832    87149    98435    99965    98211    92763               17 511671 115     16 453451 135     15 402411         14 530491  997    13 425851 1527     48640    50732    52134    51780    53531    50916    52449    49156        0        0        0        0                                      
91010100031 018 01040 4110251N449                0400640D133                0480520N104_FLEURY         0430860008339008339000       000     001094       86454 151      82486    79558    87483    90573    89527    93151    90765    76468    90497    87860    85702    83382               17 874901 1437    16 815091 1437    15 845731 1437    14 838181 1417    13 836421 1407     81888    84626    87200    87354    89539    92296    89008    83437    90788    91512    87580    84637                                      
91010130031 018 01040 4110201D133                0480520N20                 0510000N104_LINAS          0500047003035003035000       000     00 595       61900 107          0        0        0        0        0        0        0        0        0        0        0        0               17 618891 1077    16 520341  957    15 582141 1167    14 668471 1207    13 700751 1267     49457    50728    53803    56461    59704    65858    73920    60867    74113    73982        0        0                                      
91010140031 018 01040 4110201N20                 0510000A10                 0590610MARCOUSSIS          0560466008610008610000       000     001094       61073 132      55842    51582    59275    63477    64620    71585    68211    54097    64303    64113    58617    57149               17 565951 1517    16 512941 1587    15 515651 1607    14 506441 1637    13 505751 1577     50329    52153    53421    52835    53794    56395    61225    56035    64401    65476    58763    54075                                      
91000140031 018 01180 4110201Dép.78              0000000N444                0020910N118_BIEVRES        0000527002856002856000       000     00 795       93148  64      91422    76979    94056    97157    94804    98751    97327    89236    95297    98073    92885    91794               17 951831  617    16 909441  617    15 913451  647    14 898911  647    13 883901  647     89537    91445    94653    93400    94908   100899    96830    92244    98844   100094    96420    92835                                      
91000160031 018 01180 4110201N444                0020910D128/N446           0090455N118_SACLAY         0070179006421006421000       000     001093       66129  67      59673    58442    64046    70197    67303    74367    73294    59107    70330    70149    65264    61378               17 649001  607    16 649461  607    15 637001  577    14 637001  577    13 637191  577         0        0        0        0        0        0        0        0        0        0        0        0                                      
91000230031 018 01180 4110201D128 / N446         0090455A10                 0150370N118_ULIS           0140895006045006045000       000     0012 3       54200  67          0        0        0        0        0        0        0        0        0        0        0        0               17 541871  677    16 474941  517    15 490501  527    14 458671  477    13 523431  507     45326    48923    51401    50476    52222    62696    64744    57709        0        0        0        0                                      
91000250031 018 01880 4113001A10                 0040000D988                0050295N188_VILLEBON       0040319001150001150000       000     00 894       10700  18          0        0        0        0        0        0        0        0        0        0        0        0               17 107001  187    16 107001  187    15 107001  187    14 107001  187    13 107001  187         0        0        0        0        0        0        0        0        0        0        0        0                                      
91000010031 018 03060 4110201D906                0000000D533                0000940D906 / D533         0000570004257004257000       000     00 194       38900              0        0        0        0        0        0        0        0        0        0        0        0               17 389001         16 388751         15 359641         14 370001         13 362241              0        0        0        0        0        0        0        0        0        0        0        0                                      
91000010031 018 03370 4110101A6                  0000000N7 Le Coudray-Montce0010000A6 / N7 Le Coudray-M0010000001000001000000       000     00 194           0              0        0        0        0        0        0        0        0        0        0        0        0               17     01         16     01         15     01         14     01         13     01              0        0        0        0        0        0        0        0        0        0        0        0                                      
91000020031 018 03370 4110101N7 Le Coudray-Montce0010000D607                0011035N7 Le Coudray-Montce0010500001030001030000       000     00 194           0              0        0        0        0        0        0        0        0        0        0        0        0               17     01         16     01         15     01         14     01         13     01              0        0        0        0        0        0        0        0        0        0        0        0                                      
91000010031 018 04400 4110241jonction A6         0000000N104                0011020jonction A6 / N104  0010700002020002020000       000     00 194        4129           4210     4334        0        0        0        0        0        0        0        0        0     3843               17  47281         16  42001         15  41691         14  43681         13  43441           4100     4400     4670     5131     4999     4800     4700     4600     5670     4731     4700     4237                                      
91000010031 018 04410 4110241jonction A6         0000000N104                0001000jonction A6 / N104  0000615001000001000000       000     00 194       28145              0        0        0        0        0    30304        0    25985        0        0        0        0               17 253001         16 253001         15 253321         14 254001         13 253761              0        0        0        0        0        0        0        0        0        0        0        0                                      
91000010031 018 04460 4110251bre sortie N104     0280000bre sortie N104     0280550bre sortie N104 / br0280070000550000550000       000     00 113       15849          15878    15345    15400    16305    15899    16963    17000    14673    15606    16218    15572    15325               17 165801         16  95421         15  82091         14  87541         13  87041              0        0    18833    18740    18031    17377    15500    13936    16223    15753    15700    15705                                      
91000010031 018 04490 4110251bre sortie N104     0000000bre sortie N104     0001450bre sortie N104 / br0000400001450001450000       000     00 113           0              0        0        0        0        0        0        0        0        0        0        0        0               17     01         16     01         15     01         14     01         13     01              0        0        0        0        0        0        0        0        0        0        0        0                                      
75000010031 018 00130 1110031A13 Paris           0000000A13 Paris           0001185A13 Paris / A13 Pari0000860001180001180000       000     00 194       76110          76286    73093    78774    80433    78042    82286    77901    70060    76938    77855    68430    73220               17 851001         16 851001         15 851061         14 962871         131059001              0        0        0        0        0        0        0        0        0        0        0        0                                      
92000010031 018 00130 1110441A13 Paris (BP Pte Ma0000000D182 (Vaucresson dep0080809A13_ST CLOUD        0040300008870008870000       000     00 194      138614  43     135268   135038   141108   143042        0        0        0        0        0        0        0        0               171385001         161385311         151366601         141407691         131379891              0        0        0        0        0        0        0        0        0        0        0        0                                      
92000010031 018 00860 1110641A14                 0000000A15                 0080700A14 / A15           0050870008660008660000       000     00 2 2       99832         101455    98237   102549   102009   106454   103579    97569    92912   100672    98823    94954    98772               17 812091         16 805561         15 830371         14 850681         13 843421          77976    80296    81082    81884    78991    82005    82230    78835    74478    86930    88452    81354                                      
92000020031 018 00860 1110441A15                 0080700Dépt 93             0110860A15 / Dépt 93       0100000003369003369000       000     00 1 2      154623         154681   154947   158003   156370   153448   165465   161107   135873   157650   159265   148719   149949               171531871         161392641         151459801         141598111         131585561         153774   157839   159729   166867   163986   153077   153876   139261   132801   142338   155717   158977                                      
92000030031 018 00860 1110241A86 (Croix de Berny)0520000N385                0521745A86 (Croix de Berny)0520000001740001740000       000     00 1 2       86500          90858    83953    88904    96499    90440    85657    82843    80575    90792    87441    84870    75171               17 910471         16 784561         15 791571         14 736411         13 757191          86056    87342    88339    87569    88409   104482    83698    80889    98249    98710    96795    92410                                      
92000040031 018 00860 1110241N13                 0750100A14                 0800380N13 / A14           0760000005230005230000       000     00 1 2           0              0        0        0        0        0        0        0        0        0        0        0        0               17     01         16     01         15     01         14     01         13     01              0        0        0        0        0        0        0        0        0        0        0        0                                      
92000010031 018 00130 4110401Paris               0000000D7                  0091403N13_NEUILLY         0080550004570004570000       000     00 5 4      115550  38     115879   115553   115682   115073   116051   115519   115224   116108   114851   115879   115919   114863               171160001  39     161311681         151319491         141388461         131253661              0        0        0        0        0        0        0        0        0        0        0        0                                      
92000010031 018 01180 4110501RN 10 Pont de Sévres0000000LIMITE DEP 78       0041124N118_MEUDON         0040123005160005160000       000     00 188       98393  41      94919    96418    98278    98391    99514   106927   103995    88579    97017    99713    99377    97588               17 977081         16 862961         15 956901         14 968491         13 976701              0    97248    98599    97853    98574   108055   102021    81105    89676   102836   101573    97250                                      
92000010031 018 01920 4117001N192                0000000bd circulaire       0010073N192 / bd circulaire0010000000820000820000       000     00 5 4       14600              0        0        0        0        0        0        0        0        0        0        0        0               17 146001         16 146001         15 145801         14 235831         13 119651              0        0        0        0        0        0        0        0        0        0        0        0                                      
92000010031 018 03140 4110201Bd circul.          0000000bd des bouvets      0000415Bd circul. / bd des 0000400001541001541000       000     00 188       11200              0        0        0        0        0        0        0        0        0        0        0        0               17 112001         16 112001         15 154001         14 154591         13 119651              0        0        0        0        0        0        0        0        0        0        0        0                                      
92000010031 018 03150 4110601D9                  0010000A15                 0030950D9 / A15            0020100002680002680000       000     00 699       49820          51107    45680    50826    51143    47902    51973    51702    42827    52721    53546    50449    47783               17 475841         16 500221         15 451661         14 526351         13 512591          48368    49559    47643    47657    48519    48821    46461    39919    47476    51927    44192    50580                                      
92000010031 018 00150 1110641A15                 0000000limite gestion Dept 0050900A15 / limite gestion0050000001950001950000       000     00 2 2      138900              0        0        0        0        0        0        0        0        0        0        0        0               171388661         161395331         151360461         141458281         131414601         132734   136330   139095   139780   144059        0        0        0        0        0   138680   141381                                      
92000010031 018 03850 4110201N385 (A86 Antony)   0530000N118                0581190N385 (A86 Antony) / 0570000005940005940000       000     00 188       89500              0        0        0        0        0        0        0        0        0        0        0        0               17 895001         16 895001         15 894601         14 860501         13 882021              0        0        0        0        0        0        0        0        0        0        0        0                                      
92000010031 018 10130 4110201N1014               0000000Brd circul.         0000911N1014 / Brd circul. 0000300000910000910000       000     00 5 4           0              0        0        0        0        0        0        0        0        0        0        0        0               17     01         16     01         15     01         14     01         13     01              0        0        0        0        0        0        0        0        0        0        0        0                                      
92000010031 018 10140 4110401N1014 (Pt Neuilly)  0000000N1013               0000642N1014 (Pt Neuilly) /0000300000642000642000       000     00 5 4           0              0        0        0        0        0        0        0        0        0        0        0        0               17     01         16     01         15     01         14     01         13     01              0        0        0        0        0        0        0        0        0        0        0        0                                      
92000020031 018 10140 4110601N1014 = N1013       0000642N314                0010360N1014 = N1013 / N3140010300000757000757000       000     00 699           0              0        0        0        0        0        0        0        0        0        0        0        0               17     01         16     01         15     01         14     01         13     01              0        0        0        0        0        0        0        0        0        0        0        0                                      
92000010031 018 00140 1110641A14 = N1014         0000000A86                 0030970A14_NANTERRE        0030900002610002610000       000     00 699       83548          83689    80413    86013    86038    82970    90399    85539    68231    87015    88565    82640    81061               17 867371         16 982731         15 966371         141019781         131032061          83792    87274    89996    86532    85927    91649    88325    73111    89950    89783    89673    84829                                      
92000020031 018 00140 1110641A14 = A86           0030970limite concession   0040550A14 = A86 / limite c0040500000803000803000       000     00 699           0              0        0        0        0        0        0        0        0        0        0        0        0               17     01         16     01         15     01         14     01         13     01              0        0        0        0        0        0        0        0        0        0        0        0                                      
93050030031 018 00010 1150441BP Pte Chapelle     0000000N301                0040900A1_SAINT DENIS      0030800004887004887000       000     00 889      180631              0        0        0        0        0        0        0        0        0        0        0        0               171806311         161783601         151748901         141827911         131951001         172518   177419   181398   184780   182922   184169   183553   180968   183360   181314   180298   174885                                      
93000020031 018 00010 1150441N301                0040900A86                 0060900N301 / A86          0060400002017002017000       000     00 889      123200              0        0        0        0        0        0        0        0        0        0        0        0               171232001         161232001         151232001         141232001         131232001              0        0        0        0        0        0        0        0        0        0        0        0                                      
93000030031 018 00010 1150441A86                 0060900N2                  0080700A86 / N2            0070500001801001801000       000     00 889      179896         169568   172280   177440   185670   179379   181964   183357   179272   189180   181402   183371   175866               171691001         161691001         151690681         141729391         131703001              0        0        0        0        0        0        0        0        0        0        0        0                                      
93050050031 018 00010 1150441N2                  0080700A3                  0110513A1_BLANCMESNIL      0100200002817002817000       000     00 889      185162  50          0        0        0        0        0        0        0        0        0        0        0        0               171851621  50     161775001  50     151775001  50     141775001  50     131775001  50     169490   177974   184556   190258   189247   189119   191407   189142   189305   191813   184983   174646                                      
93000050031 018 00010 1150441A3                  0110513A104                0130401A3 / A104           0120000001880001880000       000     00 889      122500              0        0        0        0        0        0        0        0        0        0        0        0               171225001         161225001         151225001         141225001         131225001              0        0        0        0        0        0        0        0        0        0        0        0                                      
93000010031 018 00030 1150531BP Pte Bagnolet     0000000A86                 0050850BP Pte Bagnolet / A80040000005533005533000       000     00 889      137503         133411   139293   125930   133209   125821   127778   144737   143801   149315   145853   139221   141665               171415191         161573491         151648001         141647831         131638001         138433   144605        0        0        0        0        0        0        0        0        0        0                                      
93000020031 018 00030 1150531TC 5+0850 (A3) - 24+0050850TC 7+0300 (A3) - 25+0070300TC A3-A86 / TC A3-A80060500001360001360000       000     00 889      118500              0        0        0        0        0        0        0        0        0        0        0        0               171185001         161185001         151185001         141185001         131185001              0        0        0        0        0        0        0        0        0        0        0        0                                      
93050130031 018 00030 1150431N3                  0070300A1 (Garonor)        0150234A3_BLANCMESNIL      0120006008167008167000       000     00 889      169954 112          0        0        0        0        0        0        0        0        0        0        0        0               171699541 112     161666581 112     151664001 112     141664001 112     131664001 112     157771   166063   167216   173954   170959   175838   182369   174057   173013   169788   165608   162817                                      
93000010031 018 00160 1150431D64                 0000000L'Isle-Adam         0011059D64 / L'Isle-Adam   0000100002080002080000       000     001115           0              0        0        0        0        0        0        0        0        0        0        0        0               17     01         16     01         15     01         14     01         13     01              0        0        0        0        0        0        0        0        0        0        0        0                                      
93000010031 018 00860 1150231Dépt 92             0120000D30 (St Denis)      0140200Dépt 92 / D30 (St De0160000002200002200000       000     00 889      118700              0        0        0        0        0        0        0        0        0        0        0        0               171187001         161187001         151187001         141187001         131187001              0        0        0        0        0        0        0        0        0        0        0        0                                      
93000020031 018 00860 1110041D30                 0140200D27                 0150500D30 / D27           0150200001278001278000       000     001115           0              0        0        0        0        0        0        0        0        0        0        0        0               17     01         16     01         15     01         14     01         13     01              0        0        0        0        0        0        0        0        0        0        0        0                                      
93000030031 018 00860 1110041D27                 0150500A3                  0240041D27 / A3            0160600008339008339000       000     001115      134176         125426   134521   135518   133156   128270   141456   135200   136399   133580   136209   136200        0               171456531         161333081         15     01         14     01         13     01              0        0        0   128721   138950   149313   146314   145452   149406   155750   151321        0                                      
93000040031 018 00860 1110041A3                  0250000dept94              0281153A86_ROSNY S/BOIS    0280050003210003210000       000     001115      126280              0        0        0        0        0        0        0        0        0        0        0        0               171262801         161287331         151228531         141206511         131144841         124709   126927   129130   131682   128130   126843   128832   111988   126291   129748   126866   124486                                      
93000010031 018 01030 1150231A3                  0000000N302                0011187A3 / N302           0000400001960001960000       000     00 889       47600              0        0        0        0        0        0        0        0        0        0        0        0               17 476001         16 476001         15 476001         14 476001         13 476001              0        0        0        0        0        0        0        0        0        0        0        0                                      
93000010031 018 01040 1150231A1                  0000000N2 dans Dept 77     0070078A1 / N2 dans Dept 770040600007070007070000       000     00 794      128719              0        0        0        0   115953   136296   130998   121857   135808   137632   128181   123028               171240261         161112001         151112001         141112001         131112001         111471   120006   114875   120464   124800   129035   129000   122438   130049   133099   130924   122153                                      
93000010031 018 00860 1110041BDL A1              0170100BDL A86             0180200BDL A1 / BDL A86    0170400001912001912000       000     001115           0              0        0        0        0        0        0        0        0        0        0        0        0               17     01         16     01         15     01         14     01         13     01              0        0        0        0        0        0        0        0        0        0        0        0                                      
93000010031 018 00020 4150201N330                0180000Dept 60             0190143N330 / Dept 60      0180000000990000990000       000     001115           0              0        0        0        0        0        0        0        0        0        0        0        0               17     01         16     01         15     01         14     01         13     01              0        0        0        0        0        0        0        0        0        0        0        0                                      
93000010031 018 01860 1110231A1 - N1             0040000N301                0040900N1 - A1 / N301      0040200000470000470000       000     001115           0              0        0        0        0        0        0        0        0        0        0        0        0               17     01         16     01         15     01         14     01         13     01              0        0        0        0        0        0        0        0        0        0        0        0                                      
94050030031 018 00040 1150641Paris               0000000A86 Sud             0040820A4_SAINT MAURICE    0030050004843004843000       000     001287      205891         199012   199000   202884   202632   209523   210377   215817   198608   208459   201500   211160   211720               172042001         162041861         152282001         142282001         132282001              0        0        0        0        0        0        0        0        0        0        0        0                                      
94050040031 018 00040 1150641A86 Sud             0040820A86 Nord            0070720A4_JOINVILLE        0060050002924002924000       000     001287      226204  81     217797   216656   227355   233069   233307   240829   239424   207915   227596   229231   220767   220506               172313311  817    162376621  817    152170671  817    142167751  817    132202071  817         0        0   240401   241878   233499   232628   233467   211362   233617   232859   229946   223657                                      
94050070031 018 00040 1150641A86 Nord            0070720Concession SANEF    0120700A4_CHAMPIGNY        0100246005012005012000       000     001287      158586         156362   151265   161530   169342   165557   170202   161471   143204   157420   157376   150827   158472               171304931         161521021         151622001         141622001         131622001         134004   140292   140340   142190   120831   115824   116808   105406   129034   144237   138923   139101                                      
94050130031 018 0006a 1150441Paris               0000000A106                0050213A6a_ARCUEIL         0000850005257005257000       000     00 193      113934  44     108816   110240   114097   121679   120242   122189   119908   103893   119452   110219   108657   107816               171196941  447    161199751  447    151210001  447    141210001  447    131209651  447    116875   116900   121051   112052   125620   127535   125959   110505   121855   121093   117191        0                                      
94000020031 018 0006a 1150441A106                0050214Dépt 91             0080414A106 / Dépt 91      0070500003210003210000       000     00 193      120500              0        0        0        0        0        0        0        0        0        0        0        0               171205001         161205001         151205001         141205001         131205001              0        0        0        0        0        0        0        0        0        0        0        0                                      
94050170031 018 0006b 1150241Paris               0000000A106                0050523A6b_ARCUEIL         0010861005535005535000       000     00 193      114967  37     113269   109091   116146   117681   115852   116619   121150   117171   116534   116364   109098   110071               171086171  377    161087271  377    151129001  377    141129001  377    131129001  377    108578   113105   112650   113136   110604    75075    99839   116638   114725   114306   113279   111316                                      
94000020031 018 0006b 1150441A106                0050524N186                0080414A106 / N186         0070200003100003100000       000     00 193      143509         146677   144354   145969   150769   149833   150822   153364   142822   145732   147448   130906   113409               171511241         16 992911         151645601         141626121         131678001         145458   153854   156559   161576   154821   158069   158585   120868   152951   157032   149848   144709                                      
94000010031 018 00860 1110041limite Dept 93/94   0290000A4                  0330109limite Dept 93/94 / 0290000004639004639000       000     00 194      128467         127678   124211   130668   133281   132297   136536   130072   102845   132834   132758   129408   129016               171283301         161279141         151274571         141248901         131111441         124392   127709   131573   133891   129672   128305   133653   115211   130930   131287   128934   124397                                      
94000020031 018 00860 1110041A4                  0350000N6                  0400911A4 / N6             0370100006381006381000       000     00 194      170922         170579   164732   173469   178306   175631   179122   177870   162036   171209   170579   158919   168608               171710231         161726371         151657941         141704741         131660811         168595   174271   179987   178986   173479   169738   174660   158595   170446   173150   162422   168183                                      
94000030031 018 00860 1110041N6                  0400912N186                0470245N6 / N186           0450000006557006557000       000     00 194      118670         119308   124045   133239   135819   134549   139670   111798   103330   104997   105100   105844   106335               171446231         161407251         151436971         141394281         131382751         145028   149018   152159   151852   147046   142690        0   134858   148183   152578   148260   146550                                      
94000040031 018 00860 1150241A6 B                0500000Dépt 92 (D86)       0511094A6 B / Dépt 92 (D86)0500800002090002090000       000     00 194       95682          91667    86988    90764    94025    93155    95597   100646    87391   103753   105882   100949    97367               17 849701         16 829621         15 761271  467    14 793291  687    13 959731  687         0        0    87952    85440    85908    88539    85359    73654    86780    86124        0        0                                      
94000010031 018 01060 1110031A6 A / A6 B (D160)  0050300Dépt 91 (D167A)     0080700A6 A / A6 B (D160) /0060600003507003507000       000     00 193       60000              0        0        0        0        0        0        0        0        0        0        0        0               17 600071         16 592371         15 572621         14 579741         13 579741              0        0        0    62902    65747    67557    43823        0        0        0        0        0                                      
94000010031 018 00060 4156001(A86) Ech D6/D86    0120495D110                0150393(A86)Ech D6/D86 / D10140285002898002898000       000     00 193       50700  71          0        0        0        0        0        0        0        0        0        0        0        0               17 507001  717    16 507001  717    15 507001  717    14 507001  717    13 507001  717         0        0        0        0        0        0        0        0        0        0        0        0                                      
94000020031 018 00060 4156001D110                0150394Dept 91             0190379N6_VILLENEUVE       0190100003985003985000       000     00 1 7       33418  66      32141    32239    31884    32473    31993    34122    32875    34995    31204    31634    31588    43868               17 357261  617    16 347111  627    15 349281  587    14 377391  477    13 344791  517     32518    33247    35185    36349    36362    37402    35002    35896    40214    37739    35510    33261                                      
94000010031 018 00190 4110001N406                0150607D253 (Villecresnes) 0200200N19_BOISSY ST LEGER 0190100005200005200000       000     00 612       36600  57          0        0        0        0        0        0        0        0        0        0        0        0               17 366001  577    16 366001  577    15 365541  577    14 357321  647    13 350071  647         0        0        0        0        0        0        0        0        0        0        0        0                                      
94000020031 018 00190 4110001D253 (Villecresnes) 0200201D261 (Santeny)      0240403D253 (Villecresnes) 0220000004200004200000       000     001115       32700  61          0        0        0        0        0        0        0        0        0        0        0        0               17 327001  617    16 327001  617    15 327001  617    14 327001  617    13 327001  617         0        0        0        0        0        0        0        0        0        0        0        0                                      
94000010031 018 01860 411000147 + 246 de A86     0000000D7 (48 + 000 de N1860000161A86 / D7            0470500000740000740000       000     00 193       88243              0        0        0        0        0        0    90413    86985    90550    89563    86125    85822               17 998411         16 982581         15     01         14     01         13     01          94825    96019    99307    97505   100123   100020   100000   100533   102107   103852   104023    99777                                      
94000020031 018 01860 4110001D7 (48 + 000 de N1860480000D265 (49 + 995 de N10490995N186_RUNGIS         0480400002799002799000       000     00 394       69600  58          0        0        0        0        0        0        0        0        0        0        0        0               17 695951  58     16 668791  54     15 659391  54     14 654451  53     13 636261          65597    66666    68149    69047    70456    73886    72347    68327    72333    71594    69383    67276                                      
94007340031 018 04060 4140301Bretelle A86        0000000N19                 0051002N406_BONNEUIL       0050500006038006038000       000     00 796       70492  90      67759    67612    67775    67345    67779    78376    73666    66539    73426    73436    73543    72716               17 856091         16 781381         15 566531         14 804001         13 804001          84770    87601    89937    87588    86567    88895    77430    76138    87048    90230    87307    83794                                      
94000010031 018 04860 4152051D145                0000000Pt de Nogent        0000605D145 / Pt de Nogent 0000500000600000600000       000     001287           0              0        0        0        0        0        0        0        0        0        0        0        0               17     01         16     01         15     01         14     01         13     01              0        0        0        0        0        0        0        0        0        0        0        0                                      
95000010031 018 00010 1150441D370 / Jonction A3/A0140000Concession Roissy CD0180930D370 / Jonction A3/A0170300005520005520000       000     00 6 7       98800              0        0        0        0        0        0        0        0        0        0        0        0               17 988001         16 988001         15 988001         14 984001         13 960001              0        0        0        0        0        0        0        0        0        0        0        0                                      
95000010031 018 00030 1150431D170 / Patte d'Oie G0150225D88 / Vaud'herlan Dé0180615D170 / Patte d'Oie G0170400003400003400000       000     00 6 7       98722         100540   101446   105114    96897    91938   102533   106200   103011   104933    96971    90112    84966               17 889791         16 882721         151059001         141361001         131361001          82508    86783    86777    90031    81807    93982   103332    93313    92010    88773    83358    84975                                      
95050030031 018 00150 1110641Dept 92             0060000A115                0100715A15_SANNOIS         0090300004838004838000       000     00 392      198400  51          0        0        0        0        0        0        0        0        0        0        0        0               171984001  51     161983721  51     151902211         141935981         131892001              0        0        0        0        0        0        0        0        0        0        0        0                                      
95000020031 018 00150 1110441A115                0100716RD192               0150000A115 / RD192        0110400001286001286000       000     00 195      118900              0        0        0        0        0        0        0        0        0        0        0        0               171189001         161189141         151202411         141160551         131172001              0        0        0        0        0        0        0        0        0        0        0        0                                      
95050060031 018 00150 1140441RD192               0150001RN184               0210950A15_PIERRELAYE      0180100006959006959000       000     001092      114000  50          0        0        0        0        0        0        0        0        0        0        0        0               171140001  507    161140001  507    151140161  507    141177111         131084101              0        0        0        0        0        0        0        0        0        0        0        0                                      
95050090031 018 00150 1140241RN184               0210951Ech10               0241000A15_ERAGNY          0220550003051003051000       000     001193      146195  50          0        0        0        0        0        0        0        0        0        0        0        0               171461951  507    161461951  507    151450531  507    141622331  487    131607671  497         0        0        0        0        0        0        0        0        0        0        0        0                                      
95050150031 018 01150 1150241A15                 0000000RD506               0030000A115_SANNOIS        0000750002997002997000       000     00 494       72000  27          0        0        0        0        0        0        0        0        0        0        0        0               17 720001  277    16 720001  277    15 720001  277    14 720001  277    13 720001  277         0        0        0        0        0        0        0        0        0        0        0        0                                      
95050180031 018 01150 1140141RD506               0030001RD407               0060450A115_SAINT-LEU-LA-F 0040550003457003457000       000     00 992       64133  47          0        0        0        0        0        0        0        0        0        0        0        0               17 641331  477    16 636001  477    15 636001  477    14 636051  477    13 622361  477     62013    62692    65090    64908    64232    66845    61985    62000    65286    65933    64629    63987                                      
95000030031 018 01150 1110031D407                0060450INTER N184 MERY/OISE0110572D407 / INTER N184 ME0110572005120005120000       000     00 194       60500              0        0        0        0        0        0        0        0        0        0        0        0               17 605001         16 605221         15 556871         14 597251         13 562521              0        0        0        0        0        0        0        0        0        0        0        0                                      
95000040031 018 00010 4127001Croix verte         0100000RD78                0130400N1 _MAFFLIERS       0120100003400003400000       000     00 913       22489  70      29633    27950    25918    24395    18933    18395    18889    20588    20105    21017    21749    22299               17 273031  28     16 261001  53     15 261321  53     14 313771  63     13 326011              0        0        0        0        0    26736    25497    25269    26632    28247    29234    29508                                      
95000020031 018 00010 4110001RD78                0130401D64E Presles - A16  0170355RD78 / D64E Presles 0140000003963003963000       000     001115           0              0        0        0        0        0        0        0        0        0        0        0        0               17     01         16     01         15     01         14     01         13     01              0        0        0        0        0        0        0        0        0        0        0        0                                      
95000240031 018 00140 4140101Ech10               0200000RD28                0240840N14_OSNY            0220300005640005640000       000     00 911       56595  41      66315    62229    60488    57062    56686    60710    59523    45666    57455    56716    52602    43682               17 577301  437    16 733001  617    15 733001  617    14 732661  617    13 743051  617         0    65259    62960    59460    58584    60592    54194    39255    58259    57345    55332    64601                                      
95031150031 018 01040 4140101N184                0000000N1                  0080000N104_BAILLET EN Fran0040700010000010000000       000     00 199       42100 109          0        0        0        0        0        0        0        0        0        0        0        0               17 421001 1097    16 421001 1097    15 421001 1097    14 421191 1097    13 425301 1097         0        0        0        0        0        0        0        0        0        0        0        0                                      
95031160031 018 01040 4140101N1                  0080000Mareil en France    0140000N104_ATTAINVILLE    0090630006000006000000       000     00 199       48100 108          0        0        0        0        0        0        0        0        0        0        0        0               17 481001 1087    16 481001 1087    15 481001 1087    14 481161 1087    13 476841 1087         0        0        0        0        0        0        0        0        0        0        0        0                                      
95031170031 018 01040 4140101Mareil en France    0140000Louvres             0220000N104_LOUVRES        0200700008000008000000       000     00 7 1       48600 119          0        0        0        0        0        0        0        0        0        0        0        0               17 486001 1197    16 486001 1197    15 486001 1197    14 486001 1197    13 486291 1197         0        0        0        0        0        0        0        0        0        0        0        0                                      
95031180031 018 01040 4140101Louvres             0220000Limite réseau       0240870N104_ROISSY EN Franc0230700002870002870000       000     00 1 5       34731 142      34624    34973    38007    36353    33630    35786    35348    31927    33072    33501    34815        0               17 344971 1327    16 381601 1217    15 381601 1217    14 381601 1217    13 381581 1217         0        0        0        0        0    37555    34679    31765    34231    33549    35150    34550                                      
95000510031 018 01840 4140101Dept78              0000000A15                 0020700N184_ERAGNY/OISE    0010250002687002687000       000     00 796       45000  63          0        0        0        0        0        0        0        0        0        0        0        0               17 450001  637    16 450001  637    15 450001  637    14 450001  637    13 450001  637         0        0        0        0        0        0        0        0        0        0        0        0                                      
95000520031 018 01840 4140101A15                 0020701GROS CHEVAUX        0060000N184_ST OUEN L'AUMON0030500003351003351000       000     00 197       64100  96          0        0        0        0        0        0        0        0        0        0        0        0               17 641001  967    16 602851  967    15 716001  877    14 716031  877    13 707801  857     57865    64203    64826    60166    61462    66725    65249    65200    67346    66205    65850        0                                      
95000540031 018 01840 4140201GROS CHEVAUX        0060001RD44                0110720N184_MERY SUR OISE  0080100005745005745000       000     00 993       53900  97          0        0        0        0        0        0        0        0        0        0        0        0               17 539001  977    16 539001  977    15 539001  977    14 539001  977    13 539001  977         0        0        0        0        0        0        0        0        0        0        0        0                                      
95000560031 018 01840 4120101RD44                0110721A16                 0190085N184_NERVILLE LA FOR0160800007410007410000       000     00 198       45600  67          0        0        0        0        0        0        0        0        0        0        0        0               17 456001  677    16 456001  677    15 456001  677    14 456001  677    13 456161  677         0        0        0        0        0        0        0        0        0        0        0        0                                      
